:100000000C9462000C947F000C947F000C947F0091
:100010000C947F000C947F000C947F000C94F303ED
:100020000C947F000C947F000C947F000C947F0054
:100030000C947F000C947F000C947F000C947F0044
:100040000C94A9030C947F000C947F000C947F0007
:100050000C947F000C947F000C947F000C947F0024
:100060000C947F000C947F00000000002400270007
:100070002A000000000023002600290000000008DC
:10008000000201000003040700000000000000005F
:10009000010204081020408001020408102001021F
:1000A0000408102000000000250028002B00040494
:1000B0000404040404040202020202020303030310
:1000C0000303020011241FBECFEFD8E0DEBFCDBF77
:1000D00011E0A0E0B1E0EAE4FBE002C005900D927F
:1000E000A230B107D9F721E0A2E0B1E001C01D9232
:1000F000A832B207E1F70E944F040C94A3050C94B8
:100100000000833081F028F4813099F08230A1F032
:1001100008958730A9F08830B9F08430D1F4809107
:1001200080008F7D03C0809180008F778093800056
:10013000089584B58F7702C084B58F7D84BD0895FE
:100140008091B0008F7703C08091B0008F7D809345
:10015000B0000895CF93DF93282F30E0F901E458E1
:10016000FF4F8491F901E057FF4FD491F901E25517
:10017000FF4FC491CC2391F081110E948100EC2F9C
:10018000F0E0EE0FFF1FEE58FF4FA591B491EC91F8
:10019000ED2381E090E021F480E002C080E090E077
:1001A000DF91CF9108951F93CF93DF93282F30E0F5
:1001B000F901E458FF4F8491F901E057FF4FD491C2
:1001C000F901E255FF4FC491CC23C1F0162F8111E4
:1001D0000E948100EC2FF0E0EE0FFF1FEC55FF4F67
:1001E000A591B4919FB7F894111104C08C91D0954A
:1001F000D82302C0EC91DE2BDC939FBFDF91CF911F
:100200001F910895CF93DF9390E0FC01E057FF4FDB
:100210002491FC01E255FF4F8491882361F190E025
:10022000880F991FFC01E859FF4FC591D491FC013B
:10023000EC55FF4FA591B491611109C09FB7F89497
:100240008881209582238883EC912E230BC0623015
:1002500061F49FB7F8948881322F30958323888387
:10026000EC912E2B2C939FBF06C08FB7F894E8819A
:100270002E2B28838FBFDF91CF9108954F925F92ED
:100280006F927F928F929F92AF92BF92CF92DF92A6
:10029000EF92FF921F93CF93DF93EC0180910001C7
:1002A000853021F08F3F09F00AC204C0E2ECF0E093
:1002B00014916FC085E080930001E2ECF0E01491AE
:1002C0001F3F09F4FCC1113009F440C030F1123075
:1002D00009F05FC01092B0001092B1008091B000A0
:1002E00082608093B0008091B10081608093B10002
:1002F000E3EBF0E0E491F0E0EE0FFF1FEC55FF4F71
:10030000859194919093190180931801E5E9F0E0AB
:10031000E491E093170112E0CDC114BC15BC84B583
:10032000826084BD85B5816085BDE3EBF0E0E4913A
:10033000F0E0EE0FFF1FEC55FF4F85919491E5E93A
:10034000F0E0E491E0931B0110E0B4C11092800052
:10035000109281008091810088608093810080915B
:100360008100816080938100E3EBF0E0E491F0E0B4
:10037000EE0FFF1FEC55FF4F85919491E5E9F0E0FA
:10038000E491E0931A0161E085E00E94020111E02E
:10039000B1C017FD94C161E085E00E940201812F88
:1003A0008D7F09F0A7C04E01A12CB12C60E072E155
:1003B0008AE790E0A50194010E94750529013A01A0
:1003C00069017A0121E0C21AD108E108F1088FEF32
:1003D000C816D104E104F10409F008F44BC060E44C
:1003E00072E48FE090E0A50194010E947505690117
:1003F0007A0181E0C81AD108E108F108123001F54C
:100400002FEFC216D104E104F10409F008F4EAC0A8
:1004100060E970ED83E090E0A50194010E9475050C
:1004200069017A0181E0C81AD108E108F1082FEFCB
:10043000C216D104E104F10409F030F583E053C0A1
:100440008FEFC816D104E104F104B1F0A8F068E41C
:1004500078EE81E090E0A50194010E9475056901A4
:100460007A0181E0C81AD108E108F108112309F4E2
:10047000EEC0E4C081E001C082E0111134C095B546
:10048000987F892B85BD68C068E478EE81E090E0B4
:10049000A50194010E94750569017A0181E0C81ADD
:1004A000D108E108F1082FEFC216D104E104F104EC
:1004B00009F008F495C064E274EF80E090E0A501D3
:1004C00094010E94750569017A0181E0C81AD1087A
:1004D000E108F1082FEFC216D104E104F10411F094
:1004E00008F082C085E09091B100987F892B8093BD
:1004F000B10032C04E01A12CB12C60E072E18AE75C
:1005000090E0A50194010E94750569017A0181E0DE
:10051000C81AD108E108F108C114D10421E0E206AB
:10052000F10488F068E478EE81E090E0A5019401A0
:100530000E94750569017A0181E0C81AD108E108B5
:10054000F10883E001C081E0113031F49091810025
:10055000987F892B809381009E01220F331FAAEF81
:10056000B0E00E94940528EE33E040E050E00E94A5
:100570005305113099F0123019F11111A0C0C7BC08
:1005800020932401309325014093260150932701A5
:1005900080916E00826080936E0091C0D09289003D
:1005A000C0928800209320013093210140932201C2
:1005B0005093230180916F00826080936F007FC011
:1005C000C092B30020931C0130931D0140931E0183
:1005D00050931F01809170008260809370006FC003
:1005E00084E081CF82E07FCF62E17AE780E090E033
:1005F000A50194010E94750569017A0181E0C81A7C
:10060000D108E108F1088FEFC816D104E104F10424
:1006100099F090F0D301C2012AE0B595A79597957E
:1006200087952A95D1F76C017D0121E0C21AD10886
:10063000E108F10887E057CF86E055CF2FEFC216CB
:10064000D104E104F10409F078F684E016CF8FEFCD
:10065000C816D104E104F10459F150F162E17AE7DE
:1006600080E090E0A50194010E94750569017A017E
:1006700081E0C81AD108E108F1082FEFC216D104B1
:10068000E104F10499F090F0D301C2013AE0B5958C
:10069000A795979587953A95D1F76C017D0121E053
:1006A000C21AD108E108F10885E0E9CE84E0E7CE7E
:1006B00083E0E5CE61E085E00E94020174CEDF9127
:1006C000CF911F91FF90EF90DF90CF90BF90AF90B0
:1006D0009F908F907F906F905F904F900895909132
:1006E0000001891324C0E2ECF0E0E4919FEF9093C5
:1006F0000001E130B9F098F0E230C9F49091700057
:100700009D7F9093700091E09093B0009091B10024
:10071000987F94609093B1001092B30008C010923B
:100720006E0005C090916F009D7F90936F0060E018
:100730000C94D30085E00E946F0360E08EE00E947D
:10074000D30060E08FE00E94D30060E080E10C9471
:10075000D3001F920F920FB60F9211242F933F9345
:100760008F939F93AF93BF93809113019091140146
:10077000A0911501B09116013091120123E0230FD1
:100780002D3720F40196A11DB11D05C026E8230FC9
:100790000296A11DB11D2093120180931301909325
:1007A0001401A0931501B093160180910E01909150
:1007B0000F01A0911001B09111010196A11DB11D71
:1007C00080930E0190930F01A0931001B09311013B
:1007D000BF91AF919F918F913F912F910F900FBE3D
:1007E0000F901F9018951F920F920FB60F92112421
:1007F0002F933F934F935F936F937F938F939F9329
:10080000AF93BF93EF93FF9380911C0190911D01D3
:10081000A0911E01B0911F01892B8A2B8B2B51F1C6
:1008200090911701E0911801F091190180818927B9
:10083000808380911C0190911D01A0911E01B091B7
:100840001F01181619061A061B06C4F480911C0114
:1008500090911D01A0911E01B0911F010197A10966
:10086000B10980931C0190931D01A0931E01B093C8
:100870001F0104C0809100010E946F03FF91EF915E
:10088000BF91AF919F918F917F916F915F914F91A8
:100890003F912F910F900FBE0F901F901895789455
:1008A00084B5826084BD84B5816084BD85B5826075
:1008B00085BD85B5816085BD80916E008160809326
:1008C0006E0010928100809181008260809381008F
:1008D000809181008160809381008091800081609F
:1008E000809380008091B10084608093B1008091FA
:1008F000B00081608093B00080917A008460809322
:100900007A0080917A00826080937A0080917A00E8
:10091000816080937A0080917A00806880937A0069
:100920001092C10061E08EE00E94020161E08FE060
:100930000E94020161E080E10E94020161E085E025
:100940000E94020160E081E10E9402012FB7F89449
:100950008091130190911401A0911501B09116019D
:100960002FBF8093030190930401A0930501B093DE
:10097000060100E010E0D1E081E10E94AA009C01A4
:1009800091E02115310509F490E08091020198175A
:1009900059F0232B49F080910D01811103C0D093B0
:1009A0000D0102C010920D019093020180910D0182
:1009B000811170C010920C0110920B018FB7F89446
:1009C000C0901301D0901401E0901501F090160131
:1009D0008FBFC0920701D0920801E0920901F09206
:1009E0000A018091030190910401A0910501B09149
:1009F0000601A7019601281B390B4A0B5B0BDA0194
:100A0000C901843F9140A105B10508F445C0C091DA
:100A10000B01C11104C080910C018823D9F18EE033
:100A20000E94AA0061E0892B09F060E08EE00E943C
:100A3000D3008FE00E94AA0061E0892B09F060E0FA
:100A40008FE00E94D30080E10E94AA0061E0892B20
:100A500009F060E080E10E94D300CC2341F0809156
:100A60000C01811104C088EB91E00E943E0180914D
:100A70000C01882331F0C11104C085E091E00E948F
:100A80003E01C0920301D0920401E0920501F09270
:100A9000060102C00E949A030115110509F46CCFEA
:100AA0000E94000069CFA1E21A2EAA1BBB1BFD0108
:100AB0000DC0AA1FBB1FEE1FFF1FA217B307E4073D
:100AC000F50720F0A21BB30BE40BF50B661F771F95
:100AD000881F991F1A9469F7609570958095909575
:100AE0009B01AC01BD01CF010895052E97FB1EF4BB
:100AF00000940E948C0557FD07D00E94530507FC07
:100B000003D04EF40C948C0550954095309521956A
:100B10003F4F4F4F5F4F0895909580957095619529
:100B20007F4F8F4F9F4F0895A29FB001B39FC00189
:100B3000A39F700D811D1124911DB29F700D811D09
:0A0B40001124911D0895F894FFCFD1
:020B4A00FF00AA
:00000001FF
