:100000000C945D000C942B040C9404040C94850057
:100010000C9485000C9485000C9485000C9485004C
:100020000C9485000C9485000C9485000C9485003C
:100030000C9485000C9485000C9485000C9485002C
:100040000C94BA030C9485000C9478040C9452041C
:100050000C9485000C9485000C9485000C9485000C
:100060000C9485000C94850000000008000201003B
:100070000003040700000000000000000000000072
:10008000250028002B0000000000240027002A0083
:10009000040404040404040402020202020203032E
:1000A0000303030301020408102040800102040836
:1000B0001020010204081020AA0411241FBECFEF53
:1000C000D8E0DEBFCDBF11E0A0E0B1E0ECEBFFE097
:1000D00002C005900D92AE36B107D9F722E0AEE628
:1000E000B1E001C01D92A234B207E1F710E0CDE506
:1000F000D0E004C02197FE010E94D107CC35D10782
:10010000C9F70E9401050C94DC070C94000090E0F4
:10011000FC01EC55FF4F2491FC01E057FF4F849107
:10012000882399F090E0880F991FFC01EA57FF4F50
:10013000A591B491FC01E458FF4F859194918FB73C
:10014000F894EC91E22BEC938FBF089590E0FC01C2
:10015000E859FF4F2491FC01EC55FF4F3491FC010D
:10016000E057FF4FE491EE2309F43CC0222339F11C
:10017000233091F038F42130A9F0223001F584B514
:100180008F7D12C0273091F02830A1F02430B9F4CF
:10019000809180008F7D03C0809180008F77809355
:1001A00080000DC084B58F7784BD09C08091B000F8
:1001B0008F7703C08091B0008F7D8093B000F0E016
:1001C000EE0FFF1FE458FF4FA591B4919FB7F8942D
:1001D000611104C08C913095382302C0EC913E2B04
:1001E0003C939FBF08953FB7F89480918001909110
:1001F0008101A0918201B091830126B5A89B05C021
:100200002F3F19F00196A11DB11D3FBFBA2FA92F95
:10021000982F8827820F911DA11DB11DBC01CD0112
:1002200042E0660F771F881F991F4A95D1F70895FE
:100230008F929F92AF92BF92CF92DF92EF92FF92F6
:100240000E94F3004B015C018AE0C82ED12CE12C06
:10025000F12C0E94F300DC01CB0188199909AA094D
:10026000BB09883E9340A105B10598F321E0C21A6D
:10027000D108E108F10888EE880E83E0981EA11CE1
:10028000B11CC114D104E104F10419F7FF90EF90FF
:10029000DF90CF90BF90AF909F908F90089508957A
:1002A000CF92DF92EF92FF920F931F93CF93DF9342
:1002B0006C017A018B01C0E0D0E0CE15DF0581F042
:1002C000D8016D918D01D601ED91FC910190F081E5
:1002D000E02DC6010995892B11F02196EECF7E0104
:1002E000C701DF91CF911F910F91FF90EF90DF90A9
:1002F000CF900895FC01538D448D252F30E0842F3D
:1003000090E0821B930B541710F0CF96089501973D
:100310000895FC01918D828D981761F0828DDF0127
:10032000A80FB11D5D968C91928D9F5F9F73928FE8
:1003300090E008958FEF9FEF0895FC01918D828DDD
:10034000981731F0828DE80FF11D858D90E00895AA
:100350008FEF9FEF0895FC01918D228D892F90E002
:10036000805C9F4F821B91098F739927089584E8C1
:1003700091E00E94AB0121E0892B09F420E0822F5B
:100380000895FC01848DDF01A80FB11DA35ABF4F52
:100390002C91848D90E001968F739927848FA68984
:1003A000B7892C93A089B1898C91837080648C93D8
:1003B000938D848D981306C00288F389E02D808187
:1003C0008F7D80830895EF92FF920F931F93CF93B9
:1003D000DF93EC0181E0888F9B8D8C8D981305C095
:1003E000E889F989808185FD26C0F62E0B8D10E005
:1003F0000F5F1F4F0F731127E02E8C8DE8120CC07A
:100400000FB607FCFACFE889F989808185FFF5CF1F
:10041000CE010E94C101F1CF8B8DFE01E80FF11DCD
:10042000E35AFF4FF0829FB7F8940B8FEA89FB895C
:10043000808180620AC09FB7F894EE89FF8960834B
:10044000E889F98980818370806480839FBF81E01F
:1004500090E0DF91CF911F910F91FF90EF90089561
:10046000CF93DF93EC01888D8823C9F0EA89FB895B
:10047000808185FD05C0A889B9898C9186FD0FC052
:100480000FB607FCF5CF808185FFF2CFA889B98927
:100490008C9185FFEDCFCE010E94C101E7CFDF91A6
:1004A000CF91089580E090E0892B29F00E94B70158
:1004B00081110C94000008950F931F93CF93DF9345
:1004C000EC01062F142F60E088890E94A6009C850D
:1004D0008D859CBD8DBD0EBD00000DB407FEFDCF0A
:1004E0008EB51EBD00000DB407FEFDCF1EB561E048
:1004F00088890E94A600812FDF91CF911F910F91D3
:1005000008956F7740E00C945C0208950F931F9359
:10051000CF93DF93EC01E881F9810084F185E02D30
:100520000995892B91F06DE0CE010E948102082F80
:1005300060E0CE010E948102182F402F6DE8CE01AD
:100540000E945C02812F90E002C08FEF9FEFDF914D
:10055000CF911F910F910895CF93DF93EC01E88124
:10056000F9810084F185E02D0995892B59F08A8D58
:100570009B8D01969B8F8A8F60E0CE010E94810245
:1005800090E002C08FEF9FEFDF91CF910895CF935E
:10059000DF93EC0163E10E94810290E02A8D3B8DA4
:1005A000821B930BDF91CF910895AF92BF92CF92B0
:1005B000DF92FF920F931F93CF93DF936C015B0148
:1005C000EA0162E20E948102F82E90E09C012C0F69
:1005D0003D1F2F3F310529F020F0CFEFD0E0C81BA1
:1005E000D90B8501AC0EBD1E0A151B0541F0F801A3
:1005F00041918F0160E8C6010E945C02F5CF4C2F4B
:100600004F0D62EAC6010E945C02CE01DF91CF91DC
:100610001F910F91FF90DF90CF90BF90AF90089502
:10062000CF93DF931F92CDB7DEB76983DC01ED91E5
:10063000FC910280F381E02D41E050E0BE016F5F4C
:100640007F4F09950F90DF91CF910895089580E035
:1006500090E00895009769F0FC0101900020E9F70F
:100660003197AF01481B590BBC0184E891E00C9411
:10067000500180E090E008958F929F92AF92BF92D8
:10068000CF92DF92EF92FF920F931F93CF93DF935E
:10069000CDB7DEB7A1970FB6F894DEBF0FBECDBFC2
:1006A0006C01990FEE08FF08F7FE2BC06DE284E89D
:1006B00091E00E94E3018C0122273327A9012C1924
:1006C0003D094E095F0919A2CE0181967C019AE08D
:1006D000892E912CA12CB12CCA01B901A50194013C
:1006E0000E94AF07605DF70162937F01211531051C
:1006F0004105510589F7CF010E942A03080F191FF0
:100700001EC0A701960119A28E010F5D1F4F8AE03E
:10071000C82ED12CE12CF12CCA01B901A7019601F8
:100720000E94AF07605DF80162938F0121153105CA
:100730004105510589F7CF010E942A038C0188E207
:1007400091E00E942A03800F911FA1960FB6F894A2
:10075000DEBF0FBECDBFDF91CF911F910F91FF90F4
:10076000EF90DF90CF90BF90AF909F908F900895C3
:100770000E94D7071F920F920FB60F9211242F934A
:100780003F938F939F93AF93BF9380917C01909100
:100790007D01A0917E01B0917F0130917B0123E02A
:1007A000230F2D3720F40196A11DB11D05C026E8A9
:1007B000230F0296A11DB11D20937B0180937C0124
:1007C00090937D01A0937E01B0937F018091800181
:1007D00090918101A0918201B09183010196A11DA8
:1007E000B11D8093800190938101A0938201B09309
:1007F0008301BF91AF919F918F913F912F910F9066
:100800000FBE0F901F9018951F920F920FB60F9268
:1008100011242F933F934F935F936F937F938F9305
:100820009F93AF93BF93EF93FF93E0910201F091F9
:1008300003010995FF91EF91BF91AF919F918F9126
:100840007F916F915F914F913F912F910F900FBECC
:100850000F901F9018951F920F920FB60F921124B0
:100860002F933F934F935F936F937F938F939F93B8
:10087000AF93BF93EF93FF93E0910001F0910101DB
:100880000995FF91EF91BF91AF919F918F917F91CA
:100890006F915F914F913F912F910F900FBE0F90ED
:1008A0001F9018951F920F920FB60F9211242F933D
:1008B0003F934F935F936F937F938F939F93AF93E8
:1008C000BF93EF93FF9384E891E00E94C101FF91F1
:1008D000EF91BF91AF919F918F917F916F915F91B8
:1008E0004F913F912F910F900FBE0F901F90189531
:1008F0001F920F920FB60F9211242F938F939F93F5
:10090000EF93FF93E0919401F09195018081E09144
:100910009A01F0919B0182FD12C0908180919D010E
:100920008F5F8F7320919E01821751F0E0919D019E
:10093000F0E0EC57FE4F958F80939D0101C08081C0
:10094000FF91EF919F918F912F910F900FBE0F907C
:100950001F901895E4E8F1E01382128288EE93E08C
:10096000A0E0B0E084839583A683B78388E091E01C
:100970009183808385EC90E09587848784EC90E078
:100980009787868780EC90E0918B808B81EC90E05C
:10099000938B828B82EC90E0958B848B86EC90E03D
:1009A000978B868B118E128E138E148EE2E2F2E0FC
:1009B000138212828AE191E09183808380E58487AB
:1009C00081E0858781E292E0978786878AE090E0E0
:1009D000918B808B89E090E0938B828B82E090E01A
:1009E000958B848B168A178A108E118E138E128E19
:1009F000158E148E178E168E14821582168217820B
:100A00000895789484B5826084BD84B5816084BD86
:100A100085B5826085BD85B5816085BD80916E009C
:100A2000816080936E0010928100809181008260CD
:100A3000809381008091810081608093810080910A
:100A400080008160809380008091B10084608093F9
:100A5000B1008091B00081608093B00080917A00F5
:100A6000846080937A0080917A00826080937A001B
:100A700080917A00816080937A0080917A0080680A
:100A800080937A001092C100E0919401F091950159
:100A900082E08083E0919001F09191011082E091D9
:100AA0009201F09193018FEC808310929C01E09170
:100AB0009801F091990186E08083E0919601F09190
:100AC0009701808180618083E0919601F091970188
:100AD000808188608083E0919601F0919701808108
:100AE00080688083E0919601F091970180818F7DED
:100AF00080838BE291E00E942A0388E291E00E94C9
:100B00002A038AE090E0909333028093320289E0D6
:100B100090E0909335028093340282E090E09093CD
:100B20003702809336028AE00E94870061E080915C
:100B300032020E94A60080913402909135028F3FCC
:100B40002FEF920781F00E94870060E080913402CD
:100B50000E94A6000E94180161E0809134020E9468
:100B6000A6000E941801CFB7F89480916E01811100
:100B700024C0EAE9F0E08491EEEAF0E09491E82FF5
:100B8000F0E0EE0FFF1FEA57FF4FA591B491EC91F3
:100B9000E92321F461E08AE00E94A6008AE00E9435
:100BA00087008CB580618CBD8CB580648CBD8DE078
:100BB0000E9487008BE00E94870080916E018F5F0A
:100BC00080936E01CFBF62E482E292E00E948102D4
:100BD000823109F055C140E861E882E292E00E946A
:100BE0005C0280E091EAACEBB3E38093380290932F
:100BF0003902A0933A02B0933B0249ED66E882E2E3
:100C000092E00E945C0240E067E882E292E00E948B
:100C10005C0240E068E882E292E00E945C0240E010
:100C20006EE882E292E00E945C0240E06FE882E2BD
:100C300092E00E945C026CE082E292E00E948102FB
:100C4000482F43606CE882E292E00E945C0244E03C
:100C500066EA82E292E00E945C024FE869E882E282
:100C600092E00E945C0241E861E882E292E00E9428
:100C70005C0262E182E292E00E948102C82F10923F
:100C80003F0210923E026DE182E292E00E948102F8
:100C9000482F4E7F6DE982E292E00E945C024C2F69
:100CA00062E982E292E00E945C02C6FF2EC0C5FDAE
:100CB0002CC010923D0210923C0280913E02909115
:100CC0003F02892B11F062E201C063E182E292E00F
:100CD0000E948102C82FD0E060E182E292E00E948F
:100CE0008102482F6DE882E292E00E945C0241E8B6
:100CF00061E882E292E00E945C02CD2B09F4BDC063
:100D000089E391E00E942A0389C061E082E292E0D7
:100D10000E948102863809F4B0C040E06DE882E2AA
:100D200092E00E945C0246E861E882E292E00E9462
:100D30005C02A3C082E292E00E94AC028B3B910570
:100D400009F06CC082E292E00E94AC02C82F82E2FD
:100D500092E00E94AC02982F88278C2B90937A0106
:100D60008093790182E292E00E94AC029093780134
:100D70008093770182E292E00E94AC02C82F82E267
:100D800092E00E94AC02982F88278C2B90937601DA
:100D90008093750182E292E00E94AC02909374010C
:100DA0008093730182E292E00E94AC02C82F82E23B
:100DB00092E00E94AC02982F88278C2B90937201AE
:100DC0008093710182E292E00E94AC0290937001E4
:100DD00080936F018091790190917A010E943C0388
:100DE00080917701909178010E943C038091750178
:100DF000909176010E943C0380917301909174015F
:100E00000E943C0380917101909172010E943C0309
:100E100080916F01909170010E943C0382E292E008
:100E20000E94C702892B09F085CF8BE491E00E94D4
:100E30002A036AE182E292E00E948102C82FD0E098
:100E4000609138027091390280913A0290913B0290
:100E50000E94500724E832EF4EE45EE40E94490706
:100E600087FD03C08DE990E002C084EA90E09E0116
:100E7000281B390BC9010E943C030E945202F9CE83
:100E800088E591E00E942A0388E291E00E942A030B
:100E9000FFCF0E948B0708F481E00895E89409C011
:100EA00097FB3EF490958095709561957F4F8F4F9D
:100EB0009F4F9923A9F0F92F96E9BB279395F695B3
:100EC000879577956795B795F111F8CFFAF4BB0F31
:100ED00011F460FF1BC06F5F7F4F8F4F9F4F16C095
:100EE000882311F096E911C0772321F09EE8872F1F
:100EF000762F05C0662371F096E8862F70E060E0DB
:100F00002AF09A95660F771F881FDAF7880F969553
:100F1000879597F90895990F0008550FAA0BE0E8F7
:100F2000FEEF16161706E807F907C0F012161306AB
:100F3000E407F50798F0621B730B840B950B39F4EB
:100F40000A2661F0232B242B252B21F408950A2651
:100F500009F4A140A6958FEF811D811D0895A1E29E
:100F60001A2EAA1BBB1BFD010DC0AA1FBB1FEE1F23
:100F7000FF1FA217B307E407F50720F0A21BB30B6E
:100F8000E40BF50B661F771F881F991F1A9469F7EA
:100F900060957095809590959B01AC01BD01CF0146
:100FA0000895EE0FFF1F0590F491E02D099481E064
:0C0FB00090E0F8940C94DC07F894FFCF5C
:100FBC004F014F0100000000E30150017A013002A3
:100FCC00AB0189019D01000000001003D50227032D
:100FDC008502C702AC0286020D0A004C6F526120DA
:100FEC0052656365697665720052656365697665FD
:100FFC0064207061636B6574202700272077697407
:10100C0068205253534920005374617274696E679F
:0E101C00204C6F5261206661696C6564210092
:00000001FF
