:100000000C9463000C9408090C94E1080C94E00231
:100010000C94E0020C94E0020C948B000C942F09D9
:100020000C948B000C948B000C948B000C948B0024
:100030000C948B000C948B000C948B000C948B0014
:100040000C94320F0C948B000C94B1090C948B0916
:100050000C948B000C948B000C948B000C948B00F4
:100060000C948B000C948B0001020408102040803B
:100070000102040810200102040810200000000002
:10008000250028002B0004040404040404040202D4
:100090000202020203030303030302000000002420
:1000A0000027002A0000000000230026002900008D
:1000B0000000080002010000030407000000000027
:1000C00000000000D51311241FBECFEFD8E0DEBF23
:1000D000CDBF12E0A0E0B1E0E2E0F1E302C00590A4
:1000E0000D92AE39B107D9F726E0AEE9B2E001C012
:1000F0001D92A33BB207E1F710E0C3E6D0E004C0D5
:100100002197FE010E94C115C236D107C9F70E948E
:100110007C0F0C947F180C94000080E090E0892BF9
:1001200029F00E943B0881110C94000008958FB7BC
:10013000F89480919E028FBF08950895CF93DF9326
:100140001F92CDB7DEB76983DC01ED91FC9102808F
:10015000F381E02D41E050E0BE016F5F7F4F0995D4
:100160000F90DF91CF9108958EBD00000DB407FE72
:10017000FDCF8EB508958FEF0C94B4008CBD9DBD5E
:100180000895089580E090E008950F931F93CF9312
:10019000DF93EB010E94AE0E8B010E94BB008F3FEC
:1001A00049F00E94AE0E601B710B6C177D07A8F31F
:1001B00080E001C081E0DF91CF911F910F91089500
:1001C00061E0FC0184810E94430E80919F028111B5
:1001D00010929F020895CF93DF93EC018E818823C4
:1001E00089F08F8198859C012F5F3F4F38872F833F
:1001F0008230924018F40E94BB00F3CFCE010E94DF
:10020000E0001E82DF91CF9108958F929F92AF926E
:10021000BF92FF920F931F93CF93DF93EC01F62EC3
:1002200049015A010E94EB0080919F02811109C08F
:1002300081E080939F028091A4059091A5050E9482
:10024000BE0060E08C810E94430E6CE271E0CE0142
:100250000E94C5008F2D80640E94B40008E110E068
:10026000D501C401002E04C0B695A7959795879532
:100270000A94D2F70E94B40008501109083F8FEF8A
:10028000180771F7FF2029F088E0F81204C087E80A
:1002900003C085E901C08FEF0E94B40010E00E9406
:1002A000BB008A8787FF04C01F3F11F01F5FF7CF95
:1002B000DF91CF911F910F91FF90BF90AF909F90D2
:1002C0008F900895EF92FF920F931F93CF93DF9338
:1002D000EC017901411551056105710511F482E1C7
:1002E0003CC08B85833039F089E0440F551F661F71
:1002F000771F8A95D1F79A01AB0168E1CE010E9480
:100300000501882311F084E028C08EEF0E94B4001C
:1003100087018EEFF81AF80181918F010E94B400D5
:10032000E016F106C1F78FEF0E94B4008FEF0E9434
:10033000B4000E94BB008A878F71853031F081E163
:100340008D83CE010E94E00009C068E572E0CE0115
:100350000E94C500811107C085E18D83CE010E94F6
:10036000E00080E014C020E030E0A9016DE0CE01A3
:100370000E940501811109C00E94BB00811105C0C6
:10038000CE010E94E00081E002C084E1E6CFDF916F
:10039000CF911F910F91FF90EF9008958091A0024F
:1003A000882389F14091000150910101609102017F
:1003B0007091030125EA32E080E090E00E94620142
:1003C000811102C080E008954091A1025091A202E3
:1003D0006091A3027091A402411551056105710558
:1003E00081F025EA32E080E090E00E9462018823FB
:1003F00049F31092A1021092A2021092A30210924D
:10040000A4021092A00281E00895AF92BF92CF9211
:10041000DF92EF92FF921F93CF93DF936B017C01EA
:10042000142F8091000190910101A0910201B091DF
:1004300003018C159D05AE05BF0509F48FC00E9410
:10044000CE01882309F490C0809106008823A1F092
:100450008091000090910100A0910200B0910300F2
:10046000C816D906EA06FB0639F480910700909178
:100470000800892B09F443C0C0920000D09201000B
:10048000E0920200F092030080910B00A701960118
:10049000833039F099E0220F331F441F551F9A957E
:1004A000D1F761E180E090E00E940501882321F00E
:1004B00083E08093050044C00E94AE0EEB010E94D1
:1004C000BB0080930A008F3F49F40E94AE0E6C1B64
:1004D0007D0B6D32714098F38FE003C08E3F41F089
:1004E0008DE08093050080E090E00E94E00028C04D
:1004F000109208001092070081E080930600C5EA80
:10050000D2E085EAA82E84E0B82E0E94BB00899331
:10051000AC16BD06D1F780910700909108009E5F50
:10052000909308008093070020910900222319F07E
:100530008115924058F080E090E00E94EB0006C0E8
:1005400080E090E00E94E00080E00EC0C0920001D8
:10055000D0920101E0920201F09203014091A002C9
:10056000412B4093A00281E0DF91CF911F91FF903A
:10057000EF90DF90CF90BF90AF900895FC01848DF5
:10058000DF01A80FB11DA35ABF4F2C91848D90E0BD
:1005900001968F739927848FA689B7892C93A08998
:1005A000B1898C91837080648C93938D848D981322
:1005B00006C00288F389E02D80818F7D80830895B5
:1005C0001F920F920FB60F9211240F900FBE0F9033
:1005D0001F9018954F925F926F927F928F929F9289
:1005E000AF92BF92CF92DF92EF92FF920F931F9341
:1005F000CF93DF93EC01423051056105710510F492
:1006000080E078C089859A85AB85BC850196A11D5F
:10061000B11D84179507A607B70790F3CB88DC8830
:10062000ED88FE888F89803129F4BB27A72F962F6C
:10063000852F09C0DB01CA01E7E0B695A79597951C
:100640008795EA95D1F7480159012A013B01C80E67
:10065000D91EEA1EFB1E8091000190910101A0911C
:100660000201B0910301C816D906EA06FB0681F41F
:100670008F898031A9F4B301A20155276627772716
:10068000440F551FFA01EB55FD4F9182808219C02E
:1006900040E0C701B6010E9405028111E9CFB0CF49
:1006A000B301A2014F77552766277727440F551FBF
:1006B000440F551FFA01EB55FD4F80829182A282B3
:1006C000B3828091A00281608093A0028A898230E7
:1006D00080F08D819E81AF81B885C80ED91EEA1E3B
:1006E000FB1EC092A102D092A202E092A302F0925D
:1006F000A40281E0DF91CF911F910F91FF90EF90C5
:10070000DF90CF90BF90AF909F908F907F906F9031
:100710005F904F9008958F929F92AF92BF92CF9229
:10072000DF92EF92FF920F931F93CF93DF93FC0121
:1007300081859285A385B4850196A11DB11D84177D
:100740009507A607B70710F480E05BC083889488FC
:10075000A588B6888789803129F4BB27A72F962FD3
:10076000852F09C0DB01CA01C7E0B695A79597950B
:100770008795CA95D1F7E9016A017B018F01BC0118
:10078000CD01680D791D8A1D9B1D80900001909000
:100790000101A0900201B0900301681579058A0556
:1007A0009B0591F4F80187898031A1F4DD24EE24C2
:1007B000FF24C601880F991FFC01EB55FD4F808176
:1007C0009181A0E0B0E018C040E00E9405028111D4
:1007D000E9CFBACFE894C7F8DD24EE24FF24C601A0
:1007E000880F991F880F991FFC01EB55FD4F8081E1
:1007F0009181A281B381BF7088839983AA83BB83CF
:1008000081E0DF91CF911F910F91FF90EF90DF90EA
:10081000CF90BF90AF909F908F9008954F925F922E
:100820006F927F92AF92BF92CF92DF92EF92FF9240
:100830000F931F93CF93DF9300D000D01F92CDB7BB
:10084000DEB78C016D83DC0115968C911597813094
:1008500009F054C014968C9181FF50C057C0258573
:1008600030E0275F3F4F2A013B01B1E04B1A5108AE
:1008700061087108022E04C07694679457944794D7
:100880000A94D2F7D701C6010197A109B10904C0A2
:10089000B695A795979587952A95D2F784159505CE
:1008A000A605B70508F076C0F8014789508D618D1F
:1008B000728D46835783608771872C013D015801F3
:1008C000F6E0AF0EB11C411451046104710409F447
:1008D0006BC0D80116964D915D916D917C911997E1
:1008E00095015B968D919C915C970E948B03B1E082
:1008F0004B1A5108610871088111E5CF81E090E041
:10090000F8019383828380E090E05BC182FF0EC098
:10091000F8014285538564857585C388D488E58848
:10092000F6884C155D056E057F05E9F4D8011A9629
:100930004D915D916D917C911D975B96ED91FC9130
:100940005C97948191506A017B0189E0F694E79469
:10095000D794C7948A95D1F79C217A01B1E0FB2204
:10096000911173C027C0D801038CF48DE02DC11400
:10097000D104E104F10409F072CF16961D921D9284
:100980001D921C9219971A961D921D921D921C92EF
:100990001D9714C0452B462B472B09F485CF84198E
:1009A0009509A609B70989CFF801C286D386E486DE
:1009B000F586BCCFE114F10409F047C0D8011696C2
:1009C0004D915D916D917C9119974115510561058E
:1009D000710559F457968D919D910D90BC91A02D64
:1009E0000097A105B10549F522C09E012F5F3F4F39
:1009F000CF010E948B03882309F485CF89819A81D6
:100A0000AB81BC81F801238D348DF9012789203118
:100A100029F448EF5FEF60E070E004C048EF5FEF5B
:100A20006FEF7FE084179507A607B70730F0C8017E
:100A30000E94170D811106C061CFF801868397834C
:100A4000A087B187E12CF12C90E0D8015B96ED9165
:100A5000FC915C9716964D905D906D907C901997E7
:100A6000B2E04B1A510861087108058404C0440CB7
:100A7000551C661C771C0A94D2F7468557856089F9
:100A80007189440E551E661E771E490E511C611C4D
:100A9000711CE114F10409F5F80142855385648560
:100AA000758583899489A589B689481759076A0786
:100AB0007B0798F00E94CE01882309F41FCF409253
:100AC0000001509201016092020170920301809135
:100AD000A00281608093A00208C041E0C301B2017E
:100AE0000E940502882309F409CFF701EB55FD4F59
:100AF0008D818083F80182859385A485B5850196D3
:100B0000A11DB11D82879387A487B5874389548926
:100B100065897689481759076A077B0738F4838BFC
:100B2000948BA58BB68B848180688483D8011496BE
:100B30008C9183FD03C081E090E043C0F801958172
:100B4000992309F4DBCE87FF37C0668577858089D6
:100B5000918941E00E940502882309F4CFCED80193
:100B60005296EC91B0E2EB9FF0011124EB55FD4F52
:100B7000309709F4C3CED80115968C911597823021
:100B800050F453964D915D916D917C915697448FA1
:100B9000558F668F778FD80157964D915D916D91E6
:100BA0007C915A97538F428F758B648B14968C91DE
:100BB00014978F7714968C930E94CE018111BBCF2E
:100BC0009DCE0F900F900F900F900F90DF91CF91CF
:100BD0001F910F91FF90EF90DF90CF90BF90AF905B
:100BE0007F906F905F904F900895CF93DF93EC01CB
:100BF00087E095E00E942F08892B29F087E095E097
:100C00000E940D08F5CFCE010E94A10C0E948A0C13
:100C10000E948A0CDF91CF910C948A0C0F931F9342
:100C2000CF93DF93EC01062F142F60E088890E9498
:100C3000430E8C859D850E94BE00802F0E94B400CB
:100C4000812F0E94B400182F61E088890E94430E12
:100C5000812FDF91CF911F910F9108956F7740E021
:100C60000C940E060F931F93CF93DF93EC01E88152
:100C7000F9810084F185E02D0995892B91F06DE0D3
:100C8000CE010E942E06082F60E0CE010E942E06A3
:100C9000182F402F6DE8CE010E940E06812F90E0A4
:100CA00002C08FEF9FEFDF91CF911F910F910895B9
:100CB000CF93DF93EC01E881F9810084F185E02D89
:100CC0000995892B59F08A8D9B8D01969B8F8A8F70
:100CD00060E0CE010E942E0690E002C08FEF9FEFF1
:100CE000DF91CF910895CF93DF93EC0163E10E94F0
:100CF0002E0690E02A8D3B8D821B930BDF91CF91C6
:100D00000895AF92BF92CF92DF92FF920F931F93FD
:100D1000CF93DF936C015B01EA0162E20E942E0631
:100D2000F82E90E09C012C0F3D1F2F3F310529F03C
:100D300020F0CFEFD0E0C81BD90B8501AC0EBD1E53
:100D40000A151B0541F0F80141918F0160E8C601C9
:100D50000E940E06F5CF4C2F4F0D62EAC6010E948D
:100D60000E06CE01DF91CF911F910F91FF90DF9082
:100D7000CF90BF90AF900895880F991FFC01E75264
:100D8000FB4F20813181FC01E85FFE4F22303105AD
:100D900019F4808191810895208131814AE0429F38
:100DA000C001439F900D112408950E948A0C0E9457
:100DB0008A0C0C948A0CEF92FF920F931F93CF939F
:100DC000DF93182F092FF62EE72E1F9281E08F93C5
:100DD00081E591E09F938F93C7EAD4E0DF93CF93AF
:100DE0000E94CC15CE010E94A10C0E94D506EF9264
:100DF000FF920F931F9381E691E09F938F93DF9370
:100E0000CF930E94CC15CE010E94A10C8DB79EB746
:100E10000E960FB6F8949EBF0FBE8DBFDF91CF9197
:100E20001F910F91FF90EF900C94D506CF93DF9315
:100E30000197EC01CC0FDD1FFE01EE0FFF1FDF015C
:100E4000A752BB4F8D919C91E85FFE4F8230910578
:100E500019F5808191816AE070E00E9499159F9355
:100E60008F937F936F9382E791E09F938F9387EAAD
:100E700094E09F938F930E94CC1587EA94E00E94A0
:100E8000A10C0E94D5068DB79EB708960FB6F894B0
:100E90009EBF0FBE8DBF23C0019739F481818F9310
:100EA00080818F9389E891E006C081818F93808152
:100EB0008F938EE991E09F938F9387EA94E09F93BD
:100EC0008F930E94CC1587EA94E00E94A10C0E94A7
:100ED000D5060F900F900F900F900F900F90FE017E
:100EE0003196EE0FFF1FDF01A752BB4F8D919C91F2
:100EF000E85FFE4F8230910509F5808191816AE0BB
:100F000070E00E9499159F938F937F936F9382EB6C
:100F100091E09F938F9387EA94E09F938F930E9431
:100F2000CC1587EA94E00E94A10C8DB79EB7089675
:100F30000FB6F8949EBF0FBE8DBF21C0019739F444
:100F400081818F9380818F9389EC91E006C08181AC
:100F50008F9380818F938EED91E09F938F9387EA9B
:100F600094E09F938F930E94CC1587EA94E00E94AF
:100F7000A10C0F900F900F900F900F900F90DF919A
:100F8000CF910C94D50684E090E00C94160783E092
:100F900090E00C94160782E090E00C94160781E034
:100FA00090E00C9416070895CF92DF92EF92FF9293
:100FB0000F931F93CF93DF936C017A018B01C0E0F5
:100FC000D0E0CE15DF0581F0D8016D918D01D601FD
:100FD000ED91FC910190F081E02DC6010995892BDE
:100FE00011F02196EECF7E01C701DF91CF911F91C5
:100FF0000F91FF90EF90DF90CF900895FC01538DFB
:10100000448D252F30E0842F90E0821B930B5417E2
:1010100010F0CF96089501970895FC01918D828D6F
:10102000981761F0828DDF01A80FB11D5D968C913C
:10103000928D9F5F9F73928F90E008958FEF9FEF47
:101040000895FC01918D828D981731F0828DE80F03
:10105000F11D858D90E008958FEF9FEF0895FC01BD
:10106000918D228D892F90E0805C9F4F821B91098A
:101070008F739927089587E095E00E942F0821E05B
:10108000892B09F420E0822F089590912001891383
:1010900024C0EAE9F0E0E4919FEF90932001E13071
:1010A000B9F098F0E230C9F4909170009D7F909370
:1010B000700091E09093B0009091B100987F94609F
:1010C0009093B1001092B30008C010926E0005C05A
:1010D00090916F009D7F90936F0060E00C94430EA1
:1010E0000E94C715EF92FF920F931F93CF93DF9348
:1010F000EC0181E0888F9B8D8C8D981305C0E88969
:10110000F989808185FD26C0F62E0B8D10E00F5FDA
:101110001F4F0F731127E02E8C8DE8120CC00FB6F5
:1011200007FCFACFE889F989808185FFF5CFCE01E8
:101130000E94BE02F1CF8B8DFE01E80FF11DE35A34
:10114000FF4FF0829FB7F8940B8FEA89FB8980816B
:1011500080620AC09FB7F894EE89FF896083E889AE
:10116000F98980818370806480839FBF81E090E0F3
:10117000DF91CF911F910F91FF90EF900895CF9342
:10118000DF93EC01888D8823C9F0EA89FB8980818F
:1011900085FD05C0A889B9898C9186FD0FC00FB661
:1011A00007FCF5CF808185FFF2CFA889B9898C91A2
:1011B00085FFEDCFCE010E94BE02E7CFDF91CF9138
:1011C00008951F920F920FB60F9211242F933F9301
:1011D0004F935F936F937F938F939F93AF93BF933F
:1011E000EF93FF93E0910601F09107010995FF91BC
:1011F000EF91BF91AF919F918F917F916F915F918F
:101200004F913F912F910F900FBE0F901F90189507
:101210001F920F920FB60F9211242F933F934F936B
:101220005F936F937F938F939F93AF93BF93EF934E
:10123000FF93E0910401F09105010995FF91EF9171
:10124000BF91AF919F918F917F916F915F914F91DE
:101250003F912F910F900FBE0F901F9018951F92E6
:101260000F920FB60F9211242F933F934F935F93DA
:101270006F937F938F939F93AF93BF93EF93FF935E
:101280008091030590910405A0910505B091060594
:10129000892B8A2B8B2B51F190910005E091010550
:1012A000F0910205808189278083809103059091C8
:1012B0000405A0910505B0910605181619061A0631
:1012C0001B06C4F48091030590910405A0910505C7
:1012D000B09106050197A109B10980930305909388
:1012E0000405A0930505B093060504C08091200174
:1012F0000E944508FF91EF91BF91AF919F918F910F
:101300007F916F915F914F913F912F910F900FBE01
:101310000F901F9018951F920F920FB60F921124E5
:101320002F933F934F935F936F937F938F939F93ED
:10133000AF93BF93EF93FF9387E095E00E94BE02C7
:10134000FF91EF91BF91AF919F918F917F916F919D
:101350005F914F913F912F910F900FBE0F901F9073
:1013600018951F920F920FB60F9211242F938F93FF
:101370009F93EF93FF93E0911705F09118058081FB
:10138000E0911D05F0911E0582FD12C090818091B3
:1013900020058F5F8F7320912105821751F0E09116
:1013A0002005F0E0E95FFA4F958F8093200501C09A
:1013B0008081FF91EF919F918F912F910F900FBEA0
:1013C0000F901F9018954F925F926F927F928F921D
:1013D0009F92AF92BF92CF92DF92EF92FF921F93B4
:1013E000CF93DF93EC0180912001853021F08F3F76
:1013F00009F00AC204C0EAE9F0E014916FC085E088
:1014000080932001EAE9F0E014911F3F09F4FCC148
:10141000113009F440C030F1123009F05FC0109271
:10142000B0001092B1008091B00082608093B00053
:101430008091B10081608093B100EBE8F0E0E4912D
:10144000F0E0EE0FFF1FE458FF4F859194919093C9
:10145000020580930105EDE6F0E0E491E0930005DC
:1014600012E0CDC114BC15BC84B5826084BD85B5C5
:10147000816085BDEBE8F0E0E491F0E0EE0FFF1F46
:10148000E458FF4F85919491EDE6F0E0E491E0930C
:10149000570610E0B4C11092800010928100809134
:1014A00081008860809381008091810081608093B9
:1014B0008100EBE8F0E0E491F0E0EE0FFF1FE4586C
:1014C000FF4F85919491EDE6F0E0E491E0935606AC
:1014D00061E085E00E94720E11E0B1C017FD94C179
:1014E00061E085E00E94720E812F8D7F09F0A7C018
:1014F0004E01A12CB12C60E072E18AE790E0A501D9
:1015000094010E94121529013A0169017A0121E032
:10151000C21AD108E108F1088FEFC816D104E1041E
:10152000F10409F008F44BC060E472E48FE090E04D
:10153000A50194010E94121569017A0181E0C81A7F
:10154000D108E108F108123001F52FEFC216D104DD
:10155000E104F10409F008F4EAC060E970ED83E009
:1015600090E0A50194010E94121569017A0181E0C1
:10157000C81AD108E108F1082FEFC216D104E1041E
:10158000F10409F030F583E053C08FEFC816D104A1
:10159000E104F104B1F0A8F068E478EE81E090E0B5
:1015A000A50194010E94121569017A0181E0C81A0F
:1015B000D108E108F108112309F4EEC0E4C081E08C
:1015C00001C082E0111134C095B5987F892B85BD8B
:1015D00068C068E478EE81E090E0A50194010E9483
:1015E000121569017A0181E0C81AD108E108F108F1
:1015F0002FEFC216D104E104F10409F008F495C0FC
:1016000064E274EF80E090E0A50194010E9412155D
:1016100069017A0181E0C81AD108E108F1082FEFC9
:10162000C216D104E104F10411F008F082C085E093
:101630009091B100987F892B8093B10032C04E0108
:10164000A12CB12C60E072E18AE790E0A501940141
:101650000E94121569017A0181E0C81AD108E108D7
:10166000F108C114D10421E0E206F10488F068E435
:1016700078EE81E090E0A50194010E9412156901C5
:101680007A0181E0C81AD108E108F10883E001C0BD
:1016900081E0113031F490918100987F892B809303
:1016A00081009E01220F331FAAEFB0E00E948A152D
:1016B00028EE33E040E050E00E946815113099F0C8
:1016C000123019F11111A0C0C7BC20935C063093F1
:1016D0005D0640935E0650935F0680916E008260C7
:1016E00080936E0091C0D0928900C09288002093B0
:1016F00058063093590640935A0650935B068091E2
:101700006F00826080936F007FC0C092B30020930F
:101710000305309304054093050550930605809119
:1017200070008260809370006FC084E081CF82E09F
:101730007FCF62E17AE780E090E0A50194010E940A
:10174000121569017A0181E0C81AD108E108F1088F
:101750008FEFC816D104E104F10499F090F0D301A1
:10176000C2012AE0B595A795979587952A95D1F757
:101770006C017D0121E0C21AD108E108F10887E07F
:1017800057CF86E055CF2FEFC216D104E104F10404
:1017900009F078F684E016CF8FEFC816D104E10483
:1017A000F10459F150F162E17AE780E090E0A5019F
:1017B00094010E94121569017A0181E0C81AD108CA
:1017C000E108F1082FEFC216D104E104F10499F009
:1017D00090F0D301C2013AE0B595A795979587950A
:1017E0003A95D1F76C017D0121E0C21AD108E108D8
:1017F000F10885E0E9CE84E0E7CE83E0E5CE61E064
:1018000085E00E94720E74CEDF91CF911F91FF9000
:10181000EF90DF90CF90BF90AF909F908F907F9090
:101820006F905F904F900895833081F028F481305D
:1018300099F08230A1F008958730A9F08830B9F08E
:101840008430D1F4809180008F7D03C0809180002E
:101850008F7780938000089584B58F7702C084B518
:101860008F7D84BD08958091B0008F7703C08091F3
:10187000B0008F7D8093B00008953FB7F8948091B9
:10188000AF069091B006A091B106B091B20626B510
:10189000A89B05C02F3F19F00196A11DB11D3FBFA8
:1018A000BA2FA92F982F8827820F911DA11DB11D36
:1018B000BC01CD0142E0660F771F881F991F4A9532
:1018C000D1F70895E7E0F5E0A089B18982E08C9333
:1018D000A485B5851C92A685B7858FEC8C93108E58
:1018E000A489B58986E08C93A289B3898C918061A3
:1018F0008C93A289B3898C9188608C93A289B389D7
:101900008C9180688C930288F389E02D80818F7D93
:10191000808308956FEF87E095E00C94720800973C
:1019200069F0FC0101900020E9F73197AF01481BF5
:10193000590BBC0187E095E00C94D40780E090E05F
:1019400008950C948F0C8F929F92AF92BF92CF927A
:10195000DF92EF92FF920E943D0C4B015C018AE006
:10196000C82ED12CE12CF12C0E943D0CDC01CB01C6
:1019700088199909AA09BB09883E9340A105B105B8
:1019800098F321E0C21AD108E108F10888EE880E28
:1019900083E0981EA11CB11CC114D104E104F10420
:1019A00019F7FF90EF90DF90CF90BF90AF909F908E
:1019B0008F9008951092C3051092C2056DE186EADA
:1019C00095E00E942E06482F4E7F6DE986EA95E04D
:1019D0000C940E0641E861E886EA95E00E940E0646
:1019E0000E94DA0C40E06DE886EA95E00E940E065F
:1019F00040E062EA86EA95E00E940E0681E090E00F
:101A0000089543E861E886EA95E00E940E0662E1E7
:101A100086EA95E00E942E0683FFF9CF48E062E94E
:101A200086EA95E00E940E0681E090E008953F92DC
:101A30004F925F926F927F928F929F92AF92BF92DE
:101A4000CF92DF92EF92FF920F931F93CF93DF938A
:101A5000CDB7DEB72C970FB6F894DEBF0FBECDBF63
:101A60005C01DC015B968D909C905C971696CD9006
:101A7000DD90ED90FC901997C114D104E104F104BC
:101A800039F0BFEFCB1ADB0AEB0AFB0A312C07C097
:101A9000F401C080D180E280F38033243394F401D8
:101AA00081859285A385B4859C01AD012F5F3F4F51
:101AB0004F4F5F4F29873A874B875C872601370155
:101AC0001D821E821F821886F40181859285A3855E
:101AD000B4852D813E814F815885281739074A07E3
:101AE0005B0708F063C089859A85AB85BC858C153A
:101AF0009D05AE05BF0550F482E0C82ED12CE12C27
:101B0000F12C92E0492E512C612C712C9E012F5FFB
:101B10003F4FB701A601C4010E948B03882309F43B
:101B200045C089819A81AB81BC81892B8A2B8B2B03
:101B300041F0260137019FEF491A590A690A790ACB
:101B400005C0C414D504E604F70491F02D813E814C
:101B50004F8158852F5F3F4F4F4F5F4F2D833E83FF
:101B60004F8358873FEFC31AD30AE30AF30AACCF77
:101B70000FEF1FEF2FEF3FE0B301A201C4010E945E
:101B8000EA02882399F0D50116964D915D916D91E9
:101B90007C911997411551056105710549F0930133
:101BA0008201C4010E94EA02811102C080E02AC0C1
:101BB000D50116964D925D926D927C9219973320C5
:101BC00051F0D301C2010196A11DB11DF401808322
:101BD0009183A283B383F5018789908DA18DB28D06
:101BE000892B8A2B8B2B69F4D50157964D925D92E8
:101BF0006D927C925A9714968C91149780681496E3
:101C00008C9381E02C960FB6F894DEBF0FBECDBF4B
:101C1000DF91CF911F910F91FF90EF90DF90CF90C8
:101C2000BF90AF909F908F907F906F905F904F90FC
:101C30003F900895CF93DF93282F30E0F901E155CD
:101C4000FF4F8491F901E859FF4FD491F901EA5708
:101C5000FF4FC491CC2391F081110E94140CEC2F02
:101C6000F0E0EE0FFF1FEB55FF4FA591B491EC9103
:101C7000ED2381E090E021F480E002C080E090E07C
:101C8000DF91CF9108951F93CF93DF93282F30E0FA
:101C9000F901E155FF4F8491F901E859FF4FD491C3
:101CA000F901EA57FF4FC491CC23C1F0162F8111DF
:101CB0000E94140CEC2FF0E0EE0FFF1FE458FF4FD2
:101CC000A591B4919FB7F894111104C08C91D0954F
:101CD000D82302C0EC91DE2BDC939FBFDF91CF9124
:101CE0001F910895CF93DF9390E0FC01E859FF4FD7
:101CF0002491FC01EA57FF4F8491882361F190E021
:101D0000880F991FFC01E556FF4FC591D491FC0146
:101D1000E458FF4FA591B491611109C09FB7F894A1
:101D20008881209582238883EC912E230BC062301A
:101D300061F49FB7F8948881322F3095832388838C
:101D4000EC912E2B2C939FBF06C08FB7F894E8819F
:101D50002E2B28838FBFDF91CF9108952FB7F89452
:101D60006091AB067091AC068091AD069091AE0685
:101D70002FBF08958F929F92AF92BF92EF92FF92E2
:101D80000F931F93CF93DF9300D000D0CDB7DEB772
:101D900019821A821B821C8284E690E0A0E0B0E0E7
:101DA00080930B0590930C05A0930D05B0930E0541
:101DB0008E010F5F1F4F7E0185E0E80EF11C0E942F
:101DC000AE0E60930F0570931005809311059093EC
:101DD000120587E095E00E940D0897FF2CC00E9435
:101DE000AE0E80900F0590901005A0901105B09058
:101DF0001205DC01CB0188199909AA09BB09809059
:101E00000B0590900C05A0900D05B0900E0588155F
:101E10009905AA05BB05E8F28981813051F48A81D0
:101E20008F3F39F48B818F3F21F481E09C819F3F6C
:101E300051F080E008C0F80181938F01EE16FF0693
:101E400009F0BDCFE9CF0F900F900F900F90DF9169
:101E5000CF911F910F91FF90EF90BF90AF909F9007
:101E60008F9008951F920F920FB60F9211242F9307
:101E70003F938F939F93AF93BF938091AB069091C5
:101E8000AC06A091AD06B091AE063091AA0623E053
:101E9000230F2D3720F40196A11DB11D05C026E8A2
:101EA000230F0296A11DB11D2093AA068093AB06B5
:101EB0009093AC06A093AD06B093AE068091AF06AA
:101EC0009091B006A091B106B091B2060196A11D05
:101ED000B11D8093AF069093B006A093B106B09366
:101EE000B206BF91AF919F918F913F912F910F902B
:101EF0000FBE0F901F901895789484B5826084BDB2
:101F000084B5816084BD85B5826085BD85B58160FD
:101F100085BD80916E00816080936E00109281007B
:101F20008091810082608093810080918100816036
:101F300080938100809180008160809380008091F7
:101F4000B10084608093B1008091B0008160809383
:101F5000B00080917A00846080937A0080917A004A
:101F6000826080937A0080917A00816080937A0009
:101F700080917A00806880937A001092C1000E945C
:101F8000620C61E08EE00E94720E61E08FE00E94C0
:101F9000720E61E080E10E94720E61E085E00E94B5
:101FA000720E60E081E10E94720E0E94AE0E60939C
:101FB000F2047093F3048093F4049093F5040E9468
:101FC000AE0E6093FA047093FB048093FC0490932C
:101FD000FD046FEC77E070935306609352068AE439
:101FE00096E090935506809354064BEC57E050933F
:101FF0004706409346068EE396E090934906809309
:10200000480627EC37E030933B0620933A0682E3FC
:1020100096E090933D0680933C0683EC97E0909386
:102020002F0680932E06E6E2F6E0F0933106E09369
:1020300030067093230660932206EAE1F6E0F093FF
:102040002506E09324065093170640931606EEE00B
:10205000F6E0F0931906E093180630930B062093F0
:102060000A06E2E0F6E0F0930D06E0930C0690938A
:10207000FF058093FE05E6EFF5E0F0930106E0939F
:1020800000067093F3056093F2056AEE75E07093B5
:10209000F5056093F4055093E7054093E6054EED92
:1020A00055E05093E9054093E8053093DB05209314
:1020B000DA0522ED35E03093DD052093DC059093C1
:1020C000CF058093CE0586EC95E09093D105809363
:1020D000D0058AE090E09093B7058093B60589E03B
:1020E00090E09093B9058093B80582E090E09093DA
:1020F000BB058093BA0561E08AE00E94720E61E040
:102100008091B6050E94430E8091B8059091B90563
:102110008F3F2FEF920789F061E00E94720E60E01E
:102120008091B8050E94430E0E94A30C61E080914B
:10213000B8050E94430E0E94A30CCFB7F89480917B
:10214000E904811127C0E0E9F0E08491E2E7F0E0E2
:102150009491E82FF0E0EE0FFF1FE556FF4FA59199
:10216000B491EC91E92321F461E08AE00E94430EEE
:1021700061E08AE00E94720E8CB580618CBD8CB5E6
:1021800080648CBD61E08DE00E94720E61E08BE0A6
:102190000E94720E8091E9048F5F8093E904CFBFA3
:1021A00062E486EA95E00E942E06823109F057C269
:1021B00040E861E886EA95E00E940E0680E091EA38
:1021C000ACEBB3E38093BC059093BD05A093BE0533
:1021D000B093BF0549ED66E886EA95E00E940E06D9
:1021E00040E067E886EA95E00E940E0640E068E875
:1021F00086EA95E00E940E0640E06EE886EA95E0E9
:102200000E940E0640E06FE886EA95E00E940E0606
:102210006CE086EA95E00E942E06482F43606CE849
:1022200086EA95E00E940E0644E066EA86EA95E0BA
:102230000E940E064FE869E886EA95E00E940E06C5
:1022400041E861E886EA95E00E940E060E94620C71
:1022500089E492E00E94F50587EF91E00E94F50580
:102260000E94BA0E8FEF91E00E94F5050E94BA0E0F
:10227000B0E26B2EB1E07B2EC7EA8C2EC4E09C2E20
:10228000D6E02D2ED2E03D2E62E186EA95E00E9456
:102290002E06C82F0E94DA0C4C2F62E986EA95E0E0
:1022A0000E940E06C6FF2EC0C5FD2CC01092C105AF
:1022B0001092C0058091C2059091C305892B11F041
:1022C00062E201C063E186EA95E00E942E06C82F13
:1022D000D0E060E186EA95E00E942E06482F6DE886
:1022E00086EA95E00E940E0641E861E886EA95E0FC
:1022F0000E940E06CD2B09F4BBC1AAE04A2E55243C
:1023000053941CC061E086EA95E00E942E06863850
:1023100009F4AEC140E06DE886EA95E00E940E0641
:1023200046E861E886EA95E00E940E06A1C186EAC9
:1023300095E00E9458068B3B910539F086EA95E0BE
:102340000E947306892B99F793C186EA95E00E9453
:1023500058068F3F910509F022C1E8E1EE2EE1E039
:10236000FE2EFAEECF2EF4E0DF2E8601E70186EA9C
:1023700095E00E945806B82E86EA95E00E9458061D
:10238000982F88278B298993999386EA95E00E9454
:102390005806B82E86EA95E00E945806982F88279E
:1023A0008B29F801819391938F016C167D06F9F6C4
:1023B0000E94EA0C6CEB86EA95E00E949E006FEFAB
:1023C00086EA95E00E949E00CAEED4E058E1A52E70
:1023D00051E0B52E8501F501608186EA95E00E9405
:1023E0009E00F2E0AF0EB11CF801618186EA95E033
:1023F0000E949E00688186EA95E00E949E006981A5
:10240000229686EA95E00E949E006A147B0411F7EA
:102410000E94010D0E94D50648E1A42E41E0B42E91
:102420000AEE14E0C1E0D0E0F801819191918F01B2
:10243000F501029711F5808191816AE070E00E94B8
:1024400099159F938F937F936F93DF93CF933F92D1
:102450002F929F928F920E94CC1587EA94E00E945F
:10246000A10C0E94D5064DB75EB7465F5F4F0FB611
:10247000F8945EBF0FBE4DBF1CC081818F938081D9
:102480008F93DF93CF934DE152E05F934F939F92F1
:102490008F920E94CC1587EA94E00E94A10C0E94C2
:1024A000D506EDB7FEB738960FB6F894FEBF0FBE4F
:1024B000EDBF2196F2E0AF0EB11CC530D10509F099
:1024C000B3CF00E010E0C1E0D0E0C230D10569F543
:1024D0002091EC043091ED0480911A0190911B0140
:1024E0002230310511F45C0105C0489E5001499E1F
:1024F000B00C112483E090E00E94BC06A816B90637
:102500001CF05092FE0409C082E090E00E94BC06DC
:102510008A159B052CF05092FF0461E070E002C028
:1025200060E070E082E090E02AC0F6018081918155
:10253000F701029719F4A080B18007C080819181D2
:10254000489E5001499EB00C1124C80101960E947A
:10255000BC06A816B9062CF05092FE0461E070E0AB
:102560000DC0C8010E94BC06A816B9062CF05092F6
:10257000FF0462E070E002C060E070E0CE010E9403
:10258000DB0621960E5F1F4FF2E0EF0EF11C22E0FA
:10259000C20ED11C0830110509F097CFCFCE86EAC4
:1025A00095E00E945806892B09F0C8CEC8E0D1E01A
:1025B00009ED14E068017E0186EA95E00E94580664
:1025C000B82E86EA95E00E945806982F88278B2916
:1025D000F701819391937F0186EA95E00E94580666
:1025E000B82E86EA95E00E945806982F88278B29F6
:1025F000F601819391936F01F8E1EF16F1E0FF0688
:10260000D9F60E94EA0C6CEB86EA95E00E949E00E7
:1026100060E086EA95E00E949E007E01688186EA7D
:1026200095E00E949E002296F701618186EA95E07E
:102630000E949E00F801608186EA95E00E949E005B
:10264000F80161810E5F1F4F86EA95E00E949E00AF
:10265000F1E0C831DF0709F70E94010D6FCE81E379
:1026600092E00E948F0C87E492E00E948F0CFFCFD3
:1026700081E10E941A0E019721F41092FF0410923A
:10268000FE040E94AE0E6B017C016093F604709311
:10269000F7048093F8049093F9048091F2049091E8
:1026A000F304A091F404B091F504A7019601281B4E
:1026B000390B4A0B5B0BDA01C901843F9140A1053C
:1026C000B10508F449C08091FF04811104C08091D4
:1026D000FE04882391F18EE00E941A0E61E0892B9E
:1026E00009F060E08EE00E94430E8FE00E941A0E17
:1026F00061E0892B09F060E08FE00E94430E80E1E9
:102700000E941A0E61E0892B09F060E080E10E94CE
:10271000430E8091FE04882319F088EB91E002C0FB
:1027200085E091E00E94E309C092F204D092F304A4
:10273000E092F404F092F5040FC085E00E94450891
:1027400060E08EE00E94430E60E08FE00E94430E46
:1027500060E080E10E94430E0E94AE0E0091FA04F8
:102760001091FB042091FC043091FD0408511C4F92
:102770002F4F3F4F061717072807390798F40E9475
:10278000EA0C6CEB86EA95E00E949E000E94010D27
:102790000E94AE0E6093FA047093FB048093FC04D5
:1027A0009093FD040E948D006FCDE7E0F5E0138269
:1027B000128288EE93E0A0E0B0E084839583A68344
:1027C000B78385E291E09183808385EC90E09587E3
:1027D000848784EC90E09787868780EC90E0918BEB
:1027E000808B81EC90E0938B828B82EC90E0958BD8
:1027F000848B86EC90E0978B868B118E128E138ED5
:10280000148EE4EAF5E080E580831182E0E6F6E0EC
:10281000158216821186138642E050E060E070E077
:10282000448755876687778713A215A614A627E3E2
:1028300031E033A722A717A6E6EAF5E01382128259
:1028400023E431E031832083848781E0858789EA2E
:1028500096E0978786878AE090E0918B808B89E06D
:1028600090E0938B828B82E090E0958B848B168A2C
:10287000178A108E118E138E128E158E148E178E4F
:10288000168E1482158216821782EAE4F6E0108210
:1028900085E081838AE492E09383828315821482A7
:1028A000118610861386128617821682EEE3F6E0F2
:1028B000108286E081838FE492E093838283158285
:1028C0001482118610861386128617821682E2E31E
:1028D000F6E0108287E0818384E592E0938382832F
:1028E000158214821186108613861286178216822C
:1028F000E6E2F6E0108288E0818389E592E0938346
:10290000828315821482118610861386128617829E
:102910001682EAE1F6E010828EE081838EE592E095
:102920009383828315821482118610861386128601
:1029300017821682EEE0F6E010828FE0818388E64F
:1029400092E0938382831582148211861086138607
:10295000128617821682E2E0F6E0108280E181831F
:1029600082E792E093838283158214821186108617
:102970001386128617821682E6EFF5E0108281E157
:1029800081838CE792E0938382831582148211867F
:1029900010861386128617821682EAEEF5E0108200
:1029A00089E0818386E892E0938382831582148292
:1029B000118610861386128617821682EEEDF5E0D8
:1029C00010828AE081838CE892E09383828315826F
:1029D0001482118610861386128617821682E2ED03
:1029E000F5E010828CE0818382E992E09383828318
:1029F000158214821186108613861286178216821B
:102A0000E6ECF5E010828BE0818388E992E0938325
:102A1000828315821482118610861386128617828D
:102A200016820895052E97FB1EF400940E94291526
:102A300057FD07D00E94681507FC03D04EF40C9494
:102A4000291550954095309521953F4F4F4F5F4F39
:102A5000089590958095709561957F4F8F4F9F4F0A
:102A600008952F923F924F925F926F927F928F9232
:102A70009F92AF92BF92CF92DF92EF92FF920F930D
:102A80001F93CF93DF93CDB7DEB7CA1BDB0B0FB617
:102A9000F894DEBF0FBECDBF09942A8839884888D4
:102AA0005F846E847D848C849B84AA84B984C8846A
:102AB000DF80EE80FD800C811B81AA81B981CE0F61
:102AC000D11D0FB6F894DEBF0FBECDBFED01089546
:102AD000A1E21A2EAA1BBB1BFD010DC0AA1FBB1F22
:102AE000EE1FFF1FA217B307E407F50720F0A21B94
:102AF000B30BE40BF50B661F771F881F991F1A9401
:102B000069F760957095809590959B01AC01BD012A
:102B1000CF010895A29FB001B39FC001A39F700D84
:102B2000811D1124911DB29F700D811D1124911DD5
:102B3000089597FB072E16F4009407D077FD09D06F
:102B40000E94AD1507FC05D03EF4909581959F4FEE
:102B50000895709561957F4F0895AA1BBB1B51E1A5
:102B600007C0AA1FBB1FA617B70710F0A61BB70BFD
:102B7000881F991F5A95A9F780959095BC01CD01A2
:102B80000895EE0FFF1F0590F491E02D099481E068
:102B900090E0F8940C947F18AEE0B0E0E2EDF5E13F
:102BA0000C943F150D891E8986E08C831A83098356
:102BB0008FEF9FE79E838D83AE01475E5F4F6F89E6
:102BC000788DCE0101960E94EE15EF81F885E00F19
:102BD000F11F10822E96E4E00C945B15ABE0B0E0A0
:102BE000E4EFF5E10C9431156C017B018A01FC01E5
:102BF00017821682838181FFCCC1CE0101963C01F0
:102C0000F6019381F70193FD859193FF81917F01F7
:102C1000882309F4BAC1853239F493FD859193FF75
:102C200081917F01853229F4B60190E00E94E51779
:102C3000E7CF912C212C312CFFE1F315D8F08B320A
:102C400079F038F4803279F08332A1F4232D2061B9
:102C50001DC08D3261F0803369F4232D216016C0D0
:102C6000832D8260382EE32DE4603E2E2AC0F32DA2
:102C7000F8601DC037FC2DC020ED280F2A3040F031
:102C80008E32B9F436FC81C1232D2064322E19C056
:102C900036FE06C08AE0989E200D1124922E11C0A7
:102CA000EAE02E9E200D1124222EF32DF0623F2EFD
:102CB00008C08C3621F4832D8068382E02C08836F7
:102CC00041F4F70193FD859193FF81917F0181117B
:102CD000B3CF982F9F7D9554933028F40C5F1F4FEE
:102CE0009FE399830DC0833631F0833771F08335CC
:102CF00009F059C021C0F801808189830E5F1F4F00
:102D000088248394912C530113C02801F2E04F0EC4
:102D1000511CF801A080B18036FE03C0692D70E01F
:102D200002C06FEF7FEFC5010E94DA174C018201EC
:102D3000F32DFF773F2E16C0280122E0420E511CD2
:102D4000F801A080B18036FE03C0692D70E002C09A
:102D50006FEF7FEFC5010E94CF174C01F32DF06894
:102D60003F2E820133FC1BC0822D90E0881699060D
:102D7000B0F4B60180E290E00E94E5172A94F4CF07
:102D8000F50137FC859137FE81915F01B60190E036
:102D90000E94E51721102A9421E0821A91088114DB
:102DA000910471F7E8C0843611F0893641F5F801D5
:102DB00037FE07C060817181828193810C5F1F4F54
:102DC00008C060817181072E000C880B990B0E5F83
:102DD0001F4FF32DFF763F2E97FF09C090958095EA
:102DE000709561957F4F8F4F9F4FF0683F2E2AE07F
:102DF00030E0A3010E942118882E861845C085372F
:102E000031F4232D2F7EB22E2AE030E025C0932D01
:102E1000997FB92E8F36C1F018F4883579F0B5C096
:102E2000803719F0883721F0B0C0E92FE061BE2E5D
:102E3000B4FE0DC0FB2DF460BF2E09C034FE0AC0E5
:102E4000292F2660B22E06C028E030E005C020E120
:102E500030E002C020E132E0F801B7FE07C0608137
:102E60007181828193810C5F1F4F06C060817181E7
:102E700080E090E00E5F1F4FA3010E942118882E72
:102E80008618FB2DFF773F2E36FE0DC0232D2E7F9B
:102E9000A22E891458F434FE0BC032FC09C0832DD5
:102EA0008E7EA82E05C0B82CA32C03C0B82C01C060
:102EB000B92CA4FE0FC0FE01E80DF11D8081803306
:102EC00021F49A2D997EA92E09C0A2FE06C0B394C2
:102ED000B39404C08A2D867809F0B394A3FC11C082
:102EE000A0FE06C0B21488F4280C922C9B180EC0C9
:102EF000B21460F4B60180E290E00E94E517B3944A
:102F0000F7CFB21418F42B1802C0982C212CA4FE71
:102F100010C0B60180E390E00E94E517A2FE17C042
:102F2000A1FC03C088E790E002C088E590E0B6010C
:102F30000CC08A2D867859F0A1FE02C08BE201C038
:102F400080E2A7FC8DE2B60190E00E94E5178914AB
:102F500038F4B60180E390E00E94E5179A94F7CF29
:102F60008A94F301E80DF11D8081B60190E00E9482
:102F7000E5178110F5CF222009F442CEB60180E298
:102F800090E00E94E5172A94F6CFF601868197819A
:102F900002C08FEF9FEF2B96E2E10C944D15FC01E0
:102FA0000590615070400110D8F7809590958E0F74
:102FB0009F1F0895FC016150704001900110D8F7E7
:102FC000809590958E0F9F1F08950F931F93CF9319
:102FD000DF93FB01238121FD03C08FEF9FEF2CC006
:102FE00022FF16C04681578124813581421753073D
:102FF00044F4A081B1819D012F5F3F4F3183208335
:103000008C93268137812F5F3F4F3783268314C0EF
:103010008B01EC01FB010084F185E02D0995892BE2
:10302000E1F6D80116968D919C9117970196179607
:103030009C938E931697CE01DF91CF911F910F91A4
:103040000895FA01AA27283051F1203181F1E8943E
:103050006F936E7F6E5F7F4F8F4F9F4FAF4FB1E08B
:103060003ED0B4E03CD0670F781F891F9A1FA11D86
:10307000680F791F8A1F911DA11D6A0F711D811D87
:10308000911DA11D20D009F468943F912AE0269F4C
:1030900011243019305D3193DEF6CF010895462FAB
:1030A0004770405D4193B3E00FD0C9F7F6CF462F8C
:1030B0004F70405D4A3318F0495D31FD40524193F5
:1030C00002D0A9F7EACFB4E0A695979587957795B2
:1030D0006795BA95C9F700976105710508959B0139
:1030E000AC010A2E06945795479537952795BA95C2
:1030F000C9F7620F731F841F951FA01D0895F894D0
:02310000FFCFFF
:10310200FFFFFFFFD307D3070A00140013001700C5
:10311200140064006400C8000000150000000000F4
:10312200FF000000007208D407FE07BF082F080D39
:10313200082108000000000E04D407C200C10000EC
:103142000000009E008106C2009D007306580632F0
:103152000664617461466C61672E76616C3D256917
:10316200006761732569666C61672E76616C3D2527
:1031720075007468726573686F6C64312E7478744C
:103182003D2225692C256922007468726573686F77
:103192006C64312E7478743D2225692C2200746887
:1031A200726573686F6C64312E7478743D22256980
:1031B20022007468726573686F6C64322E7478745E
:1031C2003D2225692C256922007468726573686F37
:1031D2006C64322E7478743D2225692C2200736847
:1031E2006F775468726573686F6C6473322E74788B
:1031F200743D2225692200626B636D643D3100706B
:10320200616765203000676173256976616C756559
:103212002E7478743D2225692C256922006761731A
:10322200256976616C75652E7478743D2225692254
:10323200005374617274696E67204C6F526120662C
:1032420061696C656421000D0A0067617331006772
:1032520061733200676173330067617334006761C1
:10326200733176616C7565006761733276616C7576
:1032720065006761733376616C75650067617334ED
:1032820076616C756500756E69743100756E69746E
:0E3292003200756E69743300756E6974340015
:00000001FF
