:100000000C9463000C9495080C946E080C94E00218
:100010000C94E0020C94E0020C948B000C94BC084D
:100020000C948B000C948B000C948B000C948B0024
:100030000C948B000C948B000C948B000C948B0014
:100040000C9424080C948B000C943E090C94180911
:100050000C948B000C948B000C948B000C948B00F4
:100060000C948B000C948B000000000024002700EF
:100070002A000000000023002600290000000008DC
:10008000000201000003040700000000000000005F
:10009000010204081020408001020408102001021F
:1000A0000408102000000000250028002B00040494
:1000B0000404040404040202020202020303030310
:1000C00003030200981211241FBECFEFD8E0DEBF59
:1000D000CDBF11E0A0E0B1E0E0EFFCE202C005908E
:1000E0000D92A63CB107D9F725E0A6ECB1E001C01E
:1000F0001D92AB34B207E1F710E0C3E6D0E004C0D4
:100100002197FE010E94B813C236D107C9F70E9499
:10011000BD0E0C9476160C94000080E090E0892BC4
:1001200029F00E947E0781110C94000008958FB77A
:10013000F8948091C6018FBF08950895CF93DF93FF
:100140001F92CDB7DEB76983DC01ED91FC9102808F
:10015000F381E02D41E050E0BE016F5F7F4F0995D4
:100160000F90DF91CF9108958EBD00000DB407FE72
:10017000FDCF8EB508958FEF0C94B4008CBD9DBD5E
:100180000895089580E090E008950F931F93CF9312
:10019000DF93EB010E94390E8B010E94BB008F3F61
:1001A00049F00E94390E601B710B6C177D07A8F394
:1001B00080E001C081E0DF91CF911F910F91089500
:1001C00061E0FC0184810E949D0B8091C701811137
:1001D0001092C7010895CF93DF93EC018E8188239D
:1001E00089F08F8198859C012F5F3F4F38872F833F
:1001F0008230924018F40E94BB00F3CFCE010E94DF
:10020000E0001E82DF91CF9108958F929F92AF926E
:10021000BF92FF920F931F93CF93DF93EC01F62EC3
:1002200049015A010E94EB008091C701811109C068
:1002300081E08093C7018091D5049091D6040E94FB
:10024000BE0060E08C810E949D0B6CE271E0CE01EB
:100250000E94C5008F2D80640E94B40008E110E068
:10026000D501C401002E04C0B695A7959795879532
:100270000A94D2F70E94B40008501109083F8FEF8A
:10028000180771F7FF2029F088E0F81204C087E80A
:1002900003C085E901C08FEF0E94B40010E00E9406
:1002A000BB008A8787FF04C01F3F11F01F5FF7CF95
:1002B000DF91CF911F910F91FF90BF90AF909F90D2
:1002C0008F900895EF92FF920F931F93CF93DF9338
:1002D000EC017901411551056105710511F482E1C7
:1002E0003CC08B85833039F089E0440F551F661F71
:1002F000771F8A95D1F79A01AB0168E1CE010E9480
:100300000501882311F084E028C08EEF0E94B4001C
:1003100087018EEFF81AF80181918F010E94B400D5
:10032000E016F106C1F78FEF0E94B4008FEF0E9434
:10033000B4000E94BB008A878F71853031F081E163
:100340008D83CE010E94E00009C068E572E0CE0115
:100350000E94C500811107C085E18D83CE010E94F6
:10036000E00080E014C020E030E0A9016DE0CE01A3
:100370000E940501811109C00E94BB00811105C0C6
:10038000CE010E94E00081E002C084E1E6CFDF916F
:10039000CF911F910F91FF90EF9008958091C80128
:1003A000882389F14091000150910101609102017F
:1003B000709103012DEC31E080E090E00E94620139
:1003C000811102C080E008954091C9015091CA0195
:1003D0006091CB017091CC0141155105610571050A
:1003E00081F02DEC31E080E090E00E9462018823F2
:1003F00049F31092C9011092CA011092CB011092D8
:10040000CC011092C80181E00895AF92BF92CF92C3
:10041000DF92EF92FF921F93CF93DF936B017C01EA
:10042000142F8091000190910101A0910201B091DF
:1004300003018C159D05AE05BF0509F48FC00E9410
:10044000CE01882309F490C0809106008823A1F092
:100450008091000090910100A0910200B0910300F2
:10046000C816D906EA06FB0639F480910700909178
:100470000800892B09F443C0C0920000D09201000B
:10048000E0920200F092030080910B00A701960118
:10049000833039F099E0220F331F441F551F9A957E
:1004A000D1F761E180E090E00E940501882321F00E
:1004B00083E08093050044C00E94390EEB010E9446
:1004C000BB0080930A008F3F49F40E94390E6C1BD9
:1004D0007D0B6D32714098F38FE003C08E3F41F089
:1004E0008DE08093050080E090E00E94E00028C04D
:1004F000109208001092070081E080930600CDEC76
:10050000D1E08DECA82E83E0B82E0E94BB00899329
:10051000AC16BD06D1F780910700909108009E5F50
:10052000909308008093070020910900222319F07E
:100530008115924058F080E090E00E94EB0006C0E8
:1005400080E090E00E94E00080E00EC0C0920001D8
:10055000D0920101E0920201F09203014091C801A2
:10056000412B4093C80181E0DF91CF911F91FF9013
:10057000EF90DF90CF90BF90AF900895FC01848DF5
:10058000DF01A80FB11DA35ABF4F2C91848D90E0BD
:1005900001968F739927848FA689B7892C93A08998
:1005A000B1898C91837080648C93938D848D981322
:1005B00006C00288F389E02D80818F7D80830895B5
:1005C0001F920F920FB60F9211240F900FBE0F9033
:1005D0001F9018954F925F926F927F928F929F9289
:1005E000AF92BF92CF92DF92EF92FF920F931F9341
:1005F000CF93DF93EC01423051056105710510F492
:1006000080E078C089859A85AB85BC850196A11D5F
:10061000B11D84179507A607B70790F3CB88DC8830
:10062000ED88FE888F89803129F4BB27A72F962F6C
:10063000852F09C0DB01CA01E7E0B695A79597951C
:100640008795EA95D1F7480159012A013B01C80E67
:10065000D91EEA1EFB1E8091000190910101A0911C
:100660000201B0910301C816D906EA06FB0681F41F
:100670008F898031A9F4B301A20155276627772716
:10068000440F551FFA01E353FE4F9182808219C037
:1006900040E0C701B6010E9405028111E9CFB0CF49
:1006A000B301A2014F77552766277727440F551FBF
:1006B000440F551FFA01E353FE4F80829182A282BC
:1006C000B3828091C80181608093C8018A89823099
:1006D00080F08D819E81AF81B885C80ED91EEA1E3B
:1006E000FB1EC092C901D092CA01E092CB01F092E8
:1006F000CC0181E0DF91CF911F910F91FF90EF909E
:10070000DF90CF90BF90AF909F908F907F906F9031
:100710005F904F9008958F929F92AF92BF92CF9229
:10072000DF92EF92FF920F931F93CF93DF93FC0121
:1007300081859285A385B4850196A11DB11D84177D
:100740009507A607B70710F480E05BC083889488FC
:10075000A588B6888789803129F4BB27A72F962FD3
:10076000852F09C0DB01CA01C7E0B695A79597950B
:100770008795CA95D1F7E9016A017B018F01BC0118
:10078000CD01680D791D8A1D9B1D80900001909000
:100790000101A0900201B0900301681579058A0556
:1007A0009B0591F4F80187898031A1F4DD24EE24C2
:1007B000FF24C601880F991FFC01E353FE4F80817F
:1007C0009181A0E0B0E018C040E00E9405028111D4
:1007D000E9CFBACFE894C7F8DD24EE24FF24C601A0
:1007E000880F991F880F991FFC01E353FE4F8081EA
:1007F0009181A281B381BF7088839983AA83BB83CF
:1008000081E0DF91CF911F910F91FF90EF90DF90EA
:10081000CF90BF90AF909F908F9008954F925F922E
:100820006F927F92AF92BF92CF92DF92EF92FF9240
:100830000F931F93CF93DF9300D000D01F92CDB7BB
:10084000DEB78C016D83DC0115968C911597813094
:1008500009F054C014968C9181FF50C057C0258573
:1008600030E0275F3F4F2A013B01B1E04B1A5108AE
:1008700061087108022E04C07694679457944794D7
:100880000A94D2F7D701C6010197A109B10904C0A2
:10089000B695A795979587952A95D2F784159505CE
:1008A000A605B70508F076C0F8014789508D618D1F
:1008B000728D46835783608771872C013D015801F3
:1008C000F6E0AF0EB11C411451046104710409F447
:1008D0006BC0D80116964D915D916D917C911997E1
:1008E00095015B968D919C915C970E948B03B1E082
:1008F0004B1A5108610871088111E5CF81E090E041
:10090000F8019383828380E090E05BC182FF0EC098
:10091000F8014285538564857585C388D488E58848
:10092000F6884C155D056E057F05E9F4D8011A9629
:100930004D915D916D917C911D975B96ED91FC9130
:100940005C97948191506A017B0189E0F694E79469
:10095000D794C7948A95D1F79C217A01B1E0FB2204
:10096000911173C027C0D801038CF48DE02DC11400
:10097000D104E104F10409F072CF16961D921D9284
:100980001D921C9219971A961D921D921D921C92EF
:100990001D9714C0452B462B472B09F485CF84198E
:1009A0009509A609B70989CFF801C286D386E486DE
:1009B000F586BCCFE114F10409F047C0D8011696C2
:1009C0004D915D916D917C9119974115510561058E
:1009D000710559F457968D919D910D90BC91A02D64
:1009E0000097A105B10549F522C09E012F5F3F4F39
:1009F000CF010E948B03882309F485CF89819A81D6
:100A0000AB81BC81F801238D348DF9012789203118
:100A100029F448EF5FEF60E070E004C048EF5FEF5B
:100A20006FEF7FE084179507A607B70730F0C8017E
:100A30000E94710A811106C061CFF80186839783F5
:100A4000A087B187E12CF12C90E0D8015B96ED9165
:100A5000FC915C9716964D905D906D907C901997E7
:100A6000B2E04B1A510861087108058404C0440CB7
:100A7000551C661C771C0A94D2F7468557856089F9
:100A80007189440E551E661E771E490E511C611C4D
:100A9000711CE114F10409F5F80142855385648560
:100AA000758583899489A589B689481759076A0786
:100AB0007B0798F00E94CE01882309F41FCF409253
:100AC0000001509201016092020170920301809135
:100AD000C80181608093C80108C041E0C301B20130
:100AE0000E940502882309F409CFF701E353FE4F62
:100AF0008D818083F80182859385A485B5850196D3
:100B0000A11DB11D82879387A487B5874389548926
:100B100065897689481759076A077B0738F4838BFC
:100B2000948BA58BB68B848180688483D8011496BE
:100B30008C9183FD03C081E090E043C0F801958172
:100B4000992309F4DBCE87FF37C0668577858089D6
:100B5000918941E00E940502882309F4CFCED80193
:100B60005296EC91B0E2EB9FF0011124E353FE4F5B
:100B7000309709F4C3CED80115968C911597823021
:100B800050F453964D915D916D917C915697448FA1
:100B9000558F668F778FD80157964D915D916D91E6
:100BA0007C915A97538F428F758B648B14968C91DE
:100BB00014978F7714968C930E94CE018111BBCF2E
:100BC0009DCE0F900F900F900F900F90DF91CF91CF
:100BD0001F910F91FF90EF90DF90CF90BF90AF905B
:100BE0007F906F905F904F900895CF93DF93EC01CB
:100BF00088E394E00E947207892B29F088E394E04F
:100C00000E945007F5CFCE010E94EB090E94E60931
:100C10000E94E609DF91CF910C94E6090F931F9390
:100C2000CF93DF93EC01062F142F60E088890E9498
:100C30009D0B8C859D850E94BE00802F0E94B40074
:100C4000812F0E94B400182F61E088890E949D0BBB
:100C5000812FDF91CF911F910F9108956F7740E021
:100C60000C940E060F931F93CF93DF93EC01E88152
:100C7000F9810084F185E02D0995892B91F06DE0D3
:100C8000CE010E942E06082F60E0CE010E942E06A3
:100C9000182F402F6DE8CE010E940E06812F90E0A4
:100CA00002C08FEF9FEFDF91CF911F910F910895B9
:100CB000CF93DF93EC01E881F9810084F185E02D89
:100CC0000995892B59F08A8D9B8D01969B8F8A8F70
:100CD00060E0CE010E942E0690E002C08FEF9FEFF1
:100CE000DF91CF910895CF93DF93EC0163E10E94F0
:100CF0002E0690E02A8D3B8D821B930BDF91CF91C6
:100D00000895AF92BF92CF92DF92FF920F931F93FD
:100D1000CF93DF936C015B01EA0162E20E942E0631
:100D2000F82E90E09C012C0F3D1F2F3F310529F03C
:100D300020F0CFEFD0E0C81BD90B8501AC0EBD1E53
:100D40000A151B0541F0F80141918F0160E8C601C9
:100D50000E940E06F5CF4C2F4F0D62EAC6010E948D
:100D60000E06CE01DF91CF911F910F91FF90DF9082
:100D7000CF90BF90AF900895880F991FFC01EF5F4F
:100D8000FB4F20813181FC01E85FFE4F22303105AD
:100D900019F4808191810895208131814AE0429F38
:100DA000C001439F900D112408950E94E6090E94FE
:100DB000E6090C94E609EF92FF920F931F93CF93ED
:100DC000DF93182F092FF62EE72E1F9281E08F93C5
:100DD00081E591E09F938F93CFECD3E0DF93CF93A6
:100DE0000E94C313CE010E94EB090E94D506EF9228
:100DF000FF920F931F9381E691E09F938F93DF9370
:100E0000CF930E94C313CE010E94EB098DB79EB70A
:100E10000E960FB6F8949EBF0FBE8DBFDF91CF9197
:100E20001F910F91FF90EF900C94D5060895CF92EB
:100E3000DF92EF92FF920F931F93CF93DF936C019A
:100E40007A018B01C0E0D0E0CE15DF0581F0D8013A
:100E50006D918D01D601ED91FC910190F081E02D15
:100E6000C6010995892B11F02196EECF7E01C701AD
:100E7000DF91CF911F910F91FF90EF90DF90CF9076
:100E80000895FC01538D448D252F30E0842F90E090
:100E9000821B930B541710F0CF9608950197089575
:100EA000FC01918D828D981761F0828DDF01A80F72
:100EB000B11D5D968C91928D9F5F9F73928F90E094
:100EC00008958FEF9FEF0895FC01918D828D981703
:100ED00031F0828DE80FF11D858D90E008958FEF40
:100EE0009FEF0895FC01918D228D892F90E0805C09
:100EF0009F4F821B91098F739927089588E394E08F
:100F00000E94720721E0892B09F420E0822F0895C6
:100F100090912001891324C0E2ECF0E0E4919FEF6E
:100F200090932001E130B9F098F0E230C9F490914B
:100F300070009D7F9093700091E09093B00090912D
:100F4000B100987F94609093B1001092B30008C0F4
:100F500010926E0005C090916F009D7F90936F007E
:100F600060E00C949D0B0E94BE13EF92FF920F93D2
:100F70001F93CF93DF93EC0181E0888F9B8D8C8D45
:100F8000981305C0E889F989808185FD26C0F62E71
:100F90000B8D10E00F5F1F4F0F731127E02E8C8D0C
:100FA000E8120CC00FB607FCFACFE889F9898081F6
:100FB00085FFF5CFCE010E94BE02F1CF8B8DFE01E1
:100FC000E80FF11DE35AFF4FF0829FB7F8940B8FA3
:100FD000EA89FB89808180620AC09FB7F894EE8914
:100FE000FF896083E889F9898081837080648083C8
:100FF0009FBF81E090E0DF91CF911F910F91FF9013
:10100000EF900895CF93DF93EC01888D8823C9F08A
:10101000EA89FB89808185FD05C0A889B9898C9101
:1010200086FD0FC00FB607FCF5CF808185FFF2CF9C
:10103000A889B9898C9185FFEDCFCE010E94BE02AF
:10104000E7CFDF91CF9108951F920F920FB60F92C5
:1010500011242F933F938F939F93AF93BF938091CE
:10106000290490912A04A0912B04B0912C04309172
:10107000280423E0230F2D3720F40196A11DB11D74
:1010800005C026E8230F0296A11DB11D2093280458
:101090008093290490932A04A0932B04B0932C04EA
:1010A00080912D0490912E04A0912F04B0913004D2
:1010B0000196A11DB11D80932D0490932E04A09341
:1010C0002F04B0933004BF91AF919F918F913F91C6
:1010D0002F910F900FBE0F901F9018951F920F9297
:1010E0000FB60F9211242F933F934F935F936F93FB
:1010F0007F938F939F93AF93BF93EF93FF93E09171
:101100000601F09107010995FF91EF91BF91AF9111
:101110009F918F917F916F915F914F913F912F910F
:101120000F900FBE0F901F9018951F920F920FB641
:101130000F9211242F933F934F935F936F937F935D
:101140008F939F93AF93BF93EF93FF93E09104012D
:10115000F09105010995FF91EF91BF91AF919F919A
:101160008F917F916F915F914F913F912F910F9050
:101170000FBE0F901F9018951F920F920FB60F92EF
:1011800011242F933F934F935F936F937F938F938C
:101190009F93AF93BF93EF93FF938091340490910B
:1011A0003504A0913604B0913704892B8A2B8B2B00
:1011B00051F190913104E0913204F0913304808137
:1011C000892780838091340490913504A09136045E
:1011D000B0913704181619061A061B06C4F480913C
:1011E000340490913504A0913604B09137040197EE
:1011F000A109B1098093340490933504A093360477
:10120000B093370404C0809120010E948807FF91A9
:10121000EF91BF91AF919F918F917F916F915F916E
:101220004F913F912F910F900FBE0F901F901895E7
:101230001F920F920FB60F9211242F933F934F934B
:101240005F936F937F938F939F93AF93BF93EF932E
:10125000FF9388E394E00E94BE02FF91EF91BF915B
:10126000AF919F918F917F916F915F914F913F913E
:101270002F910F900FBE0F901F9018951F920F92F5
:101280000FB60F9211242F938F939F93EF93FF9399
:10129000E0914804F09149048081E0914E04F0917E
:1012A0004F0482FD12C09081809151048F5F8F7333
:1012B00020915204821751F0E0915104F0E0E85C73
:1012C000FB4F958F8093510401C08081FF91EF9176
:1012D0009F918F912F910F900FBE0F901F90189597
:1012E000833081F028F4813099F08230A1F00895A4
:1012F0008730A9F08830B9F08430D1F48091800033
:101300008F7D03C0809180008F7780938000089547
:1013100084B58F7702C084B58F7D84BD0895809198
:10132000B0008F7703C08091B0008F7D8093B000B4
:1013300008953FB7F89480912D0490912E04A091C8
:101340002F04B091300426B5A89B05C02F3F19F09B
:101350000196A11DB11D3FBFBA2FA92F982F882735
:10136000820F911DA11DB11DBC01CD0142E0660F90
:10137000771F881F991F4A95D1F70895E8E3F4E095
:10138000A089B18982E08C93A485B5851C92A6853D
:10139000B7858FEC8C93108EA489B58986E08C93E9
:1013A000A289B3898C9180618C93A289B3898C9135
:1013B00088608C93A289B3898C9180688C93028811
:1013C000F389E02D80818F7D808308956FEF88E31E
:1013D00094E00C94B507009769F0FC01019000209F
:1013E000E9F73197AF01481B590BBC0188E394E042
:1013F0000C94170780E090E008958F929F92AF922F
:10140000BF92CF92DF92EF92FF920E9499094B0117
:101410005C018AE0C82ED12CE12CF12C0E949909A4
:10142000DC01CB0188199909AA09BB09883E9340C0
:10143000A105B10598F321E0C21AD108E108F1082D
:1014400088EE880E83E0981EA11CB11CC114D10443
:10145000E104F10419F7FF90EF90DF90CF90BF9077
:10146000AF909F908F9008951092F4041092F3041F
:101470006DE187ED94E00E942E06482F4E7F6DE9C6
:1014800087ED94E00C940E0641E861E887ED94E066
:101490000E940E060E94340A40E06DE887ED94E059
:1014A0000E940E0640E062EA87ED94E00E940E067C
:1014B00081E090E0089543E861E887ED94E00E94C0
:1014C0000E0662E187ED94E00E942E0683FFF9CFBD
:1014D00048E062E987ED94E00E940E0681E090E02A
:1014E00008953F924F925F926F927F928F929F9258
:1014F000AF92BF92CF92DF92EF92FF920F931F9322
:10150000CF93DF93CDB7DEB72C970FB6F894DEBF3D
:101510000FBECDBF5C01DC015B968D909C905C970B
:101520001696CD90DD90ED90FC901997C114D104E2
:10153000E104F10439F0BFEFCB1ADB0AEB0AFB0A36
:10154000312C07C0F401C080D180E280F3803324C5
:101550003394F40181859285A385B4859C01AD0106
:101560002F5F3F4F4F4F5F4F29873A874B875C87ED
:10157000260137011D821E821F821886F401818593
:101580009285A385B4852D813E814F81588528178A
:1015900039074A075B0708F063C089859A85AB85E0
:1015A000BC858C159D05AE05BF0550F482E0C82EA4
:1015B000D12CE12CF12C92E0492E512C612C712C74
:1015C0009E012F5F3F4FB701A601C4010E948B030C
:1015D000882309F445C089819A81AB81BC81892B1C
:1015E0008A2B8B2B41F0260137019FEF491A590AAC
:1015F000690A790A05C0C414D504E604F70491F019
:101600002D813E814F8158852F5F3F4F4F4F5F4F58
:101610002D833E834F8358873FEFC31AD30AE30AD3
:10162000F30AACCF0FEF1FEF2FEF3FE0B301A201A2
:10163000C4010E94EA02882399F0D50116964D91C3
:101640005D916D917C911997411551056105710569
:1016500049F093018201C4010E94EA02811102C093
:1016600080E02AC0D50116964D925D926D927C92D3
:101670001997332051F0D301C2010196A11DB11D6C
:10168000F40180839183A283B383F5018789908DD0
:10169000A18DB28D892B8A2B8B2B69F4D50157969E
:1016A0004D925D926D927C925A9714968C911497FC
:1016B000806814968C9381E02C960FB6F894DEBF68
:1016C0000FBECDBFDF91CF911F910F91FF90EF9093
:1016D000DF90CF90BF90AF909F908F907F906F9052
:1016E0005F904F903F900895CF93DF93282F30E085
:1016F000F901E458FF4F8491F901E057FF4FD4916D
:10170000F901E255FF4FC491CC2391F081110E9461
:101710007009EC2FF0E0EE0FFF1FEE58FF4FA59180
:10172000B491EC91ED2381E090E021F480E002C0DF
:1017300080E090E0DF91CF9108951F93CF93DF93E6
:10174000282F30E0F901E458FF4F8491F901E05768
:10175000FF4FD491F901E255FF4FC491CC23C1F062
:10176000162F81110E947009EC2FF0E0EE0FFF1F81
:10177000EC55FF4FA591B4919FB7F894111104C097
:101780008C91D095D82302C0EC91DE2BDC939FBFC7
:10179000DF91CF911F910895CF93DF9390E0FC01EB
:1017A000E057FF4F2491FC01E255FF4F84918823BD
:1017B00061F190E0880F991FFC01E859FF4FC59136
:1017C000D491FC01EC55FF4FA591B491611109C072
:1017D0009FB7F8948881209582238883EC912E23EB
:1017E0000BC0623061F49FB7F8948881322F309536
:1017F00083238883EC912E2B2C939FBF06C08FB739
:10180000F894E8812E2B28838FBFDF91CF91089524
:101810004F925F926F927F928F929F92AF92BF9200
:10182000CF92DF92EF92FF921F93CF93DF93EC0161
:1018300080912001853021F08F3F09F00AC204C059
:10184000E2ECF0E014916FC085E080932001E2ECBF
:10185000F0E014911F3F09F4FCC1113009F440C0BD
:1018600030F1123009F05FC01092B0001092B10058
:101870008091B00082608093B0008091B10081605F
:101880008093B100E3EBF0E0E491F0E0EE0FFF1F96
:10189000EC55FF4F859194919093330480933204DB
:1018A000E5E9F0E0E491E093310412E0CDC114BC2D
:1018B00015BC84B5826084BD85B5816085BDE3EBD0
:1018C000F0E0E491F0E0EE0FFF1FEC55FF4F859143
:1018D0009491E5E9F0E0E491E093F80410E0B4C1FC
:1018E0001092800010928100809181008860809326
:1018F000810080918100816080938100E3EBF0E0C2
:10190000E491F0E0EE0FFF1FEC55FF4F85919491AD
:10191000E5E9F0E0E491E093F70461E085E00E94FE
:10192000CC0B11E0B1C017FD94C161E085E00E94CD
:10193000CC0B812F8D7F09F0A7C04E01A12CB12CBB
:1019400060E072E18AE790E0A50194010E9409132A
:1019500029013A0169017A0121E0C21AD108E1089E
:10196000F1088FEFC816D104E104F10409F008F47E
:101970004BC060E472E48FE090E0A50194010E9406
:10198000091369017A0181E0C81AD108E108F10858
:10199000123001F52FEFC216D104E104F10409F071
:1019A00008F4EAC060E970ED83E090E0A5019401DD
:1019B0000E94091369017A0181E0C81AD108E1087F
:1019C000F1082FEFC216D104E104F10409F030F55B
:1019D00083E053C08FEFC816D104E104F104B1F0E5
:1019E000A8F068E478EE81E090E0A50194010E94FF
:1019F000091369017A0181E0C81AD108E108F108E8
:101A0000112309F4EEC0E4C081E001C082E01111AD
:101A100034C095B5987F892B85BD68C068E478EEA1
:101A200081E090E0A50194010E94091369017A0107
:101A300081E0C81AD108E108F1082FEFC216D104DD
:101A4000E104F10409F008F495C064E274EF80E069
:101A500090E0A50194010E94091369017A0181E0D7
:101A6000C81AD108E108F1082FEFC216D104E10429
:101A7000F10411F008F082C085E09091B100987FE8
:101A8000892B8093B10032C04E01A12CB12C60E0B3
:101A900072E18AE790E0A50194010E9409136901AF
:101AA0007A0181E0C81AD108E108F108C114D10413
:101AB00021E0E206F10488F068E478EE81E090E04D
:101AC000A50194010E94091369017A0181E0C81AF5
:101AD000D108E108F10883E001C081E0113031F460
:101AE00090918100987F892B809381009E01220F25
:101AF000331FAAEFB0E00E94811328EE33E040E0EC
:101B000050E00E945F13113099F0123019F1111159
:101B1000A0C0C7BC2093FD043093FE044093FF0493
:101B20005093000580916E00826080936E0091C09A
:101B3000D0928900C09288002093F9043093FA046F
:101B40004093FB045093FC0480916F00826080936B
:101B50006F007FC0C092B3002093340430933504EB
:101B600040933604509337048091700082608093D4
:101B700070006FC084E081CF82E07FCF62E17AE7BE
:101B800080E090E0A50194010E94091369017A01A7
:101B900081E0C81AD108E108F1088FEFC816D10416
:101BA000E104F10499F090F0D301C2012AE0B59567
:101BB000A795979587952A95D1F76C017D0121E02E
:101BC000C21AD108E108F10887E057CF86E055CF67
:101BD0002FEFC216D104E104F10409F078F684E095
:101BE00016CF8FEFC816D104E104F10459F150F17A
:101BF00062E17AE780E090E0A50194010E94091378
:101C000069017A0181E0C81AD108E108F1082FEFD3
:101C1000C216D104E104F10499F090F0D301C2019D
:101C20003AE0B595A795979587953A95D1F76C01C8
:101C30007D0121E0C21AD108E108F10885E0E9CE72
:101C400084E0E7CE83E0E5CE61E085E00E94CC0B46
:101C500074CEDF91CF911F91FF90EF90DF90CF90E6
:101C6000BF90AF909F908F907F906F905F904F90BC
:101C700008952FB7F8946091290470912A048091F7
:101C80002B0490912C042FBF08958F929F92AF92B6
:101C9000BF92EF92FF920F931F93CF93DF9300D0E9
:101CA00000D0CDB7DEB719821A821B821C8284E66F
:101CB00090E0A0E0B0E080933C0490933D04A093BA
:101CC0003E04B0933F048E010F5F1F4F7E0185E0FD
:101CD000E80EF11C0E94390E609340047093410499
:101CE000809342049093430488E394E00E94500759
:101CF00097FF2CC00E94390E8090400490904104C0
:101D0000A0904204B0904304DC01CB0188199909EA
:101D1000AA09BB0980903C0490903D04A0903E0429
:101D2000B0903F0488159905AA05BB05E8F28981A2
:101D3000813051F48A818F3F39F48B818F3F21F4B8
:101D400081E09C819F3F51F080E008C0F8018193C1
:101D50008F01EE16FF0609F0BDCFE9CF0F900F906F
:101D60000F900F90DF91CF911F910F91FF90EF9007
:101D7000BF90AF909F908F900895789484B58260C3
:101D800084BD84B5816084BD85B5826085BD85B51F
:101D9000816085BD80916E00816080936E0010929D
:101DA0008100809181008260809381008091810018
:101DB00081608093810080918000816080938000A9
:101DC0008091B10084608093B1008091B000816007
:101DD0008093B00080917A00846080937A00809133
:101DE0007A00826080937A0080917A00816080938B
:101DF0007A0080917A00806880937A001092C10006
:101E00000E94BE0961E08EE00E94CC0B61E08FE091
:101E10000E94CC0B61E080E10E94CC0B61E085E088
:101E20000E94CC0B60E081E10E94CC0B0E94390E35
:101E300060931A0470931B0480931C0490931D04F8
:101E40000E94390E6093220470932304809324042B
:101E5000909325048AE090E09093E8048093E7044F
:101E600089E090E09093EA048093E90482E090E0B6
:101E70009093EC048093EB0461E08AE00E94CC0B29
:101E800061E08091E7040E949D0B8091E9049091AC
:101E9000EA048F3F2FEF920789F061E00E94CC0B9C
:101EA00060E08091E9040E949D0B0E94FD0961E0C1
:101EB0008091E9040E949D0B0E94FD09CFB7F89420
:101EC00080911104811127C0E8EBF0E08491EAE9E8
:101ED000F0E09491E82FF0E0EE0FFF1FE859FF4F7C
:101EE000A591B491EC91E92321F461E08AE00E948C
:101EF0009D0B61E08AE00E94CC0B8CB580618CBDAB
:101F00008CB580648CBD61E08DE00E94CC0B61E0FB
:101F10008BE00E94CC0B809111048F5F80931104A1
:101F2000CFBF62E487ED94E00E942E06823109F073
:101F300059C240E861E887ED94E00E940E0680E017
:101F400091EAACEBB3E38093ED049093EE04A0939D
:101F5000EF04B093F00449ED66E887ED94E00E9449
:101F60000E0640E067E887ED94E00E940E0640E030
:101F700068E887ED94E00E940E0640E06EE887ED89
:101F800094E00E940E0640E06FE887ED94E00E9426
:101F90000E066CE087ED94E00E942E06482F436009
:101FA0006CE887ED94E00E940E0644E066EA87ED57
:101FB00094E00E940E064FE869E887ED94E00E94E5
:101FC0000E0641E861E887ED94E00E940E060E944B
:101FD000BE0984EC91E00E94F50582E791E00E9441
:101FE000F5050E94450E8AE791E00E94F5050E94E2
:101FF000450EBFEC8B2EB3E09B2ECAE02C2E312C6D
:10200000D1E84D2ED1E05D2E62E187ED94E00E9493
:102010002E06C82F0E94340A4C2F62E987ED94E007
:102020000E940E06C6FF2EC0C5FD2CC01092F20401
:102030001092F1048091F3049091F404892B11F033
:1020400062E201C063E187ED94E00E942E06C82F92
:10205000D0E060E187ED94E00E942E06482F6DE805
:1020600087ED94E00E940E0641E861E887ED94E078
:102070000E940E06CD2B09F4BEC1AAE06A2E772479
:1020800073941CC061E087ED94E00E942E068638B0
:1020900009F4B1C140E06DE887ED94E00E940E06BE
:1020A00046E861E887ED94E00E940E06A4C187ED42
:1020B00094E00E9458068B3B910539F087ED94E03F
:1020C0000E947306892B99F796C187ED94E00E94D0
:1020D00058068F3F910509F025C1E8E1EE2EE1E0B9
:1020E000FE2EF2E1CF2EF4E0DF2E8601E70187ED30
:1020F00094E00E945806B82E87ED94E00E9458069E
:10210000982F88278B298993999387ED94E00E94D3
:102110005806B82E87ED94E00E945806982F88271D
:102120008B29F801819391938F0120E231E02C17E4
:102130003D07E9F60E94440A6CEB87ED94E00E94AB
:102140009E006FEF87ED94E00E949E00C2E1D4E014
:1021500058E1A52E51E0B52E8501F501608187ED8E
:1021600094E00E949E00F2E0AF0EB11CF801618184
:1021700087ED94E00E949E00688187ED94E00E94C4
:102180009E006981229687ED94E00E949E00F0E215
:10219000AF16F1E0BF0601F70E945B0A0E94D50668
:1021A00048E1A42E41E0B42E02E114E0C1E0D0E009
:1021B000F801819191918F01F501029709F58081D4
:1021C0009181B1010E9490139F938F937F936F939E
:1021D000DF93CF935F924F929F928F920E94C3138F
:1021E0008FEC93E00E94EB090E94D5064DB75EB7D5
:1021F000465F5F4F0FB6F8945EBF0FBE4DBF1CC069
:1022000081818F9380818F93DF93CF9348E951E051
:102210005F934F939F928F920E94C3138FEC93E032
:102220000E94EB090E94D506EDB7FEB738960FB6AF
:10223000F894FEBF0FBEEDBF2196F2E0AF0EB11CC9
:10224000C530D10509F0B4CF00E010E0C1E0D0E026
:10225000C230D10569F520911404309115048091A4
:102260001A0190911B012230310511F45C0105C067
:10227000689E5001699EB00C112483E090E00E949A
:10228000BC06A816B9061CF07092260409C082E0AC
:1022900090E00E94BC068A159B052CF070922704E2
:1022A00061E070E002C060E070E082E090E02AC08F
:1022B000F60180819181F701029719F4A080B18025
:1022C00007C080819181689E5001699EB00C1124E5
:1022D000C80101960E94BC06A816B9062CF070929F
:1022E000260461E070E00DC0C8010E94BC06A8167B
:1022F000B9062CF07092270462E070E002C060E042
:1023000070E0CE010E94DB0621960E5F1F4FF2E0C7
:10231000EF0EF11C22E0C20ED11C0830110509F0AD
:1023200097CFCCCE87ED94E00E945806892B09F018
:10233000C5CEC8E0D1E001E014E068017E0187ED80
:1023400094E00E945806B82E87ED94E00E9458064B
:10235000982F88278B29F701819391937F0187ED2F
:1023600094E00E945806B82E87ED94E00E9458062B
:10237000982F88278B29F601819391936F01F8E1BB
:10238000EF16F1E0FF06D9F60E94440A6CEB87EDE8
:1023900094E00E949E0060E087ED94E00E949E0021
:1023A0007E01688187ED94E00E949E002296F701ED
:1023B000618187ED94E00E949E00F801608187EDC5
:1023C00094E00E949E00F80161810E5F1F4F87ED2F
:1023D00094E00E949E00F1E0C831DF0709F70E94F7
:1023E0005B0A6CCE8CEA91E00E94EB0982EC91E0F2
:1023F0000E94EB09FFCF81E10E94740B019721F449
:1024000010922704109226040E94390E6B017C0161
:1024100060931E0470931F04809320049093210402
:1024200080911A0490911B04A0911C04B0911D048A
:10243000A7019601281B390B4A0B5B0BDA01C90176
:10244000843F9140A105B10508F449C0809127045B
:10245000811104C080912604882391F18EE00E94AE
:10246000740B61E0892B09F060E08EE00E949D0B07
:102470008FE00E94740B61E0892B09F060E08FE02F
:102480000E949D0B80E10E94740B61E0892B09F092
:1024900060E080E10E949D0B80912604882319F062
:1024A00088EB91E002C085E091E00E94080CC092A8
:1024B0001A04D0921B04E0921C04F0921D040FC079
:1024C00085E00E94880760E08EE00E949D0B60E03E
:1024D0008FE00E949D0B60E080E10E949D0B0E94B6
:1024E000390E00912204109123042091240430918C
:1024F000250408511C4F2F4F3F4F06171707280779
:10250000390798F40E94440A6CEB87ED94E00E942E
:102510009E000E945B0A0E94390E60932204709311
:10252000230480932404909325040E948D006CCD95
:10253000E8E3F4E01382128288EE93E0A0E0B0E0DA
:1025400084839583A683B78385E291E0918380831A
:1025500085EC90E09587848784EC90E09787868768
:1025600080EC90E0918B808B81EC90E0938B828B60
:1025700082EC90E0958B848B86EC90E0978B868B39
:10258000118E128E138E148EE5EDF4E080E58083BB
:102590001182E1E0F5E0158216821186138642E091
:1025A00050E060E070E0448755876687778713A224
:1025B00015A614A627E331E033A722A717A6E7ED57
:1025C000F4E01382128223E431E031832083848794
:1025D00081E085878AE495E0978786878AE090E0A6
:1025E000918B808B89E090E0938B828B82E090E0EE
:1025F000958B848B168A178A108E118E138E128EED
:10260000158E148E178E168E1482158216821782DE
:102610000895052E97FB1EF400940E94201357FD89
:1026200007D00E945F1307FC03D04EF40C942013D4
:1026300050954095309521953F4F4F4F5F4F0895EE
:1026400090958095709561957F4F8F4F9F4F08951E
:102650002F923F924F925F926F927F928F929F92B2
:10266000AF92BF92CF92DF92EF92FF920F931F93A0
:10267000CF93DF93CDB7DEB7CA1BDB0B0FB6F89451
:10268000DEBF0FBECDBF09942A88398848885F8491
:102690006E847D848C849B84AA84B984C884DF8002
:1026A000EE80FD800C811B81AA81B981CE0FD11DE6
:1026B0000FB6F894DEBF0FBECDBFED010895A1E2C5
:1026C0001A2EAA1BBB1BFD010DC0AA1FBB1FEE1FAC
:1026D000FF1FA217B307E407F50720F0A21BB30BF7
:1026E000E40BF50B661F771F881F991F1A9469F773
:1026F00060957095809590959B01AC01BD01CF01CF
:102700000895A29FB001B39FC001A39F700D811DCA
:102710001124911DB29F700D811D1124911D0895EA
:1027200097FB072E16F4009407D077FD09D00E947E
:10273000A41307FC05D03EF4909581959F4F089512
:10274000709561957F4F0895AA1BBB1B51E107C08F
:10275000AA1FBB1FA617B70710F0A61BB70B881F31
:10276000991F5A95A9F780959095BC01CD010895C0
:10277000EE0FFF1F0590F491E02D099481E090E0A9
:10278000F8940C947616AEE0B0E0E9ECF3E10C942A
:1027900036130D891E8986E08C831A8309838FEF97
:1027A0009FE79E838D83AE01475E5F4F6F89788D73
:1027B000CE0101960E94E513EF81F885E00FF11F2D
:1027C00010822E96E4E00C945213ABE0B0E0EBEEF6
:1027D000F3E10C9428136C017B018A01FC01178240
:1027E0001682838181FFCCC1CE0101963C01F601A6
:1027F0009381F70193FD859193FF81917F01882358
:1028000009F4BAC1853239F493FD859193FF819122
:102810007F01853229F4B60190E00E94DC15E7CFF4
:10282000912C212C312CFFE1F315D8F08B3279F06B
:1028300038F4803279F08332A1F4232D20611DC059
:102840008D3261F0803369F4232D216016C0832D11
:102850008260382EE32DE4603E2E2AC0F32DF8600E
:102860001DC037FC2DC020ED280F2A3040F08E32DD
:10287000B9F436FC81C1232D2064322E19C036FEF6
:1028800006C08AE0989E200D1124922E11C0EAE025
:102890002E9E200D1124222EF32DF0623F2E08C013
:1028A0008C3621F4832D8068382E02C0883641F49E
:1028B000F70193FD859193FF81917F018111B3CF42
:1028C000982F9F7D9554933028F40C5F1F4F9FE302
:1028D00099830DC0833631F0833771F0833509F069
:1028E00059C021C0F801808189830E5F1F4F882461
:1028F0008394912C530113C02801F2E04F0E511C18
:10290000F801A080B18036FE03C0692D70E002C0DE
:102910006FEF7FEFC5010E94D1154C018201F32DAD
:10292000FF773F2E16C0280122E0420E511CF8010D
:10293000A080B18036FE03C0692D70E002C06FEF49
:102940007FEFC5010E94C6154C01F32DF0683F2EA4
:10295000820133FC1BC0822D90E088169906B0F4EA
:10296000B60180E290E00E94DC152A94F4CFF501D4
:1029700037FC859137FE81915F01B60190E00E949E
:10298000DC1521102A9421E0821A91088114910407
:1029900071F7E8C0843611F0893641F5F80137FE49
:1029A00007C060817181828193810C5F1F4F08C0D5
:1029B00060817181072E000C880B990B0E5F1F4FF1
:1029C000F32DFF763F2E97FF09C090958095709567
:1029D00061957F4F8F4F9F4FF0683F2E2AE030E088
:1029E000A3010E941816882E861845C0853731F439
:1029F000232D2F7EB22E2AE030E025C0932D997F23
:102A0000B92E8F36C1F018F4883579F0B5C080370B
:102A100019F0883721F0B0C0E92FE061BE2EB4FE76
:102A20000DC0FB2DF460BF2E09C034FE0AC0292F53
:102A30002660B22E06C028E030E005C020E130E07C
:102A400002C020E132E0F801B7FE07C06081718169
:102A5000828193810C5F1F4F06C06081718180E08D
:102A600090E00E5F1F4FA3010E941816882E861853
:102A7000FB2DFF773F2E36FE0DC0232D2E7FA22E7D
:102A8000891458F434FE0BC032FC09C0832D8E7EAD
:102A9000A82E05C0B82CA32C03C0B82C01C0B92C9B
:102AA000A4FE0FC0FE01E80DF11D8081803321F4EA
:102AB0009A2D997EA92E09C0A2FE06C0B394B394A4
:102AC00004C08A2D867809F0B394A3FC11C0A0FE3F
:102AD00006C0B21488F4280C922C9B180EC0B214B5
:102AE00060F4B60180E290E00E94DC15B394F7CF69
:102AF000B21418F42B1802C0982C212CA4FE10C07C
:102B0000B60180E390E00E94DC15A2FE17C0A1FC94
:102B100003C088E790E002C088E590E0B6010CC0F1
:102B20008A2D867859F0A1FE02C08BE201C080E2B6
:102B3000A7FC8DE2B60190E00E94DC15891438F400
:102B4000B60180E390E00E94DC159A94F7CF8A9456
:102B5000F301E80DF11D8081B60190E00E94DC15C3
:102B60008110F5CF222009F442CEB60180E290E038
:102B70000E94DC152A94F6CFF6018681978102C067
:102B80008FEF9FEF2B96E2E10C944413FC0105902C
:102B9000615070400110D8F7809590958E0F9F1F5F
:102BA0000895FC016150704001900110D8F78095A4
:102BB00090958E0F9F1F08950F931F93CF93DF93D0
:102BC000FB01238121FD03C08FEF9FEF2CC022FF6B
:102BD00016C046815781248135814217530744F43A
:102BE000A081B1819D012F5F3F4F318320838C9362
:102BF000268137812F5F3F4F3783268314C08B0197
:102C0000EC01FB010084F185E02D0995892BE1F6AB
:102C1000D80116968D919C911797019617969C93C3
:102C20008E931697CE01DF91CF911F910F9108954A
:102C3000FA01AA27283051F1203181F1E8946F93ED
:102C40006E7F6E5F7F4F8F4F9F4FAF4FB1E03ED093
:102C5000B4E03CD0670F781F891F9A1FA11D680F31
:102C6000791F8A1F911DA11D6A0F711D811D911D64
:102C7000A11D20D009F468943F912AE0269F1124D9
:102C80003019305D3193DEF6CF010895462F47703D
:102C9000405D4193B3E00FD0C9F7F6CF462F4F7098
:102CA000405D4A3318F0495D31FD4052419302D0F6
:102CB000A9F7EACFB4E0A69597958795779567959C
:102CC000BA95C9F700976105710508959B01AC019C
:102CD0000A2E06945795479537952795BA95C9F7C3
:102CE000620F731F841F951FA01D0895F894FFCFD6
:102CF000FFFFFFFF160716070A0014001300170056
:102D0000140064006400C80000001500000000000A
:102D1000FF00000000B507170741070208720750BF
:102D2000076407000000000E041707C200C100007E
:102D30000000009E008106C2009D00730658063206
:102D40000664617461466C61672E76616C3D25692D
:102D5000006761732569666C61672E76616C3D253D
:102D60007500626B636D643D310070616765203092
:102D700000676173256976616C75652E7478743DA2
:102D80002225692C25692200676173256976616CAB
:102D900075652E7478743D22256922005374617222
:102DA00074696E67204C6F5261206661696C65645E
:062DB00021000D0A0000E5
:00000001FF
