:100000000C9463000C94E3090C94BC090C94430415
:100010000C9443040C9443040C948B000C940A0A33
:100020000C948B000C948B000C948B000C948B0024
:100030000C948B000C948B000C948B000C948B0014
:100040000C94B50F0C948B000C9411040C94EB03DE
:100050000C948B000C948B000C948B000C948B00F4
:100060000C948B000C948B000000000024002700EF
:100070002A000000000023002600290000000008DC
:10008000000201000003040700000000000000005F
:10009000010204081020408001020408102001021F
:1000A0000408102000000000250028002B00040494
:1000B0000404040404040202020202020303030310
:1000C00003030200FE1411241FBECFEFD8E0DEBFF1
:1000D000CDBF12E0A0E0B1E0EEE4F4E302C0059091
:1000E0000D92AA3DB107D9F727E0AAEDB2E001C011
:1000F0001D92AB35B207E1F710E0C3E6D0E004C0D3
:100100002197FE010E946717C236D107C9F70E94E6
:10011000FF0F0C94251A0C940000CF92DF92EF92FF
:10012000FF920F931F93CF93DF936C017A018B01A2
:10013000C0E0D0E0CE15DF0581F0D8016D918D01D2
:10014000D601ED91FC910190F081E02DC601099559
:10015000892B11F02196EECF7E01C701DF91CF915F
:100160001F910F91FF90EF90DF90CF900895FC01C9
:10017000538D448D252F30E0842F90E0821B930B0C
:10018000541710F0CF96089501970895FC01918DB2
:10019000828D981761F0828DDF01A80FB11D5D96E9
:1001A0008C91928D9F5F9F73928F90E008958FEF57
:1001B0009FEF0895FC01918D828D981731F0828D0B
:1001C000E80FF11D858D90E008958FEF9FEF089562
:1001D000FC01918D228D892F90E0805C9F4F821BC6
:1001E00091098F739927089588E495E00E94E800AB
:1001F00021E0892B09F420E0822F0895FC01848DF1
:10020000DF01A80FB11DA35ABF4F2C91848D90E040
:1002100001968F739927848FA689B7892C93A0891B
:10022000B1898C91837080648C93938D848D9813A5
:1002300006C00288F389E02D80818F7D8083089538
:10024000EF92FF920F931F93CF93DF93EC0181E026
:10025000888F9B8D8C8D981305C0E889F9898081E2
:1002600085FD26C0F62E0B8D10E00F5F1F4F0F731C
:100270001127E02E8C8DE8120CC00FB607FCFACFC8
:10028000E889F989808185FFF5CFCE010E94FE00C3
:10029000F1CF8B8DFE01E80FF11DE35AFF4FF08285
:1002A0009FB7F8940B8FEA89FB89808180620AC02E
:1002B0009FB7F894EE89FF896083E889F989808186
:1002C0008370806480839FBF81E090E0DF91CF9155
:1002D0001F910F91FF90EF900895CF93DF93EC0162
:1002E000888D8823C9F0EA89FB89808185FD05C056
:1002F000A889B9898C9186FD0FC00FB607FCF5CF90
:10030000808185FFF2CFA889B9898C9185FFEDCFD7
:10031000CE010E94FE00E7CFDF91CF91089580E0EB
:1003200090E0892B29F00E94F40081110C940000C8
:1003300008958FB7F8948091DA028FBF08950895D9
:10034000CF93DF931F92CDB7DEB76983DC01ED91C8
:10035000FC910280F381E02D41E050E0BE016F5F2F
:100360007F4F09950F90DF91CF9108958EBD0000CA
:100370000DB407FEFDCF8EB508958FEF0C94B60136
:100380008CBD9DBD0895089580E090E0089561E0E2
:10039000FC0184810E94950C8091DB0281111092F6
:1003A000DB020895CF93DF93EC018E81882389F0DF
:1003B0008F8198859C012F5F3F4F38872F83823034
:1003C000924018F40E94BD01F3CFCE010E94C701F4
:1003D0001E82DF91CF9108950F931F93CF93DF93E8
:1003E000EB010E94310F8B010E94BD018F3F49F04C
:1003F0000E94310F601B710B6C177D07A8F380E022
:1004000001C081E0DF91CF911F910F9108958F92EC
:100410009F92AF92BF92FF920F931F93CF93DF9360
:10042000EC01F62E49015A010E94D2018091DB02B3
:10043000811109C081E08093DB028091E5059091F4
:10044000E6050E94C00160E08C810E94950C6CE280
:1004500071E0CE010E94EC018F2D80640E94B601F4
:1004600008E110E0D501C401002E04C0B695A7959F
:10047000979587950A94D2F70E94B6010850110902
:10048000083F8FEF180771F7FF2029F088E0F81276
:1004900004C087E803C085E901C08FEF0E94B60160
:1004A00010E00E94BD018A8787FF04C01F3F11F042
:1004B0001F5FF7CFDF91CF911F910F91FF90BF90FA
:1004C000AF909F908F900895EF92FF920F931F939C
:1004D000CF93DF93EC017901411551056105710559
:1004E00011F482E13CC08B85833039F089E0440F00
:1004F000551F661F771F8A95D1F79A01AB0168E1F6
:10050000CE010E940702882311F084E028C08EEFFC
:100510000E94B60187018EEFF81AF80181918F01D0
:100520000E94B601E016F106C1F78FEF0E94B601F6
:100530008FEF0E94B6010E94BD018A878F718530BE
:1005400031F081E18D83CE010E94C70109C068E5C9
:1005500072E0CE010E94EC01811107C085E18D831C
:10056000CE010E94C70180E014C020E030E0A90164
:100570006DE0CE010E940702811109C00E94BD01F9
:10058000811105C0CE010E94C70181E002C084E153
:10059000E6CFDF91CF911F910F91FF90EF900895DB
:1005A0008091DC02882389F1409100015091010182
:1005B000609102017091030121EE32E080E090E051
:1005C0000E946402811102C080E008954091DD0222
:1005D0005091DE026091DF027091E00241155105F9
:1005E0006105710581F021EE32E080E090E00E942B
:1005F0006402882349F31092DD021092DE02109209
:10060000DF021092E0021092DC0281E00895AF92C6
:10061000BF92CF92DF92EF92FF921F93CF93DF931F
:100620006B017C01142F8091000190910101A09138
:100630000201B09103018C159D05AE05BF0509F4BB
:100640008FC00E94D002882309F490C080910600D8
:100650008823A1F08091000090910100A0910200F8
:10066000B0910300C816D906EA06FB0639F480915A
:10067000070090910800892B09F443C0C092000044
:10068000D0920100E0920200F092030080910B00F2
:10069000A7019601833039F099E0220F331F441FE0
:1006A000551F9A95D1F761E180E090E00E94070222
:1006B000882321F083E08093050044C00E94310F1D
:1006C000EB010E94BD0180930A008F3F49F40E9414
:1006D000310F6C1B7D0B6D32714098F38FE003C0BE
:1006E0008E3F41F08DE08093050080E090E00E9415
:1006F000C70128C0109208001092070081E0809383
:100700000600C1EED2E081EEA82E84E0B82E0E9451
:10071000BD018993AC16BD06D1F780910700909179
:1007200008009E5F909308008093070020910900C5
:10073000222319F08115924058F080E090E00E9449
:10074000D20106C080E090E00E94C70180E00EC0A8
:10075000C0920001D0920101E0920201F0920301E7
:100760004091DC02412B4093DC0281E0DF91CF918C
:100770001F91FF90EF90DF90CF90BF90AF900895C2
:1007800090914A01891324C0E2ECF0E0E4919FEFDC
:1007900090934A01E130B9F098F0E230C9F49091B9
:1007A00070009D7F9093700091E09093B0009091C5
:1007B000B100987F94609093B1001092B30008C08C
:1007C00010926E0005C090916F009D7F90936F0016
:1007D00060E00C94950C1F920F920FB60F921124AB
:1007E0002F933F934F935F936F937F938F939F9339
:1007F000AF93BF93EF93FF9388E495E00E94FE00D0
:10080000FF91EF91BF91AF919F918F917F916F91E8
:100810005F914F913F912F910F900FBE0F901F90BE
:1008200018951F920F920FB60F9211242F938F934A
:100830009F93EF93FF93E0915805F09159058081C4
:10084000E0915E05F0915F0582FD12C0908180917C
:1008500061058F5F8F7320916205821751F0E091DF
:100860006105F0E0E85BFA4F958F8093610501C068
:100870008081FF91EF919F918F912F910F900FBEEB
:100880000F901F9018951F920F920FB60F92112480
:100890000F900FBE0F901F9018954F925F926F921E
:1008A0007F928F929F92AF92BF92CF92DF92EF9200
:1008B000FF920F931F93CF93DF93EC0142305105CA
:1008C0006105710510F480E078C089859A85AB8553
:1008D000BC850196A11DB11D84179507A607B70712
:1008E00090F3CB88DC88ED88FE888F89803129F4ED
:1008F000BB27A72F962F852F09C0DB01CA01E7E090
:10090000B695A79597958795EA95D1F7480159012E
:100910002A013B01C80ED91EEA1EFB1E8091000170
:1009200090910101A0910201B0910301C816D9066E
:10093000EA06FB0681F48F898031A9F4B301A20194
:10094000552766277727440F551FFA01EF51FD4FB2
:100950009182808219C040E0C701B6010E9407035E
:100960008111E9CFB0CFB301A2014F775527662798
:100970007727440F551F440F551FFA01EF51FD4FC4
:1009800080829182A282B3828091DC028160809316
:10099000DC028A89823080F08D819E81AF81B885AA
:1009A000C80ED91EEA1EFB1EC092DD02D092DE02E6
:1009B000E092DF02F092E00281E0DF91CF911F919F
:1009C0000F91FF90EF90DF90CF90BF90AF909F90EE
:1009D0008F907F906F905F904F9008958F929F922D
:1009E000AF92BF92CF92DF92EF92FF920F931F933D
:1009F000CF93DF93FC0181859285A385B485019611
:100A0000A11DB11D84179507A607B70710F480E054
:100A10005BC083889488A588B6888789803129F44B
:100A2000BB27A72F962F852F09C0DB01CA01C7E07E
:100A3000B695A79597958795CA95D1F7E9016A016B
:100A40007B018F01BC01CD01680D791D8A1D9B1DA5
:100A50008090000190900101A0900201B0900301EC
:100A6000681579058A059B0591F4F801878980311D
:100A7000A1F4DD24EE24FF24C601880F991FFC0198
:100A8000EF51FD4F80819181A0E0B0E018C040E0BF
:100A90000E9407038111E9CFBACFE894C7F8DD249B
:100AA000EE24FF24C601880F991F880F991FFC01AF
:100AB000EF51FD4F80819181A281B381BF70888306
:100AC0009983AA83BB8381E0DF91CF911F910F911E
:100AD000FF90EF90DF90CF90BF90AF909F908F905E
:100AE00008954F925F926F927F92AF92BF92CF9292
:100AF000DF92EF92FF920F931F93CF93DF9300D07B
:100B000000D01F92CDB7DEB78C016D83DC01159646
:100B10008C911597813009F054C014968C9181FF07
:100B200050C057C0258530E0275F3F4F2A013B0169
:100B3000B1E04B1A510861087108022E04C0769486
:100B40006794579447940A94D2F7D701C601019746
:100B5000A109B10904C0B695A795979587952A95DF
:100B6000D2F784159505A605B70508F076C0F801FB
:100B70004789508D618D728D468357836087718759
:100B80002C013D015801F6E0AF0EB11C4114510497
:100B90006104710409F46BC0D80116964D915D9102
:100BA0006D917C91199795015B968D919C915C97C5
:100BB0000E94EE04B1E04B1A5108610871088111DE
:100BC000E5CF81E090E0F8019383828380E090E0BC
:100BD0005BC182FF0EC0F80142855385648575852F
:100BE000C388D488E588F6884C155D056E057F05B9
:100BF000E9F4D8011A964D915D916D917C911D9704
:100C00005B96ED91FC915C97948191506A017B0118
:100C100089E0F694E794D794C7948A95D1F79C21FC
:100C20007A01B1E0FB22911173C027C0D801038C77
:100C3000F48DE02DC114D104E104F10409F072CF68
:100C400016961D921D921D921C9219971A961D922E
:100C50001D921D921C921D9714C0452B462B472BAD
:100C600009F485CF84199509A609B70989CFF80138
:100C7000C286D386E486F586BCCFE114F10409F080
:100C800047C0D80116964D915D916D917C91199751
:100C9000411551056105710559F457968D919D9146
:100CA0000D90BC91A02D0097A105B10549F522C07A
:100CB0009E012F5F3F4FCF010E94EE04882309F46D
:100CC00085CF89819A81AB81BC81F801238D348DD8
:100CD000F9012789203129F448EF5FEF60E070E0E7
:100CE00004C048EF5FEF6FEF7FE084179507A6071A
:100CF000B70730F0C8010E94690B811106C061CFAF
:100D0000F80186839783A087B187E12CF12C90E0CE
:100D1000D8015B96ED91FC915C9716964D905D9095
:100D20006D907C901997B2E04B1A510861087108D8
:100D3000058404C0440C551C661C771C0A94D2F729
:100D40004685578560897189440E551E661E771E3B
:100D5000490E511C611C711CE114F10409F5F801E4
:100D6000428553856485758583899489A589B6896B
:100D7000481759076A077B0798F00E94D00288231A
:100D800009F41FCF409200015092010160920201CC
:100D9000709203018091DC0281608093DC0208C0C4
:100DA00041E0C301B2010E940703882309F409CF7F
:100DB000F701EF51FD4F8D818083F8018285938586
:100DC000A485B5850196A11DB11D82879387A4874F
:100DD000B5874389548965897689481759076A0711
:100DE0007B0738F4838B948BA58BB68B84818068CA
:100DF0008483D80114968C9183FD03C081E090E038
:100E000043C0F8019581992309F4DBCE87FF37C0F1
:100E1000668577858089918941E00E940703882350
:100E200009F4CFCED8015296EC91B0E2EB9FF001DD
:100E30001124EF51FD4F309709F4C3CED801159618
:100E40008C911597823050F453964D915D916D9130
:100E50007C915697448F558F668F778FD801579620
:100E60004D915D916D917C915A97538F428F758B07
:100E7000648B14968C9114978F7714968C930E94A0
:100E8000D0028111BBCF9DCE0F900F900F900F908D
:100E90000F90DF91CF911F910F91FF90EF90DF9016
:100EA000CF90BF90AF907F906F905F904F900895DC
:100EB000CF93DF93EC0188E495E00E94E800892B52
:100EC00029F088E495E00E94C600F5CFCE010E948B
:100ED000F30A0E94DC0A0E94DC0ADF91CF910C9495
:100EE000DC0A0F931F93CF93DF93EC01062F142F8F
:100EF00060E088890E94950C8C859D850E94C001C8
:100F0000802F0E94B601812F0E94B601182F61E048
:100F100088890E94950C812FDF91CF911F910F91AD
:100F200008956F7740E00C9471070F931F93CF9350
:100F3000DF93EC01E881F9810084F185E02D0995CA
:100F4000892B91F06DE0CE010E949107082F60E09F
:100F5000CE010E949107182F402F6DE8CE010E940C
:100F60007107812F90E002C08FEF9FEFDF91CF914B
:100F70001F910F910895CF93DF93EC01E881F981E0
:100F80000084F185E02D0995892B59F08A8D9B8D80
:100F900001969B8F8A8F60E0CE010E94910790E0BE
:100FA00002C08FEF9FEFDF91CF910895CF93DF9332
:100FB000EC0163E10E94910790E02A8D3B8D821B3A
:100FC000930BDF91CF910895AF92BF92CF92DF92B2
:100FD000FF920F931F93CF93DF936C015B01EA01A4
:100FE00062E20E949107F82E90E09C012C0F3D1FB9
:100FF0002F3F310529F020F0CFEFD0E0C81BD90BEF
:101000008501AC0EBD1E0A151B0541F0F80141918A
:101010008F0160E8C6010E947107F5CF4C2F4F0D7C
:1010200062EAC6010E947107CE01DF91CF911F9144
:101030000F91FF90DF90CF90BF90AF900895880FF1
:10104000991FFC01ED51FB4F20813181FC01E85FCC
:10105000FE4F2230310519F480819181089520815D
:1010600031814AE0429FC001439F900D11240895B1
:101070000E94DC0A0E94DC0A0C94DC0AEF92FF92C8
:101080000F931F93CF93DF93182F092FF62EE72E80
:101090001F9281E08F938BE791E09F938F93CBEF2B
:1010A000D4E0DF93CF930E947217CE010E94F30A1F
:1010B0000E943808EF92FF920F931F938BE891E004
:1010C0009F938F93DF93CF930E947217CE010E945C
:1010D000F30A8DB79EB70E960FB6F8949EBF0FBE5B
:1010E0008DBFDF91CF911F910F91FF90EF900C94E6
:1010F00038086F927F928F929F92AF92BF92CF9259
:10110000DF92EF92FF920F931F93CF93DF930E9492
:10111000380883EFE82E84E0F82E98E1892E91E0DC
:10112000992EC1E0D0E023EB622E21E0722E0BEF6E
:1011300014E03AE0A32EB12C4CE9C42E41E0D42EA9
:10114000F701819191917F01F401029701F580816E
:101150009181B5010E943F179F938F937F936F9367
:10116000DF93CF93DF92CF921F930F930E9472175A
:101170008BEF94E00E94F30A0E943808EDB7FEB7A7
:101180003A960FB6F894FEBF0FBEEDBF1AC081812C
:101190008F9380818F93DF93CF937F926F921F9372
:1011A0000F930E9472178BEF94E00E94F30A0E9443
:1011B0003808EDB7FEB738960FB6F894FEBF0FBEED
:1011C000EDBF2196F2E08F0E911CC530D10509F0DC
:1011D000B7CF10922E0510922D05DF91CF911F9160
:1011E0000F91FF90EF90DF90CF90BF90AF909F90C6
:1011F0008F907F906F900895CF93DF930197EC01CC
:10120000CC0FDD1FFE01EE0FFF1FDF01AD51BB4F05
:101210008D919C91E85FFE4F8230910519F5808198
:1012200091816AE070E00E943F179F938F937F93B4
:101230006F9387EC91E09F938F938BEF94E09F9354
:101240008F930E9472178BEF94E00E94F30A0E9422
:1012500038088DB79EB708960FB6F8949EBF0FBE9C
:101260008DBF23C0019739F481818F9380818F9343
:101270008DED91E006C081818F9380818F9381EF06
:1012800091E09F938F938BEF94E09F938F930E94B5
:1012900072178BEF94E00E94F30A0E9438080F90B7
:1012A0000F900F900F900F900F90FE013196EE0F60
:1012B000FF1FDF01AD51BB4F8D919C91E85FFE4F49
:1012C0008230910509F5808191816AE070E00E9489
:1012D0003F179F938F937F936F9384E092E09F9348
:1012E0008F938BEF94E09F938F930E9472178BEFF5
:1012F00094E00E94F30A8DB79EB708960FB6F89453
:101300009EBF0FBE8DBF21C0019739F481818F939D
:1013100080818F938AE192E006C081818F938081E2
:101320008F938EE292E09F938F938BEF94E09F9345
:101330008F930E9472178BEF94E00E94F30A0F9034
:101340000F900F900F900F900F90DF91CF910C9412
:10135000380884E090E00C94FC0883E090E00C9462
:10136000FC0882E090E00C94FC0881E090E00C9492
:10137000FC0808950E946D171F920F920FB60F92EE
:1013800011242F933F934F935F936F937F938F938A
:101390009F93AF93BF93EF93FF93E0910601F0917A
:1013A00007010995FF91EF91BF91AF919F918F91A7
:1013B0007F916F915F914F913F912F910F900FBE51
:1013C0000F901F9018951F920F920FB60F92112435
:1013D0002F933F934F935F936F937F938F939F933D
:1013E000AF93BF93EF93FF93E0910401F091050158
:1013F0000995FF91EF91BF91AF919F918F917F914F
:101400006F915F914F913F912F910F900FBE0F9071
:101410001F9018951F920F920FB60F9211242F93C1
:101420003F934F935F936F937F938F939F93AF936C
:10143000BF93EF93FF938091440790914507A0914C
:101440004607B0914707892B8A2B8B2B51F190913E
:101450004107E0914207F09143078081892780830B
:101460008091440790914507A0914607B0914707A6
:10147000181619061A061B06C4F4809144079091A9
:101480004507A0914607B09147070197A109B10907
:101490008093440790934507A0934607B09347076E
:1014A00004C080914A010E94C003FF91EF91BF9157
:1014B000AF919F918F917F916F915F914F913F91EC
:1014C0002F910F900FBE0F901F901895833081F0D1
:1014D00028F4813099F08230A1F008958730A9F086
:1014E0008830B9F08430D1F4809180008F7D03C0C2
:1014F000809180008F7780938000089584B58F77E6
:1015000002C084B58F7D84BD08958091B0008F772F
:1015100003C08091B0008F7D8093B00008953FB7E5
:10152000F89480914D0790914E07A0914F07B0918C
:10153000500726B5A89B05C02F3F19F00196A11DA5
:10154000B11D3FBFBA2FA92F982F8827820F911D59
:10155000A11DB11DBC01CD0142E0660F771F881FA0
:10156000991F4A95D1F70895E8E4F5E0A089B1897B
:1015700082E08C93A485B5851C92A685B7858FECF7
:101580008C93108EA489B58986E08C93A289B38947
:101590008C9180618C93A289B3898C9188608C93A3
:1015A000A289B3898C9180688C930288F389E02D9D
:1015B00080818F7D808308956FEF88E495E00C949F
:1015C0002001009769F0FC0101900020E9F73197B4
:1015D000AF01481B590BBC0188E495E00C948D00C9
:1015E00080E090E008950C94E10A8F929F92AF9270
:1015F000BF92CF92DF92EF92FF920E948F0A4B012F
:101600005C018AE0C82ED12CE12CF12C0E948F0ABB
:10161000DC01CB0188199909AA09BB09883E9340CE
:10162000A105B10598F321E0C21AD108E108F1083B
:1016300088EE880E83E0981EA11CB11CC114D10451
:10164000E104F10419F7FF90EF90DF90CF90BF9085
:10165000AF909F908F900895109204061092030609
:101660006DE187EE95E00E949107482F4E7F6DE96E
:1016700087EE95E00C94710741E861E887EE95E00C
:101680000E9471070E942C0B40E06DE887EE95E008
:101690000E94710740E062EA87EE95E00E947107C0
:1016A00081E090E0089543E861E887EE95E00E94CC
:1016B000710762E187EE95E00E94910783FFF9CF01
:1016C00048E062E987EE95E00E94710781E090E0D2
:1016D00008953F924F925F926F927F928F929F9266
:1016E000AF92BF92CF92DF92EF92FF920F931F9330
:1016F000CF93DF93CDB7DEB72C970FB6F894DEBF4C
:101700000FBECDBF5C01DC015B968D909C905C9719
:101710001696CD90DD90ED90FC901997C114D104F0
:10172000E104F10439F0BFEFCB1ADB0AEB0AFB0A44
:10173000312C07C0F401C080D180E280F3803324D3
:101740003394F40181859285A385B4859C01AD0114
:101750002F5F3F4F4F4F5F4F29873A874B875C87FB
:10176000260137011D821E821F821886F4018185A1
:101770009285A385B4852D813E814F815885281798
:1017800039074A075B0708F063C089859A85AB85EE
:10179000BC858C159D05AE05BF0550F482E0C82EB2
:1017A000D12CE12CF12C92E0492E512C612C712C82
:1017B0009E012F5F3F4FB701A601C4010E94EE04B6
:1017C000882309F445C089819A81AB81BC81892B2A
:1017D0008A2B8B2B41F0260137019FEF491A590ABA
:1017E000690A790A05C0C414D504E604F70491F027
:1017F0002D813E814F8158852F5F3F4F4F4F5F4F67
:101800002D833E834F8358873FEFC31AD30AE30AE1
:10181000F30AACCF0FEF1FEF2FEF3FE0B301A201B0
:10182000C4010E944D04882399F0D50116964D916C
:101830005D916D917C911997411551056105710577
:1018400049F093018201C4010E944D04811102C03C
:1018500080E02AC0D50116964D925D926D927C92E1
:101860001997332051F0D301C2010196A11DB11D7A
:10187000F40180839183A283B383F5018789908DDE
:10188000A18DB28D892B8A2B8B2B69F4D5015796AC
:101890004D925D926D927C925A9714968C9114970A
:1018A000806814968C9381E02C960FB6F894DEBF76
:1018B0000FBECDBFDF91CF911F910F91FF90EF90A1
:1018C000DF90CF90BF90AF909F908F907F906F9060
:1018D0005F904F903F900895CF93DF93282F30E093
:1018E000F901E458FF4F8491F901E057FF4FD4917B
:1018F000F901E255FF4FC491CC2391F081110E9470
:10190000660AEC2FF0E0EE0FFF1FEE58FF4FA59197
:10191000B491EC91ED2381E090E021F480E002C0ED
:1019200080E090E0DF91CF9108951F93CF93DF93F4
:10193000282F30E0F901E458FF4F8491F901E05776
:10194000FF4FD491F901E255FF4FC491CC23C1F070
:10195000162F81110E94660AEC2FF0E0EE0FFF1F98
:10196000EC55FF4FA591B4919FB7F894111104C0A5
:101970008C91D095D82302C0EC91DE2BDC939FBFD5
:10198000DF91CF911F910895CF93DF9390E0FC01F9
:10199000E057FF4F2491FC01E255FF4F84918823CB
:1019A00061F190E0880F991FFC01E859FF4FC59144
:1019B000D491FC01EC55FF4FA591B491611109C080
:1019C0009FB7F8948881209582238883EC912E23F9
:1019D0000BC0623061F49FB7F8948881322F309544
:1019E00083238883EC912E2B2C939FBF06C08FB747
:1019F000F894E8812E2B28838FBFDF91CF91089533
:101A00004F925F926F927F928F929F92AF92BF920E
:101A1000CF92DF92EF92FF921F93CF93DF93EC016F
:101A200080914A01853021F08F3F09F00AC204C03D
:101A3000E2ECF0E014916FC085E080934A01E2ECA3
:101A4000F0E014911F3F09F4FCC1113009F440C0CB
:101A500030F1123009F05FC01092B0001092B10066
:101A60008091B00082608093B0008091B10081606D
:101A70008093B100E3EBF0E0E491F0E0EE0FFF1FA4
:101A8000EC55FF4F859194919093430780934207C3
:101A9000E5E9F0E0E491E093410712E0CDC114BC28
:101AA00015BC84B5826084BD85B5816085BDE3EBDE
:101AB000F0E0E491F0E0EE0FFF1FEC55FF4F859151
:101AC0009491E5E9F0E0E491E093520710E0B4C1AD
:101AD0001092800010928100809181008860809334
:101AE000810080918100816080938100E3EBF0E0D0
:101AF000E491F0E0EE0FFF1FEC55FF4F85919491BC
:101B0000E5E9F0E0E491E093510761E085E00E94AF
:101B1000C40C11E0B1C017FD94C161E085E00E94E2
:101B2000C40C812F8D7F09F0A7C04E01A12CB12CD0
:101B300060E072E18AE790E0A50194010E94B81686
:101B400029013A0169017A0121E0C21AD108E108AC
:101B5000F1088FEFC816D104E104F10409F008F48C
:101B60004BC060E472E48FE090E0A50194010E9414
:101B7000B81669017A0181E0C81AD108E108F108B4
:101B8000123001F52FEFC216D104E104F10409F07F
:101B900008F4EAC060E970ED83E090E0A5019401EB
:101BA0000E94B81669017A0181E0C81AD108E108DB
:101BB000F1082FEFC216D104E104F10409F030F569
:101BC00083E053C08FEFC816D104E104F104B1F0F3
:101BD000A8F068E478EE81E090E0A50194010E940D
:101BE000B81669017A0181E0C81AD108E108F10844
:101BF000112309F4EEC0E4C081E001C082E01111BC
:101C000034C095B5987F892B85BD68C068E478EEAF
:101C100081E090E0A50194010E94B81669017A0163
:101C200081E0C81AD108E108F1082FEFC216D104EB
:101C3000E104F10409F008F495C064E274EF80E077
:101C400090E0A50194010E94B81669017A0181E033
:101C5000C81AD108E108F1082FEFC216D104E10437
:101C6000F10411F008F082C085E09091B100987FF6
:101C7000892B8093B10032C04E01A12CB12C60E0C1
:101C800072E18AE790E0A50194010E94B81669010B
:101C90007A0181E0C81AD108E108F108C114D10421
:101CA00021E0E206F10488F068E478EE81E090E05B
:101CB000A50194010E94B81669017A0181E0C81A51
:101CC000D108E108F10883E001C081E0113031F46E
:101CD00090918100987F892B809381009E01220F33
:101CE000331FAAEFB0E00E94301728EE33E040E047
:101CF00050E00E940E17113099F0123019F11111B5
:101D0000A0C0C7BC2093570730935807409359078A
:101D100050935A0780916E00826080936E0091C04C
:101D2000D0928900C09288002093530730935407C3
:101D3000409355075093560780916F0082608093BF
:101D40006F007FC0C092B3002093440730934507D3
:101D500040934607509347078091700082608093BC
:101D600070006FC084E081CF82E07FCF62E17AE7CC
:101D700080E090E0A50194010E94B81669017A0103
:101D800081E0C81AD108E108F1088FEFC816D10424
:101D9000E104F10499F090F0D301C2012AE0B59575
:101DA000A795979587952A95D1F76C017D0121E03C
:101DB000C21AD108E108F10887E057CF86E055CF75
:101DC0002FEFC216D104E104F10409F078F684E0A3
:101DD00016CF8FEFC816D104E104F10459F150F188
:101DE00062E17AE780E090E0A50194010E94B816D4
:101DF00069017A0181E0C81AD108E108F1082FEFE2
:101E0000C216D104E104F10499F090F0D301C201AB
:101E10003AE0B595A795979587953A95D1F76C01D6
:101E20007D0121E0C21AD108E108F10885E0E9CE80
:101E300084E0E7CE83E0E5CE61E085E00E94C40C5B
:101E400074CEDF91CF911F91FF90EF90DF90CF90F4
:101E5000BF90AF909F908F907F906F905F904F90CA
:101E600008952FB7F8946091490770914A078091BF
:101E70004B0790914C072FBF08958F929F92AF927E
:101E8000BF92EF92FF920F931F93CF93DF9300D0F7
:101E900000D0CDB7DEB719821A821B821C8284E67D
:101EA00090E0A0E0B0E080934C0590934D05A093A6
:101EB0004E05B0934F058E010F5F1F4F7E0185E0E9
:101EC000E80EF11C0E94310F60935005709351058C
:101ED000809352059093530588E495E00E94C600D4
:101EE00097FF2CC00E94310F8090500590905105B3
:101EF000A0905205B0905305DC01CB0188199909D7
:101F0000AA09BB0980904C0590904D05A0904E0504
:101F1000B0904F0588159905AA05BB05E8F289819F
:101F2000813051F48A818F3F39F48B818F3F21F4C6
:101F300081E09C819F3F51F080E008C0F8018193CF
:101F40008F01EE16FF0609F0BDCFE9CF0F900F907D
:101F50000F900F90DF91CF911F910F91FF90EF9015
:101F6000BF90AF909F908F9008951F920F920FB6E1
:101F70000F9211242F933F938F939F93AF93BF930F
:101F80008091490790914A07A0914B07B0914C0767
:101F90003091480723E0230F2D3720F40196A11D2F
:101FA000B11D05C026E8230F0296A11DB11D209387
:101FB00048078093490790934A07A0934B07B09333
:101FC0004C0780914D0790914E07A0914F07B0911B
:101FD00050070196A11DB11D80934D0790934E07A8
:101FE000A0934F07B0935007BF91AF919F918F91EE
:101FF0003F912F910F900FBE0F901F9018957894DE
:1020000084B5826084BD84B5816084BD85B58260FD
:1020100085BD85B5816085BD80916E0081608093AE
:102020006E00109281008091810082608093810017
:102030008091810081608093810080918000816027
:10204000809380008091B10084608093B100809182
:10205000B00081608093B00080917A0084608093AA
:102060007A0080917A00826080937A0080917A0071
:10207000816080937A0080917A00806880937A00F2
:102080001092C1000E94B40A61E08EE00E94C40C6C
:1020900061E08FE00E94C40C61E080E10E94C40C0A
:1020A00061E085E00E94C40C60E081E10E94C40C04
:1020B00060E082E10E94C40C0E94310F6093300501
:1020C0007093310580933205909333050E94310F50
:1020D000609338057093390580933A0590933B05DA
:1020E0000E94B40A80E792E00E94580781E492E0DF
:1020F0000E9458070E943D0F89E492E00E94580711
:102100000E943D0F65EB79E07093F4066093F3064F
:102110008BEE96E09093F6068093F50641EB59E03E
:102120005093E8064093E7068FED96E09093EA0619
:102130008093E9062DEA39E03093DC062093DB0634
:1021400083ED96E09093DE068093DD0689EA99E0C0
:102150009093D0068093CF06E7ECF6E0F093D2069A
:10216000E093D1067093C4066093C306EBEBF6E0F0
:10217000F093C606E093C5065093B8064093B706A1
:10218000EFEAF6E0F093BA06E093B9063093AC06B6
:102190002093AB06E3EAF6E0F093AE06E093AD06DB
:1021A0009093A00680939F06E7E9F6E0F093A206DD
:1021B000E093A1067093940660939306EBE8F6E033
:1021C000F0939606E0939506509388064093870611
:1021D000EFE7F6E0F0938A06E093890630937C06F9
:1021E00020937B06E3E7F6E0F0937E06E0937D061E
:1021F0009093700680936F06E7E6F6E0F093720620
:10220000E093710670936406609363066BE576E075
:102210007093660660936506509358064093570680
:102220004FE456E050935A064093590630934C06BB
:1022300020934B0623E436E030934E0620934D0660
:102240009093400680933F0687E396E09093420682
:102250008093410689E798E0909334068093330693
:102260002BE236E03093360620933506909328060D
:10227000809327062FE136E030932A062093290623
:1022800090931C0680931B0623E136E030931E06D4
:1022900020931D069093100680930F0687E096E02A
:1022A00090931206809311068AE090E09093F805CF
:1022B0008093F70589E090E09093FA058093F90503
:1022C00082E090E09093FC058093FB0561E08AE05A
:1022D0000E94C40C61E08091F7050E94950C8091EA
:1022E000F9059091FA058F3F2FEF920789F061E091
:1022F0000E94C40C60E08091F9050E94950C0E9438
:10230000F50A61E08091F9050E94950C0E94F50A9A
:10231000CFB7F89480912F05811127C0E8EBF0E04A
:102320008491EAE9F0E09491E82FF0E0EE0FFF1FCE
:10233000E859FF4FA591B491EC91E92321F461E0B4
:102340008AE00E94950C61E08AE00E94C40C8CB582
:1023500080618CBD8CB580648CBD61E08DE00E9495
:10236000C40C61E08BE00E94C40C80912F058F5F4C
:1023700080932F05CFBF62E487EE95E00E9491071E
:10238000823109F0EFC140E861E887EE95E00E94F4
:10239000710780E091EAACEBB3E38093FD05909385
:1023A000FE05A093FF05B093000649ED66E887EEB1
:1023B00095E00E94710740E067E887EE95E00E9493
:1023C000710740E068E887EE95E00E94710740E001
:1023D0006EE887EE95E00E94710740E06FE887EEB7
:1023E00095E00E9471076CE087EE95E00E949107EE
:1023F000482F43606CE887EE95E00E94710744E047
:1024000066EA87EE95E00E9471074FE869E887EE7B
:1024100095E00E94710741E861E887EE95E00E942F
:102420007107F0E28F2EF1E09F2EAAE06A2E77244A
:102430007394BBEF2B2EB4E03B2EC3E44C2EC5E0CF
:102440005C2E62E187EE95E00E949107C82F0E9402
:102450002C0B4C2F62E987EE95E00E947107C6FFB6
:1024600029C0C5FD27C01092020610920106809176
:10247000030690910406892B11F062E201C063E12A
:1024800087EE95E00E949107C82FD0E060E187EECB
:1024900095E00E949107482F6DE887EE95E00E9435
:1024A000710741E861E887EE95E00E947107CD2B46
:1024B000E9F461C161E087EE95E00E9491078638FA
:1024C00009F459C140E06DE887EE95E00E9471077C
:1024D00046E861E887EE95E00E9471074CC187EEFF
:1024E00095E00E94BB078B3B910539F087EE95E0A4
:1024F0000E94D607892B99F73EC187EE95E00E948E
:10250000BB078F3F910509F0CDC078E1E72E71E060
:10251000F72EE3EFCE2EE4E0DE2E8601E70187EE14
:1025200095E00E94BB07B82E87EE95E00E94BB079E
:10253000982F88278B298993999387EE95E00E949D
:10254000BB07B82E87EE95E00E94BB07982F88271F
:102550008B29F801819391938F018C169D06F9F6D2
:102560000E943C0B6CEB87EE95E00E94A0016FEFA0
:1025700087EE95E00E94A001C3EFD4E048E1A42ECD
:1025800041E0B42E8501F501608187EE95E00E945F
:10259000A001F2E0AF0EB11CF801618187EE95E079
:1025A0000E94A001688187EE95E00E94A0016981E8
:1025B000229687EE95E00E94A0018A149B0411F7F1
:1025C0000E94530B0E94790800E010E0C1E0D0E0C7
:1025D000C230D10569F52091F5043091F60480915F
:1025E0001A0190911B012230310511F45C0105C0E4
:1025F000689E5001699EB00C112483E090E00E9417
:102600001F08A816B9061CF07092460509C082E0A2
:1026100090E00E941F088A159B052CF070924705D8
:1026200061E070E002C060E070E082E090E02AC00B
:10263000F60180819181F701029719F4A080B180A1
:1026400007C080819181689E5001699EB00C112461
:10265000C80101960E941F08A816B9062CF07092B6
:10266000460561E070E00DC0C8010E941F08A81671
:10267000B9062CF07092470562E070E002C060E09D
:1026800070E0CE010E943E0821960E5F1F4FF2E0DF
:10269000EF0EF11C22E0C20ED11C0830110509F02A
:1026A00097CF24CF87EE95E00E94BB07892B09F0D6
:1026B0001DCFC8E0D1E003EE14E068017E0187EE93
:1026C00095E00E94BB07B82E87EE95E00E94BB07FD
:1026D000982F88278B29F701819391937F0187EEAB
:1026E00095E00E94BB07B82E87EE95E00E94BB07DD
:1026F000982F88278B29F601819391936F01F8E138
:10270000EF16F1E0FF06D9F60E943C0B6CEB87EE6A
:1027100095E00E94A00160E087EE95E00E94A00194
:102720007E01688187EE95E00E94A0012296F70164
:10273000618187EE95E00E94A001F801608187EE3B
:1027400095E00E94A001F80161810E5F1F4F87EEA6
:1027500095E00E94A001F1E0C831DF0709F70E946F
:10276000530BC4CE88E592E00E94E10A8EE692E027
:102770000E94E10AFFCF81E10E946C0C019721F4D5
:10278000109247051092460582E10E946C0C019759
:10279000A1F510922E0510922D051F921F9220E593
:1027A00032E03F932F933F922F920E9472178BEF4C
:1027B00094E00E94F30A0E94380880912D059091C0
:1027C0002E050F900F900F900F900F900F9081306B
:1027D000910519F40E94B50910C08230910519F4D1
:1027E0000E94B1090AC08330910519F40E94AD0915
:1027F00004C0049711F40E94A9090E94310F6B01D3
:102800007C01609334057093350580933605909371
:1028100037058091300590913105A0913205B09136
:102820003305A7019601281B390B4A0B5B0BDA0114
:10283000C901843F9140A105B10508F449C08091C8
:102840004705811104C080914605882391F18EE0EF
:102850000E946C0C61E0892B09F060E08EE00E9420
:10286000950C8FE00E946C0C61E0892B09F060E010
:102870008FE00E94950C80E10E946C0C61E0892B36
:1028800009F060E080E10E94950C80914605882364
:1028900019F088EB91E002C085E091E00E94000D04
:1028A000C0923005D0923105E0923205F0923305A6
:1028B0000FC085E00E94C00360E08EE00E94950C8E
:1028C00060E08FE00E94950C60E080E10E94950C32
:1028D0000E94310F009138051091390520913A0579
:1028E00030913B0508511C4F2F4F3F4F06171707DC
:1028F0002807390798F40E943C0B6CEB87EE95E0B3
:102900000E94A0010E94530B0E94310F6093380572
:102910007093390580933A0590933B0588E495E0E0
:102920000E94E800181619060CF042C00E94F50A31
:1029300088E495E00E94C600C82F853679F788E4C0
:1029400095E00E94E80006974CF3C0933C05CDE368
:10295000D5E088E495E00E94C60089934C165D0698
:10296000C1F710924305809140058F3FB9F68091E1
:1029700041058F3F99F6809142058F3F79F640914E
:102980003F0550E060E070E090913E0520913D05EC
:10299000E0E2F1E0A191B191109709F4BFCF8C91E1
:1029A0002813F8CF11968C9111979813F3CF03C089
:1029B0000E948F0146CD413051056105710561F4DA
:1029C0001496ED91FC911597309709F4A7CF1696C0
:1029D0008D919C91179710C0452B462B472B09F0E2
:1029E0009DCF1896ED91FC911997309709F496CFE9
:1029F0001A968D919C911B97099590CFE8E4F5E08C
:102A00001382128288EE93E0A0E0B0E08483958385
:102A1000A683B7838FE491E09183808385EC90E077
:102A20009587848784EC90E09787868780EC90E098
:102A3000918B808B81EC90E0938B828B82EC90E089
:102A4000958B848B86EC90E0978B868B118E128E03
:102A5000138E148EE5EEF5E080E580831182E7EFBA
:102A6000F6E0158216821186138642E050E060E09F
:102A700070E0448755876687778713A215A614A64A
:102A800021E631E033A722A717A6E7EEF5E013828F
:102A900012822DE631E031832083848781E08587AF
:102AA00020E437E0378726872AE030E0318B208B1F
:102AB00029E030E0338B228B22E030E0358B248B11
:102AC000168A178A108E118E138E128E158E148E02
:102AD000178E168E1482158216821782EBEEF6E0A0
:102AE000108295E0918321E732E0338322831582BF
:102AF0001482118610861386128617821682EFEDD5
:102B0000F6E0108296E0918326E732E03383228359
:102B100015821482118610861386128617821682F9
:102B2000E3EDF6E0108297E091832BE732E0338308
:102B300022831582148211861086138612861782CC
:102B40001682E7ECF6E0108298E0918320E832E00C
:102B5000338322831582148211861086138612868F
:102B600017821682EBEBF6E010829EE0918325E857
:102B700032E03383228315821482118610861386F5
:102B8000128617821682EFEAF6E010829FE09183A8
:102B90002FE832E033832283158214821186108657
:102BA0001386128617821682E3EAF6E0108290E11D
:102BB000918329E932E033832283158214821186BE
:102BC00010861386128617821682E7E9F6E01082D5
:102BD00091E1918323EA32E03383228315821482C8
:102BE000118610861386128617821682EBE8F6E0AD
:102BF000108299E091832DEA32E03383228315829B
:102C00001482118610861386128617821682EFE7C9
:102C1000F6E010829AE0918323EB32E03383228343
:102C200015821482118610861386128617821682E8
:102C3000E3E7F6E010829CE0918329EB32E03383F6
:102C400022831582148211861086138612861782BB
:102C50001682E7E6F6E010829BE091832FEB32E0EC
:102C6000338322831582148211861086138612867E
:102C700017821682EBE5F6E0108244E0418325ECF2
:102C800032E03383228315821482118610861386E4
:102C9000128617821682EFE4F6E0108253E0518329
:102CA00028EC32E033832283158214821186108649
:102CB0001386128617821682E3E4F6E0108262E041
:102CC00061832BEC32E033832283158214821186D8
:102CD00010861386128617821682E7E3F6E01082CA
:102CE00081832EEC32E03383228315821482118695
:102CF00010861386128617821682EBE2F6E0808336
:102D0000918321ED32E03383228315821482118670
:102D100010861386128617821682EFE1F6E0608332
:102D20009183338322831582148211861086138641
:102D3000128617821682E3E1F6E050839183338393
:102D400022831582148211861086138612861782BA
:102D50001682E7E0F6E04083918333832283158275
:102D600014821186108613861286178216820895A1
:102D7000052E97FB1EF400940E94CF1657FD07D036
:102D80000E940E1707FC03D04EF40C94CF165095FA
:102D90004095309521953F4F4F4F5F4F0895909547
:102DA0008095709561957F4F8F4F9F4F08952F921B
:102DB0003F924F925F926F927F928F929F92AF92CB
:102DC000BF92CF92DF92EF92FF920F931F93CF9318
:102DD000DF93CDB7DEB7CA1BDB0B0FB6F894DEBFAF
:102DE0000FBECDBF09942A88398848885F846E84D5
:102DF0007D848C849B84AA84B984C884DF80EE801F
:102E0000FD800C811B81AA81B981CE0FD11D0FB627
:102E1000F894DEBF0FBECDBFED010895A1E21A2EDA
:102E2000AA1BBB1BFD010DC0AA1FBB1FEE1FFF1F6E
:102E3000A217B307E407F50720F0A21BB30BE40BBE
:102E4000F50B661F771F881F991F1A9469F7609505
:102E50007095809590959B01AC01BD01CF010895BF
:102E6000A29FB001B39FC001A39F700D811D1124CB
:102E7000911DB29F700D811D1124911D089597FB26
:102E8000072E16F4009407D077FD09D00E9453173F
:102E900007FC05D03EF4909581959F4F089570955D
:102EA00061957F4F0895AA1BBB1B51E107C0AA1F64
:102EB000BB1FA617B70710F0A61BB70B881F991FDB
:102EC0005A95A9F780959095BC01CD010895EE0F14
:102ED000FF1F0590F491E02D099481E090E0F894B3
:102EE0000C94251AAEE0B0E0E8E7F7E10C94E516A3
:102EF0000D891E8986E08C831A8309838FEF9FE7F3
:102F00009E838D83AE01475E5F4F6F89788DCE01C2
:102F100001960E949417EF81F885E00FF11F10824F
:102F20002E96E4E00C940117ABE0B0E0EAE9F7E19B
:102F30000C94D7166C017B018A01FC011782168262
:102F4000838181FFCCC1CE0101963C01F6019381C2
:102F5000F70193FD859193FF81917F01882309F407
:102F6000BAC1853239F493FD859193FF81917F0138
:102F7000853229F4B60190E00E948B19E7CF912C9D
:102F8000212C312CFFE1F315D8F08B3279F038F495
:102F9000803279F08332A1F4232D20611DC08D325F
:102FA00061F0803369F4232D216016C0832D826087
:102FB000382EE32DE4603E2E2AC0F32DF8601DC0AC
:102FC00037FC2DC020ED280F2A3040F08E32B9F4A6
:102FD00036FC81C1232D2064322E19C036FE06C076
:102FE0008AE0989E200D1124922E11C0EAE02E9EB8
:102FF000200D1124222EF32DF0623F2E08C08C36B6
:1030000021F4832D8068382E02C0883641F4F70100
:1030100093FD859193FF81917F018111B3CF982F0B
:103020009F7D9554933028F40C5F1F4F9FE3998345
:103030000DC0833631F0833771F0833509F059C004
:1030400021C0F801808189830E5F1F4F88248394FB
:10305000912C530113C02801F2E04F0E511CF801CE
:10306000A080B18036FE03C0692D70E002C06FEF12
:103070007FEFC5010E9480194C018201F32DFF777B
:103080003F2E16C0280122E0420E511CF801A080FC
:10309000B18036FE03C0692D70E002C06FEF7FEF94
:1030A000C5010E9475194C01F32DF0683F2E820175
:1030B00033FC1BC0822D90E088169906B0F4B6014F
:1030C00080E290E00E948B192A94F4CFF50137FC3E
:1030D000859137FE81915F01B60190E00E948B19C6
:1030E00021102A9421E0821A91088114910471F729
:1030F000E8C0843611F0893641F5F80137FE07C083
:1031000060817181828193810C5F1F4F08C0608153
:103110007181072E000C880B990B0E5F1F4FF32D4A
:10312000FF763F2E97FF09C0909580957095619529
:103130007F4F8F4F9F4FF0683F2E2AE030E0A30172
:103140000E94C719882E861845C0853731F4232D73
:103150002F7EB22E2AE030E025C0932D997FB92E24
:103160008F36C1F018F4883579F0B5C0803719F082
:10317000883721F0B0C0E92FE061BE2EB4FE0DC04B
:10318000FB2DF460BF2E09C034FE0AC0292F266033
:10319000B22E06C028E030E005C020E130E002C0D9
:1031A00020E132E0F801B7FE07C0608171818281C1
:1031B00093810C5F1F4F06C06081718180E090E0B9
:1031C0000E5F1F4FA3010E94C719882E8618FB2D82
:1031D000FF773F2E36FE0DC0232D2E7FA22E8914A1
:1031E00058F434FE0BC032FC09C0832D8E7EA82E0D
:1031F00005C0B82CA32C03C0B82C01C0B92CA4FE68
:103200000FC0FE01E80DF11D8081803321F49A2D5D
:10321000997EA92E09C0A2FE06C0B394B39404C03F
:103220008A2D867809F0B394A3FC11C0A0FE06C0D5
:10323000B21488F4280C922C9B180EC0B21460F4BF
:10324000B60180E290E00E948B19B394F7CFB214DC
:1032500018F42B1802C0982C212CA4FE10C0B60123
:1032600080E390E00E948B19A2FE17C0A1FC03C06E
:1032700088E790E002C088E590E0B6010CC08A2D96
:10328000867859F0A1FE02C08BE201C080E2A7FC63
:103290008DE2B60190E00E948B19891438F4B601D2
:1032A00080E390E00E948B199A94F7CF8A94F301FF
:1032B000E80DF11D8081B60190E00E948B1981100C
:1032C000F5CF222009F442CEB60180E290E00E94C0
:1032D0008B192A94F6CFF6018681978102C08FEF71
:1032E0009FEF2B96E2E10C94F316FC0105906150E0
:1032F00070400110D8F7809590958E0F9F1F08950C
:10330000FC016150704001900110D8F780959095B4
:103310008E0F9F1F08950F931F93CF93DF93FB0191
:10332000238121FD03C08FEF9FEF2CC022FF16C029
:1033300046815781248135814217530744F4A08187
:10334000B1819D012F5F3F4F318320838C93268174
:1033500037812F5F3F4F3783268314C08B01EC01E9
:10336000FB010084F185E02D0995892BE1F6D80158
:1033700016968D919C911797019617969C938E9314
:103380001697CE01DF91CF911F910F910895FA0109
:10339000AA27283051F1203181F1E8946F936E7F94
:1033A0006E5F7F4F8F4F9F4FAF4FB1E03ED0B4E085
:1033B0003CD0670F781F891F9A1FA11D680F791FC6
:1033C0008A1F911DA11D6A0F711D811D911DA11DD7
:1033D00020D009F468943F912AE0269F11243019E7
:1033E000305D3193DEF6CF010895462F4770405D82
:1033F0004193B3E00FD0C9F7F6CF462F4F70405D31
:103400004A3318F0495D31FD4052419302D0A9F78B
:10341000EACFB4E0A6959795879577956795BA9585
:10342000C9F700976105710508959B01AC010A2E4B
:1034300006945795479537952795BA95C9F7620F22
:0E344000731F841F951FA01D0895F894FFCFE1
:10344E00FFFFFFFFB909B9090A0019001300630055
:10345E0014007B006400C90000001500000000008D
:10346E00EB06DF06D306C706BB06AF06A306970616
:10347E008B067F06730667065B064F064306370606
:10348E002B061F06130607060000FF000000002093
:10349E00018D00B7006D01E800C600DA00000000E3
:1034AE000071058D00C401C30100000000A001E4FD
:1034BE0007C4019F01D607BB079507646174614677
:1034CE006C61672E76616C3D2569006761732569B5
:1034DE00666C61672E76616C3D257500676173259C
:1034EE006976616C75652E7478743D2225692C257C
:1034FE00692200676173256976616C75652E747833
:10350E00743D222569220074726573686F6C643194
:10351E002E7478743D2225692C25692200747265FB
:10352E0073686F6C64312E7478743D2225692C2279
:10353E000074726573686F6C64312E7478743D22FA
:10354E002569220074726573686F6C64322E74780C
:10355E00743D2225692C2569220074726573686F8B
:10356E006C64322E7478743D2225692C220074729C
:10357E006573686F6C64322E7478743D22256922EF
:10358E0000626B636D643D310070616765203000D1
:10359E0070616765202569005374617274696E6786
:1035AE00204C6F5261206661696C656421000D0AC2
:1035BE0000676173310067617332006761733300B6
:1035CE0067617334006761733176616C756500678E
:1035DE0061733276616C7565006761733376616C09
:1035EE007565006761733476616C756500756E691B
:1035FE00743100756E69743200756E6974330075BE
:10360E006E697434006231006232006233006234DB
:0A361E00006261636B42746E0000ED
:00000001FF
