:100000000C9463000C9479020C9452020C94A70592
:100010000C94A7050C94A7050C948B000C94A002DB
:100020000C948B000C948B000C948B000C948B0024
:100030000C948B000C948B000C948B000C948B0014
:100040000C9408020C948B000C9422030C94FC0278
:100050000C948B000C948B000C948B000C948B00F4
:100060000C948B000C948B000000000024002700EF
:100070002A000000000023002600290000000008DC
:10008000000201000003040700000000000000005F
:10009000010204081020408001020408102001021F
:1000A0000408102000000000250028002B00040494
:1000B0000404040404040202020202020303030310
:1000C00003030200AF1111241FBECFEFD8E0DEBF43
:1000D000CDBF11E0A0E0B1E0EAEEFBE202C0059086
:1000E0000D92A03AB107D9F725E0A0EAB1E001C02E
:1000F0001D92A331B207E1F710E0C3E6D0E004C0DF
:100100002197FE010E943513C236D107C9F70E941C
:100110003C0E0C94F3150C9400000895CF92DF92DE
:10012000EF92FF920F931F93CF93DF936C017A01AD
:100130008B01C0E0D0E0CE15DF0581F0D8016D91D4
:100140008D01D601ED91FC910190F081E02DC60169
:100150000995892B11F02196EECF7E01C701DF9121
:10016000CF911F910F91FF90EF90DF90CF90089566
:10017000FC01538D448D252F30E0842F90E0821BAD
:10018000930B541710F0CF96089501970895FC0132
:10019000918D828D981761F0828DDF01A80FB11DBE
:1001A0005D968C91928D9F5F9F73928F90E00895E2
:1001B0008FEF9FEF0895FC01918D828D981731F09C
:1001C000828DE80FF11D858D90E008958FEF9FEFF0
:1001D0000895FC01918D228D892F90E0805C9F4FC6
:1001E000821B91098F739927089580E094E00E9403
:1001F000E90021E0892B09F420E0822F08959091F5
:100200000E01891324C0E2ECF0E0E4919FEF90939B
:100210000E01E130B9F098F0E230C9F4909170002D
:100220009D7F9093700091E09093B0009091B10009
:10023000987F94609093B1001092B30008C0109220
:100240006E0005C090916F009D7F90936F0060E0FD
:100250000C940D0E0E943B13EF92FF920F931F938D
:10026000CF93DF93EC0181E0888F9B8D8C8D981369
:1002700005C0E889F989808185FD26C0F62E0B8DA1
:1002800010E00F5F1F4F0F731127E02E8C8DE812C7
:100290000CC00FB607FCFACFE889F989808185FF89
:1002A000F5CFCE010E948505F1CF8B8DFE01E80FC1
:1002B000F11DE35AFF4FF0829FB7F8940B8FEA8944
:1002C000FB89808180620AC09FB7F894EE89FF891C
:1002D0006083E889F98980818370806480839FBF0F
:1002E00081E090E0DF91CF911F910F91FF90EF900F
:1002F0000895CF93DF93EC01888D8823C9F0EA89B4
:10030000FB89808185FD05C0A889B9898C9186FD0E
:100310000FC00FB607FCF5CF808185FFF2CFA8890B
:10032000B9898C9185FFEDCFCE010E948505E7CF7D
:10033000DF91CF910895CF93DF9390E0FC01E057D8
:10034000FF4F2491FC01E255FF4F8491882361F116
:1003500090E0880F991FFC01E859FF4FC591D49197
:10036000FC01EC55FF4FA591B491611109C09FB7F5
:10037000F8948881209582238883EC912E230BC0EA
:10038000623061F49FB7F8948881322F30958323CF
:100390008883EC912E2B2C939FBF06C08FB7F894C7
:1003A000E8812E2B28838FBFDF91CF9108953FB72F
:1003B000F8948091EC019091ED01A091EE01B09143
:1003C000EF0126B5A89B05C02F3F19F00196A11D8E
:1003D000B11D3FBFBA2FA92F982F8827820F911DDB
:1003E000A11DB11DBC01CD0142E0660F771F881F22
:1003F000991F4A95D1F708952FB7F8946091E801B5
:100400007091E9018091EA019091EB012FBF08956D
:100410001F920F920FB60F9211242F933F938F9339
:100420009F93AF93BF938091E8019091E901A091D0
:10043000EA01B091EB013091E70123E0230F2D3762
:1004400020F40196A11DB11D05C026E8230F0296D8
:10045000A11DB11D2093E7018093E8019093E9016C
:10046000A093EA01B093EB018091EC019091ED0132
:10047000A091EE01B091EF010196A11DB11D8093F5
:10048000EC019093ED01A093EE01B093EF01BF91C9
:10049000AF919F918F913F912F910F900FBE0F9031
:1004A0001F9018951F920F920FB60F9211242F9341
:1004B0003F934F935F936F937F938F939F93AF93EC
:1004C000BF93EF93FF93E0910201F091030109952F
:1004D000FF91EF91BF91AF919F918F917F916F911C
:1004E0005F914F913F912F910F900FBE0F901F90F2
:1004F00018951F920F920FB60F9211242F933F93CE
:100500004F935F936F937F938F939F93AF93BF931B
:10051000EF93FF93E0910001F09101010995FF91A4
:10052000EF91BF91AF919F918F917F916F915F916B
:100530004F913F912F910F900FBE0F901F901895E4
:100540001F920F920FB60F9211242F933F934F9348
:100550005F936F937F938F939F93AF93BF93EF932B
:10056000FF938091FC039091FD03A091FE03B09155
:10057000FF03892B8A2B8B2B51F19091F903E0918A
:10058000FA03F091FB038081892780838091FC032B
:100590009091FD03A091FE03B091FF031816190678
:1005A0001A061B06C4F48091FC039091FD03A091F0
:1005B000FE03B091FF030197A109B1098093FC03E9
:1005C0009093FD03A093FE03B093FF0304C08091BA
:1005D0000E010E94FF00FF91EF91BF91AF919F919B
:1005E0008F917F916F915F914F913F912F910F90DC
:1005F0000FBE0F901F9018951F920F920FB60F927B
:1006000011242F933F934F935F936F937F938F9317
:100610009F93AF93BF93EF93FF9380E094E00E948A
:100620008505FF91EF91BF91AF919F918F917F9140
:100630006F915F914F913F912F910F900FBE0F904F
:100640001F9018951F920F920FB60F9211242F939F
:100650008F939F93EF93FF93E0911004F091110417
:100660008081E0911604F091170482FD12C0908100
:10067000809119048F5F8F7320911A04821751F0B3
:10068000E0911904F0E0E050FC4F958F809319043D
:1006900001C08081FF91EF919F918F912F910F90D9
:1006A0000FBE0F901F90189580E090E0892B29F0E5
:1006B0000E94F50081110C94000008958FB7F89402
:1006C0008091F0018FBF08950895CF93DF931F921B
:1006D000CDB7DEB76983DC01ED91FC910280F38137
:1006E000E02D41E050E0BE016F5F7F4F09950F9014
:1006F000DF91CF9108958EBD00000DB407FEFDCFB0
:100700008EB508958FEF0C947B038CBD9DBD08952D
:10071000089580E090E008950F931F93CF93DF93A7
:10072000EB010E94FC018B010E9482038F3F49F084
:100730000E94FC01601B710B6C177D07A8F380E021
:1007400001C081E0DF91CF911F910F91089561E089
:10075000FC0184810E940D0E8091F10181111092A3
:10076000F1010895CF93DF93EC018E81882389F006
:100770008F8198859C012F5F3F4F38872F83823070
:10078000924018F40E948203F3CFCE010E94A70387
:100790001E82DF91CF9108958F929F92AF92BF9268
:1007A000FF920F931F93CF93DF93EC01F62E490135
:1007B0005A010E94B2038091F101811109C081E0C8
:1007C0008093F10180919D0490919E040E94850385
:1007D00060E08C810E940D0E6CE271E0CE010E94FF
:1007E0008C038F2D80640E947B0308E110E0D5010B
:1007F000C401002E04C0B695A795979587950A94D5
:10080000D2F70E947B0308501109083F8FEF1807A9
:1008100071F7FF2029F088E0F81204C087E803C0D0
:1008200085E901C08FEF0E947B0310E00E948203E4
:100830008A8787FF04C01F3F11F01F5FF7CFDF914A
:10084000CF911F910F91FF90BF90AF909F908F908D
:100850000895EF92FF920F931F93CF93DF93EC01D4
:100860007901411551056105710511F482E13CC022
:100870008B85833039F089E0440F551F661F771F41
:100880008A95D1F79A01AB0168E1CE010E94CC03B1
:10089000882311F084E028C08EEF0E947B0387013B
:1008A0008EEFF81AF80181918F010E947B03E01608
:1008B000F106C1F78FEF0E947B038FEF0E947B034D
:1008C0000E9482038A878F71853031F081E18D83A8
:1008D000CE010E94A70309C068E572E0CE010E9424
:1008E0008C03811107C085E18D83CE010E94A7038F
:1008F00080E014C020E030E0A9016DE0CE010E944C
:10090000CC03811109C00E948203811105C0CE0170
:100910000E94A70381E002C084E1E6CFDF91CF917E
:100920001F910F91FF90EF9008958091F20188231D
:1009300089F140910A0150910B0160910C01709175
:100940000D0127EF31E080E090E00E942904811141
:1009500002C080E008954091F3015091F40160914C
:10096000F5017091F601411551056105710581F0A0
:1009700027EF31E080E090E00E942904882349F3CA
:100980001092F3011092F4011092F5011092F60109
:100990001092F20181E00895AF92BF92CF92DF9260
:1009A000EF92FF921F93CF93DF936B017C01142F83
:1009B00080910A0190910B01A0910C01B0910D0161
:1009C0008C159D05AE05BF0509F48FC00E949504E6
:1009D000882309F490C0809106008823A1F08091BB
:1009E000000090910100A0910200B0910300C81690
:1009F000D906EA06FB0639F48091070090910800B9
:100A0000892B09F443C0C0920000D0920100E0920B
:100A10000200F092030080910B00A7019601833041
:100A200039F099E0220F331F441F551F9A95D1F7D3
:100A300061E180E090E00E94CC03882321F083E014
:100A40008093050044C00E94FC01EB010E948203D8
:100A500080930A008F3F49F40E94FC016C1B7D0BC0
:100A60006D32714098F38FE003C08E3F41F08DE00E
:100A70008093050080E090E00E94A70328C01092B8
:100A800008001092070081E080930600C7EFD1E0D4
:100A900087EFA82E83E0B82E0E9482038993AC16BC
:100AA000BD06D1F780910700909108009E5F90935A
:100AB00008008093070020910900222319F0811576
:100AC000924058F080E090E00E94B20306C080E0BF
:100AD00090E00E94A70380E00EC0C0920A01D0926D
:100AE0000B01E0920C01F0920D014091F201412BBB
:100AF0004093F20181E0DF91CF911F91FF90EF9041
:100B0000DF90CF90BF90AF900895FC01848DDF01FE
:100B1000A80FB11DA35ABF4F2C91848D90E0019670
:100B20008F739927848FA689B7892C93A089B1895F
:100B30008C91837080648C93938D848D981306C000
:100B40000288F389E02D80818F7D808308951F9234
:100B50000F920FB60F9211240F900FBE0F901F909F
:100B600018954F925F926F927F928F929F92AF9261
:100B7000BF92CF92DF92EF92FF920F931F93CF938A
:100B8000DF93EC01423051056105710510F480E0FE
:100B900078C089859A85AB85BC850196A11DB11D5C
:100BA00084179507A607B70790F3CB88DC88ED88F4
:100BB000FE888F89803129F4BB27A72F962F852F98
:100BC00009C0DB01CA01E7E0B695A795979587951F
:100BD000EA95D1F7480159012A013B01C80ED91EF7
:100BE000EA1EFB1E80910A0190910B01A0910C015D
:100BF000B0910D01C816D906EA06FB0681F48F896B
:100C00008031A9F4B301A201552766277727440F45
:100C1000551FFA01E950FE4F9182808219C040E0D1
:100C2000C701B6010E94CC048111E9CFB0CFB30156
:100C3000A2014F77552766277727440F551F440F8A
:100C4000551FFA01E950FE4F80829182A282B38241
:100C50008091F20181608093F2018A89823080F074
:100C60008D819E81AF81B885C80ED91EEA1EFB1EFC
:100C7000C092F301D092F401E092F501F092F601F6
:100C800081E0DF91CF911F910F91FF90EF90DF9066
:100C9000CF90BF90AF909F908F907F906F905F901C
:100CA0004F9008958F929F92AF92BF92CF92DF9212
:100CB000EF92FF920F931F93CF93DF93FC018185F7
:100CC0009285A385B4850196A11DB11D8417950752
:100CD000A607B70710F480E05BC083889488A588D6
:100CE000B6888789803129F4BB27A72F962F852FB7
:100CF00009C0DB01CA01C7E0B695A795979587950E
:100D0000CA95D1F7E9016A017B018F01BC01CD01D0
:100D1000680D791D8A1D9B1D80900A0190900B0122
:100D2000A0900C01B0900D01681579058A059B050E
:100D300091F4F80187898031A1F4DD24EE24FF24A9
:100D4000C601880F991FFC01E950FE4F80819181F7
:100D5000A0E0B0E018C040E00E94CC048111E9CFCF
:100D6000BACFE894C7F8DD24EE24FF24C601880F2B
:100D7000991F880F991FFC01E950FE4F80819181D6
:100D8000A281B381BF7088839983AA83BB8381E0EA
:100D9000DF91CF911F910F91FF90EF90DF90CF9057
:100DA000BF90AF909F908F9008954F925F926F92F7
:100DB0007F92AF92BF92CF92DF92EF92FF920F930A
:100DC0001F93CF93DF9300D000D01F92CDB7DEB733
:100DD0008C016D83DC0115968C911597813009F09B
:100DE00054C014968C9181FF50C057C0258530E0C7
:100DF000275F3F4F2A013B01B1E04B1A51086108C0
:100E00007108022E04C076946794579447940A940C
:100E1000D2F7D701C6010197A109B10904C0B6955F
:100E2000A795979587952A95D2F784159505A605D8
:100E3000B70508F076C0F8014789508D618D728D35
:100E400046835783608771872C013D015801F6E086
:100E5000AF0EB11C411451046104710409F46BC05C
:100E6000D80116964D915D916D917C9119979501E0
:100E70005B968D919C915C970E945206B1E04B1A53
:100E80005108610871088111E5CF81E090E0F80117
:100E90009383828380E090E05BC182FF0EC0F80103
:100EA0004285538564857585C388D488E588F6882E
:100EB0004C155D056E057F05E9F4D8011A964D9134
:100EC0005D916D917C911D975B96ED91FC915C9786
:100ED000948191506A017B0189E0F694E794D7945C
:100EE000C7948A95D1F79C217A01B1E0FB22911138
:100EF00073C027C0D801038CF48DE02DC114D10438
:100F0000E104F10409F072CF16961D921D921D9214
:100F10001C9219971A961D921D921D921C921D9754
:100F200014C0452B462B472B09F485CF841995090E
:100F3000A609B70989CFF801C286D386E486F5866B
:100F4000BCCFE114F10409F047C0D80116964D91C9
:100F50005D916D917C911997411551056105710560
:100F600059F457968D919D910D90BC91A02D0097AD
:100F7000A105B10549F522C09E012F5F3F4FCF016A
:100F80000E945206882309F485CF89819A81AB811A
:100F9000BC81F801238D348DF9012789203129F492
:100FA00048EF5FEF60E070E004C048EF5FEF6FEF85
:100FB0007FE084179507A607B70730F0C8010E94A5
:100FC000E10C811106C061CFF80186839783A08769
:100FD000B187E12CF12C90E0D8015B96ED91FC916A
:100FE0005C9716964D905D906D907C901997B2E04D
:100FF0004B1A510861087108058404C0440C551C43
:10100000661C771C0A94D2F74685578560897189DA
:10101000440E551E661E771E490E511C611C711C24
:10102000E114F10409F5F80142855385648575855D
:1010300083899489A589B689481759076A077B0768
:1010400098F00E949504882309F41FCF40920A016A
:1010500050920B0160920C0170920D018091F2018F
:1010600081608093F20108C041E0C301B2010E9497
:10107000CC04882309F409CFF701E950FE4F8D8194
:101080008083F80182859385A485B5850196A11D8D
:10109000B11D82879387A487B58743895489658961
:1010A0007689481759076A077B0738F4838B948B36
:1010B000A58BB68B848180688483D80114968C912B
:1010C00083FD03C081E090E043C0F801958199233E
:1010D00009F4DBCE87FF37C06685778580899189E3
:1010E00041E00E94CC04882309F4CFCED801529667
:1010F000EC91B0E2EB9FF0011124E950FE4F3097E4
:1011000009F4C3CED80115968C911597823050F40E
:1011100053964D915D916D917C915697448F558F6B
:10112000668F778FD80157964D915D916D917C9127
:101130005A97538F428F758B648B14968C911497AA
:101140008F7714968C930E9495048111BBCF9DCE0E
:101150000F900F900F900F900F90DF91CF911F91F4
:101160000F91FF90EF90DF90CF90BF90AF907F9066
:101170006F905F904F900895CF93DF93EC0180E0E4
:1011800094E00E94E900892B29F080E094E00E941D
:10119000C700F5CFCE010E94100C0E940B0C0E94DC
:1011A0000B0CDF91CF910C940B0C0F931F93CF93EB
:1011B000DF93EC01062F142F60E088890E940D0E4A
:1011C0008C859D850E948503802F0E947B03812F43
:1011D0000E947B03182F61E088890E940D0E812FE9
:1011E000DF91CF911F910F9108956F7740E00C949C
:1011F000D5080F931F93CF93DF93EC01E881F9811A
:101200000084F185E02D0995892B91F06DE0CE01E8
:101210000E94F508082F60E0CE010E94F508182F03
:10122000402F6DE8CE010E94D508812F90E002C0CA
:101230008FEF9FEFDF91CF911F910F910895CF9383
:10124000DF93EC01E881F9810084F185E02D0995B7
:10125000892B59F08A8D9B8D01969B8F8A8F60E038
:10126000CE010E94F50890E002C08FEF9FEFDF9162
:10127000CF910895CF93DF93EC0163E10E94F508CD
:1012800090E02A8D3B8D821B930BDF91CF910895C7
:10129000AF92BF92CF92DF92FF920F931F93CF93A3
:1012A000DF936C015B01EA0162E20E94F508F82E0F
:1012B00090E09C012C0F3D1F2F3F310529F020F0BD
:1012C000CFEFD0E0C81BD90B8501AC0EBD1E0A15AF
:1012D0001B0541F0F80141918F0160E8C6010E94B1
:1012E000D508F5CF4C2F4F0D62EAC6010E94D508F4
:1012F000CE01DF91CF911F910F91FF90DF90CF90A2
:10130000BF90AF9008950E940B0C0E940B0C0C94A0
:101310000B0C833081F028F4813099F08230A1F0F9
:1013200008958730A9F08830B9F08430D1F48091E5
:1013300080008F7D03C0809180008F778093800034
:10134000089584B58F7702C084B58F7D84BD0895DC
:101350008091B0008F7703C08091B0008F7D809323
:10136000B00008954F925F926F927F928F929F92FA
:10137000AF92BF92CF92DF92EF92FF921F93CF93E3
:10138000DF93EC0180910E01853021F08F3F09F051
:101390000AC204C0E2ECF0E014916FC085E08093D3
:1013A0000E01E2ECF0E014911F3F09F4FCC1113092
:1013B00009F440C030F1123009F05FC01092B00063
:1013C0001092B1008091B00082608093B000809153
:1013D000B10081608093B100E3EBF0E0E491F0E0D4
:1013E000EE0FFF1FEC55FF4F859194919093FB03F7
:1013F0008093FA03E5E9F0E0E491E093F90312E069
:10140000CDC114BC15BC84B5826084BD85B5816036
:1014100085BDE3EBF0E0E491F0E0EE0FFF1FEC554B
:10142000FF4F85919491E5E9F0E0E491E093C004E9
:1014300010E0B4C110928000109281008091810070
:101440008860809381008091810081608093810019
:10145000E3EBF0E0E491F0E0EE0FFF1FEC55FF4FFF
:1014600085919491E5E9F0E0E491E093BF0461E0B7
:1014700085E00E949B0111E0B1C017FD94C161E0BD
:1014800085E00E949B01812F8D7F09F0A7C04E014E
:10149000A12CB12C60E072E18AE790E0A5019401F3
:1014A0000E94861229013A0169017A0121E0C21ADB
:1014B000D108E108F1088FEFC816D104E104F10466
:1014C00009F008F44BC060E472E48FE090E0A501FD
:1014D00094010E94861269017A0181E0C81AD1083C
:1014E000E108F108123001F52FEFC216D104E10432
:1014F000F10409F008F4EAC060E970ED83E090E0DF
:10150000A50194010E94861269017A0181E0C81A3E
:10151000D108E108F1082FEFC216D104E104F1046B
:1015200009F030F583E053C08FEFC816D104E10411
:10153000F104B1F0A8F068E478EE81E090E0A50154
:1015400094010E94861269017A0181E0C81AD108CB
:10155000E108F108112309F4EEC0E4C081E001C004
:1015600082E0111134C095B5987F892B85BD68C084
:1015700068E478EE81E090E0A50194010E94861273
:1015800069017A0181E0C81AD108E108F1082FEF5A
:10159000C216D104E104F10409F008F495C064E234
:1015A00074EF80E090E0A50194010E948612690129
:1015B0007A0181E0C81AD108E108F1082FEFC216BC
:1015C000D104E104F10411F008F082C085E09091AB
:1015D000B100987F892B8093B10032C04E01A12CBD
:1015E000B12C60E072E18AE790E0A50194010E94CD
:1015F000861269017A0181E0C81AD108E108F10870
:10160000C114D10421E0E206F10488F068E478EE28
:1016100081E090E0A50194010E94861269017A019F
:1016200081E0C81AD108E108F10883E001C081E037
:10163000113031F490918100987F892B8093810043
:101640009E01220F331FAAEFB0E00E94FE1228EE87
:1016500033E040E050E00E94DC12113099F012308B
:1016600019F11111A0C0C7BC2093C5043093C60462
:101670004093C7045093C80480916E0082608093A9
:101680006E0091C0D0928900C09288002093C1045E
:101690003093C2044093C3045093C40480916F00FC
:1016A000826080936F007FC0C092B3002093FC03E0
:1016B0003093FD034093FE035093FF03809170002D
:1016C0008260809370006FC084E081CF82E07FCF22
:1016D00062E17AE780E090E0A50194010E94861221
:1016E00069017A0181E0C81AD108E108F1088FEF99
:1016F000C816D104E104F10499F090F0D301C201BD
:101700002AE0B595A795979587952A95D1F76C010D
:101710007D0121E0C21AD108E108F10887E057CF26
:1017200086E055CF2FEFC216D104E104F10409F091
:1017300078F684E016CF8FEFC816D104E104F104E7
:1017400059F150F162E17AE780E090E0A50194015F
:101750000E94861269017A0181E0C81AD108E10865
:10176000F1082FEFC216D104E104F10499F090F0D2
:10177000D301C2013AE0B595A795979587953A951B
:10178000D1F76C017D0121E0C21AD108E108F1080E
:1017900085E0E9CE84E0E7CE83E0E5CE61E085E058
:1017A0000E949B0174CEDF91CF911F91FF90EF902B
:1017B000DF90CF90BF90AF909F908F907F906F9071
:1017C0005F904F900895E0E0F4E0A089B18982E055
:1017D0008C93A485B5851C92A685B7858FEC8C93D8
:1017E000108EA489B58986E08C93A289B3898C91E7
:1017F00080618C93A289B3898C9188608C93A28933
:10180000B3898C9180688C930288F389E02D808164
:101810008F7D808308956FEF80E094E00C942C011D
:10182000009769F0FC0101900020E9F73197AF01C2
:10183000481B590BBC0180E094E00C948E0080E0C2
:1018400090E008958F929F92AF92BF92EF92FF9295
:101850000F931F93CF93DF9300D000D0CDB7DEB7A7
:1018600019821A821B821C8284E690E0A0E0B0E01C
:101870008093040490930504A0930604B093070496
:101880008E010F5F1F4F7E0185E0E80EF11C0E9464
:10189000FC01609308047093090480930A049093F8
:1018A0000B0480E094E00E94C70097FF2CC00E94C8
:1018B000FC018090080490900904A0900A04B09064
:1018C0000B04DC01CB0188199909AA09BB09809096
:1018D000040490900504A0900604B09007048815B5
:1018E0009905AA05BB05E8F28981813051F48A8106
:1018F0008F3F39F48B818F3F21F481E09C819F3FA2
:1019000051F080E008C0F80181938F01EE16FF06C8
:1019100009F0BDCFE9CF0F900F900F900F90DF919E
:10192000CF911F910F91FF90EF90BF90AF909F903C
:101930008F9008958F929F92AF92BF92CF92DF9235
:10194000EF92FF920E94D7014B015C018AE0C82E02
:10195000D12CE12CF12C0E94D701DC01CB0188199C
:101960009909AA09BB09883E9340A105B10598F3DE
:1019700021E0C21AD108E108F10888EE880E83E060
:10198000981EA11CB11CC114D104E104F10419F783
:10199000FF90EF90DF90CF90BF90AF909F908F908F
:1019A00008951092BC041092BB046DE18FE994E09D
:1019B0000E94F508482F4E7F6DE98FE994E00C9462
:1019C000D5083F924F925F926F927F928F929F9233
:1019D000AF92BF92CF92DF92EF92FF920F931F933D
:1019E000CF93DF93CDB7DEB72C970FB6F894DEBF59
:1019F0000FBECDBF5C01DC015B968D909C905C9727
:101A00001696CD90DD90ED90FC901997C114D104FD
:101A1000E104F10439F0BFEFCB1ADB0AEB0AFB0A51
:101A2000312C07C0F401C080D180E280F3803324E0
:101A30003394F40181859285A385B4859C01AD0121
:101A40002F5F3F4F4F4F5F4F29873A874B875C8708
:101A5000260137011D821E821F821886F4018185AE
:101A60009285A385B4852D813E814F8158852817A5
:101A700039074A075B0708F063C089859A85AB85FB
:101A8000BC858C159D05AE05BF0550F482E0C82EBF
:101A9000D12CE12CF12C92E0492E512C612C712C8F
:101AA0009E012F5F3F4FB701A601C4010E9452065D
:101AB000882309F445C089819A81AB81BC81892B37
:101AC0008A2B8B2B41F0260137019FEF491A590AC7
:101AD000690A790A05C0C414D504E604F70491F034
:101AE0002D813E814F8158852F5F3F4F4F4F5F4F74
:101AF0002D833E834F8358873FEFC31AD30AE30AEF
:101B0000F30AACCF0FEF1FEF2FEF3FE0B301A201BD
:101B1000C4010E94B105882399F0D50116964D9114
:101B20005D916D917C911997411551056105710584
:101B300049F093018201C4010E94B105811102C0E4
:101B400080E02AC0D50116964D925D926D927C92EE
:101B50001997332051F0D301C2010196A11DB11D87
:101B6000F40180839183A283B383F5018789908DEB
:101B7000A18DB28D892B8A2B8B2B69F4D5015796B9
:101B80004D925D926D927C925A9714968C91149717
:101B9000806814968C9381E02C960FB6F894DEBF83
:101BA0000FBECDBFDF91CF911F910F91FF90EF90AE
:101BB000DF90CF90BF90AF909F908F907F906F906D
:101BC0005F904F903F900895CF93DF93282F30E0A0
:101BD000F901E458FF4F8491F901E057FF4FD49188
:101BE000F901E255FF4FC491CC2391F081110E947D
:101BF0008909EC2FF0E0EE0FFF1FEE58FF4FA59183
:101C0000B491EC91ED2381E090E021F480E002C0FA
:101C100080E090E0DF91CF9108951F93CF93DF9301
:101C2000282F30E0F901E458FF4F8491F901E05783
:101C3000FF4FD491F901E255FF4FC491CC23C1F07D
:101C4000162F81110E948909EC2FF0E0EE0FFF1F83
:101C5000EC55FF4FA591B4919FB7F894111104C0B2
:101C60008C91D095D82302C0EC91DE2BDC939FBFE2
:101C7000DF91CF911F910895789484B5826084BDDF
:101C800084B5816084BD85B5826085BD85B5816080
:101C900085BD80916E00816080936E0010928100FE
:101CA00080918100826080938100809181008160B9
:101CB000809381008091800081608093800080917A
:101CC000B10084608093B1008091B0008160809306
:101CD000B00080917A00846080937A0080917A00CD
:101CE000826080937A0080917A00816080937A008C
:101CF00080917A00806880937A001092C1000E94DF
:101D0000E30B61E08EE00E949B0161E08FE00E94A6
:101D10009B0161E080E10E949B0161E085E00E94FF
:101D20009B0160E081E10E949B010E94FC016093A5
:101D3000A1017093A2018093A3019093A4010E943A
:101D4000FC016093A9017093AA018093AB01909369
:101D5000AC018AE090E09093B0048093AF0489E0F6
:101D600090E09093B2048093B10482E090E090936D
:101D7000B4048093B30461E08AE00E949B0161E0B7
:101D80008091AF040E940D0E8091B1049091B20435
:101D90008F3F2FEF920789F061E00E949B0160E086
:101DA0008091B1040E940D0E0E949A0C61E0809116
:101DB000B1040E940D0E0E949A0CCFB7F894809146
:101DC000A001811127C0E8EBF0E08491EAE9F0E09E
:101DD0009491E82FF0E0EE0FFF1FE859FF4FA59117
:101DE000B491EC91E92321F461E08AE00E940D0EA8
:101DF00061E08AE00E949B018CB580618CBD8CB54E
:101E000080648CBD61E08DE00E949B0161E08BE00D
:101E10000E949B018091A0018F5F8093A001CFBFA2
:101E200062E48FE994E00E94F508823109F08EC2E5
:101E300040E861E88FE994E00E94D50880E091EAEB
:101E4000ACEBB3E38093B5049093B604A093B704CE
:101E5000B093B80449ED66E88FE994E00E94D50894
:101E600040E067E88FE994E00E94D50840E068E828
:101E70008FE994E00E94D50840E06EE88FE994E095
:101E80000E94D50840E06FE88FE994E00E94D508F1
:101E90006CE08FE994E00E94F508482F43606CE8FD
:101EA0008FE994E00E94D50844E066EA8FE994E067
:101EB0000E94D5084FE869E88FE994E00E94D508B0
:101EC00041E861E88FE994E00E94D5080E94E30BA5
:101ED0008FE991E00E94BC088FE391E00E94BC086A
:101EE0000E94220C87E491E00E94BC080E94220C10
:101EF0000FEA11E07AE0672E712CEEE4CE2EE1E0DD
:101F0000DE2EF9E78F2EF1E09F2E62E18FE994E05B
:101F10000E94F508C82F0E94D10C4C2F62E98FE96E
:101F200094E00E94D508C6FF2CC0C5FD2AC01092BF
:101F3000BA041092B9048091BB049091BC04892B1F
:101F400011F062E201C063E18FE994E00E94F508BC
:101F5000C82FD0E060E18FE994E00E94F508482F97
:101F60006DE88FE994E00E94D50841E861E88FE9C7
:101F700094E00E94D508CD2B09F428C15524539430
:101F8000BBC061E08FE994E00E94F508863809F44F
:101F90001DC140E06DE88FE994E00E94D50846E855
:101FA00061E88FE994E00E94D50810C18FE994E0C0
:101FB0000E941F098B3B910509F09EC08FE994E0B8
:101FC0000E941F09C82F8FE994E00E941F09982FD3
:101FD00088278C2B90930501809304018FE994E06E
:101FE0000E941F099093E2018093E1018FE994E040
:101FF0000E941F09C82F8FE994E00E941F09982FA3
:1020000088278C2B90930701809306018FE994E039
:102010000E941F099093E4018093E3018FE994E00B
:102020000E941F09C82F8FE994E00E941F09982F72
:1020300088278C2B90930901809308018FE994E005
:102040000E941F099093E6018093E5010E94830995
:1020500051EEA52E51E0B52E64E0E62E61E0F62E9D
:10206000C1E0D0E0F501819191915F01F701029704
:1020700009F04AC080819181B3010E940D139F93A2
:102080008F937F936F93DF93CF93DF92CF921F93C2
:102090000F930E9440138FEA91E00E94100C0E945F
:1020A00083094DB75EB7465F5F4F0FB6F8945EBFCA
:1020B0000FBE4DBF2196F2E0EF0EF11CC430D105EA
:1020C00089F6809104019091050184319105CCF14C
:1020D0005092AD01809106019091070187319105E1
:1020E000ACF15092AD0180910801909109018436C4
:1020F00091058CF15092AD018FE994E00E943A096C
:10210000892B09F053CF2CC081818F9380818F93CD
:10211000DF93CF9345E651E05F934F931F930F9367
:102120000E9440138FEA91E00E94100C0E948309E4
:10213000EDB7FEB738960FB6F894FEBF0FBEEDBFF1
:10214000B9CF0A973CF25092AE01C4CF44975CF6E7
:102150005092AE01C8CF44977CF25092AE01CCCFE2
:102160006AE18FE994E00E94F508C82FD0E0609101
:10217000B5047091B6048091B7049091B8040E94A0
:10218000271224E832EF4EE45EE40E94201287FD1D
:1021900003C08DE990E002C084EA90E09E01281B14
:1021A000390BC9019F932F939F928F921F930F9387
:1021B0000E9440138FEA91E00E94100C0E94830954
:1021C0000F900F900F900F900F900F9081E10E9451
:1021D000E40D019721F41092AE011092AD010E941E
:1021E000FC011B012C016093A5017093A601809353
:1021F000A7019093A8018091A1019091A201A091C3
:10220000A301B091A401A2019101281B390B4A0B33
:102210005B0BDA01C901843F9140A105B10508F4C7
:1022200049C08091AE01811104C08091AD01882325
:1022300091F18EE00E94E40D61E0892B09F060E0ED
:102240008EE00E940D0E8FE00E94E40D61E0892B6C
:1022500009F060E08FE00E940D0E80E10E94E40D25
:1022600061E0892B09F060E080E10E940D0E809111
:10227000AD01882319F088EB91E002C085E091E080
:102280000E94B2092092A1013092A2014092A301C2
:102290005092A4010FC085E00E94FF0060E08EE034
:1022A0000E940D0E60E08FE00E940D0E60E080E164
:1022B0000E940D0E0E94FC012091A9013091AA01FB
:1022C0004091AB015091AC0128513C4F4F4F5F4FB3
:1022D0002617370748075907B0F541E861E88FE945
:1022E00094E00E94D5080E94D10C40E06DE88FE98F
:1022F00094E00E94D50840E062EA8FE994E00E94F1
:10230000D5086CEB8FE994E00E94650343E861E82F
:102310008FE994E00E94D50862E18FE994E00E9481
:10232000F50883FFF9CF48E062E98FE994E00E9465
:10233000D5080E94FC016093A9017093AA018093C3
:10234000AB019093AC010E945403DFCD87E891E08C
:102350000E94100C8DE991E00E94100CFFCFE0E08C
:10236000F4E01382128288EE93E0A0E0B0E0848370
:102370009583A683B78383E191E09183808385EC85
:1023800090E09587848784EC90E09787868780EC3F
:1023900090E0918B808B81EC90E0938B828B82EC30
:1023A00090E0958B848B86EC90E0978B868B118EDA
:1023B000128E138E148EEDE9F4E080E58083118295
:1023C000E9ECF4E0158216821186138642E050E0B3
:1023D00060E070E0448755876687778713A215A66B
:1023E00014A625E231E033A722A717A6EFE9F4E00F
:1023F0001382128221E331E031832083848781E0DC
:10240000858782E195E0978786878AE090E0918BC7
:10241000808B89E090E0938B828B82E090E0958BBB
:10242000848B168A178A108E118E138E128E158E3B
:10243000148E178E168E14821582168217820895B6
:102440000E94621208F481E00895E89409C097FBA5
:102450003EF490958095709561957F4F8F4F9F4F7B
:102460009923A9F0F92F96E9BB279395F6958795BF
:1024700077956795B795F111F8CFFAF4BB0F11F482
:1024800060FF1BC06F5F7F4F8F4F9F4F16C0882329
:1024900011F096E911C0772321F09EE8872F762F5F
:1024A00005C0662371F096E8862F70E060E02AF0A0
:1024B0009A95660F771F881FDAF7880F969587958C
:1024C00097F90895990F0008550FAA0BE0E8FEEF61
:1024D00016161706E807F907C0F012161306E407E8
:1024E000F50798F0621B730B840B950B39F40A26E1
:1024F00061F0232B242B252B21F408950A2609F4BF
:10250000A140A6958FEF811D811D0895052E97FB93
:102510001EF400940E949D1257FD07D00E94DC1209
:1025200007FC03D04EF40C949D12509540953095C5
:1025300021953F4F4F4F5F4F08959095809570952F
:1025400061957F4F8F4F9F4F08952F923F924F92EB
:102550005F926F927F928F929F92AF92BF92CF9233
:10256000DF92EF92FF920F931F93CF93DF93CDB73C
:10257000DEB7CA1BDB0B0FB6F894DEBF0FBECDBFB4
:1025800009942A88398848885F846E847D848C8485
:102590009B84AA84B984C884DF80EE80FD800C818E
:1025A0001B81AA81B981CE0FD11D0FB6F894DEBF71
:1025B0000FBECDBFED010895A1E21A2EAA1BBB1BD1
:1025C000FD010DC0AA1FBB1FEE1FFF1FA217B307FF
:1025D000E407F50720F0A21BB30BE40BF50B661F15
:1025E000771F881F991F1A9469F7609570958095D9
:1025F00090959B01AC01BD01CF010895A29FB00150
:10260000B39FC001A39F700D811D1124911DB29F26
:10261000700D811D1124911D089597FB072E16F44E
:10262000009407D077FD09D00E94211307FC05D044
:102630003EF4909581959F4F0895709561957F4FD9
:102640000895AA1BBB1B51E107C0AA1FBB1FA617F9
:10265000B70710F0A61BB70B881F991F5A95A9F74B
:1026600080959095BC01CD010895EE0FFF1F059058
:10267000F491E02D099481E090E0F8940C94F31526
:10268000AEE0B0E0E6E4F3E10C94B3120D891E89EC
:1026900086E08C831A8309838FEF9FE79E838D8367
:1026A000AE01475E5F4F6F89788DCE0101960E9423
:1026B0006213EF81F885E00FF11F10822E96E4E09F
:1026C0000C94CF12ABE0B0E0E8E6F3E10C94A51275
:1026D0006C017B018A01FC0117821682838181FFD4
:1026E000CCC1CE0101963C01F6019381F70193FD27
:1026F000859193FF81917F01882309F4BAC18532C6
:1027000039F493FD859193FF81917F01853229F4FE
:10271000B60190E00E945915E7CF912C212C312C65
:10272000FFE1F315D8F08B3279F038F4803279F08C
:102730008332A1F4232D20611DC08D3261F08033DE
:1027400069F4232D216016C0832D8260382EE32D7D
:10275000E4603E2E2AC0F32DF8601DC037FC2DC06A
:1027600020ED280F2A3040F08E32B9F436FC81C1BA
:10277000232D2064322E19C036FE06C08AE0989EB2
:10278000200D1124922E11C0EAE02E9E200D11245E
:10279000222EF32DF0623F2E08C08C3621F4832DBB
:1027A0008068382E02C0883641F4F70193FD859188
:1027B00093FF81917F018111B3CF982F9F7D955415
:1027C000933028F40C5F1F4F9FE399830DC083362D
:1027D00031F0833771F0833509F059C021C0F80119
:1027E000808189830E5F1F4F88248394912C53012D
:1027F00013C02801F2E04F0E511CF801A080B180F7
:1028000036FE03C0692D70E002C06FEF7FEFC50197
:102810000E944E154C018201F32DFF773F2E16C00A
:10282000280122E0420E511CF801A080B18036FE42
:1028300003C0692D70E002C06FEF7FEFC5010E94F9
:1028400043154C01F32DF0683F2E820133FC1BC071
:10285000822D90E088169906B0F4B60180E290E0EF
:102860000E9459152A94F4CFF50137FC859137FE63
:1028700081915F01B60190E00E94591521102A94C0
:1028800021E0821A91088114910471F7E8C084361E
:1028900011F0893641F5F80137FE07C0608171817A
:1028A000828193810C5F1F4F08C060817181072E68
:1028B000000C880B990B0E5F1F4FF32DFF763F2EF8
:1028C00097FF09C090958095709561957F4F8F4FC8
:1028D0009F4FF0683F2E2AE030E0A3010E9495153B
:1028E000882E861845C0853731F4232D2F7EB22ED1
:1028F0002AE030E025C0932D997FB92E8F36C1F0A4
:1029000018F4883579F0B5C0803719F0883721F090
:10291000B0C0E92FE061BE2EB4FE0DC0FB2DF46007
:10292000BF2E09C034FE0AC0292F2660B22E06C071
:1029300028E030E005C020E130E002C020E132E0D4
:10294000F801B7FE07C060817181828193810C5FBD
:102950001F4F06C06081718180E090E00E5F1F4FC5
:10296000A3010E949515882E8618FB2DFF773F2E18
:1029700036FE0DC0232D2E7FA22E891458F434FE6E
:102980000BC032FC09C0832D8E7EA82E05C0B82C4A
:10299000A32C03C0B82C01C0B92CA4FE0FC0FE01AB
:1029A000E80DF11D8081803321F49A2D997EA92EA6
:1029B00009C0A2FE06C0B394B39404C08A2D8678E1
:1029C00009F0B394A3FC11C0A0FE06C0B21488F4B1
:1029D000280C922C9B180EC0B21460F4B60180E251
:1029E00090E00E945915B394F7CFB21418F42B1845
:1029F00002C0982C212CA4FE10C0B60180E390E008
:102A00000E945915A2FE17C0A1FC03C088E790E000
:102A100002C088E590E0B6010CC08A2D867859F096
:102A2000A1FE02C08BE201C080E2A7FC8DE2B601EC
:102A300090E00E945915891438F4B60180E390E0C3
:102A40000E9459159A94F7CF8A94F301E80DF11D6D
:102A50008081B60190E00E9459158110F5CF2220A7
:102A600009F442CEB60180E290E00E9459152A9402
:102A7000F6CFF6018681978102C08FEF9FEF2B96EC
:102A8000E2E10C94C112FC0105906150704001100C
:102A9000D8F7809590958E0F9F1F0895FC01615087
:102AA000704001900110D8F7809590958E0F9F1F70
:102AB00008950F931F93CF93DF93FB01238121FD93
:102AC00003C08FEF9FEF2CC022FF16C046815781B5
:102AD000248135814217530744F4A081B1819D01BF
:102AE0002F5F3F4F318320838C93268137812F5F67
:102AF0003F4F3783268314C08B01EC01FB01008418
:102B0000F185E02D0995892BE1F6D80116968D9176
:102B10009C911797019617969C938E931697CE01CA
:102B2000DF91CF911F910F910895FA01AA272830C4
:102B300051F1203181F1E8946F936E7F6E5F7F4F8A
:102B40008F4F9F4FAF4FB1E03ED0B4E03CD0670F06
:102B5000781F891F9A1FA11D680F791F8A1F911D59
:102B6000A11D6A0F711D811D911DA11D20D009F4A9
:102B700068943F912AE0269F11243019305D3193EB
:102B8000DEF6CF010895462F4770405D4193B3E0D4
:102B90000FD0C9F7F6CF462F4F70405D4A3318F07B
:102BA000495D31FD4052419302D0A9F7EACFB4E02C
:102BB000A6959795879577956795BA95C9F70097E4
:102BC0006105710508959B01AC010A2E0694579585
:102BD000479537952795BA95C9F7620F731F841FDC
:0A2BE000951FA01D0895F894FFCF83
:102BEA008D008D00000015000000FFFFFFFFFF00B1
:102BFA000000002C018E00B8007901E900C700DB53
:102C0A000000000000D5068E00890388030000003A
:102C1A000065034809890364033A091F09F9086230
:102C2A006B636D643D3100706167652030006761D8
:102C3A0073256976616C75652E7478743D222569F1
:102C4A002C25692200676173256976616C75652E8A
:102C5A007478743D22256922006C6F72612E747833
:102C6A00743D22256922005374617274696E67206B
:102C7A004C6F5261206661696C656421000D0A001F
:00000001FF
