:100000000C9463000C944F020C9428020C948B0007
:100010000C948B000C948B000C948B000C94760247
:100020000C948B000C948B000C948B000C948B0024
:100030000C948B000C948B000C948B000C948B0014
:100040000C94FC070C948B000C94F8020C94D202D4
:100050000C948B000C948B000C948B000C948B00F4
:100060000C948B000C948B000000000024002700EF
:100070002A000000000023002600290000000008DC
:10008000000201000003040700000000000000005F
:10009000010204081020408001020408102001021F
:1000A0000408102000000000250028002B00040494
:1000B0000404040404040202020202020303030310
:1000C00003030200320C11241FBECFEFD8E0DEBFC5
:1000D000CDBF12E0A0E0B1E0ECEBF0E202C0059091
:1000E0000D92AC31B107D9F723E0ACE1B2E001C029
:1000F0001D92A434B207E1F710E0C3E6D0E004C0DB
:100100002197FE010E949E0DC236D107C9F70E94B9
:1001100046080C945C100C9400000895CF92DF9276
:10012000EF92FF920F931F93CF93DF936C017A01AD
:100130008B01C0E0D0E0CE15DF0581F0D8016D91D4
:100140008D01D601ED91FC910190F081E02DC60169
:100150000995892B11F02196EECF7E01C701DF9121
:10016000CF911F910F91FF90EF90DF90CF90089566
:10017000FC01538D448D252F30E0842F90E0821BAD
:10018000930B541710F0CF96089501970895FC0132
:10019000918D828D981761F0828DDF01A80FB11DBE
:1001A0005D968C91928D9F5F9F73928F90E00895E2
:1001B0008FEF9FEF0895FC01918D828D981731F09C
:1001C000828DE80FF11D858D90E008958FEF9FEFF0
:1001D0000895FC01918D228D892F90E0805C9F4FC6
:1001E000821B91098F739927089583E792E00E94FB
:1001F000E90021E0892B09F420E0822F0895FC0119
:10020000848DDF01A80FB11DA35ABF4F2C91848D9F
:1002100090E001968F739927848FA689B7892C93D4
:10022000A089B1898C91837080648C93938D848D27
:10023000981306C00288F389E02D80818F7D80832A
:100240000895EF92FF920F931F93CF93DF93EC01EA
:1002500081E0888F9B8D8C8D981305C0E889F98982
:10026000808185FD26C0F62E0B8D10E00F5F1F4F9D
:100270000F731127E02E8C8DE8120CC00FB607FC0F
:10028000FACFE889F989808185FFF5CFCE010E94F8
:10029000FF00F1CF8B8DFE01E80FF11DE35AFF4FF8
:1002A000F0829FB7F8940B8FEA89FB898081806286
:1002B0000AC09FB7F894EE89FF896083E889F989BD
:1002C00080818370806480839FBF81E090E0DF91B4
:1002D000CF911F910F91FF90EF900895CF93DF93EF
:1002E000EC01888D8823C9F0EA89FB89808185FD2E
:1002F00005C0A889B9898C9186FD0FC00FB607FC8F
:10030000F5CF808185FFF2CFA889B9898C9185FFCF
:10031000EDCFCE010E94FF00E7CFDF91CF9108958E
:1003200080E090E0892B29F00E94F50081110C9467
:10033000000008950895CF93DF931F92CDB7DEB7E5
:100340006983DC01ED91FC910280F381E02D41E0B5
:1003500050E0BE016F5F7F4F09950F90DF91CF9105
:100360000895089580E090E00895861797074CF06F
:10037000841795074CF410922A0281E080932C0296
:1003800008958417950724F081E080932A0202C023
:1003900010922A0210922C02089590910401891360
:1003A00024C0E2ECF0E0E4919FEF90930401E1308F
:1003B000B9F098F0E230C9F4909170009D7F90936D
:1003C000700091E09093B0009091B100987F94609C
:1003D0009093B1001092B30008C010926E0005C057
:1003E00090916F009D7F90936F0060E00C94DC040F
:1003F00085E00E94CD0160E08EE00E94DC0460E0B8
:100400008FE00E94DC0460E080E10C94DC040E9438
:10041000A40DCF93DF93EC0183E792E00E94E90003
:10042000892B29F083E792E00E94C700F5CFCE0127
:100430000E946A040E9453040E945304DF91CF91EA
:100440000C9453040E9453040E9453040C945304CC
:100450001F920F920FB60F9211242F933F934F9339
:100460005F936F937F938F939F93AF93BF93EF931C
:10047000FF93E0910201F09103010995FF91EF9143
:10048000BF91AF919F918F917F916F915F914F91AC
:100490003F912F910F900FBE0F901F9018951F92B4
:1004A0000F920FB60F9211242F933F934F935F93A8
:1004B0006F937F938F939F93AF93BF93EF93FF932C
:1004C000E0910001F09101010995FF91EF91BF9139
:1004D000AF919F918F917F916F915F914F913F91DC
:1004E0002F910F900FBE0F901F9018951F920F9293
:1004F0000FB60F9211242F933F934F935F936F93F7
:100500007F938F939F93AF93BF93EF93FF938091CC
:100510006F0290917002A0917102B0917202892BCA
:100520008A2B8B2B51F190916C02E0916D02F0912E
:100530006E0280818927808380916F029091700282
:10054000A0917102B0917202181619061A061B06C4
:10055000C4F480916F0290917002A0917102B091E9
:1005600072020197A109B10980936F029093700202
:10057000A0937102B093720204C0809104010E94A2
:10058000CD01FF91EF91BF91AF919F918F917F919D
:100590006F915F914F913F912F910F900FBE0F90F0
:1005A0001F9018951F920F920FB60F9211242F9340
:1005B0003F934F935F936F937F938F939F93AF93EB
:1005C000BF93EF93FF9383E792E00E94FF00FF91B8
:1005D000EF91BF91AF919F918F917F916F915F91BB
:1005E0004F913F912F910F900FBE0F901F90189534
:1005F0001F920F920FB60F9211242F938F939F93F8
:10060000EF93FF93E0918302F09184028081E09167
:100610008902F0918A0282FD12C0908180918C0241
:100620008F5F8F7320918D02821751F0E0918C02C1
:10063000F0E0ED58FD4F958F80938C0201C08081D2
:10064000FF91EF919F918F912F910F900FBE0F907F
:100650001F9018950F931F93CF93DF93EC01062FF4
:10066000142F60E088890E94DC049C858D859CBDE8
:100670008DBD0EBD00000DB407FEFDCF8EB51EBDB5
:1006800000000DB407FEFDCF1EB561E088890E9411
:10069000DC04812FDF91CF911F910F9108956F7727
:1006A00040E00C942A030F931F93CF93DF93EC0148
:1006B000E881F9810084F185E02D0995892B91F07D
:1006C0006DE0CE010E944F03082F60E0CE010E9432
:1006D0004F03182F402F6DE8CE010E942A03812F6F
:1006E00090E002C08FEF9FEFDF91CF911F910F91AC
:1006F0000895CF93DF93EC01E881F9810084F185BF
:10070000E02D0995892B59F08A8D9B8D01969B8F41
:100710008A8F60E0CE010E944F0390E002C08FEF0D
:100720009FEFDF91CF910895CF93DF93EC0163E1C9
:100730000E944F0390E02A8D3B8D821B930BDF912B
:10074000CF910895AF92BF92CF92DF92FF920F9315
:100750001F93CF93DF936C015B01EA0162E20E9479
:100760004F03F82E90E09C012C0F3D1F2F3F3105C9
:1007700029F020F0CFEFD0E0C81BD90B8501AC0EDB
:10078000BD1E0A151B0541F0F80141918F0160E87B
:10079000C6010E942A03F5CF4C2F4F0D62EAC60115
:1007A0000E942A03CE01DF91CF911F910F91FF90FC
:1007B000DF90CF90BF90AF900895833081F028F400
:1007C000813099F08230A1F008958730A9F0883007
:1007D000B9F08430D1F4809180008F7D03C0809186
:1007E00080008F7780938000089584B58F7702C052
:1007F00084B58F7D84BD08958091B0008F7703C04C
:100800008091B0008F7D8093B00008953FB7F89439
:100810008091350390913603A0913703B09138034E
:1008200026B5A89B05C02F3F19F00196A11DB11D4B
:100830003FBFBA2FA92F982F8827820F911DA11D86
:10084000B11DBC01CD0142E0660F771F881F991FC3
:100850004A95D1F70895E3E7F2E0A089B18982E0F3
:100860008C93A485B5851C92A685B7858FEC8C9357
:10087000108EA489B58986E08C93A289B3898C9166
:1008800080618C93A289B3898C9188608C93A289B2
:10089000B3898C9180688C930288F389E02D8081E4
:1008A0008F7D808308956FEF83E792E00C942101A0
:1008B000009769F0FC0101900020E9F73197AF0142
:1008C000481B590BBC0183E792E00C948E0080E03A
:1008D00090E008950C9458048F929F92AF92BF922B
:1008E000CF92DF92EF92FF920E9406044B015C01CF
:1008F0008AE0C82ED12CE12CF12C0E940604DC01E8
:10090000CB0188199909AA09BB09883E9340A10522
:10091000B10598F321E0C21AD108E108F10888EE88
:10092000880E83E0981EA11CB11CC114D104E104FF
:10093000F10419F7FF90EF90DF90CF90BF90AF9048
:100940009F908F90089510922D0310922C036DE1CB
:1009500080E193E00E944F03482F4E7F6DE980E1D4
:1009600093E00C942A03CF93DF93282F30E0F90112
:10097000E458FF4F8491F901E057FF4FD491F901FA
:10098000E255FF4FC491CC2391F081110E94DD0309
:10099000EC2FF0E0EE0FFF1FEE58FF4FA591B49142
:1009A000EC91ED2381E090E021F480E002C080E052
:1009B00090E0DF91CF9108951F93CF93DF93282F7D
:1009C00030E0F901E458FF4F8491F901E057FF4FFF
:1009D000D491F901E255FF4FC491CC23C1F0162FF9
:1009E00081110E94DD03EC2FF0E0EE0FFF1FEC55AC
:1009F000FF4FA591B4919FB7F894111104C08C9149
:100A0000D095D82302C0EC91DE2BDC939FBFDF9101
:100A1000CF911F910895CF93DF9390E0FC01E057B1
:100A2000FF4F2491FC01E255FF4F8491882361F12F
:100A300090E0880F991FFC01E859FF4FC591D491B0
:100A4000FC01EC55FF4FA591B491611109C09FB70E
:100A5000F8948881209582238883EC912E230BC003
:100A6000623061F49FB7F8948881322F30958323E8
:100A70008883EC912E2B2C939FBF06C08FB7F894E0
:100A8000E8812E2B28838FBFDF91CF9108954F925D
:100A90005F926F927F928F929F92AF92BF92CF920E
:100AA000DF92EF92FF921F93CF93DF93EC0180913F
:100AB0000401853021F08F3F09F00AC204C0E2EC46
:100AC000F0E014916FC085E080930401E2ECF0E067
:100AD00014911F3F09F4FCC1113009F440C030F1FA
:100AE000123009F05FC01092B0001092B1008091F6
:100AF000B00082608093B0008091B10081608093EB
:100B0000B100E3EBF0E0E491F0E0EE0FFF1FEC55F5
:100B1000FF4F8591949190936E0280936D02E5E969
:100B2000F0E0E491E0936C0212E0CDC114BC15BC7E
:100B300084B5826084BD85B5816085BDE3EBF0E05E
:100B4000E491F0E0EE0FFF1FEC55FF4F859194917B
:100B5000E5E9F0E0E491E0933A0310E0B4C11092CB
:100B600080001092810080918100886080938100D4
:100B700080918100816080938100E3EBF0E0E4915B
:100B8000F0E0EE0FFF1FEC55FF4F85919491E5E9E2
:100B9000F0E0E491E093390361E085E00E940B0509
:100BA00011E0B1C017FD94C161E085E00E940B0522
:100BB000812F8D7F09F0A7C04E01A12CB12C60E0E0
:100BC00072E18AE790E0A50194010E94EF0C2901EF
:100BD0003A0169017A0121E0C21AD108E108F1085D
:100BE0008FEFC816D104E104F10409F008F44BC0FA
:100BF00060E472E48FE090E0A50194010E94EF0CA4
:100C000069017A0181E0C81AD108E108F1081230BF
:100C100001F52FEFC216D104E104F10409F008F444
:100C2000EAC060E970ED83E090E0A50194010E94C4
:100C3000EF0C69017A0181E0C81AD108E108F108D6
:100C40002FEFC216D104E104F10409F030F583E07E
:100C500053C08FEFC816D104E104F104B1F0A8F03D
:100C600068E478EE81E090E0A50194010E94EF0C29
:100C700069017A0181E0C81AD108E108F10811235D
:100C800009F4EEC0E4C081E001C082E0111134C07B
:100C900095B5987F892B85BD68C068E478EE81E0C2
:100CA00090E0A50194010E94EF0C69017A0181E0B6
:100CB000C81AD108E108F1082FEFC216D104E104E7
:100CC000F10409F008F495C064E274EF80E090E06C
:100CD000A50194010E94EF0C69017A0181E0C81A14
:100CE000D108E108F1082FEFC216D104E104F104A4
:100CF00011F008F082C085E09091B100987F892BB7
:100D00008093B10032C04E01A12CB12C60E072E1A1
:100D10008AE790E0A50194010E94EF0C69017A0135
:100D200081E0C81AD108E108F108C114D10421E01A
:100D3000E206F10488F068E478EE81E090E0A50135
:100D400094010E94EF0C69017A0181E0C81AD10870
:100D5000E108F10883E001C081E0113031F49091A5
:100D60008100987F892B809381009E01220F331F81
:100D7000AAEFB0E00E94670D28EE33E040E050E0BB
:100D80000E94450D113099F0123019F11111A0C0D7
:100D9000C7BC20933F0330934003409341035093DB
:100DA000420380916E00826080936E0091C0D09269
:100DB0008900C092880020933B0330933C0340930A
:100DC0003D0350933E0380916F00826080936F00DB
:100DD0007FC0C092B30020936F02309370024093A3
:100DE0007102509372028091700082608093700053
:100DF0006FC084E081CF82E07FCF62E17AE780E05C
:100E000090E0A50194010E94EF0C69017A0181E054
:100E1000C81AD108E108F1088FEFC816D104E1041F
:100E2000F10499F090F0D301C2012AE0B595A7959D
:100E3000979587952A95D1F76C017D0121E0C21A1B
:100E4000D108E108F10887E057CF86E055CF2FEFB2
:100E5000C216D104E104F10409F078F684E016CF5B
:100E60008FEFC816D104E104F10459F150F162E1A9
:100E70007AE780E090E0A50194010E94EF0C6901FF
:100E80007A0181E0C81AD108E108F1082FEFC216F3
:100E9000D104E104F10499F090F0D301C2013AE0E9
:100EA000B595A795979587953A95D1F76C017D01F2
:100EB00021E0C21AD108E108F10885E0E9CE84E01A
:100EC000E7CE83E0E5CE61E085E00E940B0574CEBD
:100ED000DF91CF911F91FF90EF90DF90CF90BF9067
:100EE000AF909F908F907F906F905F904F900895FC
:100EF0002FB7F894609131037091320380913303DE
:100F0000909134032FBF08958F929F92AF92BF921A
:100F1000EF92FF920F931F93CF93DF9300D000D0F7
:100F2000CDB7DEB719821A821B821C8284E690E05C
:100F3000A0E0B0E08093770290937802A0937902CA
:100F4000B0937A028E010F5F1F4F7E0185E0E80E9D
:100F5000F11C0E94780760937B0270937C0280935F
:100F60007D0290937E0283E792E00E94C70097FF84
:100F70002CC00E94780780907B0290907C02A09009
:100F80007D02B0907E02DC01CB0188199909AA0983
:100F9000BB098090770290907802A0907902B0907F
:100FA0007A0288159905AA05BB05E8F28981813086
:100FB00051F48A818F3F39F48B818F3F21F481E096
:100FC0009C819F3F51F080E008C0F80181938F0120
:100FD000EE16FF0609F0BDCFE9CF0F900F900F90EE
:100FE0000F90DF91CF911F910F91FF90EF90BF90E5
:100FF000AF909F908F9008951F920F920FB60F920F
:1010000011242F933F938F939F93AF93BF9380911E
:10101000310390913203A0913303B09134033091A6
:10102000300323E0230F2D3720F40196A11DB11DBD
:1010300005C026E8230F0296A11DB11D20933003A1
:101040008093310390933203A0933303B09334031E
:101050008091350390913603A0913703B091380306
:101060000196A11DB11D8093350390933603A09383
:101070003703B0933803BF91AF919F918F913F9108
:101080002F910F900FBE0F901F901895789484B5F4
:10109000826084BD84B5816084BD85B5826085BD74
:1010A00085B5816085BD80916E00816080936E0002
:1010B00010928100809181008260809381008091F4
:1010C00081008160809381008091800081608093A5
:1010D00080008091B10084608093B1008091B00065
:1010E00081608093B00080917A00846080937A0060
:1010F00080917A00826080937A0080917A0081608A
:1011000080937A0080917A00806880937A001092B0
:10111000C1000E942B0461E08EE00E940B0561E09B
:101120008FE00E940B0561E080E10E940B0561E009
:1011300085E00E940B0560E081E10E940B050E94A2
:10114000780760931E0270931F0280932002909391
:1011500021020E94780760932602709327028093F1
:101160002802909329028AE090E0909321038093D3
:10117000200389E090E0909323038093220382E090
:1011800090E0909325038093240361E08AE00E941D
:101190000B0561E0809120030E94DC048091220312
:1011A000909123038F3F2FEF920789F061E00E9417
:1011B0000B0560E0809122030E94DC040E946C0415
:1011C00061E0809122030E94DC040E946C04CFB78E
:1011D000F89480911C02811127C0E8EBF0E0849123
:1011E000EAE9F0E09491E82FF0E0EE0FFF1FE859F4
:1011F000FF4FA591B491EC91E92321F461E08AE0DD
:101200000E94DC0461E08AE00E940B058CB58061DD
:101210008CBD8CB580648CBD61E08DE00E940B05B7
:1012200061E08BE00E940B0580911C028F5F809330
:101230001C02CFBF62E480E193E00E944F03823141
:1012400009F007C340E861E880E193E00E942A03C7
:1012500080E091EAACEBB3E38093260390932703FD
:10126000A0932803B093290349ED66E880E193E059
:101270000E942A0340E067E880E193E00E942A038D
:1012800040E068E880E193E00E942A0340E06EE8D5
:1012900080E193E00E942A0340E06FE880E193E060
:1012A0000E942A036CE080E193E00E944F03482FE4
:1012B00043606CE880E193E00E942A0344E066EA20
:1012C00080E193E00E942A034FE869E880E193E01F
:1012D0000E942A0341E861E880E193E00E942A032A
:1012E0000E942B048BE192E00E94090289E291E0C6
:1012F0000E9409020E94840781E391E00E94090292
:101300000E9484070DE212E07AE0672E712CEAE475
:10131000CE2EE1E0DE2EF5E78F2EF1E09F2E62E18A
:1013200080E193E00E944F03C82F0E94A3044C2F3A
:1013300062E980E193E00E942A03C6FF2EC0C5FD4A
:101340002CC010922B0310922A0380912C039091B1
:101350002D03892B11F062E201C063E180E193E08B
:101360000E944F03C82FD0E060E180E193E00E942B
:101370004F03482F6DE880E193E00E942A0341E883
:1013800061E880E193E00E942A03CD2B09F401C1BA
:1013900088E391E00E946A04A1C061E080E193E0EB
:1013A0000E944F03863809F4F4C040E06DE880E104
:1013B00093E00E942A0346E861E880E193E00E94FE
:1013C0002A03E7C080E193E00E9479038B3B9105FB
:1013D00009F084C080E193E00E947903C82F80E186
:1013E00093E00E947903982F88278C2B90936702B3
:1013F0008093660280E193E00E94790390936102FA
:101400008093600280E193E00E947903C82F80E11D
:1014100093E00E947903982F88278C2B9093690280
:101420008093680280E193E00E94790390936302C5
:101430008093620280E193E00E947903C82F80E1EB
:1014400093E00E947903982F88278C2B90936B024E
:1014500080936A0280E193E00E9479039093650291
:10146000809364020E94220250E6A52E52E0B52E1F
:1014700066E6E62E62E0F62EC1E0D0E0F50181914D
:1014800091915F01F701029789F580819181B30104
:101490000E94760D9F938F937F936F93DF93CF93EB
:1014A000DF92CF921F930F930E94A90D8DE292E0DD
:1014B0000E946A040E9422024DB75EB7465F5F4FEA
:1014C0000FB6F8945EBF0FBE4DBF2196F2E0EF0E4F
:1014D000F11CC430D10591F610925F0280E193E0D7
:1014E0000E949403892B09F06DCF1DC081818F93D9
:1014F00080818F93DF93CF9341E651E05F934F93C9
:101500001F930F930E94A90D8DE292E00E946A043E
:101510000E942202EDB7FEB738960FB6F894FEBFD0
:101520000FBEEDBFD2CF6AE180E193E00E944F038E
:10153000C82FD0E060912603709127038091280383
:10154000909129030E94900C24E832EF4EE45EE46F
:101550000E94890C87FD03C08DE990E002C084EAF7
:1015600090E09E01281B390BC9019F932F939F92F6
:101570008F921F930F930E94A90D8DE292E00E941B
:101580006A040E9422020F900F900F900F900F900C
:101590000F9081E10E94B3049C0191E02115310577
:1015A00009F490E080911D02981761F0232B51F00F
:1015B00080915F02811104C081E080935F0202C0CC
:1015C00010925F0290931D0280915F028111F1C021
:1015D00044E150E06AE070E0809166029091670219
:1015E0000E94B50180912C02882319F081E080933C
:1015F0002B0280912A02811177C0C0916802D0919C
:101600006902C431D10534F410922A0281E080933A
:101610002C0208C0C731D105D4F081E080932A02A2
:1016200010922C0283E891E00E946A040E94220238
:1016300082E991E00E946A040E94220286EA91E017
:101640000E946A040E94220286EB91E018C0109268
:101650002A0210922C0283EC91E00E946A040E94FC
:10166000220282ED91E00E946A040E94220286EE2C
:1016700091E00E946A040E94220286EF91E00E949B
:101680006A040E942202D0936902C093680280918A
:101690002A02882329F010922C0281E080932A02EA
:1016A00080912A02811107C090912B02992319F091
:1016B00091E090932C0290912C02911115C0811110
:1016C00013C044E650E064E170E080916A029091BA
:1016D0006B020E94B50180912A02882329F01092A2
:1016E0002C0281E080932A020E9478071B012C01C2
:1016F0006093220270932302809324029093250228
:1017000080911E0290911F02A0912002B0912102AF
:10171000A2019101281B390B4A0B5B0BDA01C901AD
:10172000843F9140A105B10508F445C0C0912C0249
:10173000C11104C080912A028823D9F18EE00E9451
:10174000B30461E0892B09F060E08EE00E94DC04C4
:101750008FE00E94B30461E0892B09F060E08FE024
:101760000E94DC0480E10E94B30461E0892B09F04F
:1017700060E080E10E94DC04CC2341F080912A02E9
:10178000811104C085E091E00E94470580912A0202
:10179000882331F0C11104C088EB91E00E94470515
:1017A00020921E0230921F0240922002509221028B
:1017B00002C00E94F8010E94780720912602309111
:1017C0002702409128025091290228513C4F4F4F47
:1017D0005F4F2617370748075907C0F50E942202B6
:1017E00041E861E880E193E00E942A030E94A3049B
:1017F00040E06DE880E193E00E942A0340E062EA65
:1018000080E193E00E942A036CEB80E193E00E9468
:101810009B0143E861E880E193E00E942A0362E1D2
:1018200080E193E00E944F0383FFF9CF48E062E933
:1018300080E193E00E942A030E94780760932602C9
:101840007093270280932802909329020E949001AE
:1018500066CD83E092E00E94580489E192E00E9404
:101860005804FFCFE3E7F2E01382128288EE93E0A0
:10187000A0E0B0E084839583A683B78389E091E0FC
:101880009183808385EC90E09587848784EC90E059
:101890009787868780EC90E0918B808B81EC90E03D
:1018A000938B828B82EC90E0958B848B86EC90E01E
:1018B000978B868B118E128E138E148EE0E1F3E0DF
:1018C000138212828BE191E09183808380E584878B
:1018D00081E0858783E493E0978786878AE090E0BC
:1018E000918B808B89E090E0938B828B82E090E0FB
:1018F000958B848B168A178A108E118E138E128EFA
:10190000158E148E178E168E1482158216821782EB
:1019100008950E94CB0C08F481E00895E89409C072
:1019200097FB3EF490958095709561957F4F8F4F12
:101930009F4F9923A9F0F92F96E9BB279395F69528
:10194000879577956795B795F111F8CFFAF4BB0FA6
:1019500011F460FF1BC06F5F7F4F8F4F9F4F16C00A
:10196000882311F096E911C0772321F09EE8872F94
:10197000762F05C0662371F096E8862F70E060E050
:101980002AF09A95660F771F881FDAF7880F9695C9
:10199000879597F90895990F0008550FAA0BE0E86D
:1019A000FEEF16161706E807F907C0F01216130621
:1019B000E407F50798F0621B730B840B950B39F461
:1019C0000A2661F0232B242B252B21F408950A26C7
:1019D00009F4A140A6958FEF811D811D0895052E64
:1019E00097FB1EF400940E94060D57FD07D00E943D
:1019F000450D07FC03D04EF40C94060D5095409510
:101A0000309521953F4F4F4F5F4F089590958095AA
:101A1000709561957F4F8F4F9F4F08952F923F9202
:101A20004F925F926F927F928F929F92AF92BF92EE
:101A3000CF92DF92EF92FF920F931F93CF93DF939A
:101A4000CDB7DEB7CA1BDB0B0FB6F894DEBF0FBEF7
:101A5000CDBF09942A88398848885F846E847D8444
:101A60008C849B84AA84B984C884DF80EE80FD8046
:101A70000C811B81AA81B981CE0FD11D0FB6F894BC
:101A8000DEBF0FBECDBFED010895A1E21A2EAA1B45
:101A9000BB1BFD010DC0AA1FBB1FEE1FFF1FA2171E
:101AA000B307E407F50720F0A21BB30BE40BF50B1B
:101AB000661F771F881F991F1A9469F760957095A4
:101AC000809590959B01AC01BD01CF010895A29F27
:101AD000B001B39FC001A39F700D811D1124911D02
:101AE000B29F700D811D1124911D089597FB072E43
:101AF00016F4009407D077FD09D00E948A0D07FCE8
:101B000005D03EF4909581959F4F0895709561950D
:101B10007F4F0895AA1BBB1B51E107C0AA1FBB1F23
:101B2000A617B70710F0A61BB70B881F991F5A9569
:101B3000A9F780959095BC01CD010895EE0FFF1F88
:101B40000590F491E02D099481E090E0F8940C94D4
:101B50005C10AEE0B0E0EFEAFDE00C941C0D0D89E6
:101B60001E8986E08C831A8309838FEF9FE79E830B
:101B70008D83AE01475E5F4F6F89788DCE010196F0
:101B80000E94CB0DEF81F885E00FF11F10822E9699
:101B9000E4E00C94380DABE0B0E0E1EDFDE00C9436
:101BA0000E0D6C017B018A01FC0117821682838174
:101BB00081FFCCC1CE0101963C01F6019381F70172
:101BC00093FD859193FF81917F01882309F4BAC128
:101BD000853239F493FD859193FF81917F018532A0
:101BE00029F4B60190E00E94C20FE7CF912C212C7E
:101BF000312CFFE1F315D8F08B3279F038F48032D4
:101C000079F08332A1F4232D20611DC08D3261F063
:101C1000803369F4232D216016C0832D8260382E15
:101C2000E32DE4603E2E2AC0F32DF8601DC037FC82
:101C30002DC020ED280F2A3040F08E32B9F436FC4A
:101C400081C1232D2064322E19C036FE06C08AE0E1
:101C5000989E200D1124922E11C0EAE02E9E200D98
:101C60001124222EF32DF0623F2E08C08C3621F471
:101C7000832D8068382E02C0883641F4F70193FD29
:101C8000859193FF81917F018111B3CF982F9F7D23
:101C90009554933028F40C5F1F4F9FE399830DC038
:101CA000833631F0833771F0833509F059C021C094
:101CB000F801808189830E5F1F4F88248394912CC3
:101CC000530113C02801F2E04F0E511CF801A0800F
:101CD000B18036FE03C0692D70E002C06FEF7FEF68
:101CE000C5010E94B70F4C018201F32DFF773F2EF3
:101CF00016C0280122E0420E511CF801A080B180DC
:101D000036FE03C0692D70E002C06FEF7FEFC501A2
:101D10000E94AC0F4C01F32DF0683F2E820133FC82
:101D20001BC0822D90E088169906B0F4B60180E2BF
:101D300090E00E94C20F2A94F4CFF50137FC859100
:101D400037FE81915F01B60190E00E94C20F211021
:101D50002A9421E0821A91088114910471F7E8C055
:101D6000843611F0893641F5F80137FE07C06081ED
:101D70007181828193810C5F1F4F08C060817181E6
:101D8000072E000C880B990B0E5F1F4FF32DFF766B
:101D90003F2E97FF09C090958095709561957F4F74
:101DA0008F4F9F4FF0683F2E2AE030E0A3010E9442
:101DB000FE0F882E861845C0853731F4232D2F7EDF
:101DC000B22E2AE030E025C0932D997FB92E8F36B0
:101DD000C1F018F4883579F0B5C0803719F088372C
:101DE00021F0B0C0E92FE061BE2EB4FE0DC0FB2D86
:101DF000F460BF2E09C034FE0AC0292F2660B22E1F
:101E000006C028E030E005C020E130E002C020E15B
:101E100032E0F801B7FE07C0608171818281938151
:101E20000C5F1F4F06C06081718180E090E00E5F03
:101E30001F4FA3010E94FE0F882E8618FB2DFF77EF
:101E40003F2E36FE0DC0232D2E7FA22E891458F46E
:101E500034FE0BC032FC09C0832D8E7EA82E05C037
:101E6000B82CA32C03C0B82C01C0B92CA4FE0FC001
:101E7000FE01E80DF11D8081803321F49A2D997EB9
:101E8000A92E09C0A2FE06C0B394B39404C08A2D43
:101E9000867809F0B394A3FC11C0A0FE06C0B2146A
:101EA00088F4280C922C9B180EC0B21460F4B60172
:101EB00080E290E00E94C20FB394F7CFB21418F4FE
:101EC0002B1802C0982C212CA4FE10C0B60180E370
:101ED00090E00E94C20FA2FE17C0A1FC03C088E7D9
:101EE00090E002C088E590E0B6010CC08A2D8678AB
:101EF00059F0A1FE02C08BE201C080E2A7FC8DE296
:101F0000B60190E00E94C20F891438F4B60180E354
:101F100090E00E94C20F9A94F7CF8A94F301E80DE3
:101F2000F11D8081B60190E00E94C20F8110F5CFB3
:101F3000222009F442CEB60180E290E00E94C20F56
:101F40002A94F6CFF6018681978102C08FEF9FEF2A
:101F50002B96E2E10C942A0DFC0105906150704033
:101F60000110D8F7809590958E0F9F1F0895FC0162
:101F70006150704001900110D8F7809590958E0FB8
:101F80009F1F08950F931F93CF93DF93FB0123812E
:101F900021FD03C08FEF9FEF2CC022FF16C04681AA
:101FA0005781248135814217530744F4A081B181C0
:101FB0009D012F5F3F4F318320838C932681378192
:101FC0002F5F3F4F3783268314C08B01EC01FB0149
:101FD0000084F185E02D0995892BE1F6D80116964C
:101FE0008D919C911797019617969C938E931697B7
:101FF000CE01DF91CF911F910F910895FA01AA2789
:10200000283051F1203181F1E8946F936E7F6E5F3B
:102010007F4F8F4F9F4FAF4FB1E03ED0B4E03CD0E9
:10202000670F781F891F9A1FA11D680F791F8A1FCC
:10203000911DA11D6A0F711D811D911DA11D20D033
:1020400009F468943F912AE0269F11243019305DED
:102050003193DEF6CF010895462F4770405D4193DE
:10206000B3E00FD0C9F7F6CF462F4F70405D4A332B
:1020700018F0495D31FD4052419302D0A9F7EACFF3
:10208000B4E0A6959795879577956795BA95C9F722
:1020900000976105710508959B01AC010A2E069415
:1020A0005795479537952795BA95C9F7620F731FCE
:0C20B000841F951FA01D0895F894FFCF19
:1020BC008D008D00FF0000000021018E00B8006E25
:1020CC0001E900C700DB00000000009B01A203B285
:1020DC00019A01940379035303626B636D643D3180
:1020EC0000706167652030005265636569766564D0
:1020FC00207061636B6574202700676173256976B6
:10210C00616C75652E7478743D2225692C256922C5
:10211C0000676173256976616C75652E7478743D02
:10212C0022256922006C6F72612E7478743D222511
:10213C00692200676173322E62636F3D3633343827
:10214C0038006761733276616C75652E62636F3D22
:10215C00363334383800756E6974322E62636F3DD5
:10216C0036333438380062322E62636F3D36333486
:10217C00383800676173322E62636F3D35343937FE
:10218C0030006761733276616C75652E62636F3DEA
:10219C00353439373000756E6974322E62636F3D99
:1021AC0035343937300062322E62636F3D35343945
:1021BC003730005374617274696E67204C6F5261D2
:0C21CC00206661696C656421000D0A004A
:00000001FF
