:100000000C9463000C9497020C9470020C948B0077
:100010000C948B000C948B000C948B000C94BE02FF
:100020000C948B000C948B000C948B000C948B0024
:100030000C948B000C948B000C948B000C948B0014
:100040000C9444080C948B000C9440030C941A03F9
:100050000C948B000C948B000C948B000C948B00F4
:100060000C948B000C948B000000000024002700EF
:100070002A000000000023002600290000000008DC
:10008000000201000003040700000000000000005F
:10009000010204081020408001020408102001021F
:1000A0000408102000000000250028002B00040494
:1000B0000404040404040202020202020303030310
:1000C000030302001A0C11241FBECFEFD8E0DEBFDD
:1000D000CDBF11E0A0E0B1E0ECE8F0E202C0059095
:1000E0000D92A43DB107D9F722E0A4EDB1E001C023
:1000F0001D92A33FB207E1F710E0C3E6D0E004C0D1
:100100002197FE010E94860DC236D107C9F70E94D1
:100110008E080C9444100C9400000895CF92DF9246
:10012000EF92FF920F931F93CF93DF936C017A01AD
:100130008B01C0E0D0E0CE15DF0581F0D8016D91D4
:100140008D01D601ED91FC910190F081E02DC60169
:100150000995892B11F02196EECF7E01C701DF9121
:10016000CF911F910F91FF90EF90DF90CF90089566
:10017000FC01538D448D252F30E0842F90E0821BAD
:10018000930B541710F0CF96089501970895FC0132
:10019000918D828D981761F0828DDF01A80FB11DBE
:1001A0005D968C91928D9F5F9F73928F90E00895E2
:1001B0008FEF9FEF0895FC01918D828D981731F09C
:1001C000828DE80FF11D858D90E008958FEF9FEFF0
:1001D0000895FC01918D228D892F90E0805C9F4FC6
:1001E000821B91098F739927089582E292E00E9401
:1001F000E90021E0892B09F420E0822F0895FC0119
:10020000848DDF01A80FB11DA35ABF4F2C91848D9F
:1002100090E001968F739927848FA689B7892C93D4
:10022000A089B1898C91837080648C93938D848D27
:10023000981306C00288F389E02D80818F7D80832A
:100240000895EF92FF920F931F93CF93DF93EC01EA
:1002500081E0888F9B8D8C8D981305C0E889F98982
:10026000808185FD26C0F62E0B8D10E00F5F1F4F9D
:100270000F731127E02E8C8DE8120CC00FB607FC0F
:10028000FACFE889F989808185FFF5CFCE010E94F8
:10029000FF00F1CF8B8DFE01E80FF11DE35AFF4FF8
:1002A000F0829FB7F8940B8FEA89FB898081806286
:1002B0000AC09FB7F894EE89FF896083E889F989BD
:1002C00080818370806480839FBF81E090E0DF91B4
:1002D000CF911F910F91FF90EF900895CF93DF93EF
:1002E000EC01888D8823C9F0EA89FB89808185FD2E
:1002F00005C0A889B9898C9186FD0FC00FB607FC8F
:10030000F5CF808185FFF2CFA889B9898C9185FFCF
:10031000EDCFCE010E94FF00E7CFDF91CF9108958E
:1003200080E090E0892B29F00E94F50081110C9467
:10033000000008950895CF93DF931F92CDB7DEB7E5
:100340006983DC01ED91FC910280F381E02D41E0B5
:1003500050E0BE016F5F7F4F09950F90DF91CF9105
:100360000895089580E090E0089590910A0189131E
:1003700024C0E2ECF0E0E4919FEF90930A01E130B9
:10038000B9F098F0E230C9F4909170009D7F90939D
:10039000700091E09093B0009091B100987F9460CC
:1003A0009093B1001092B30008C010926E0005C087
:1003B00090916F009D7F90936F0060E00C942405F6
:1003C0000E948C0DCF93DF93EC0182E292E00E94B9
:1003D000E900892B29F082E292E00E94C700F5CF64
:1003E000CE010E94B2040E949B040E949B04DF91F4
:1003F000CF910C949B040E949B040E949B040C943C
:100400009B04CF92DF92EF92FF920F931F93CF93B3
:10041000DF93CDB7DEB76E970FB6F894DEBF0FBE91
:10042000CDBFF82EE92ED62EC72E7F936F939F93C4
:100430008F938BE391E09F938F938E010F5F1F4FFC
:100440001F930F930E94910DC8010E94B2040E9455
:10045000FB01CF92DF92EF92FF9288E491E09F93AD
:100460008F931F930F930E94910DC8010E94B204B5
:100470000E94FB01CF92DF92EF92FF928AE591E01A
:100480009F938F931F930F930E94910DC8010E9419
:10049000B2040E94FB01CF92DF92EF92FF9288E6B6
:1004A00091E09F938F931F930F930E94910D0FB62E
:1004B000F894DEBF0FBECDBFC8010E94B2040E94F7
:1004C000FB016E960FB6F894DEBF0FBECDBFDF9175
:1004D000CF911F910F91FF90EF90DF90CF900895F3
:1004E0001F920F920FB60F9211242F933F934F93A9
:1004F0005F936F937F938F939F93AF93BF93EF938C
:10050000FF93E0910201F09103010995FF91EF91B2
:10051000BF91AF919F918F917F916F915F914F911B
:100520003F912F910F900FBE0F901F9018951F9223
:100530000F920FB60F9211242F933F934F935F9317
:100540006F937F938F939F93AF93BF93EF93FF939B
:10055000E0910001F09101010995FF91EF91BF91A8
:10056000AF919F918F917F916F915F914F913F914B
:100570002F910F900FBE0F901F9018951F920F9202
:100580000FB60F9211242F933F934F935F936F9366
:100590007F938F939F93AF93BF93EF93FF9380913C
:1005A0001E0290911F02A0912002B0912102892B7E
:1005B0008A2B8B2B51F190911B02E0911C02F09140
:1005C0001D0280818927808380911E0290911F02E5
:1005D000A0912002B0912102181619061A061B06D6
:1005E000C4F480911E0290911F02A0912002B0914C
:1005F00021020197A109B10980931E0290931F0265
:10060000A0932002B093210204C080910A010E94AD
:10061000B501FF91EF91BF91AF919F918F917F9124
:100620006F915F914F913F912F910F900FBE0F905F
:100630001F9018951F920F920FB60F9211242F93AF
:100640003F934F935F936F937F938F939F93AF935A
:10065000BF93EF93FF9382E292E00E94FF00FF912D
:10066000EF91BF91AF919F918F917F916F915F912A
:100670004F913F912F910F900FBE0F901F901895A3
:100680001F920F920FB60F9211242F938F939F9367
:10069000EF93FF93E0913202F09133028081E09179
:1006A0003802F091390282FD12C0908180913B02A4
:1006B0008F5F8F7320913C02821751F0E0913B02D3
:1006C000F0E0EE5DFD4F958F80933B0201C080818D
:1006D000FF91EF919F918F912F910F900FBE0F90EF
:1006E0001F9018950F931F93CF93DF93EC01062F64
:1006F000142F60E088890E9424059C858D859CBD0F
:100700008DBD0EBD00000DB407FEFDCF8EB51EBD24
:1007100000000DB407FEFDCF1EB561E088890E9480
:100720002405812FDF91CF911F910F9108956F774D
:1007300040E00C9472030F931F93CF93DF93EC016F
:10074000E881F9810084F185E02D0995892B91F0EC
:100750006DE0CE010E949703082F60E0CE010E9459
:100760009703182F402F6DE8CE010E947203812F4E
:1007700090E002C08FEF9FEFDF91CF911F910F911B
:100780000895CF93DF93EC01E881F9810084F1852E
:10079000E02D0995892B59F08A8D9B8D01969B8FB1
:1007A0008A8F60E0CE010E94970390E002C08FEF35
:1007B0009FEFDF91CF910895CF93DF93EC0163E139
:1007C0000E94970390E02A8D3B8D821B930BDF9153
:1007D000CF910895AF92BF92CF92DF92FF920F9385
:1007E0001F93CF93DF936C015B01EA0162E20E94E9
:1007F0009703F82E90E09C012C0F3D1F2F3F3105F1
:1008000029F020F0CFEFD0E0C81BD90B8501AC0E4A
:10081000BD1E0A151B0541F0F80141918F0160E8EA
:10082000C6010E947203F5CF4C2F4F0D62EAC6013C
:100830000E947203CE01DF91CF911F910F91FF9023
:10084000DF90CF90BF90AF900895833081F028F46F
:10085000813099F08230A1F008958730A9F0883076
:10086000B9F08430D1F4809180008F7D03C08091F5
:1008700080008F7780938000089584B58F7702C0C1
:1008800084B58F7D84BD08958091B0008F7703C0BB
:100890008091B0008F7D8093B00008953FB7F894A9
:1008A0008091E4029091E502A091E602B091E70206
:1008B00026B5A89B05C02F3F19F00196A11DB11DBB
:1008C0003FBFBA2FA92F982F8827820F911DA11DF6
:1008D000B11DBC01CD0142E0660F771F881F991F33
:1008E0004A95D1F70895E2E2F2E0A089B18982E069
:1008F0008C93A485B5851C92A685B7858FEC8C93C7
:10090000108EA489B58986E08C93A289B3898C91D5
:1009100080618C93A289B3898C9188608C93A28921
:10092000B3898C9180688C930288F389E02D808153
:100930008F7D808308956FEF82E292E00C94210115
:10094000009769F0FC0101900020E9F73197AF01B1
:10095000481B590BBC0182E292E00C948E0080E0AF
:1009600090E008950C94A0048F929F92AF92BF9252
:10097000CF92DF92EF92FF920E944E044B015C01F6
:100980008AE0C82ED12CE12CF12C0E944E04DC010F
:10099000CB0188199909AA09BB09883E9340A10592
:1009A000B10598F321E0C21AD108E108F10888EEF8
:1009B000880E83E0981EA11CB11CC114D104E1046F
:1009C000F10419F7FF90EF90DF90CF90BF90AF90B8
:1009D0009F908F9008951092DC021092DB026DE1DF
:1009E0008FEB92E00E949703482F4E7F6DE98FEBCB
:1009F00092E00C947203CF93DF93282F30E0F9013B
:100A0000E458FF4F8491F901E057FF4FD491F90169
:100A1000E255FF4FC491CC2391F081110E9425042F
:100A2000EC2FF0E0EE0FFF1FEE58FF4FA591B491B1
:100A3000EC91ED2381E090E021F480E002C080E0C1
:100A400090E0DF91CF9108951F93CF93DF93282FEC
:100A500030E0F901E458FF4F8491F901E057FF4F6E
:100A6000D491F901E255FF4FC491CC23C1F0162F68
:100A700081110E942504EC2FF0E0EE0FFF1FEC55D2
:100A8000FF4FA591B4919FB7F894111104C08C91B8
:100A9000D095D82302C0EC91DE2BDC939FBFDF9171
:100AA000CF911F910895CF93DF9390E0FC01E05721
:100AB000FF4F2491FC01E255FF4F8491882361F19F
:100AC00090E0880F991FFC01E859FF4FC591D49120
:100AD000FC01EC55FF4FA591B491611109C09FB77E
:100AE000F8948881209582238883EC912E230BC073
:100AF000623061F49FB7F8948881322F3095832358
:100B00008883EC912E2B2C939FBF06C08FB7F8944F
:100B1000E8812E2B28838FBFDF91CF9108954F92CC
:100B20005F926F927F928F929F92AF92BF92CF927D
:100B3000DF92EF92FF921F93CF93DF93EC018091AE
:100B40000A01853021F08F3F09F00AC204C0E2ECAF
:100B5000F0E014916FC085E080930A01E2ECF0E0D0
:100B600014911F3F09F4FCC1113009F440C030F169
:100B7000123009F05FC01092B0001092B100809165
:100B8000B00082608093B0008091B100816080935A
:100B9000B100E3EBF0E0E491F0E0EE0FFF1FEC5565
:100BA000FF4F8591949190931D0280931C02E5E97B
:100BB000F0E0E491E0931B0212E0CDC114BC15BC3F
:100BC00084B5826084BD85B5816085BDE3EBF0E0CE
:100BD000E491F0E0EE0FFF1FEC55FF4F85919491EB
:100BE000E5E9F0E0E491E093E90210E0B4C110928D
:100BF0008000109281008091810088608093810044
:100C000080918100816080938100E3EBF0E0E491CA
:100C1000F0E0EE0FFF1FEC55FF4F85919491E5E951
:100C2000F0E0E491E093E80261E085E00E94530582
:100C300011E0B1C017FD94C161E085E00E94530549
:100C4000812F8D7F09F0A7C04E01A12CB12C60E04F
:100C500072E18AE790E0A50194010E94D70C290176
:100C60003A0169017A0121E0C21AD108E108F108CC
:100C70008FEFC816D104E104F10409F008F44BC069
:100C800060E472E48FE090E0A50194010E94D70C2B
:100C900069017A0181E0C81AD108E108F10812302F
:100CA00001F52FEFC216D104E104F10409F008F4B4
:100CB000EAC060E970ED83E090E0A50194010E9434
:100CC000D70C69017A0181E0C81AD108E108F1085E
:100CD0002FEFC216D104E104F10409F030F583E0EE
:100CE00053C08FEFC816D104E104F104B1F0A8F0AD
:100CF00068E478EE81E090E0A50194010E94D70CB1
:100D000069017A0181E0C81AD108E108F1081123CC
:100D100009F4EEC0E4C081E001C082E0111134C0EA
:100D200095B5987F892B85BD68C068E478EE81E031
:100D300090E0A50194010E94D70C69017A0181E03D
:100D4000C81AD108E108F1082FEFC216D104E10456
:100D5000F10409F008F495C064E274EF80E090E0DB
:100D6000A50194010E94D70C69017A0181E0C81A9B
:100D7000D108E108F1082FEFC216D104E104F10413
:100D800011F008F082C085E09091B100987F892B26
:100D90008093B10032C04E01A12CB12C60E072E111
:100DA0008AE790E0A50194010E94D70C69017A01BD
:100DB00081E0C81AD108E108F108C114D10421E08A
:100DC000E206F10488F068E478EE81E090E0A501A5
:100DD00094010E94D70C69017A0181E0C81AD108F8
:100DE000E108F10883E001C081E0113031F4909115
:100DF0008100987F892B809381009E01220F331FF1
:100E0000AAEFB0E00E944F0D28EE33E040E050E042
:100E10000E942D0D113099F0123019F11111A0C05E
:100E2000C7BC2093EE023093EF024093F002509340
:100E3000F10280916E00826080936E0091C0D0922A
:100E40008900C09288002093EA023093EB0240931D
:100E5000EC025093ED0280916F00826080936F00EE
:100E60007FC0C092B30020931E0230931F024093B4
:100E70002002509321028091700082608093700064
:100E80006FC084E081CF82E07FCF62E17AE780E0CB
:100E900090E0A50194010E94D70C69017A0181E0DC
:100EA000C81AD108E108F1088FEFC816D104E1048F
:100EB000F10499F090F0D301C2012AE0B595A7950D
:100EC000979587952A95D1F76C017D0121E0C21A8B
:100ED000D108E108F10887E057CF86E055CF2FEF22
:100EE000C216D104E104F10409F078F684E016CFCB
:100EF0008FEFC816D104E104F10459F150F162E119
:100F00007AE780E090E0A50194010E94D70C690186
:100F10007A0181E0C81AD108E108F1082FEFC21662
:100F2000D104E104F10499F090F0D301C2013AE058
:100F3000B595A795979587953A95D1F76C017D0161
:100F400021E0C21AD108E108F10885E0E9CE84E089
:100F5000E7CE83E0E5CE61E085E00E94530574CEE4
:100F6000DF91CF911F91FF90EF90DF90CF90BF90D6
:100F7000AF909F908F907F906F905F904F9008956B
:100F80002FB7F8946091E0027091E1028091E20243
:100F90009091E3022FBF08958F929F92AF92BF92DC
:100FA000EF92FF920F931F93CF93DF9300D000D067
:100FB000CDB7DEB719821A821B821C8284E690E0CC
:100FC000A0E0B0E08093260290932702A09328022D
:100FD000B09329028E010F5F1F4F7E0185E0E80E5E
:100FE000F11C0E94C00760932A0270932B02809329
:100FF0002C0290932D0282E292E00E94C70097FF9C
:101000002CC00E94C00780902A0290902B02A090D2
:101010002C02B0902D02DC01CB0188199909AA0994
:10102000BB098090260290902702A0902802B090E1
:10103000290288159905AA05BB05E8F28981813046
:1010400051F48A818F3F39F48B818F3F21F481E005
:101050009C819F3F51F080E008C0F80181938F018F
:10106000EE16FF0609F0BDCFE9CF0F900F900F905D
:101070000F90DF91CF911F910F91FF90EF90BF9054
:10108000AF909F908F9008951F920F920FB60F927E
:1010900011242F933F938F939F93AF93BF9380918E
:1010A000E0029091E102A091E202B091E30230915E
:1010B000DF0223E0230F2D3720F40196A11DB11D7F
:1010C00005C026E8230F0296A11DB11D2093DF0263
:1010D0008093E0029093E102A093E202B093E302D6
:1010E0008091E4029091E502A091E602B091E702BE
:1010F0000196A11DB11D8093E4029093E502A09397
:10110000E602B093E702BF91AF919F918F913F911B
:101110002F910F900FBE0F901F901895789484B563
:10112000826084BD84B5816084BD85B5826085BDE3
:1011300085B5816085BD80916E00816080936E0071
:101140001092810080918100826080938100809163
:101150008100816080938100809180008160809314
:1011600080008091B10084608093B1008091B000D4
:1011700081608093B00080917A00846080937A00CF
:1011800080917A00826080937A0080917A008160F9
:1011900080937A0080917A00806880937A00109220
:1011A000C1000E94730461E08EE00E94530561E07B
:1011B0008FE00E94530561E080E10E94530561E0E9
:1011C00085E00E94530560E081E10E9453050E9482
:1011D000C00760930D0270930E0280930F029093EC
:1011E00010020E94C007609315027093160280934C
:1011F0001702909318028AE090E09093D0028093B7
:10120000CF0289E090E09093D2028093D10282E0F5
:1012100090E09093D4028093D30261E08AE00E9430
:10122000530561E08091CF020E9424058091D10294
:101230009091D2028F3F2FEF920789F061E00E94D8
:10124000530560E08091D1020E9424050E94B404FD
:1012500061E08091D1020E9424050E94B404CFB7BE
:10126000F8948091D401811127C0E8EBF0E08491DB
:10127000EAE9F0E09491E82FF0E0EE0FFF1FE85963
:10128000FF4FA591B491EC91E92321F461E08AE04C
:101290000E94240561E08AE00E9453058CB58061BC
:1012A0008CBD8CB580648CBD61E08DE00E945305DF
:1012B00061E08BE00E9453058091D4018F5F8093A1
:1012C000D401CFBF62E48FEB92E00E94970382319A
:1012D00009F0A7C240E861E88FEB92E00E94720338
:1012E00080E091EAACEBB3E38093D5029093D60211
:1012F000A093D702B093D80249ED66E88FEB92E055
:101300000E94720340E067E88FEB92E00E94720354
:1013100040E068E88FEB92E00E94720340E06EE8E4
:101320008FEB92E00E94720340E06FE88FEB92E057
:101330000E9472036CE08FEB92E00E949703482FAB
:1013400043606CE88FEB92E00E94720344E066EA2F
:101350008FEB92E00E9472034FE869E88FEB92E016
:101360000E94720341E861E88FEB92E00E947203F1
:101370000E94730483ED91E00E94E20183E791E013
:101380000E94E2010E94CC078BE791E00E94E201FB
:101390000E94CC0705ED11E07AE0272E312CE2E81F
:1013A0004E2EE1E05E2EFDEACF2EF1E0DF2E62E16F
:1013B0008FEB92E00E949703C82F0E94EB044C2F02
:1013C00062E98FEB92E00E947203C6FF2CC0C5FD5C
:1013D0002AC01092DA021092D9028091DB02909119
:1013E000DC02892B11F062E201C063E18FEB92E035
:1013F0000E949703C82FD0E060E18FEB92E00E943B
:101400009703482F6DE88FEB92E00E94720341E84A
:1014100061E88FEB92E00E947203CD2B09F43FC18B
:1014200077247394C3C061E08FEB92E00E9497032E
:10143000863809F434C140E06DE88FEB92E00E94F9
:10144000720346E861E88FEB92E00E94720327C1C5
:101450008FEB92E00E94C1038B3B910509F0A6C07F
:101460008FEB92E00E94C103C82F8FEB92E00E94A5
:10147000C103982F88278C2B90930501809304013A
:101480008FEB92E00E94C1039093080280930702C1
:101490008FEB92E00E94C103C82F8FEB92E00E9475
:1014A000C103982F88278C2B909307018093060106
:1014B0008FEB92E00E94C10390930A02809309028D
:1014C0008FEB92E00E94C103C82F8FEB92E00E9445
:1014D000C103982F88278C2B9093090180930801D2
:1014E0008FEB92E00E94C10390930C0280930B0259
:1014F0000E94FB0157E0A52E52E0B52E64E0E62ED7
:1015000061E0F62E4701C1E0D0E0F50181919191B3
:101510005F01F401029709F051C080819181B1010E
:101520000E945E0D9F938F937F936F93DF93CF9372
:101530005F924F921F930F930E94910D85ED91E062
:101540000E94B2040E94FB014DB75EB7465F5F4F39
:101550000FB6F8945EBF0FBE4DBF2196F2E08F0E1E
:10156000911CC430D10589F68BE0A82E81E0B82EFD
:10157000C0E0D0E0C130D10509F040C08091060143
:10158000909107014497BCF17092190260E078EFE6
:1015900081E090E00E9401022196F2E0AF0EB11CC2
:1015A00022E0E20EF11CC330D10521F78FEB92E06F
:1015B0000E94DC03892B09F04BCF3BC081818F93C4
:1015C00080818F93DF93CF9349E951E05F934F93ED
:1015D0001F930F930E94910D85ED91E00E94B2043C
:1015E0000E94FB01EDB7FEB738960FB6F894FEBF28
:1015F0000FBEEDBFB2CF70921A02C8CFF701808143
:101600009181F50122813381821793071CF070923A
:1016100019020BC0F50120813181821793072CF04C
:1016200070921A0260E07CEF02C060E078EFCE01B9
:10163000B1CF6AE18FEB92E00E949703C82FD0E010
:101640006091D5027091D6028091D7029091D80214
:101650000E94780C24E832EF4EE45EE40E94710CA4
:1016600087FD03C08DE990E002C084EA90E0AE01FE
:10167000481B590BCA019F934F93DF92CF921F9340
:101680000F930E94910D85ED91E00E94B2040E949B
:10169000FB010F900F900F900F900F900F9081E132
:1016A0000E94FB04019721F410921A021092190271
:1016B0000E94C0074B015C016093110270931202FB
:1016C000809313029093140280910D0290910E0268
:1016D000A0910F02B0911002A5019401281B390BB3
:1016E0004A0B5B0BDA01C901843F9140A105B105AA
:1016F00008F449C080911A02811104C08091190236
:10170000882391F18EE00E94FB0461E0892B09F0AF
:1017100060E08EE00E9424058FE00E94FB0461E0FF
:10172000892B09F060E08FE00E94240580E10E948F
:10173000FB0461E0892B09F060E080E10E94240550
:1017400080911902882319F088EB91E002C085E0AE
:1017500091E00E948F0580920D0290920E02A0925D
:101760000F02B09210020FC085E00E94B50160E048
:101770008EE00E94240560E08FE00E94240560E076
:1017800080E10E9424050E94C0078090150290907D
:101790001602A0901702B090180248EE840E43E0A3
:1017A000941EA11CB11C86169706A806B906B0F5B2
:1017B00041E861E88FEB92E00E9472030E94EB0423
:1017C00040E06DE88FEB92E00E94720340E062EA35
:1017D0008FEB92E00E9472036CEB8FEB92E00E9421
:1017E0009B0143E861E88FEB92E00E94720362E1A3
:1017F0008FEB92E00E94970383FFF9CF48E062E904
:101800008FEB92E00E9472030E94C0076093150262
:101810007093160280931702909318020E94900111
:10182000C6CD8BEB91E00E94A00481ED91E00E9477
:10183000A004FFCFE2E2F2E01382128288EE93E08E
:10184000A0E0B0E084839583A683B7838BE191E029
:101850009183808385EC90E09587848784EC90E089
:101860009787868780EC90E0918B808B81EC90E06D
:10187000938B828B82EC90E0958B848B86EC90E04E
:10188000978B868B118E128E138E148EEFEBF2E0F7
:10189000138212828DE291E09183808380E58487B8
:1018A00081E0858782EF92E0978786878AE090E0E3
:1018B000918B808B89E090E0938B828B82E090E02B
:1018C000958B848B168A178A108E118E138E128E2A
:1018D000158E148E178E168E14821582168217821C
:1018E00008950E94B30C08F481E00895E89409C0BB
:1018F00097FB3EF490958095709561957F4F8F4F43
:101900009F4F9923A9F0F92F96E9BB279395F69558
:10191000879577956795B795F111F8CFFAF4BB0FD6
:1019200011F460FF1BC06F5F7F4F8F4F9F4F16C03A
:10193000882311F096E911C0772321F09EE8872FC4
:10194000762F05C0662371F096E8862F70E060E080
:101950002AF09A95660F771F881FDAF7880F9695F9
:10196000879597F90895990F0008550FAA0BE0E89D
:10197000FEEF16161706E807F907C0F01216130651
:10198000E407F50798F0621B730B840B950B39F491
:101990000A2661F0232B242B252B21F408950A26F7
:1019A00009F4A140A6958FEF811D811D0895052E94
:1019B00097FB1EF400940E94EE0C57FD07D00E9486
:1019C0002D0D07FC03D04EF40C94EE0C5095409571
:1019D000309521953F4F4F4F5F4F089590958095DB
:1019E000709561957F4F8F4F9F4F08952F923F9233
:1019F0004F925F926F927F928F929F92AF92BF921F
:101A0000CF92DF92EF92FF920F931F93CF93DF93CA
:101A1000CDB7DEB7CA1BDB0B0FB6F894DEBF0FBE27
:101A2000CDBF09942A88398848885F846E847D8474
:101A30008C849B84AA84B984C884DF80EE80FD8076
:101A40000C811B81AA81B981CE0FD11D0FB6F894EC
:101A5000DEBF0FBECDBFED010895A1E21A2EAA1B75
:101A6000BB1BFD010DC0AA1FBB1FEE1FFF1FA2174E
:101A7000B307E407F50720F0A21BB30BE40BF50B4B
:101A8000661F771F881F991F1A9469F760957095D4
:101A9000809590959B01AC01BD01CF010895A29F57
:101AA000B001B39FC001A39F700D811D1124911D32
:101AB000B29F700D811D1124911D089597FB072E73
:101AC00016F4009407D077FD09D00E94720D07FC30
:101AD00005D03EF4909581959F4F0895709561953E
:101AE0007F4F0895AA1BBB1B51E107C0AA1FBB1F54
:101AF000A617B70710F0A61BB70B881F991F5A959A
:101B0000A9F780959095BC01CD010895EE0FFF1FB8
:101B10000590F491E02D099481E090E0F8940C9404
:101B20004410AEE0B0E0E7E9FDE00C94040D0D894F
:101B30001E8986E08C831A8309838FEF9FE79E833B
:101B40008D83AE01475E5F4F6F89788DCE01019620
:101B50000E94B30DEF81F885E00FF11F10822E96E1
:101B6000E4E00C94200DABE0B0E0E9EBFDE00C9478
:101B7000F60C6C017B018A01FC01178216828381BD
:101B800081FFCCC1CE0101963C01F6019381F701A2
:101B900093FD859193FF81917F01882309F4BAC158
:101BA000853239F493FD859193FF81917F018532D0
:101BB00029F4B60190E00E94AA0FE7CF912C212CC6
:101BC000312CFFE1F315D8F08B3279F038F4803204
:101BD00079F08332A1F4232D20611DC08D3261F094
:101BE000803369F4232D216016C0832D8260382E46
:101BF000E32DE4603E2E2AC0F32DF8601DC037FCB3
:101C00002DC020ED280F2A3040F08E32B9F436FC7A
:101C100081C1232D2064322E19C036FE06C08AE011
:101C2000989E200D1124922E11C0EAE02E9E200DC8
:101C30001124222EF32DF0623F2E08C08C3621F4A1
:101C4000832D8068382E02C0883641F4F70193FD59
:101C5000859193FF81917F018111B3CF982F9F7D53
:101C60009554933028F40C5F1F4F9FE399830DC068
:101C7000833631F0833771F0833509F059C021C0C4
:101C8000F801808189830E5F1F4F88248394912CF3
:101C9000530113C02801F2E04F0E511CF801A0803F
:101CA000B18036FE03C0692D70E002C06FEF7FEF98
:101CB000C5010E949F0F4C018201F32DFF773F2E3B
:101CC00016C0280122E0420E511CF801A080B1800C
:101CD00036FE03C0692D70E002C06FEF7FEFC501D3
:101CE0000E94940F4C01F32DF0683F2E820133FCCB
:101CF0001BC0822D90E088169906B0F4B60180E2F0
:101D000090E00E94AA0F2A94F4CFF50137FC859148
:101D100037FE81915F01B60190E00E94AA0F211069
:101D20002A9421E0821A91088114910471F7E8C085
:101D3000843611F0893641F5F80137FE07C060811D
:101D40007181828193810C5F1F4F08C06081718116
:101D5000072E000C880B990B0E5F1F4FF32DFF769B
:101D60003F2E97FF09C090958095709561957F4FA4
:101D70008F4F9F4FF0683F2E2AE030E0A3010E9472
:101D8000E60F882E861845C0853731F4232D2F7E27
:101D9000B22E2AE030E025C0932D997FB92E8F36E0
:101DA000C1F018F4883579F0B5C0803719F088375C
:101DB00021F0B0C0E92FE061BE2EB4FE0DC0FB2DB6
:101DC000F460BF2E09C034FE0AC0292F2660B22E4F
:101DD00006C028E030E005C020E130E002C020E18C
:101DE00032E0F801B7FE07C0608171818281938182
:101DF0000C5F1F4F06C06081718180E090E00E5F34
:101E00001F4FA3010E94E60F882E8618FB2DFF7737
:101E10003F2E36FE0DC0232D2E7FA22E891458F49E
:101E200034FE0BC032FC09C0832D8E7EA82E05C067
:101E3000B82CA32C03C0B82C01C0B92CA4FE0FC031
:101E4000FE01E80DF11D8081803321F49A2D997EE9
:101E5000A92E09C0A2FE06C0B394B39404C08A2D73
:101E6000867809F0B394A3FC11C0A0FE06C0B2149A
:101E700088F4280C922C9B180EC0B21460F4B601A2
:101E800080E290E00E94AA0FB394F7CFB21418F446
:101E90002B1802C0982C212CA4FE10C0B60180E3A0
:101EA00090E00E94AA0FA2FE17C0A1FC03C088E721
:101EB00090E002C088E590E0B6010CC08A2D8678DB
:101EC00059F0A1FE02C08BE201C080E2A7FC8DE2C6
:101ED000B60190E00E94AA0F891438F4B60180E39D
:101EE00090E00E94AA0F9A94F7CF8A94F301E80D2C
:101EF000F11D8081B60190E00E94AA0F8110F5CFFC
:101F0000222009F442CEB60180E290E00E94AA0F9E
:101F10002A94F6CFF6018681978102C08FEF9FEF5A
:101F20002B96E2E10C94120DFC010590615070407B
:101F30000110D8F7809590958E0F9F1F0895FC0192
:101F40006150704001900110D8F7809590958E0FE8
:101F50009F1F08950F931F93CF93DF93FB0123815E
:101F600021FD03C08FEF9FEF2CC022FF16C04681DA
:101F70005781248135814217530744F4A081B181F0
:101F80009D012F5F3F4F318320838C9326813781C2
:101F90002F5F3F4F3783268314C08B01EC01FB0179
:101FA0000084F185E02D0995892BE1F6D80116967C
:101FB0008D919C911797019617969C938E931697E7
:101FC000CE01DF91CF911F910F910895FA01AA27B9
:101FD000283051F1203181F1E8946F936E7F6E5F6C
:101FE0007F4F8F4F9F4FAF4FB1E03ED0B4E03CD01A
:101FF000670F781F891F9A1FA11D680F791F8A1FFD
:10200000911DA11D6A0F711D811D911DA11D20D063
:1020100009F468943F912AE0269F11243019305D1D
:102020003193DEF6CF010895462F4770405D41930E
:10203000B3E00FD0C9F7F6CF462F4F70405D4A335B
:1020400018F0495D31FD4052419302D0A9F7EACF23
:10205000B4E0A6959795879577956795BA95C9F752
:1020600000976105710508959B01AC010A2E069445
:102070005795479537952795BA95C9F7620F731FFE
:0C208000841F951FA01D0895F894FFCF49
:10208C008D008D00000015000000FF0A00140013E5
:10209C00001700140064000000000021018E00B83D
:1020AC00006E01E900C700DB00000000009B01EAA4
:1020BC0003B2019A01DC03C1039B036761732569B9
:1020CC002E62636F3D257500676173256976616CBF
:1020DC0075652E62636F3D257500756E6974256993
:1020EC002E62636F3D2575006225692E62636F3D1C
:1020FC00257500626B636D643D310070616765200E
:10210C003000676173256976616C75652E7478741F
:10211C003D2225692C25692200676173256976614A
:10212C006C75652E7478743D22256922006C6F7273
:10213C00612E7478743D2225692200537461727487
:10214C00696E67204C6F5261206661696C65642111
:04215C00000D0A0068
:00000001FF
