:100000000C9436010C943C020C9415020C942E05B1
:100010000C942E050C942E050C945E010C945E013C
:100020000C945E010C945E010C945E010C945E01D4
:100030000C945E010C945E010C945E010C945E01C4
:100040000C94E4110C945E010C9489020C946302EC
:100050000C945E010C945E010C945E010C945E01A4
:100060000C945E010C945E01676173546578742E84
:100070007478743D22434834220067617354657874
:10008000742E7478743D224F322200676173546578
:1000900078742E7478743D22434F22006761735444
:1000A0006578742E7478743D224942555422006D4F
:1000B0006573736167652E7478743D224461746161
:1000C0002073656E742122006D6573736167652E00
:1000D0007478743D224E6F2061636B6E6F776C6530
:1000E0006467656D656E74207265636569766564C5
:1000F0002E205472616E736D697373696F6E206D1B
:10010000696768742068617665206661696C6564FA
:100110002E220067302E7478743D2253656E742051
:1001200065786563757465642200747265735465DF
:1001300078742E7478743D224348342200747265BA
:1001400073546578742E7478743D224F3222007493
:10015000726573546578742E7478743D22434F220F
:100160000074726573546578742E7478743D2249F6
:1001700042555422007061676520300070616765E8
:10018000203500706167652035007061676520303B
:10019000006572726F724D6573736167652E747856
:1001A000743D22446563696D616C20697320616CE4
:1001B0007265616479207365742E220070616765D1
:1001C0002033006D6573736167652E7478743D220A
:1001D0004E6F2061636B6E6F776C656467656D65EC
:1001E0006E742072656365697665642E204973209C
:1001F000746865206F7468657220646576696365EC
:10020000207475726E6564206F6E20616E64206963
:100210006E2072616E67653F2200000000002400BE
:1002200027002A0000000000250028002B000404FD
:10023000040404040404020202020202030303038E
:10024000030301020408102040800102040810206A
:100250000102040810200000000800020100000351
:1002600004070000000000000000171711241FBE43
:10027000CFEFD8E0DEBFCDBF13E0A0E0B1E0EEE508
:10028000FDE302C005900D92AA31B107D9F728E02D
:10029000AAE1B3E001C01D92A638B207E1F711E070
:1002A000C6E3D1E004C02197FE010E94EF1BC533D5
:1002B000D107C9F70E942E120C94AD1E0C940000B9
:1002C0000895CF92DF92EF92FF920F931F93CF93F7
:1002D000DF936C017A018B01C0E0D0E0CE15DF0521
:1002E00081F0D8016D918D01D601ED91FC910190C5
:1002F000F081E02DC6010995892B11F02196EECFF2
:100300007E01C701DF91CF911F910F91FF90EF9078
:10031000DF90CF900895FC01538D448D252F30E060
:10032000842F90E0821B930B541710F0CF96089502
:10033000019708958BEB93E00E94DD0221E0892B69
:1003400009F420E0822F08950E94F51BEF92FF929E
:100350000F931F93CF93DF93EC0181E0888F9B8DE8
:100360008C8D981305C0E889F989808185FD26C0A8
:10037000F62E0B8D10E00F5F1F4F0F731127E02E2D
:100380008C8DE8120CC00FB607FCFACFE889F9890A
:10039000808185FFF5CFCE010E940C05F1CF8B8DBA
:1003A000FE01E80FF11DE35AFF4FF0829FB7F8946A
:1003B0000B8FEA89FB89808180620AC09FB7F8941D
:1003C000EE89FF896083E889F98980818370806480
:1003D00080839FBF81E090E0DF91CF911F910F91CB
:1003E000FF90EF900895CF93DF93EC01888D8823E1
:1003F000C9F0EA89FB89808185FD05C0A889B98992
:100400008C9186FD0FC00FB607FCF5CF808185FF6C
:10041000F2CFA889B9898C9185FFEDCFCE010E94DA
:100420000C05E7CFDF91CF9108951F920F920FB681
:100430000F9211242F933F934F935F936F937F936A
:100440008F939F93AF93BF93EF93FF93E09102013C
:10045000F09103010995FF91EF91BF91AF919F91A9
:100460008F917F916F915F914F913F912F910F905D
:100470000FBE0F901F9018951F920F920FB60F92FC
:1004800011242F933F934F935F936F937F938F9399
:100490009F93AF93BF93EF93FF93E0910001F0918F
:1004A00001010995FF91EF91BF91AF919F918F91BC
:1004B0007F916F915F914F913F912F910F900FBE60
:1004C0000F901F9018951F920F920FB60F92112444
:1004D0002F933F934F935F936F937F938F939F934C
:1004E000AF93BF93EF93FF938BEB93E00E940C05C8
:1004F000FF91EF91BF91AF919F918F917F916F91FC
:100500005F914F913F912F910F900FBE0F901F90D1
:1005100018951F920F920FB60F9211242F938F935D
:100520009F93EF93FF93E091CB03F091CC038081F5
:10053000E091D103F091D20382FD12C090818091AD
:10054000D4038F5F8F732091D503821751F0E09110
:10055000D403F0E0E554FC4F958F8093D40301C0A1
:100560008081FF91EF919F918F912F910F900FBEFE
:100570000F901F901895FC01918D828D981761F056
:10058000828DDF01A80FB11D5D968C91928D9F5FCA
:100590009F73928F90E008958FEF9FEF0895FC0175
:1005A000918D828D981731F0828DE80FF11D858D28
:1005B00090E008958FEF9FEF0895FC01918D228DBB
:1005C000892F90E0805C9F4F821B91098F73992740
:1005D000089580E090E0892B29F00E949A01811112
:1005E0000C94000008958FB7F894809150068FBF47
:1005F00008950895CF93DF931F92CDB7DEB7698337
:10060000DC01ED91FC910280F381E02D41E050E0AE
:10061000BE016F5F7F4F09950F90DF91CF910895D5
:100620008FEF0C9427090F931F93CF93DF93EB0168
:100630000E94D8118B010E9410038F3F49F00E9445
:10064000D811601B710B6C177D07A8F380E001C007
:1006500081E0DF91CF911F910F91089561E0FC013E
:1006600084810E94151180915106811110925106CA
:100670000895CF93DF93EC018E81882389F08F81D9
:1006800098859C012F5F3F4F38872F83823092409F
:1006900018F40E941003F3CFCE010E942E031E8295
:1006A000DF91CF9108958F929F92AF92BF92FF9268
:1006B0000F931F93CF93DF93EC01F62E49015A015C
:1006C0000E94390380915106811109C081E0809315
:1006D000510680915804909159040E942E0960E0BF
:1006E0008C810E9415116CE271E0CE010E9413030F
:1006F0008F2D80640E94270908E110E0D501C40114
:10070000002E04C0B695A795979587950A94D2F7C1
:100710000E94270908501109083F8FEF180771F749
:10072000FF2029F088E0F81204C087E803C085E9BB
:1007300001C08FEF0E94270910E00E9410038A87F2
:1007400087FF04C01F3F11F01F5FF7CFDF91CF91EC
:100750001F910F91FF90BF90AF909F908F90089541
:10076000EF92FF920F931F93CF93DF93EC017901E8
:10077000411551056105710511F482E13CC08B857D
:10078000833039F089E0440F551F661F771F8A9523
:10079000D1F79A01AB0168E1CE010E94530388238F
:1007A00011F084E028C08EEF0E94270987018EEFA8
:1007B000F81AF80181918F010E942709E016F106CD
:1007C000C1F78FEF0E9427098FEF0E9427090E942F
:1007D00010038A878F71853031F081E18D83CE01DE
:1007E0000E942E0309C068E572E0CE010E94130347
:1007F000811107C085E18D83CE010E942E0380E028
:1008000014C020E030E0A9016DE0CE010E94530346
:10081000811109C00E941003811105C0CE010E9400
:100820002E0381E002C084E1E6CFDF91CF911F91DA
:100830000F91FF90EF90089580915206882389F1DF
:10084000409158015091590160915A0170915B019A
:1008500027E536E080E090E00E94B003811102C0FD
:1008600080E00895409153065091540660915506DA
:1008700070915606411551056105710581F027E516
:1008800036E080E090E00E94B003882349F31092A4
:100890005306109254061092550610925606109266
:1008A000520681E00895AF92BF92CF92DF92EF920D
:1008B000FF921F93CF93DF936B017C01142F8091E4
:1008C000580190915901A0915A01B0915B018C158A
:1008D0009D05AE05BF0509F48FC00E941C04882346
:1008E00009F490C0809106008823A1F08091000057
:1008F00090910100A0910200B0910300C816D906A2
:10090000EA06FB0639F48091070090910800892BD4
:1009100009F443C0C0920000D0920100E0920200AE
:10092000F092030080910B00A7019601833039F00B
:1009300099E0220F331F441F551F9A95D1F761E1AB
:1009400080E090E00E945303882321F083E08093AD
:10095000050044C00E94D811EB010E94100380934F
:100960000A008F3F49F40E94D8116C1B7D0B6D3239
:10097000714098F38FE003C08E3F41F08DE080938B
:10098000050080E090E00E942E0328C0109208002D
:100990001092070081E080930600C7E5D6E087E566
:1009A000A82E88E0B82E0E9410038993AC16BD06CD
:1009B000D1F780910700909108009E5F9093080006
:1009C0008093070020910900222319F0811592409D
:1009D00058F080E090E00E94390306C080E090E08B
:1009E0000E942E0380E00EC0C0925801D09259019F
:1009F000E0925A01F0925B0140915206412B4093E4
:100A0000520681E0DF91CF911F91FF90EF90DF9030
:100A1000CF90BF90AF900895FC01848DDF01A80FA7
:100A2000B11DA35ABF4F2C91848D90E001968F7316
:100A30009927848FA689B7892C93A089B1898C9135
:100A4000837080648C93938D848D981306C0028884
:100A5000F389E02D80818F7D808308951F920F920E
:100A60000FB60F9211240F900FBE0F901F90189584
:100A70004F925F926F927F928F929F92AF92BF92AE
:100A8000CF92DF92EF92FF920F931F93CF93DF935A
:100A9000EC01423051056105710510F480E078C029
:100AA00089859A85AB85BC850196A11DB11D8417EA
:100AB0009507A607B70790F3CB88DC88ED88FE88FA
:100AC0008F89803129F4BB27A72F962F852F09C046
:100AD000DB01CA01E7E0B695A79597958795EA955A
:100AE000D1F7480159012A013B01C80ED91EEA1E5F
:100AF000FB1E8091580190915901A0915A01B0912B
:100B00005B01C816D906EA06FB0681F48F8980319D
:100B1000A9F4B301A201552766277727440F551F73
:100B2000FA01E95AF94F9182808219C040E0C70169
:100B3000B6010E9453048111E9CFB0CFB301A201E5
:100B40004F77552766277727440F551F440F551FAA
:100B5000FA01E95AF94F80829182A282B382809190
:100B600052068160809352068A89823080F08D819E
:100B70009E81AF81B885C80ED91EEA1EFB1EC092A9
:100B80005306D0925406E0925506F092560681E044
:100B9000DF91CF911F910F91FF90EF90DF90CF9059
:100BA000BF90AF909F908F907F906F905F904F908D
:100BB00008958F929F92AF92BF92CF92DF92EF9261
:100BC000FF920F931F93CF93DF93FC018185928552
:100BD000A385B4850196A11DB11D84179507A607AD
:100BE000B70710F480E05BC083889488A588B68836
:100BF0008789803129F4BB27A72F962F852F09C01D
:100C0000DB01CA01C7E0B695A79597958795CA9568
:100C1000D1F7E9016A017B018F01BC01CD01680DAB
:100C2000791D8A1D9B1D8090580190905901A090BC
:100C30005A01B0905B01681579058A059B0591F40E
:100C4000F80187898031A1F4DD24EE24FF24C60158
:100C5000880F991FFC01E95AF94F80819181A0E02A
:100C6000B0E018C040E00E9453048111E9CFBACF30
:100C7000E894C7F8DD24EE24FF24C601880F991FED
:100C8000880F991FFC01E95AF94F80819181A28157
:100C9000B381BF7088839983AA83BB8381E0DF918E
:100CA000CF911F910F91FF90EF90DF90CF90BF9069
:100CB000AF909F908F9008954F925F926F927F9226
:100CC000AF92BF92CF92DF92EF92FF920F931F935A
:100CD000CF93DF9300D000D01F92CDB7DEB78C0149
:100CE0006D83DC0115968C911597813009F054C005
:100CF00014968C9181FF50C057C0258530E0275F46
:100D00003F4F2A013B01B1E04B1A510861087108BD
:100D1000022E04C076946794579447940A94D2F7AD
:100D2000D701C6010197A109B10904C0B695A795DD
:100D3000979587952A95D2F784159505A605B70549
:100D400008F076C0F8014789508D618D728D468319
:100D50005783608771872C013D015801F6E0AF0E83
:100D6000B11C411451046104710409F46BC0D80131
:100D700016964D915D916D917C91199795015B96B9
:100D80008D919C915C970E94D905B1E04B1A510856
:100D9000610871088111E5CF81E090E0F80193834B
:100DA000828380E090E05BC182FF0EC0F801428543
:100DB000538564857585C388D488E588F6884C1585
:100DC0005D056E057F05E9F4D8011A964D915D9198
:100DD0006D917C911D975B96ED91FC915C97948150
:100DE00091506A017B0189E0F694E794D794C79407
:100DF0008A95D1F79C217A01B1E0FB22911173C051
:100E000027C0D801038CF48DE02DC114D104E10476
:100E1000F10409F072CF16961D921D921D921C923C
:100E200019971A961D921D921D921C921D9714C01F
:100E3000452B462B472B09F485CF84199509A60924
:100E4000B70989CFF801C286D386E486F586BCCF80
:100E5000E114F10409F047C0D80116964D915D9157
:100E60006D917C911997411551056105710559F4F2
:100E700057968D919D910D90BC91A02D0097A10545
:100E8000B10549F522C09E012F5F3F4FCF010E945F
:100E9000D905882309F485CF89819A81AB81BC81EA
:100EA000F801238D348DF9012789203129F448EF89
:100EB0005FEF60E070E004C048EF5FEF6FEF7FE04E
:100EC00084179507A607B70730F0C8010E941210D3
:100ED000811106C061CFF80186839783A087B1870F
:100EE000E12CF12C90E0D8015B96ED91FC915C97A0
:100EF00016964D905D906D907C901997B2E04B1ACC
:100F0000510861087108058404C0440C551C661C16
:100F1000771C0A94D2F74685578560897189440EFB
:100F2000551E661E771E490E511C611C711CE11472
:100F3000F10409F5F8014285538564857585838937
:100F40009489A589B689481759076A077B0798F0DD
:100F50000E941C04882309F41FCF4092580150922C
:100F6000590160925A0170925B0180915206816032
:100F70008093520608C041E0C301B2010E945304AD
:100F8000882309F409CFF701E95AF94F8D8180834D
:100F9000F80182859385A485B5850196A11DB11DB3
:100FA00082879387A487B587438954896589768921
:100FB000481759076A077B0738F4838B948BA58BF6
:100FC000B68B848180688483D80114968C9183FDCC
:100FD00003C081E090E043C0F8019581992309F4B2
:100FE000DBCE87FF37C0668577858089918941E0B0
:100FF0000E945304882309F4CFCED8015296EC9175
:10100000B0E2EB9FF0011124E95AF94F309709F44F
:10101000C3CED80115968C911597823050F4539613
:101020004D915D916D917C915697448F558F668F50
:10103000778FD80157964D915D916D917C915A971C
:10104000538F428F758B648B14968C9114978F7786
:1010500014968C930E941C048111BBCF9DCE0F90DF
:101060000F900F900F900F90DF91CF911F910F91E4
:10107000FF90EF90DF90CF90BF90AF907F906F90F8
:101080005F904F9008950F931F93CF93DF93EC01E0
:10109000062F142F60E088890E9415118C859D858C
:1010A0000E942E09802F0E942709812F0E94270964
:1010B000182F61E088890E941511812FDF91CF914F
:1010C0001F910F9108956F7740E00C9443080F93A0
:1010D0001F93CF93DF93EC01E881F9810084F185C0
:1010E000E02D0995892B91F06DE0CE010E946308F7
:1010F000082F60E0CE010E946308182F402F6DE892
:10110000CE010E944308812F90E002C08FEF9FEF35
:10111000DF91CF911F910F910895CF93DF93EC0151
:10112000E881F9810084F185E02D0995892B59F03A
:101130008A8D9B8D01969B8F8A8F60E0CE010E94E5
:10114000630890E002C08FEF9FEFDF91CF91089589
:10115000CF93DF93EC0163E10E94630890E02A8D56
:101160003B8D821B930BDF91CF910895AF92BF927D
:10117000CF92DF92FF920F931F93CF93DF936C0177
:101180005B01EA0162E20E946308F82E90E09C0194
:101190002C0F3D1F2F3F310529F020F0CFEFD0E07D
:1011A000C81BD90B8501AC0EBD1E0A151B0541F0ED
:1011B000F80141918F0160E8C6010E944308F5CF14
:1011C0004C2F4F0D62EAC6010E944308CE01DF9109
:1011D000CF911F910F91FF90DF90CF90BF90AF9074
:1011E0000895089580E090E00895E9E6F8E0A4E02D
:1011F000B1E0819191918D939D9388E0E937F80753
:10120000C1F7E9E5F8E0AAE2B3E0819191918D930D
:101210009D9388E0E936F807C1F70895E4E0F1E02E
:10122000A9E6B8E0819191918D939D9381E0E4319D
:10123000F807C1F7EAE2F3E0A9E5B8E081919191FE
:101240008D939D9383E0EA33F807C1F708958EBD2F
:1012500000000DB407FEFDCF8EB508958CBD9DBD79
:1012600008950E94610F0E94610F0C94610F4F92CC
:101270005F926F927F928F929F92AF92BF92CF9226
:10128000DF92EF92FF920F931F93CF93DF932AE0A9
:10129000E22EF12C34E1A32E31E0B32E0E94FB0F9D
:1012A0006BEB8AE594E00E94FA0260E08AE594E044
:1012B0000E94FA02CAE2D3E094E0C92E91E0D92E4E
:1012C0008601F60160818AE594E00E94FA02F2E06C
:1012D000CF0ED11CF80161818AE594E00E94FA02E8
:1012E00068818AE594E00E94FA02698122968AE583
:1012F00094E00E94FA02F4E1CF16F1E0DF0601F774
:101300000E94E50F8AE0C82ED12C412C65E070E0E8
:1013100080E090E00E949E110E94930F892B09F4B7
:101320004EC08AE594E00E94A808892B09F447C0C2
:101330008AE594E00E948D088C3B910591F78AE53F
:1013400094E00E948D08892B61F70AE213E0C4E063
:10135000D1E0552453948AE594E00E948D082881B9
:101360003981332782179307C9F58AE594E00E94F3
:101370008D086980712C8615970581F58AE594E0C2
:101380000E948D08F801208131813327821793074D
:1013900029F58AE594E00E948D08F8018180912C5E
:1013A00088159905D9F422960E5F1F4FAC16BD061D
:1013B00091F6552009F4B5CF44244394B2CFF1E01F
:1013C000CF1AD10809F0A2CF41100AC081E0E81A73
:1013D000F10809F063CF83EC91E004C0512CE3CF16
:1013E0008CEB91E00E94780FDF91CF911F910F91CC
:1013F000FF90EF90DF90CF90BF90AF909F908F9035
:101400007F906F905F904F900C94310981E991E04B
:101410000E94780F0C9431096F927F928F929F9265
:10142000AF92BF92CF92DF92EF92FF920F931F93F2
:10143000CF93DF938AE5E82E83E0F82E92E6892E9B
:1014400093E0992EC1E0D0E02BE7622E22E0722ECD
:101450000AE613E03AE0A32EB12C44E6C42E42E0A3
:10146000D42EF701819191917F01F401029701F54A
:1014700080819181B5010E94C71B9F938F937F93B9
:101480006F93DF93CF93DF92CF921F930F930E94BE
:10149000FA1B8AE693E00E94660F0E943109EDB7BD
:1014A000FEB73A960FB6F894FEBF0FBEEDBF1AC056
:1014B00081818F9380818F93DF93CF937F926F92FF
:1014C0001F930F930E94FA1B8AE693E00E94660F17
:1014D0000E943109EDB7FEB738960FB6F894FEBFFB
:1014E0000FBEEDBF2196F2E08F0E911CC530D105E5
:1014F00009F0B7CF10927C0810927B08DF91CF9152
:101500001F910F91FF90EF90DF90CF90BF90AF9021
:101510009F908F907F906F900895E0917B08F0915D
:101520007C08309779F13197EE0FFF1FDF01A65A43
:10153000BC4F8D919C91EE59FC4F8230910509F082
:1015400053C0808191816AE070E00E94C71B9F9325
:101550008F937F936F938FE892E09F938F938AE6A8
:1015600093E09F938F930E94FA1B8AE693E00E9478
:10157000660F8DB79EB708960FB6F8949EBF0FBE44
:101580008DBF53C0E0917908F0917A083197EE0F42
:10159000FF1FDF01A65DBC4F8D919C91EC5FFE4F5C
:1015A0008230910509F5808191816AE070E00E94A6
:1015B000C71B9F938F937F936F938FE892E09F93C6
:1015C0008F938AE693E09F938F930E94FA1B8AE69B
:1015D00093E00E94660F8DB79EB708960FB6F894F9
:1015E0009EBF0FBE8DBF21C0019739F481818F93BB
:1015F00080818F9384EA92E006C081818F938081FD
:101600008F9387EB92E09F938F938AE693E09F936B
:101610008F930E94FA1B8AE693E00E94660F0F9058
:101620000F900F900F900F900F900C943109E09154
:101630007B08F0917C083097C9F03197EE0FFF1FBF
:10164000DF01A65ABC4F2D913C91119722303105F4
:1016500019F40E94060A2FC02130310521F422E03E
:1016600030E02D933C93EE59FC4F19C0E09179087E
:10167000F0917A083197EE0FFF1FDF01A65DBC4F96
:101680002D913C9111972230310519F3213031050C
:1016900021F422E030E02D933C93EC5FFE4F40813B
:1016A00051816AE0649F9001659F300D1124820F83
:1016B000931F918380830C948D0A89E090E00C94B1
:1016C000170B88E090E00C94170B87E090E00C94E7
:1016D000170B86E090E00C94170B85E090E00C94DB
:1016E000170B84E090E00C94170B83E090E00C94CF
:1016F000170B82E090E00C94170B81E090E00C94C3
:10170000170B80E090E00C94170B80917B08909170
:101710007C080097B9F00197880F991FFC01E65AE1
:10172000FC4F208131812230310529F421E030E065
:101730003183208303C021303105D9F0FC01EE59FB
:10174000FC4F1DC08091790890917A080197880F0D
:10175000991FFC01E65DFC4F20813181223031056B
:1017600029F421E030E03183208306C021303105A7
:1017700019F4118210820BC0FC01EC5FFE4F8081D6
:1017800091816AE070E00E94C71B718360830C94B2
:101790008D0AE0917B08F0917C08309759F0EE0FAC
:1017A000FF1FE85AFC4F80819181892B61F00E94D4
:1017B000060A0DC0E0917908F0917A08EE0FFF1F3C
:1017C000E85DFC4FF0CF81E090E0918380830C9442
:1017D0008D0A8091790890917A089C01297F2130A7
:1017E000310529F4019690937A08809379080C9436
:1017F0008D0A8091790890917A089C012B7F223084
:10180000310531F08430910519F08830910529F4C3
:10181000019790937A08809379080C948D0AE0914F
:101820007908F0917A083197EE0FFF1FDF01A65D6E
:10183000BC4F8D919C91EC5FFE4F8230910519F564
:10184000808191816AE070E00E94C71B9F938F9313
:101850007F936F9389EC92E09F938F938AE693E056
:101860009F938F930E94FA1B8AE693E00E94660F73
:101870000E9431098DB79EB708960FB6F8949EBFA7
:101880000FBE8DBF23C0019739F481818F93808172
:101890008F9388ED92E006C081818F9380818F9332
:1018A00085EE92E09F938F938AE693E09F938F93C8
:1018B0000E94FA1B8AE693E00E94660F0E9431099B
:1018C0000F900F900F900F900F900F90E09179086C
:1018D000F0917A08EE0FFF1FDF01A65DBC4F8D91DE
:1018E0009C91EC5FFE4F8230910509F580819181DA
:1018F0006AE070E00E94C71B9F938F937F936F9362
:1019000081EF92E09F938F938AE693E09F938F936A
:101910000E94FA1B8AE693E00E94660F8DB79EB77D
:1019200008960FB6F8949EBF0FBE8DBF21C00197D9
:1019300039F481818F9380818F9380E093E006C09A
:1019400081818F9380818F938DE093E09F938F931C
:101950008AE693E09F938F930E94FA1B8AE693E0B6
:101960000E94660F0F900F900F900F900F900F90A6
:101970000C94310980917B0890917C08892BC1F1EE
:101980008AE891E00E94780F0E9431096091520329
:101990007091530370936303609362034091540307
:1019A000509155035093650340936403209156036F
:1019B0003091570330936703209366038091580357
:1019C00090915903909369038093680370935B032C
:1019D00060935A0350935D0340935C0330935F031D
:1019E00020935E0390936103809360030C940C0A30
:1019F00083E891E00E94780F0E943109EAE3F3E066
:101A0000A4E0B1E0819191918D939D9383E0EA34BC
:101A1000F807C1F7EAE1F3E0AAE2B3E08AE293E073
:101A2000219131912D933D938E179F07C9F7809196
:101A3000790890917A0880FD05C0019790937A0803
:101A4000809379080C940F0CCF92DF92EF92FF9263
:101A50000F931F93CF93DF9380917B0890917C0825
:101A6000892B09F458C085E791E00E94780F0E9405
:101A700031098091620390916303909353038093A3
:101A80005203809164039091650390935503809372
:101A9000540380916603909167039093570380935A
:101AA0005603809168039091690390935903809342
:101AB000580382E6E82E83E0F82E0AE513E0C1E041
:101AC000D0E0F7016081CE0101970E947D1BF701F4
:101AD0006181F2E0EF0EF11CCE010E947D1BF80146
:101AE0006081CE0101960E947D1BF80161810E5F2D
:101AF0001F4FCE0102960E947D1B2496C131D10555
:101B000001F7DF91CF911F910F91FF90EF90DF9040
:101B1000CF900C940C0A8CE791E00E94780F0E9401
:101B20003109E4E0F1E0AAE3B3E0819191918D9372
:101B30009D9381E0E431F807C1F7EAE2F3E0AAE11E
:101B4000B3E0819191918D939D9383E0EA33F807FF
:101B5000C1F78091790890917A0880FD05C00197BE
:101B600090937A0880937908DF91CF911F910F911C
:101B7000FF90EF90DF90CF900C940F0C87E090E0F7
:101B800090937A088093790881E691E00E94780F1B
:101B90000E9431090C940F0C85E090E090937A0834
:101BA000809379088FE491E00E94780F0E943109B8
:101BB0000C940F0C83E090E090937A08809379085E
:101BC0008DE391E00E94780F0E9431090C940F0C74
:101BD00081E090E090937A08809379088AE291E01E
:101BE0000E94780F0E9431090C940F0C4F925F9263
:101BF0006F927F928F929F92AF92BF92CF92DF921D
:101C0000EF92FF920F931F93CF93DF9383E191E0C5
:101C10000E94780F0E9431092AE0E22EF12C3AE668
:101C2000A32E33E0B32E0E94FB0F6BEB8AE594E00A
:101C30000E94FA026FEF8AE594E00E94FA02CAE578
:101C4000D3E092E6C92E93E0D92E8601F601608199
:101C50008AE594E00E94FA02F2E0CF0ED11CF8016E
:101C600061818AE594E00E94FA0268818AE594E045
:101C70000E94FA02698122968AE594E00E94FA02A3
:101C8000FAE6CF16F3E0DF0601F70E94E50F8AE0DF
:101C9000C82ED12C412C65E070E080E090E00E94DD
:101CA0009E110E94930F892B09F44FC08AE594E09E
:101CB0000E94A808892B09F448C08AE594E00E9494
:101CC0008D088C3B910591F78AE594E00E948D0880
:101CD0008F3F910559F70AE513E0C2E6D3E055249A
:101CE00053948AE594E00E948D0828813981332736
:101CF00082179307C9F58AE594E00E948D086980F0
:101D0000712C8615970581F58AE594E00E948D086F
:101D1000F8012081318133278217930729F58AE55D
:101D200094E00E948D08F8018180912C8815990516
:101D3000D9F422960E5F1F4FAC16BD0691F65520C2
:101D400009F4B4CF44244394B1CFF1E0CF1AD108C1
:101D500009F0A1CF41100AC081E0E81AF10809F0AA
:101D600062CF88EC90E004C0512CE3CF8FEA90E082
:101D70000E94780FDF91CF911F910F91FF90EF900C
:101D8000DF90CF90BF90AF909F908F907F906F909B
:101D90005F904F900C94310984E090E090937C0820
:101DA00080937B088CE990E00E94780F0E943109B3
:101DB0000C948D0A83E090E090937C0880937B08DC
:101DC0008BE890E00E94780F0E9431090C948D0AF4
:101DD00082E090E090937C0880937B088AE790E013
:101DE0000E94780F0E9431090C948D0A81E090E0E6
:101DF00090937C0880937B0888E690E00E94780F9F
:101E00000E9431090C948D0A3FB7F89480918208A2
:101E100090918308A0918408B091850826B5A89B6D
:101E200005C02F3F19F00196A11DB11D3FBFBA2F6C
:101E3000A92F982F8827820F911DA11DB11DBC01CC
:101E4000CD0142E0660F771F881F991F4A95D1F791
:101E5000089510927704109276046DE18AE594E07B
:101E60000E946308482F4E7F6DE98AE594E00C9448
:101E70004308EBEBF3E0A089B18982E08C93A48561
:101E8000B5851C92A685B7858FEC8C93108EA4899E
:101E9000B58986E08C93A289B3898C9180618C93FB
:101EA000A289B3898C9188608C93A289B3898C9123
:101EB00080688C930288F389E02D80818F7D8083F8
:101EC00008956FEF8BEB93E00C94A601009769F0F7
:101ED000FC0101900020E9F73197AF01481B590B35
:101EE000BC018BEB93E00C94610180E090E00895DD
:101EF0000F931F93CF93DF938C01C0E0D0E0F801E4
:101F0000EC0FFD1F6491662341F08BEB93E00E9480
:101F1000A601892B11F02196F2CFCE01DF91CF914E
:101F20001F910F910895CF93DF9362E18AE594E0CA
:101F30000E946308C82F0E94290F4C2F62E98AE58E
:101F400094E00E944308C6FF27C0C5FD25C010923B
:101F50007504109274048091760490917704892B13
:101F600011F062E201C063E18AE594E00E94630837
:101F7000C82FD0E060E18AE594E00E946308482F12
:101F80006DE88AE594E00E94430841E861E88AE54B
:101F900094E00E94430815C061E08AE594E00E9445
:101FA0006308863861F040E06DE88AE594E00E94BD
:101FB000430846E861E88AE594E00E944308C0E0EF
:101FC000D0E0CE01DF91CF91089543E861E88AE542
:101FD00094E00E94430862E18AE594E00E9463086D
:101FE00083FFF9CF48E062E98AE594E00E94430864
:101FF00081E090E0089541E861E88AE594E00E947C
:1020000043080E94290F40E06DE88AE594E00E94B1
:10201000430840E062EA8AE594E00E94430881E0D8
:1020200090E008953F924F925F926F927F928F92CD
:102030009F92AF92BF92CF92DF92EF92FF920F9357
:102040001F93CF93DF93CDB7DEB72C970FB6F894DD
:10205000DEBF0FBECDBF5C01DC015B968D909C9016
:102060005C971696CD90DD90ED90FC901997C11479
:10207000D104E104F10439F0BFEFCB1ADB0AEB0A1B
:10208000FB0A312C07C0F401C080D180E280F380CC
:1020900033243394F40181859285A385B4859C0112
:1020A000AD012F5F3F4F4F4F5F4F29873A874B87D7
:1020B0005C87260137011D821E821F821886F4016B
:1020C00081859285A385B4852D813E814F81588578
:1020D000281739074A075B0708F063C089859A8586
:1020E000AB85BC858C159D05AE05BF0550F482E01F
:1020F000C82ED12CE12CF12C92E0492E512C612CD0
:10210000712C9E012F5F3F4FB701A601C4010E94B1
:10211000D905882309F445C089819A81AB81BC81A6
:10212000892B8A2B8B2B41F0260137019FEF491A0F
:10213000590A690A790A05C0C414D504E604F704EB
:1021400091F02D813E814F8158852F5F3F4F4F4F3A
:102150005F4F2D833E834F8358873FEFC31AD30AC7
:10216000E30AF30AACCF0FEF1FEF2FEF3FE0B3010D
:10217000A201C4010E943805882399F0D501169662
:102180004D915D916D917C911997411551056105B6
:10219000710549F093018201C4010E943805811143
:1021A00002C080E02AC0D50116964D925D926D92D4
:1021B0007C921997332051F0D301C2010196A11DE1
:1021C000B11DF40180839183A283B383F5018789D4
:1021D000908DA18DB28D892B8A2B8B2B69F4D50123
:1021E00057964D925D926D927C925A9714968C916F
:1021F0001497806814968C9381E02C960FB6F8940F
:10220000DEBF0FBECDBFDF91CF911F910F91FF9029
:10221000EF90DF90CF90BF90AF909F908F907F9086
:102220006F905F904F903F90089590E0FC01EA5AC4
:10223000FD4F2491FC01EE5BFD4F3491FC01E25D0A
:10224000FD4FE491EE2309F43CC0222339F1233001
:1022500091F038F42130A9F0223001F584B58F7D5A
:1022600012C0273091F02830A1F02430B9F48091C9
:1022700080008F7D03C0809180008F7780938000E5
:102280000DC084B58F7784BD09C08091B0008F7771
:1022900003C08091B0008F7D8093B000F0E0EE0F1E
:1022A000FF1FEC5DFD4FA591B4919FB7F8946111AC
:1022B00004C08C913095382302C0EC913E2B3C93A6
:1022C0009FBF0895CF93DF9390E0FC01EE5BFD4F3D
:1022D0002491FC01E25DFD4F8491882361F190E03F
:1022E000880F991FFC01E65EFD4FC591D491FC015A
:1022F000EC5DFD4FA591B491611109C09FB7F894B1
:102300008881209582238883EC912E230BC0623034
:1023100061F49FB7F8948881322F309583238883A6
:10232000EC912E2B2C939FBF06C08FB7F894E881B9
:102330002E2B28838FBFDF91CF9108958F929F928C
:10234000AF92BF92CF92DF92EF92FF926B017C012E
:102350000E94040F4B015C01C114D104E104F1049B
:10236000F1F00E94040FDC01CB0188199909AA0938
:10237000BB09883E9340A105B10570F321E0C21A64
:10238000D108E108F10888EE880E83E0981EA11CB0
:10239000B11CC114D104E104F10419F7DDCFFF90A1
:1023A000EF90DF90CF90BF90AF909F908F90089567
:1023B0002FB7F89460917E0870917F088091800813
:1023C000909181082FBF08951F920F920FB60F9220
:1023D00011242F933F938F939F93AF93BF9380913B
:1023E0007E0890917F08A0918008B091810830917B
:1023F0007D0823E0230F2D3720F40196A11DB11D88
:1024000005C026E8230F0296A11DB11D20937D086B
:1024100080937E0890937F08A0938008B0938108F2
:102420008091820890918308A0918408B0918508DA
:102430000196A11DB11D8093820890938308A093FB
:102440008408B0938508BF91AF919F918F913F9180
:102450002F910F900FBE0F901F901895789484B510
:10246000826084BD84B5816084BD85B5826085BD90
:1024700085B5816085BD80916E00816080936E001E
:102480001092810080918100826080938100809110
:1024900081008160809381008091800081608093C1
:1024A00080008091B10084608093B1008091B00081
:1024B00081608093B00080917A00846080937A007C
:1024C00080917A00826080937A0080917A008160A6
:1024D00080937A0080917A00806880937A001092CD
:1024E000C1000E94390F8AE090E090936B048093C2
:1024F0006A0489E090E090936D0480936C0482E01C
:1025000090E090936F0480936E0461E08AE00E94F3
:10251000621161E080916A040E94151180916C043F
:1025200090916D048F3F2FEF9207C9F061E00E94F8
:10253000621160E080916C040E9415116AE070E005
:1025400080E090E00E949E1161E080916C040E9406
:1025500015116AE070E080E090E00E949E11CFB714
:10256000F8948091A603811127C0E8E3F2E08491FA
:10257000ECE4F2E09491E82FF0E0EE0FFF1FE65E4E
:10258000FD4FA591B491EC91E92321F461E08AE03B
:102590000E94151161E08AE00E9462118CB5806191
:1025A0008CBD8CB580648CBD61E08DE00E946211B1
:1025B00061E08BE00E9462118091A6038F5F80939F
:1025C000A603CFBF62E48AE594E00E9463088231EB
:1025D00009F007C240E861E88AE594E00E944308F8
:1025E00080E091EAACEBB3E38093700490937104C4
:1025F000A0937204B093730449ED66E88AE594E011
:102600000E94430840E067E88AE594E00E9443089E
:1026100040E068E88AE594E00E94430840E06EE804
:102620008AE594E00E94430840E06FE88AE594E080
:102630000E9443086CE08AE594E00E946308482FFA
:1026400043606CE88AE594E00E94430844E066EA4F
:102650008AE594E00E9443084FE869E88AE594E03F
:102660000E94430841E861E88AE594E00E9443083B
:1026700060E083E00E94621160E084E00E946211E9
:1026800060E085E00E94621160E083E10E946211D7
:1026900060E08EE00E94621161E08FE00E946211B2
:1026A0000E94390F84EE92E00E94C0198CE891E0FC
:1026B0000E94C0190E94D91984E991E00E94C019B2
:1026C0000E94D91966EF7EE07093030660930206BC
:1026D0008AEF95E0909305068093040648EE5EE04D
:1026E0005093F7054093F6058EEE95E09093F9052B
:1026F0008093F8052AED3EE03093EB052093EA0540
:1027000082EE95E09093ED058093EC058CEC9EE0D5
:102710009093DF058093DE05E6EDF5E0F093E105AB
:10272000E093E0057093D3056093D2056AEC75E001
:102730007093D5056093D4055093C7054093C605A3
:102740004EEB55E05093C9054093C8053093BB0547
:102750002093BA0522EB35E03093BD052093BC05EC
:102760009093AF058093AE0586EA95E09093B1050E
:102770008093B00586EF9DE090939F0580939E0522
:102780008AE995E09093A1058093A0058CE09AE0FA
:1027900090939705809396058EE895E09093990520
:1027A000809398058EE099E090938B0580938A053D
:1027B00082E895E090938D0580938C0588EE9DE0EE
:1027C00090937F0580937E0586E795E09093810541
:1027D000809380058AED9DE0909373058093720548
:1027E0008AE695E090937505809374058CEC9DE0E6
:1027F00090936705809366058EE595E09093690553
:10280000809368058EEB9DE090935B0580935A055D
:1028100082E595E090935D0580935C0587E399E000
:1028200090934F0580934E0586E495E09093510573
:102830008093500585EF98E090934305809342057F
:102840008AE395E0909345058093440589EF9BE0EA
:1028500090933705809336058EE295E09093390585
:102860008093380589EE9BE090932B0580932A0591
:1028700082E295E090932D0580932C0584E29DE003
:1028800090931F0580931E0586E195E090932105A6
:10289000809320058AEB9CE09093130580931205AA
:1028A0008AE095E0909315058093140589EC9BE0F0
:1028B00090930305809302058EEF94E090930505B5
:1028C0008093040585E89BE09093F7048093F604D9
:1028D00082EF94E09093F9048093F80481E89BE000
:1028E0009093EB048093EA0486EE94E09093ED04D9
:1028F0008093EC048DE79BE09093DF048093DE04EB
:102900008AED94E09093E1048093E00489E79BE0F2
:102910009093D3048093D2048EEC94E09093D504EA
:102920008093D40485E79BE09093C7048093C6040A
:1029300082EC94E09093C9048093C80481E79BE003
:102940009093BB048093BA0486EB94E09093BD040B
:102950008093BC048DE69BE09093AF048093AE041B
:102960008AEA94E09093B1048093B00489E69BE0F6
:102970009093A3048093A2048EE994E09093A5041D
:102980008093A40485E69BE090939704809396043B
:1029900082E994E0909399048093980481E69BE007
:1029A00090938B0480938A0486E894E090938D043E
:1029B00080938C048DE59BE090937F0480937E044C
:1029C0008AE794E09093810480938004F2E6CF2E0E
:1029D000F3E0DF2EAAE5EA2EA3E0FA2EC0E0D0E075
:1029E00001C0FFCFCE010E94751B182FCE010196AA
:1029F0000E94751B212F30E0382BF6012193319373
:102A00006F01CE0102960E94751B182FCE0103960E
:102A10000E94751B212F30E0382BF7012193319351
:102A20007F012496C031D105E9F68091620390912F
:102A300063039093530380935203809164039091B6
:102A4000650390935503809354038091660390919E
:102A50006703909357038093560380916803909186
:102A600069039093590380935803E4E0F1E0AAE3EB
:102A7000B3E084E191E0219131912D933D938E1744
:102A80009F07C9F7EAE2F3E0AAE1B3E081919191EF
:102A90008D939D9323E0EA33F207C1F70E940C0A5D
:102AA0005EEA852E53E0952E0BE911E0CAE6D3E0ED
:102AB00065E0A62EB12C7AEAC72E71E0D72EE8EB9E
:102AC000EE2EE1E0FE2E8BEB93E00E94DD02181665
:102AD00019060CF04BC06AE070E080E090E00E94C4
:102AE0009E118BEB93E00E94BB02782E85E6781254
:102AF000EACF8BEB93E00E94DD02069724F37092FD
:102B0000A70348EA642E43E0742E8BEB93E00E9407
:102B1000BB02F30181933F018E169F06B1F710921D
:102B2000AE038091AB038F3F71F68091AC038F3F72
:102B300051F68091AD038F3F31F64091AA0350E0EA
:102B400060E070E09091A9032091A803E4E1F1E036
:102B5000A191B191109709F4B6CF8C912813F8CFB9
:102B600011968C9111979813F3CF3EC185E4809311
:102B70007C0080917A00806480937A0080917A0052
:102B800086FDFCCF609178008091790070E0782B11
:102B9000072E000C880B990B0E94581A24E13EEA7C
:102BA00047E950E40E94B71A20E030E040E85AE3D9
:102BB0000E94B71A2B013C012DEC3CEC4CE650E492
:102BC0000E94511A87FF03C01F928AE02DC02DEC8E
:102BD0003CEC4CE650E4C301B2010E94C21B181643
:102BE0006CF42AE939E949E750E4C301B2010E94D3
:102BF000511A87FF03C01F9289E028C02AE939E9EA
:102C000049E750E4C301B2010E94C21B181694F4B4
:102C100023E333E343E850E4C301B2010E94511AB5
:102C200087FF08C01F9288E08F931F930F93DF9355
:102C3000CF9311C023E333E343E850E4C301B2016F
:102C40000E94C21B1816ACF41F9287E08F931F934B
:102C50000F93DF93CF930E94FA1B8AE693E00E94C2
:102C6000660F0E9431090F900F900F900F900F90F8
:102C70000F900E94930F892B09F4B3C083E0282E94
:102C800094E0392E25E0522E36E0432E8AE594E07A
:102C90000E94A808892B09F4A4C08AE594E00E9448
:102CA0008D088C3B910591F78091B3039091B4030B
:102CB0009093B2038093B1038091B5039091B603D2
:102CC0009093B4038093B3038091B7039091B803BA
:102CD0009093B6038093B5038091B9039091BA03A2
:102CE0009093B8038093B7036AE18AE594E00E9469
:102CF0006308682E712C609170047091710480914A
:102D00007204909173040E94581A24E832EF4EE442
:102D10005EE40E94511A87FD03C08DE990E002C075
:102D200084EA90E0681A790A7092BA036092B90353
:102D3000E1EBF3E080E090E021913191820F931F6D
:102D400023E0EB3BF207C1F7B5010E94C71B3B0133
:102D50007F926F93DF92CF92DF93CF930E94FA1B03
:102D60008AE693E00E94660F0E9431090F900F904F
:102D70000F900F900F900F90FBEB6F16FFEF7F06F9
:102D80001CF01F924F921AC0E2EA6E16EFEF7E0619
:102D90003CF01F925F92FF92EF92DF93CF9312C0AD
:102DA0008EE868168FEF78063CF01F923F92FF92F4
:102DB000EF92DF93CF9306C01F922F92FF92EF9274
:102DC000DF93CF930E94FA1B8AE693E00E94660F7E
:102DD0000E9431090F900F900F900F900F900F905D
:102DE00055CF0E94E9026FCE413051056105710552
:102DF00061F41496ED91FC911597309709F463CE28
:102E000016968D919C91179710C0452B462B472BFA
:102E100009F059CE1896ED91FC911997309709F465
:102E200052CE1A968D919C911B9709954CCEEF929C
:102E3000FF920F931F93CF93DF93EBEBF3E013829B
:102E4000128288EE93E0A0E0B0E084839583A683AD
:102E5000B78380E691E09183808385EC90E095874D
:102E6000848784EC90E09787868780EC90E0918B54
:102E7000808B81EC90E0938B828B82EC90E0958B41
:102E8000848B86EC90E0978B868B118E128E138E3E
:102E9000148EE8E5F4E080E580831182E6E0F6E058
:102EA000158216821186138642E050E060E070E0E1
:102EB000448755876687778713A215A614A622E74D
:102EC00031E033A722A717A6EAE5F4E013821282C5
:102ED0002EE731E031832083848781E085872FE4EA
:102EE00036E0378726872AE030E0318B208B29E0D7
:102EF00030E0338B228B22E030E0358B248B168A36
:102F0000178A108E118E138E128E158E148E178EB8
:102F1000168E1482158216821782EAEFF5E010826F
:102F2000818322EC31E0338322831582148211865F
:102F300010861386128617821682EEEEF5E0108256
:102F400012E0118327EC31E033832283158214824F
:102F5000118610861386128617821682E2EEF5E03D
:102F60001082B3E0B1832CEC31E0338322831582ED
:102F70001482118610861386128617821682E6ED59
:102F8000F5E010820FE0018321ED31E033832283ED
:102F90001582148211861086138612861782168275
:102FA000EAECF5E0108256E0518326ED31E0338300
:102FB0002283158214821186108613861286178248
:102FC0001682EEEBF5E0108247E0418320EE31E01F
:102FD000338322831582148211861086138612860B
:102FE00017821682E2EBF5E0108228E021836AEE78
:102FF00071E07383628315821482118610861386B2
:10300000128617821682E6EAF5E0108290E191833B
:1030100064EF71E0738362831582148211861086D7
:103020001386128617821682EAE9F5E0108239E0EB
:1030300031836EEF71E0738362831582148211868F
:1030400010861386128617821682EEE8F5E0B083AA
:10305000B18363E072E07383628315821482118608
:1030600010861386128617821682E2E8F5E0B08396
:103070001183C6E0D2E0D383C28315821482118605
:1030800010861386128617821682E6E7F5E094E032
:1030900090831183CFE0D2E0D383C2831582148260
:1030A000118610861386128617821682EAE6F5E0EC
:1030B0009083B183C5E1D2E0D383C28315821482A9
:1030C000118610861386128617821682EEE5F5E0C9
:1030D00090839183CBE1D2E0D383C28315821482A3
:1030E000118610861386128617821682E2E5F5E0B5
:1030F0009083A5E0A183C1E2D2E0D383C28315828D
:103100001482118610861386128617821682E6E4D0
:10311000F5E090835183C7E2D2E0D383C283158266
:103120001482118610861386128617821682EAE3AD
:10313000F5E090832183C0E3D2E0D383C28315827C
:103140001482118610861386128617821682EEE28A
:10315000F5E0A08391830F2EF7E3EF2EF2E0FF2E30
:10316000F02DF382E2821582148211861086138676
:10317000128617821682E2E2F5E0A083A1830F2E69
:10318000FAE3EF2EF2E0FF2EF02DF382E2821582B9
:103190001482118610861386128617821682E6E143
:1031A000F5E080830F2EFCE0FF2EF02DF1820F2E34
:1031B000FDE3EF2EF2E0FF2EF02DF382E282158286
:1031C0001482118610861386128617821682EAE010
:1031D000F5E080830F2EFEE0FF2EF02DF182D383E9
:1031E000C283158214821186108613861286178276
:1031F0001682EEEFF4E080830183C0E4D2E0D38353
:10320000C283158214821186108613861286178255
:103210001682E2EFF4E08083CDE0C183C4E4D2E023
:10322000D383C28315821482118610861386128678
:1032300017821682E6EEF4E080838183C9E4D2E04F
:10324000D383C28315821482118610861386128658
:1032500017821682EAEDF4E0808311837383628320
:1032600015821482118610861386128617821682A2
:10327000EEECF4E08083B1836CE472E073836283EC
:103280001582148211861086138612861782168282
:10329000E2ECF4E0808391836FE472E073836283F5
:1032A0001582148211861086138612861782168262
:1032B000E6EBF4E08083A18362E572E073836283CE
:1032C0001582148211861086138612861782168242
:1032D000EAEAF4E08083518365E572E073836283F8
:1032E0001582148211861086138612861782168222
:1032F000EEE9F4E08083418348E552E05383428362
:103300001582148211861086138612861782168201
:10331000E2E9F4E0808321834BE552E0538342836A
:1033200015821482118610861386128617821682E1
:10333000E6E8F4E0808331832EE532E033832283B4
:1033400015821482118610861386128617821682C1
:10335000EAE7F4E080838AE0818381E692E0938368
:103360008283158214821186108613861286178234
:103370001682DF91CF911F910F91FF90EF900895EA
:10338000CF93DF93EC018BEB93E00E94DD02892B5E
:1033900029F08BEB93E00E94BB02F5CFCE010E9497
:1033A000660F0E94610F0E94610FDF91CF910C9414
:1033B000610F8F929F92AF92BF92EF92FF920F9305
:1033C0001F93CF93DF9300D000D0CDB7DEB7198223
:1033D0001A821B821C8284E690E0A0E0B0E0809319
:1033E000BF039093C003A093C103B093C2038E01A7
:1033F0000F5F1F4F7E0185E0E80EF11C0E94D8117F
:103400006093C3037093C4038093C5039093C60372
:103410008BEB93E00E94BB0297FF2CC00E94D81157
:103420008090C3039090C403A090C503B090C603DE
:10343000DC01CB0188199909AA09BB098090BF0357
:103440009090C003A090C103B090C2038815990565
:10345000AA05BB05E8F28981813051F48A818F3F4A
:1034600039F48B818F3F21F481E09C819F3F51F0A3
:1034700080E008C0F80181938F01EE16FF0609F085
:10348000BDCFE9CF0F900F900F900F90DF91CF91AC
:103490001F910F91FF90EF90BF90AF909F908F90F2
:1034A00008950E94931A08F481E00895E89409C0F1
:1034B00097FB3EF490958095709561957F4F8F4F67
:1034C0009F4F9923A9F0F92F96E9BB279395F6957D
:1034D000879577956795B795F111F8CFFAF4BB0FFB
:1034E00011F460FF1BC06F5F7F4F8F4F9F4F16C05F
:1034F000882311F096E911C0772321F09EE8872FE9
:10350000762F05C0662371F096E8862F70E060E0A4
:103510002AF09A95660F771F881FDAF7880F96951D
:10352000879597F90895990F0008550FAA0BE0E8C1
:10353000FEEF16161706E807F907C0F01216130675
:10354000E407F50798F0621B730B840B950B39F4B5
:103550000A2661F0232B242B252B21F408950A261B
:1035600009F4A140A6958FEF811D811D08950E9449
:10357000CA1A0C943B1B0E942D1B38F00E94341B6E
:1035800020F0952311F00C94241B0C942A1B112479
:103590000C946F1B0E944C1B70F3959FC1F3950F09
:1035A00050E0551F629FF001729FBB27F00DB11DC7
:1035B000639FAA27F00DB11DAA1F649F6627B00D57
:1035C000A11D661F829F2227B00DA11D621F739F40
:1035D000B00DA11D621F839FA00D611D221F749F4E
:1035E0003327A00D611D231F849F600D211D822F95
:1035F000762F6A2F11249F5750409AF0F1F08823BC
:103600004AF0EE0FFF1FBB1F661F771F881F9150E8
:103610005040A9F79E3F510580F00C94241B0C9458
:103620006F1B5F3FE4F3983ED4F3869577956795DB
:10363000B795F795E7959F5FC1F7FE2B880F911D12
:103640009695879597F9089597F99F6780E870E0B8
:1036500060E008959FEF80EC089500240A94161608
:10366000170618060906089500240A941216130670
:10367000140605060895092E0394000C11F48823FE
:1036800052F0BB0F40F4BF2B11F460FF04C06F5F1A
:103690007F4F8F4F9F4F089557FD9058440F551FF0
:1036A00059F05F3F71F04795880F97FB991F61F0C4
:1036B0009F3F79F087950895121613061406551F3B
:1036C000F2CF4695F1DF08C0161617061806991FA7
:1036D000F1CF86957105610508940895E894BB279C
:1036E00066277727CB0197F90895F999FECF92BD08
:1036F00081BDF89A992780B50895262FF999FECFB4
:103700001FBA92BD81BD20BD0FB6F894FA9AF99AFE
:103710000FBE019608952F923F924F925F926F9243
:103720007F928F929F92AF92BF92CF92DF92EF9251
:10373000FF920F931F93CF93DF93CDB7DEB7CA1BD2
:10374000DB0B0FB6F894DEBF0FBECDBF09942A88FD
:10375000398848885F846E847D848C849B84AA84A5
:10376000B984C884DF80EE80FD800C811B81AA8132
:10377000B981CE0FD11D0FB6F894DEBF0FBECDBFFD
:10378000ED0108950E94931A08F48FEF089597FBB6
:10379000072E16F4009407D077FD09D00E94DB1B9A
:1037A00007FC05D03EF4909581959F4F0895709544
:1037B00061957F4F0895AA1BBB1B51E107C0AA1F4B
:1037C000BB1FA617B70710F0A61BB70B881F991FC2
:1037D0005A95A9F780959095BC01CD010895EE0FFB
:1037E000FF1F0590F491E02D099481E090E0F8949A
:1037F0000C94AD1EAEE0B0E0E0E0FCE10C94991B4F
:103800000D891E8986E08C831A8309838FEF9FE7D9
:103810009E838D83AE01475E5F4F6F89788DCE01A9
:1038200001960E941C1CEF81F885E00FF11F1082A9
:103830002E96E4E00C94B51BABE0B0E0E2E2FCE1D4
:103840000C948B1B6C017B018A01FC011782168290
:10385000838181FFCCC1CE0101963C01F6019381A9
:10386000F70193FD859193FF81917F01882309F4EE
:10387000BAC1853239F493FD859193FF81917F011F
:10388000853229F4B60190E00E94131EE7CF912CF7
:10389000212C312CFFE1F315D8F08B3279F038F47C
:1038A000803279F08332A1F4232D20611DC08D3246
:1038B00061F0803369F4232D216016C0832D82606E
:1038C000382EE32DE4603E2E2AC0F32DF8601DC093
:1038D00037FC2DC020ED280F2A3040F08E32B9F48D
:1038E00036FC81C1232D2064322E19C036FE06C05D
:1038F0008AE0989E200D1124922E11C0EAE02E9E9F
:10390000200D1124222EF32DF0623F2E08C08C369C
:1039100021F4832D8068382E02C0883641F4F701E7
:1039200093FD859193FF81917F018111B3CF982FF2
:103930009F7D9554933028F40C5F1F4F9FE399832C
:103940000DC0833631F0833771F0833509F059C0EB
:1039500021C0F801808189830E5F1F4F88248394E2
:10396000912C530113C02801F2E04F0E511CF801B5
:10397000A080B18036FE03C0692D70E002C06FEFF9
:103980007FEFC5010E94081E4C018201F32DFF77D5
:103990003F2E16C0280122E0420E511CF801A080E3
:1039A000B18036FE03C0692D70E002C06FEF7FEF7B
:1039B000C5010E94FD1D4C01F32DF0683F2E8201D0
:1039C00033FC1BC0822D90E088169906B0F4B60136
:1039D00080E290E00E94131E2A94F4CFF50137FC98
:1039E000859137FE81915F01B60190E00E94131E20
:1039F00021102A9421E0821A91088114910471F710
:103A0000E8C0843611F0893641F5F80137FE07C069
:103A100060817181828193810C5F1F4F08C060813A
:103A20007181072E000C880B990B0E5F1F4FF32D31
:103A3000FF763F2E97FF09C0909580957095619510
:103A40007F4F8F4F9F4FF0683F2E2AE030E0A30159
:103A50000E944F1E882E861845C0853731F4232DCD
:103A60002F7EB22E2AE030E025C0932D997FB92E0B
:103A70008F36C1F018F4883579F0B5C0803719F069
:103A8000883721F0B0C0E92FE061BE2EB4FE0DC032
:103A9000FB2DF460BF2E09C034FE0AC0292F26601A
:103AA000B22E06C028E030E005C020E130E002C0C0
:103AB00020E132E0F801B7FE07C0608171818281A8
:103AC00093810C5F1F4F06C06081718180E090E0A0
:103AD0000E5F1F4FA3010E944F1E882E8618FB2DDC
:103AE000FF773F2E36FE0DC0232D2E7FA22E891488
:103AF00058F434FE0BC032FC09C0832D8E7EA82EF4
:103B000005C0B82CA32C03C0B82C01C0B92CA4FE4E
:103B10000FC0FE01E80DF11D8081803321F49A2D44
:103B2000997EA92E09C0A2FE06C0B394B39404C026
:103B30008A2D867809F0B394A3FC11C0A0FE06C0BC
:103B4000B21488F4280C922C9B180EC0B21460F4A6
:103B5000B60180E290E00E94131EB394F7CFB21436
:103B600018F42B1802C0982C212CA4FE10C0B6010A
:103B700080E390E00E94131EA2FE17C0A1FC03C0C8
:103B800088E790E002C088E590E0B6010CC08A2D7D
:103B9000867859F0A1FE02C08BE201C080E2A7FC4A
:103BA0008DE2B60190E00E94131E891438F4B6012C
:103BB00080E390E00E94131E9A94F7CF8A94F30159
:103BC000E80DF11D8081B60190E00E94131E811066
:103BD000F5CF222009F442CEB60180E290E00E94A7
:103BE000131E2A94F6CFF6018681978102C08FEFCB
:103BF0009FEF2B96E2E10C94A71BFC01059061500E
:103C000070400110D8F7809590958E0F9F1F0895F2
:103C1000FC016150704001900110D8F7809590959B
:103C20008E0F9F1F08950F931F93CF93DF93FB0178
:103C3000238121FD03C08FEF9FEF2CC022FF16C010
:103C400046815781248135814217530744F4A0816E
:103C5000B1819D012F5F3F4F318320838C9326815B
:103C600037812F5F3F4F3783268314C08B01EC01D0
:103C7000FB010084F185E02D0995892BE1F6D8013F
:103C800016968D919C911797019617969C938E93FB
:103C90001697CE01DF91CF911F910F910895FA01F0
:103CA000AA27283051F1203181F1E8946F936E7F7B
:103CB0006E5F7F4F8F4F9F4FAF4FB1E03ED0B4E06C
:103CC0003CD0670F781F891F9A1FA11D680F791FAD
:103CD0008A1F911DA11D6A0F711D811D911DA11DBE
:103CE00020D009F468943F912AE0269F11243019CE
:103CF000305D3193DEF6CF010895462F4770405D69
:103D00004193B3E00FD0C9F7F6CF462F4F70405D17
:103D10004A3318F0495D31FD4052419302D0A9F772
:103D2000EACFB4E0A6959795879577956795BA956C
:103D3000C9F700976105710508959B01AC010A2E32
:103D400006945795479537952795BA95C9F7620F09
:0E3D5000731F841F951FA01D0895F894FFCFC8
:103D5E00600160010A0014001300170014006400D3
:103D6E006400C800FA05EE05E205D605CA05BE05D3
:103D7E00B205A6058E05820576056A055E05520515
:103D8E0046053A052E0522059A0516050A05FE0476
:103D9E00F204E604DA04CE04C204B604AA049E04B5
:103DAE00920486047A040000FFFFFFFF000000006B
:103DBE00A60161018B01F301DD02BB02CF020000FF
:103DCE0000005C066101F208F10800000000FA0232
:103DDE00B608F208F902A8088D086708626B636DD1
:103DEE00643D3100706167652030006261747465F6
:103DFE0072792E7069633D2569007369676E616C17
:103E0E002E76616C3D25690070302E7069633D25FC
:103E1E0069006761733100676173320067617333E4
:103E2E000067617334006761733176616C7565008C
:103E3E006761733276616C756500676173337661A5
:103E4E006C7565006761733476616C7565007365BA
:103E5E006E64006231006564697454726573007437
:103E6E0072657331007472657332007472657333E8
:103E7E000074726573340073656E645472657300FA
:103E8E0063616E63656C006131006132006F6B00BF
:103E9E00646F74006261636B0062300062320062B4
:103EAE0033006234006235006236006237006238D9
:103EBE0000623900676173256976616C75652E74D1
:103ECE0078743D2225692C25692200676173256966
:103EDE0076616C75652E7478743D222569220067B3
:103EEE00617356616C75652E7478743D2225692C4C
:103EFE002569220067617356616C75652E7478743E
:103F0E003D2225692C220067617356616C75652E02
:103F1E007478743D222569220061312E7478743DC7
:103F2E002225692C2569220061312E7478743D2278
:103F3E0025692C220061312E7478743D2225692268
:103F4E000061322E7478743D2225692C2569220079
:103F5E0061322E7478743D2225692C220061322E36
:0A3F6E007478743D222569220000DA
:00000001FF
