:100000000C94A2000C94530A0C942C0A0C944D03EB
:100010000C944D030C944D030C94CA000C94CA002C
:100020000C94CA000C94CA000C94CA000C94CA0028
:100030000C94CA000C94CA000C94CA000C94CA0018
:100040000C94850D0C94CA000C94A00A0C947A0AA6
:100050000C94CA000C94CA000C94CA000C94CA00F8
:100060000C94CA000C94CA00676173546578742EAE
:100070007478743D22434834220067617354657874
:10008000742E7478743D224F322200676173546578
:1000900078742E7478743D22434F22006761735444
:1000A0006578742E7478743D224942555422006755
:1000B000302E7478743D2253656E742065786563C4
:1000C0007574656422006572726F724D6573736139
:1000D00067652E7478743D22446563696D616C2098
:1000E000697320616C7265616479207365742E2276
:1000F0000000000000240027002A00000000002566
:100100000028002B00040404040404040402020276
:100110000202020303030303030102040810204048
:1001200080010204081020010204081020000000D1
:1001300008000201000003040700000000000000A6
:100140000000E80D11241FBECFEFD8E0DEBFCDBF09
:1001500027E0A6E7B2E001C01D92AE31B207E1F799
:1001600012E0A0E0B1E0E0EFFEE202C005900D92E7
:10017000A637B107D9F710E0C2EAD0E004C0219752
:10018000FE010E94B814C13AD107C9F70E94F70FC7
:100190000C9476170C940000FC01918D828D9817B9
:1001A00061F0828DDF01A80FB11D5D968C91928D5B
:1001B0009F5F9F73928F90E008958FEF9FEF089558
:1001C000FC01918D828D981731F0828DE80FF11D21
:1001D000858D90E008958FEF9FEF0895FC01918D3C
:1001E000228D892F90E0805C9F4F821B91098F7335
:1001F0009927089580E090E0892B29F00E94B109A9
:1002000081110C94000008958FB7F89480919002AA
:100210008FBF08950895CF93DF931F92CDB7DEB7B8
:100220006983DC01ED91FC910280F381E02D41E0D6
:1002300050E0BE016F5F7F4F09950F90DF91CF9126
:1002400008958EBD00000DB407FEFDCF8EB5089554
:100250008FEF0C9421018CBD9DBD0895089580E021
:1002600090E008950F931F93CF93DF93EB010E94CB
:10027000790D8B010E9428018F3F49F00E94790D72
:10028000601B710B6C177D07A8F380E001C081E053
:10029000DF91CF911F910F91089561E0FC0184815E
:1002A0000E94B60C809191028111109291020895E2
:1002B000CF93DF93EC018E81882389F08F8198851D
:1002C0009C012F5F3F4F38872F838230924018F474
:1002D0000E942801F3CFCE010E944D011E82DF91C2
:1002E000CF9108958F929F92AF92BF92FF920F93FA
:1002F0001F93CF93DF93EC01F62E49015A010E9420
:10030000580180919102811109C081E0809391028E
:1003100080913605909137050E942B0160E08C8119
:100320000E94B60C6CE271E0CE010E9432018F2D6A
:1003300080640E94210108E110E0D501C401002E73
:1003400004C0B695A795979587950A94D2F70E9411
:10035000210108501109083F8FEF180771F7FF209E
:1003600029F088E0F81204C087E803C085E901C0DD
:100370008FEF0E94210110E00E9428018A8787FFE9
:1003800004C01F3F11F01F5FF7CFDF91CF911F9186
:100390000F91FF90BF90AF909F908F900895EF9234
:1003A000FF920F931F93CF93DF93EC0179014115D7
:1003B00051056105710511F482E13CC08B858330E4
:1003C00039F089E0440F551F661F771F8A95D1F7D2
:1003D0009A01AB0168E1CE010E947201882311F0FD
:1003E00084E028C08EEF0E94210187018EEFF81A69
:1003F000F80181918F010E942101E016F106C1F7F9
:100400008FEF0E9421018FEF0E9421010E9428019D
:100410008A878F71853031F081E18D83CE010E9412
:100420004D0109C068E572E0CE010E9432018111E0
:1004300007C085E18D83CE010E944D0180E014C08C
:1004400020E030E0A9016DE0CE010E94720181112F
:1004500009C00E942801811105C0CE010E944D01F2
:1004600081E002C084E1E6CFDF91CF911F910F912F
:10047000FF90EF90089580919202882389F1409136
:10048000000150910101609102017091030127E97F
:1004900032E080E090E00E94CF01811102C080E054
:1004A0000895409193025091940260919502709149
:1004B0009602411551056105710581F027E932E089
:1004C00080E090E00E94CF01882349F310929302CC
:1004D000109294021092950210929602109292023B
:1004E00081E00895AF92BF92CF92DF92EF92FF9298
:1004F0001F93CF93DF936B017C01142F8091000138
:1005000090910101A0910201B09103018C159D050C
:10051000AE05BF0509F48FC00E943B02882309F491
:1005200090C0809106008823A1F0809100009091F6
:100530000100A0910200B0910300C816D906EA0696
:10054000FB0639F48091070090910800892B09F48B
:1005500043C0C0920000D0920100E0920200F092ED
:10056000030080910B00A7019601833039F099E0D8
:10057000220F331F441F551F9A95D1F761E180E088
:1005800090E00E947201882321F083E080930500AF
:1005900044C00E94790DEB010E94280180930A005B
:1005A0008F3F49F40E94790D6C1B7D0B6D327140B9
:1005B00098F38FE003C08E3F41F08DE080930500FB
:1005C00080E090E00E944D0128C010920800109237
:1005D000070081E080930600C7E9D2E087E9A82EF2
:1005E00084E0B82E0E9428018993AC16BD06D1F78D
:1005F00080910700909108009E5F9093080080937F
:10060000070020910900222319F08115924058F02B
:1006100080E090E00E94580106C080E090E00E94D7
:100620004D0180E00EC0C0920001D0920101E09225
:100630000201F092030140919202412B40939202F9
:1006400081E0DF91CF911F91FF90EF90DF90CF90ED
:10065000BF90AF900895FC01848DDF01A80FB11DFC
:10066000A35ABF4F2C91848D90E001968F739927E8
:10067000848FA689B7892C93A089B1898C918370C6
:1006800080648C93938D848D981306C00288F389BF
:10069000E02D80818F7D808308951F920F920FB689
:1006A0000F9211240F900FBE0F901F9018954F922C
:1006B0005F926F927F928F929F92AF92BF92CF92F2
:1006C000DF92EF92FF920F931F93CF93DF93EC0192
:1006D000423051056105710510F480E078C08985CC
:1006E0009A85AB85BC850196A11DB11D8417950720
:1006F000A607B70790F3CB88DC88ED88FE888F8942
:10070000803129F4BB27A72F962F852F09C0DB0145
:10071000CA01E7E0B695A79597958795EA95D1F731
:10072000480159012A013B01C80ED91EEA1EFB1ED1
:100730008091000190910101A0910201B09103010B
:10074000C816D906EA06FB0681F48F898031A9F420
:10075000B301A201552766277727440F551FFA01D9
:10076000E956FD4F9182808219C040E0C701B60171
:100770000E9472028111E9CFB0CFB301A2014F777D
:10078000552766277727440F551F440F551FFA0139
:10079000E956FD4F80829182A282B38280919202BB
:1007A0008160809392028A89823080F08D819E815F
:1007B000AF81B885C80ED91EEA1EFB1EC0929302F7
:1007C000D0929402E0929502F092960281E0DF913D
:1007D000CF911F910F91FF90EF90DF90CF90BF903E
:1007E000AF909F908F907F906F905F904F90089503
:1007F0008F929F92AF92BF92CF92DF92EF92FF9231
:100800000F931F93CF93DF93FC0181859285A3857E
:10081000B4850196A11DB11D84179507A607B707DA
:1008200010F480E05BC083889488A588B6888789A7
:10083000803129F4BB27A72F962F852F09C0DB0114
:10084000CA01C7E0B695A79597958795CA95D1F740
:10085000E9016A017B018F01BC01CD01680D791DA1
:100860008A1D9B1D8090000190900101A0900201C3
:10087000B0900301681579058A059B0591F4F8018C
:1008800087898031A1F4DD24EE24FF24C601880F7E
:10089000991FFC01E956FD4F80819181A0E0B0E0F5
:1008A00018C040E00E9472028111E9CFBACFE894EB
:1008B000C7F8DD24EE24FF24C601880F991F880F96
:1008C000991FFC01E956FD4F80819181A281B3817E
:1008D000BF7088839983AA83BB8381E0DF91CF9126
:1008E0001F910F91FF90EF90DF90CF90BF90AF904E
:1008F0009F908F9008954F925F926F927F92AF92E8
:10090000BF92CF92DF92EF92FF920F931F93CF93FC
:10091000DF9300D000D01F92CDB7DEB78C016D837E
:10092000DC0115968C911597813009F054C014960E
:100930008C9181FF50C057C0258530E0275F3F4F25
:100940002A013B01B1E04B1A510861087108022EDF
:1009500004C076946794579447940A94D2F7D701C9
:10096000C6010197A109B10904C0B695A79597954D
:1009700087952A95D2F784159505A605B70508F041
:1009800076C0F8014789508D618D728D46835783FB
:10099000608771872C013D015801F6E0AF0EB11C54
:1009A000411451046104710409F46BC0D801169616
:1009B0004D915D916D917C91199795015B968D910B
:1009C0009C915C970E94F803B1E04B1A51086108B2
:1009D00071088111E5CF81E090E0F8019383828373
:1009E00080E090E05BC182FF0EC0F8014285538534
:1009F00064857585C388D488E588F6884C155D05BF
:100A00006E057F05E9F4D8011A964D915D916D91BF
:100A10007C911D975B96ED91FC915C979481915030
:100A20006A017B0189E0F694E794D794C7948A958C
:100A3000D1F79C217A01B1E0FB22911173C027C04C
:100A4000D801038CF48DE02DC114D104E104F1042C
:100A500009F072CF16961D921D921D921C92199745
:100A60001A961D921D921D921C921D9714C0452B23
:100A7000462B472B09F485CF84199509A609B70998
:100A800089CFF801C286D386E486F586BCCFE1140F
:100A9000F10409F047C0D80116964D915D916D9112
:100AA0007C911997411551056105710559F45796C7
:100AB0008D919D910D90BC91A02D0097A105B10540
:100AC00049F522C09E012F5F3F4FCF010E94F803DE
:100AD000882309F485CF89819A81AB81BC81F80193
:100AE000238D348DF9012789203129F448EF5FEFF8
:100AF00060E070E004C048EF5FEF6FEF7FE08417C5
:100B00009507A607B70730F0C8010E94B30B811103
:100B100006C061CFF80186839783A087B187E12C57
:100B2000F12C90E0D8015B96ED91FC915C971696C4
:100B30004D905D906D907C901997B2E04B1A5108E2
:100B400061087108058404C0440C551C661C771CA0
:100B50000A94D2F74685578560897189440E551EDF
:100B6000661E771E490E511C611C711CE114F104B4
:100B700009F5F801428553856485758583899489D3
:100B8000A589B689481759076A077B0798F00E941C
:100B90003B02882309F41FCF4092000150920101CB
:100BA00060920201709203018091920281608093B1
:100BB000920208C041E0C301B2010E947202882380
:100BC00009F409CFF701E956FD4F8D818083F801C3
:100BD00082859385A485B5850196A11DB11D828767
:100BE0009387A487B587438954896589768948178F
:100BF00059076A077B0738F4838B948BA58BB68BD8
:100C0000848180688483D80114968C9183FD03C00D
:100C100081E090E043C0F8019581992309F4DBCE8F
:100C200087FF37C0668577858089918941E00E947A
:100C30007202882309F4CFCED8015296EC91B0E22B
:100C4000EB9FF0011124E956FD4F309709F4C3CE14
:100C5000D80115968C911597823050F453964D918A
:100C60005D916D917C915697448F558F668F778FEC
:100C7000D80157964D915D916D917C915A97538F04
:100C8000428F758B648B14968C9114978F77149682
:100C90008C930E943B028111BBCF9DCE0F900F9091
:100CA0000F900F900F90DF91CF911F910F91FF90B8
:100CB000EF90DF90CF90BF90AF907F906F905F905C
:100CC0004F9008950F931F93CF93DF93EC01062F5E
:100CD000142F60E088890E94B60C8C859D850E9447
:100CE0002B01802F0E942101812F0E942101182FAA
:100CF00061E088890E94B60C812FDF91CF911F910E
:100D00000F9108956F7740E00C9462060F931F9344
:100D1000CF93DF93EC01E881F9810084F185E02D28
:100D20000995892B91F06DE0CE010E948206082F73
:100D300060E0CE010E948206182F402F6DE8CE01A0
:100D40000E946206812F90E002C08FEF9FEFDF913B
:100D5000CF911F910F910895CF93DF93EC01E8811C
:100D6000F9810084F185E02D0995892B59F08A8D50
:100D70009B8D01969B8F8A8F60E0CE010E94820638
:100D800090E002C08FEF9FEFDF91CF910895CF9356
:100D9000DF93EC0163E10E94820690E02A8D3B8D97
:100DA000821B930BDF91CF910895AF92BF92CF92A8
:100DB000DF92FF920F931F93CF93DF936C015B0140
:100DC000EA0162E20E948206F82E90E09C012C0F5C
:100DD0003D1F2F3F310529F020F0CFEFD0E0C81B99
:100DE000D90B8501AC0EBD1E0A151B0541F0F8019B
:100DF00041918F0160E8C6010E946206F5CF4C2F39
:100E00004F0D62EAC6010E946206CE01DF91CF91CA
:100E10001F910F91FF90DF90CF90BF90AF900895FA
:100E20000E941F0B0E941F0B0C941F0B6F927F924E
:100E30008F929F92AF92BF92CF92DF92EF92FF92EA
:100E40000F931F93CF93DF9388E8E82E82E0F82E6C
:100E500090E8892E92E0992EC1E0D0E023E8622E3E
:100E600021E0722E0EEC16E03AE0A32EB12C4CE6F7
:100E7000C42E41E0D42EF701819191917F01F401BC
:100E8000029701F580819181B5010E9490149F9392
:100E90008F937F936F93DF93CF93DF92CF921F93C4
:100EA0000F930E94C3148EEC96E00E94240B0E94C4
:100EB0001007EDB7FEB73A960FB6F894FEBF0FBE17
:100EC000EDBF1AC081818F9380818F93DF93CF9381
:100ED0007F926F921F930F930E94C3148EEC96E043
:100EE0000E94240B0E941007EDB7FEB738960FB68C
:100EF000F894FEBF0FBEEDBF2196F2E08F0E911C5D
:100F0000C530D10509F0B7CF10927F0210927E0252
:100F1000DF91CF911F910F91FF90EF90DF90CF90D5
:100F2000BF90AF909F908F907F906F900895E0E872
:100F3000F2E0A6E7B2E08D919C91119791838083B6
:100F400012968D919C9113979383828314968D9121
:100F50009C911597958384830C941607E6E7F2E03D
:100F6000A0E8B2E08D919C911197918380831296B5
:100F70008D919C9113979383828314968D919C916C
:100F80001597958384830C941607E0917E02F09167
:100F90007F023197EE0FFF1FDF01A857BD4F8D91E4
:100FA0009C91E058FD4F8230910509F58081918137
:100FB0006AE070E00E9490149F938F937F936F93E9
:100FC00087E991E09F938F938EEC96E09F938F93A8
:100FD0000E94C3148EEC96E00E94240B8DB79EB73E
:100FE00008960FB6F8949EBF0FBE8DBF21C0019723
:100FF00039F481818F9380818F938CEA91E006C0D0
:1010000081818F9380818F938FEB91E09F938F935A
:101010008EEC96E09F938F930E94C3148EEC96E023
:101020000E94240B0F900F900F900F900F900F9035
:101030000C94100780917E0290917F020197880F97
:10104000991FFC01E857FD4F208131812230310585
:1010500029F421E030E03183208306C021303105BE
:1010600019F4118210820BC0FC01E058FD4F808101
:1010700091816AE070E00E949014718360830C9407
:10108000C507E0917E02F0917F023197EE0FFF1FBE
:10109000DF01A857BD4F2D913C91119722303105AA
:1010A00039F486EC90E00E94360B0E94100715C0C0
:1010B0002130310521F422E030E02D933C93E058BB
:1010C000FD4F408151816AE0649F9001659F300D22
:1010D0001124820F931F918380830C94C50789E0AC
:1010E00090E00C94410888E090E00C94410887E07F
:1010F00090E00C94410886E090E00C94410885E073
:1011000090E00C94410884E090E00C94410883E066
:1011100090E00C94410882E090E00C94410881E05A
:1011200090E00C94410880E090E00C944108E0913C
:101130007E02F0917F02EE0FFF1FEA57FD4F808184
:101140009181892B39F086EC90E00E94360B0E9449
:10115000100704C081E090E0918380830C94C50760
:10116000CF92DF92EF92FF920F931F93CF93DF9373
:101170008FEA90E00E94360B0E9410070BE010E00F
:101180000150110909F472C041E861E888E395E073
:101190000E9462060E94510B40E06DE888E395E0F2
:1011A0000E94620640E062EA88E395E00E946206DF
:1011B0006BEB88E395E00E940B01C0E8D2E088E881
:1011C000E82E82E0F82E6E01688188E395E00E94A7
:1011D0000B012296F601618188E395E00E940B01E4
:1011E000F7016081F2E0EF0EF11C88E395E00E94C8
:1011F0000B0182E0C838D80731F743E861E888E39B
:1012000095E00E94620662E188E395E00E94820612
:1012100083FFF9CF48E062E988E395E00E94620627
:1012200062E370E080E090E00E943F0D0E94610B5D
:10123000892B09F4A5CFC0E088E395E00E94C7069A
:10124000892B21F4CC2309F49BCF10C088E395E0CF
:101250000E94AC068C3B910579F788E395E00E94EB
:10126000AC068F3F910541F7C1E0E6CFDF91CF910A
:101270001F910F91FF90EF90DF90CF90089584E041
:1012800090E090937F0280937E028CE990E00E9430
:10129000360B0E9410070C94C50783E090E09093F2
:1012A0007F0280937E028BE890E00E94360B0E94C2
:1012B00010070C94C50782E090E090937F02809322
:1012C0007E028AE790E00E94360B0E9410070C9481
:1012D000C50781E090E090937F0280937E0288E6CC
:1012E00090E00E94360B0E9410070C94C5070895E9
:1012F000CF92DF92EF92FF920F931F93CF93DF93E2
:101300006C017A018B01C0E0D0E0CE15DF0581F0E1
:10131000D8016D918D01D601ED91FC910190F08184
:10132000E02DC6010995892B11F02196EECF7E01A3
:10133000C701DF91CF911F910F91FF90EF90DF9048
:10134000CF900895FC01538D448D252F30E0842FDC
:1013500090E0821B930B541710F0CF9608950197DD
:10136000089589E994E00E94EE0021E0892B09F4B8
:1013700020E0822F08950E94BE14EF92FF920F93F7
:101380001F93CF93DF93EC0181E0888F9B8D8C8D31
:10139000981305C0E889F989808185FD26C0F62E5D
:1013A0000B8D10E00F5F1F4F0F731127E02E8C8DF8
:1013B000E8120CC00FB607FCFACFE889F9898081E2
:1013C00085FFF5CFCE010E942B03F1CF8B8DFE015F
:1013D000E80FF11DE35AFF4FF0829FB7F8940B8F8F
:1013E000EA89FB89808180620AC09FB7F894EE8900
:1013F000FF896083E889F9898081837080648083B4
:101400009FBF81E090E0DF91CF911F910F91FF90FE
:10141000EF900895CF93DF93EC01888D8823C9F076
:10142000EA89FB89808185FD05C0A889B9898C91ED
:1014300086FD0FC00FB607FCF5CF808185FFF2CF88
:10144000A889B9898C9185FFEDCFCE010E942B032D
:10145000E7CFDF91CF9108951F920F920FB60F92B1
:1014600011242F933F934F935F936F937F938F93A9
:101470009F93AF93BF93EF93FF93E0910601F09199
:1014800007010995FF91EF91BF91AF919F918F91C6
:101490007F916F915F914F913F912F910F900FBE70
:1014A0000F901F9018951F920F920FB60F92112454
:1014B0002F933F934F935F936F937F938F939F935C
:1014C000AF93BF93EF93FF93E0910401F091050177
:1014D0000995FF91EF91BF91AF919F918F917F916E
:1014E0006F915F914F913F912F910F900FBE0F9091
:1014F0001F9018951F920F920FB60F9211242F93E1
:101500003F934F935F936F937F938F939F93AF938B
:10151000BF93EF93FF9389E994E00E942B03FF911F
:10152000EF91BF91AF919F918F917F916F915F915B
:101530004F913F912F910F900FBE0F901F901895D4
:101540001F920F920FB60F9211242F938F939F9398
:10155000EF93FF93E091A904F091AA048081E091B8
:10156000AF04F091B00482FD12C090818091B2046A
:101570008F5F8F732091B304821751F0E091B20412
:10158000F0E0E756FB4F958F8093B20401C0808155
:10159000FF91EF919F918F912F910F900FBE0F9020
:1015A0001F9018953FB7F89480911A0790911B07E8
:1015B000A0911C07B0911D0726B5A89B05C02F3F21
:1015C00019F00196A11DB11D3FBFBA2FA92F982F69
:1015D0008827820F911DA11DB11DBC01CD0142E0E4
:1015E000660F771F881F991F4A95D1F70895E9E97B
:1015F000F4E0A089B18982E08C93A485B5851C9222
:10160000A685B7858FEC8C93108EA489B58986E06A
:101610008C93A289B3898C9180618C93A289B389C0
:101620008C9188608C93A289B3898C9180688C930B
:101630000288F389E02D80818F7D808308956FEF8C
:1016400089E994E00C94BD09009769F0FC010190D0
:101650000020E9F73197AF01481B590BBC0189E91C
:1016600094E00C94780980E090E008950F931F9324
:10167000CF93DF938C01C0E0D0E0F801EC0FFD1FA9
:101680006491662341F089E994E00E94BD09892BA9
:1016900011F02196F2CFCE01DF91CF911F910F91E2
:1016A000089510925505109254056DE188E395E078
:1016B0000E948206482F4E7F6DE988E395E00C94E6
:1016C0006206CF93DF9362E188E395E00E94820691
:1016D000C82F0E94510B4C2F62E988E395E00E94CD
:1016E0006206C6FF27C0C5FD25C0109253051092A3
:1016F00052058091540590915505892B11F062E2B5
:1017000001C063E188E395E00E948206C82FD0E023
:1017100060E188E395E00E948206482F6DE888E347
:1017200095E00E94620641E861E888E395E00E9446
:10173000620615C061E088E395E00E948206863863
:1017400061F040E06DE888E395E00E94620646E8BB
:1017500061E888E395E00E946206C0E0D0E0CE0137
:10176000DF91CF9108953F924F925F926F927F9257
:101770008F929F92AF92BF92CF92DF92EF92FF92A1
:101780000F931F93CF93DF93CDB7DEB72C970FB690
:10179000F894DEBF0FBECDBF5C01DC015B968D907F
:1017A0009C905C971696CD90DD90ED90FC901997EB
:1017B000C114D104E104F10439F0BFEFCB1ADB0A04
:1017C000EB0AFB0A312C07C0F401C080D180E28013
:1017D000F38033243394F40181859285A385B48505
:1017E0009C01AD012F5F3F4F4F4F5F4F29873A87D5
:1017F0004B875C87260137011D821E821F82188657
:10180000F40181859285A385B4852D813E814F8128
:101810005885281739074A075B0708F063C0898590
:101820009A85AB85BC858C159D05AE05BF0550F42A
:1018300082E0C82ED12CE12CF12C92E0492E512CC3
:10184000612C712C9E012F5F3F4FB701A601C4018F
:101850000E94F803882309F445C089819A81AB81ED
:10186000BC81892B8A2B8B2B41F0260137019FEFFE
:10187000491A590A690A790A05C0C414D504E6044C
:10188000F70491F02D813E814F8158852F5F3F4FA6
:101890004F4F5F4F2D833E834F8358873FEFC31ACF
:1018A000D30AE30AF30AACCF0FEF1FEF2FEF3FE0AD
:1018B000B301A201C4010E945703882399F0D50106
:1018C00016964D915D916D917C9119974115510539
:1018D0006105710549F093018201C4010E9457031B
:1018E000811102C080E02AC0D50116964D925D920A
:1018F0006D927C921997332051F0D301C201019669
:10190000A11DB11DF40180839183A283B383F501EE
:101910008789908DA18DB28D892B8A2B8B2B69F4B1
:10192000D50157964D925D926D927C925A9714967E
:101930008C911497806814968C9381E02C960FB646
:10194000F894DEBF0FBECDBFDF91CF911F910F91F5
:10195000FF90EF90DF90CF90BF90AF909F908F90CF
:101960007F906F905F904F903F90089590E0FC01C2
:10197000E35DFE4F2491FC01E75EFE4F3491FC01D4
:10198000EB5FFE4FE491EE2309F43CC0222339F1D2
:10199000233091F038F42130A9F0223001F584B5DC
:1019A0008F7D12C0273091F02830A1F02430B9F497
:1019B000809180008F7D03C0809180008F7780931D
:1019C00080000DC084B58F7784BD09C08091B000C0
:1019D0008F7703C08091B0008F7D8093B000F0E0DE
:1019E000EE0FFF1FE550FF4FA591B4919FB7F894FC
:1019F000611104C08C913095382302C0EC913E2BCC
:101A00003C939FBF0895CF93DF9390E0FC01E75E86
:101A1000FE4F2491FC01EB5FFE4F8491882361F11E
:101A200090E0880F991FFC01EF50FF4FC591D491B2
:101A3000FC01E550FF4FA591B491611109C09FB71A
:101A4000F8948881209582238883EC912E230BC003
:101A5000623061F49FB7F8948881322F30958323E8
:101A60008883EC912E2B2C939FBF06C08FB7F894E0
:101A7000E8812E2B28838FBFDF91CF9108958F921D
:101A80009F92AF92BF92CF92DF92EF92FF926B0143
:101A90007C010E94D20A4B015C01C114D104E10413
:101AA000F104F1F00E94D20ADC01CB0188199909F6
:101AB000AA09BB09883E9340A105B10570F321E056
:101AC000C21AD108E108F10888EE880E83E0981E5A
:101AD000A11CB11CC114D104E104F10419F7DDCF3C
:101AE000FF90EF90DF90CF90BF90AF909F908F903E
:101AF00008952FB7F8946091160770911707809199
:101B00001807909119072FBF08951F920F920FB6D3
:101B10000F9211242F933F938F939F93AF93BF9373
:101B20008091160790911707A0911807B091190797
:101B30003091150723E0230F2D3720F40196A11DC6
:101B4000B11D05C026E8230F0296A11DB11D2093EB
:101B500015078093160790931707A0931807B09363
:101B6000190780911A0790911B07A0911C07B0914B
:101B70001D070196A11DB11D80931A0790931B07A5
:101B8000A0931C07B0931D07BF91AF919F918F91B8
:101B90003F912F910F900FBE0F901F901895CF93EC
:101BA000DF93EC0189E994E00E94EE00892B29F093
:101BB00089E994E00E94CC00F5CFCE010E94240B6D
:101BC0000E941F0B0E941F0BDF91CF910C941F0BE3
:101BD000E9E9F4E01382128288EE93E0A0E0B0E03D
:101BE00084839583A683B78380E491E09183808387
:101BF00085EC90E09587848784EC90E097878687D2
:101C000080EC90E0918B808B81EC90E0938B828BC9
:101C100082EC90E0958B848B86EC90E0978B868BA2
:101C2000118E128E138E148EE6E3F5E080E580832C
:101C30001182E4E8F6E0158216821186138642E0EE
:101C400050E060E070E0448755876687778713A28D
:101C500015A614A622E531E033A722A717A6E8E3CC
:101C6000F5E0138212822EE531E0318320838487F0
:101C700081E085872DEC36E0378726872AE030E043
:101C8000318B208B29E030E0338B228B22E030E057
:101C9000358B248B168A178A108E118E138E128E16
:101CA000158E148E178E168E148215821682178248
:101CB000E8E7F6E01082118221ED31E033832283E0
:101CC0001582148211861086138612861782168258
:101CD000ECE6F6E01082818327ED31E03383228346
:101CE0001582148211861086138612861782168238
:101CF000E0E6F6E0108262E061832CED31E03383B0
:101D0000228315821482118610861386128617820A
:101D10001682E4E5F6E0108253E0518321EE31E0D3
:101D200033832283158214821186108613861286CD
:101D300017821682E8E4F6E010827FE0718326EED7
:101D400031E0338322831582148211861086138634
:101D5000128617821682ECE3F6E0108246E0418399
:101D60002BEE31E033832283158214821186108694
:101D70001386128617821682E0E3F6E0108237E0BF
:101D80003183A5EFB1E0B383A2831582148211865B
:101D900010861386128617821682E4E2F6E010821D
:101DA00028E02183AFEFB1E0B383A28315821482D0
:101DB000118610861386128617821682E8E1F6E0F5
:101DC000108290E19183A9E0B2E0B383A2831582EF
:101DD0001482118610861386128617821682ECE012
:101DE000F6E0108299E09183A3E1B2E0B383A2838D
:101DF0001582148211861086138612861782168227
:101E0000E0E0F6E080831182A8E1B2E0B383A28330
:101E10001582148211861086138612861782168206
:101E2000E4EFF5E08083ACE0A183AEE1B2E0B38300
:101E3000A283158214821186108613861286178259
:101E40001682E8EEF5E08083AEE0A183A1E2B2E085
:101E5000B383A2831582148211861086138612869C
:101E600017821682ECEDF5E080837183A8E2B2E080
:101E7000B383A2831582148211861086138612867C
:101E800017821682E0EDF5E080837DE07183ACE29D
:101E9000B2E0B383A2831582148211861086138662
:101EA000128617821682E4ECF5E080838183A1E339
:101EB000B2E0B383A2831582148211861086138642
:101EC000128617821682E8EBF5E08083618364E373
:101ED00072E07383628315821482118610861386E2
:101EE000128617821682ECEAF5E08083518367E35D
:101EF00072E07383628315821482118610861386C2
:101F0000128617821682E0EAF5E0808354E051835E
:101F10006AE372E0738362831582148211861086ED
:101F20001386128617821682E4E9F5E0808355E075
:101F300051836DE372E0738362831582148211868C
:101F400010861386128617821682E8E8F5E08083F1
:101F5000418340E452E05383428315821482118608
:101F600010861386128617821682ECE7F5E08083CE
:101F7000318343E452E053834283158214821186F5
:101F800010861386128617821682E0E7F5E08083BA
:101F9000218326E432E03383228315821482118662
:101FA00010861386128617821682E4E6F5E0808397
:101FB000918329E432E033832283158214821186CF
:101FC00010861386128617821682E8E5F5E0808374
:101FD0008AE081838CE492E0938382831582148269
:101FE00011861086138612861782168208957894B9
:101FF00084B5826084BD84B5816084BD85B582600E
:1020000085BD85B5816085BD80916E0081608093BE
:102010006E00109281008091810082608093810027
:102020008091810081608093810080918000816037
:10203000809380008091B10084608093B100809192
:10204000B00081608093B00080917A0084608093BA
:102050007A0080917A00826080937A0080917A0081
:10206000816080937A0080917A00806880937A0002
:102070001092C1000E94F70A8AE090E0909349050F
:102080008093480589E090E090934B0580934A0542
:1020900082E090E090934D0580934C0561E08AE0EA
:1020A0000E94030D61E0809148050E94B60C80916A
:1020B0004A0590914B058F3F2FEF9207C9F061E0E1
:1020C0000E94030D60E080914A050E94B60C6AE010
:1020D00070E080E090E00E943F0D61E080914A0551
:1020E0000E94B60C6AE070E080E090E00E943F0D34
:1020F000CFB7F89480910007811127C0EFE0F1E09D
:102100008491E3E2F1E09491E82FF0E0EE0FFF1FFD
:10211000EF50FF4FA591B491EC91E92321F461E0D8
:102120008AE00E94B60C61E08AE00E94030D8CB543
:1021300080618CBD8CB580648CBD61E08DE00E94B7
:10214000030D61E08BE00E94030D809100078F5F1B
:1021500080930007CFBF62E488E395E00E94820687
:10216000823109F098C140E861E888E395E00E9477
:10217000620680E091EAACEBB3E380934E05909366
:102180004F05A0935005B093510549ED66E888E3EB
:1021900095E00E94620640E067E888E395E00E94CF
:1021A000620640E068E888E395E00E94620640E04D
:1021B0006EE888E395E00E94620640E06FE888E3FD
:1021C00095E00E9462066CE088E395E00E9482063A
:1021D000482F43606CE888E395E00E94620644E083
:1021E00066EA88E395E00E9462064FE869E888E3C2
:1021F00095E00E94620641E861E888E395E00E946C
:10220000620660E083E00E94030D60E084E00E94CB
:10221000030D60E085E00E94030D60E083E10E9411
:10222000030D60E08EE00E94030D61E08FE00E94EC
:10223000030D0E94F70A8EEB91E00E94CF0D8FE410
:1022400092E00E94CF0D0E947B1387E592E00E94EE
:10225000CF0D0E947B1369E679E070937506609359
:1022600074068CE696E090937706809376064BE5AD
:1022700059E0509369064093680680E696E0909393
:102280006B0680936A062DE439E030935D06209357
:102290005C0684E596E090935F0680935E068FE38C
:1022A00099E09093510680935006E8E4F6E0F093AD
:1022B0005306E093520670934506609344066CE320
:1022C00076E0709347066093460650933906409334
:1022D000380640E356E050933B0640933A0630936D
:1022E0002D0620932C0624E236E030932F0620930F
:1022F0002E06909321068093200688E196E0909325
:1023000023068093220680EB98E090931106809339
:1023100010068CE096E090931306809312068EEAE6
:1023200097E09093FD058093FC0584EF95E09093F2
:10233000FF058093FE0587E997E09093F105809370
:10234000F00588EE95E09093F3058093F20587E918
:1023500098E09093E1058093E0058CED95E09093F3
:10236000E3058093E2058AE198E09093D505809398
:10237000D40580ED95E09093D7058093D60583E949
:1023800098E09093C9058093C80584EC95E09093FC
:10239000CB058093CA058FE898E09093BD058093A4
:1023A000BC0588EB95E09093BF058093BE058BE854
:1023B00098E09093B1058093B0058CEA95E09093F6
:1023C000B3058093B20587E898E09093A5058093C4
:1023D000A40580EA95E09093A7058093A60583E87D
:1023E00098E0909399058093980584E995E09093FF
:1023F0009B0580939A058FE798E090938D058093D5
:102400008C0588E895E090938F0580938E058BE787
:1024100098E090938105809380058CE795E09093F8
:1024200083058093820587E798E0909375058093F4
:10243000740580E795E0909377058093760583E7B0
:1024400098E0909369058093680584E695E0909301
:102450006B0580936A058FE698E090935D05809305
:102460005C0588E595E090935F0580935E0558E0F4
:10247000652E57E0752E65E1A62E67E0B62E75E055
:10248000872E912CEEE5CE2EE2E0DE2ECEECD6E0CD
:102490000CE612E00FC0FFCF6AE070E080E090E051
:1024A0000E943F0D89E994E00E94CC00F82E85E659
:1024B000F81641F089E994E00E94EE00181619061A
:1024C0005CF33CC089E994E00E94EE00069794F327
:1024D000F092010742E0E42E47E0F42E89E994E00F
:1024E0000E94CC00F70181937F016E167F06B1F741
:1024F00010920807809105078F3FE1F6809106074B
:102500008F3FC1F6809107078F3FA1F640910407E6
:1025100050E060E070E09091030720910207E8E04E
:10252000F1E0A191B191109729F28C912813F9CF84
:1025300011968C9111979813F4CFBAC00E94610B39
:10254000892B09F4B2C083E0282E94E0392E25E0CF
:10255000522E36E0432E88E395E00E94C706892B71
:1025600009F4A3C088E395E00E94AC068C3B91057A
:1025700091F780910D0790910E0790930C0780932F
:102580000B0780910F079091100790930E0780938F
:102590000D07809111079091120790931007809377
:1025A0000F0780911307909114079093120780935F
:1025B00011076AE188E395E00E948206E82EF12C7B
:1025C00060914E0570914F05809150059091510595
:1025D0000E94FA1324E832EF4EE45EE40E94F31303
:1025E00087FD03C08DE990E002C084EA90E0E81A1C
:1025F000F90AF0921407E0921307EBE0F7E080E0AD
:1026000090E021913191820F931FAE16BF06C9F75A
:10261000B4010E9490147B01FF926F93DF92CF92DE
:10262000DF93CF930E94C3148EEC96E00E94240B9C
:102630000E9410070F900F900F900F900F900F9027
:102640008BEBE8168FEFF8061CF01F924F921AC022
:1026500022EAE2162FEFF2063CF01F925F921F93E0
:102660000F93DF93CF9312C0FEE8EF16FFEFFF0644
:102670003CF01F923F921F930F93DF93CF9306C0BE
:102680001F922F921F930F93DF93CF930E94C31437
:102690008EEC96E00E94240B0E9410070F900F9082
:1026A0000F900F900F900F9056CF0E94FA0002CF1C
:1026B000413051056105710561F41496ED91FC916D
:1026C0001597309709F4F6CE16968D919C91179731
:1026D00010C0452B462B472B09F0ECCE1896ED91F8
:1026E000FC911997309709F4E5CE1A968D919C913B
:1026F0001B970995DFCE8F929F92AF92BF92EF9278
:10270000FF920F931F93CF93DF9300D000D0CDB7EC
:10271000DEB719821A821B821C8284E690E0A0E058
:10272000B0E080939D0490939E04A0939F04B09387
:10273000A0048E010F5F1F4F7E0185E0E80EF11CA3
:102740000E94790D6093A1047093A2048093A30466
:102750009093A40489E994E00E94CC0097FF2CC0D8
:102760000E94790D8090A1049090A204A090A304EF
:10277000B090A404DC01CB0188199909AA09BB090E
:1027800080909D0490909E04A0909F04B090A0041F
:1027900088159905AA05BB05E8F28981813051F4B5
:1027A0008A818F3F39F48B818F3F21F481E09C81B6
:1027B0009F3F51F080E008C0F80181938F01EE1631
:1027C000FF0609F0BDCFE9CF0F900F900F900F904B
:1027D000DF91CF911F910F91FF90EF90BF90AF903D
:1027E0009F908F9008950E94351408F481E0089519
:1027F000E89409C097FB3EF490958095709561959B
:102800007F4F8F4F9F4F9923A9F0F92F96E9BB2750
:102810009395F695879577956795B795F111F8CFCC
:10282000FAF4BB0F11F460FF1BC06F5F7F4F8F4F37
:102830009F4F16C0882311F096E911C0772321F02D
:102840009EE8872F762F05C0662371F096E8862FC5
:1028500070E060E02AF09A95660F771F881FDAF71C
:10286000880F9695879597F90895990F0008550F49
:10287000AA0BE0E8FEEF16161706E807F907C0F006
:1028800012161306E407F50798F0621B730B840B0E
:10289000950B39F40A2661F0232B242B252B21F4E8
:1028A00008950A2609F4A140A6958FEF811D811D88
:1028B00008952F923F924F925F926F927F928F92E4
:1028C0009F92AF92BF92CF92DF92EF92FF920F93BF
:1028D0001F93CF93DF93CDB7DEB7CA1BDB0B0FB6C9
:1028E000F894DEBF0FBECDBF09942A883988488886
:1028F0005F846E847D848C849B84AA84B984C8841C
:10290000DF80EE80FD800C811B81AA81B981CE0F12
:10291000D11D0FB6F894DEBF0FBECDBFED010895F7
:1029200097FB072E16F4009407D077FD09D00E947C
:10293000A41407FC05D03EF4909581959F4F08950F
:10294000709561957F4F0895AA1BBB1B51E107C08D
:10295000AA1FBB1FA617B70710F0A61BB70B881F2F
:10296000991F5A95A9F780959095BC01CD010895BE
:10297000EE0FFF1F0590F491E02D099481E090E0A7
:10298000F8940C947617AEE0B0E0E9ECF4E10C9426
:1029900067140D891E8986E08C831A8309838FEF63
:1029A0009FE79E838D83AE01475E5F4F6F89788D71
:1029B000CE0101960E94E514EF81F885E00FF11F2A
:1029C00010822E96E4E00C948314ABE0B0E0EBEEC2
:1029D000F4E10C9459146C017B018A01FC0117820B
:1029E0001682838181FFCCC1CE0101963C01F601A4
:1029F0009381F70193FD859193FF81917F01882356
:102A000009F4BAC1853239F493FD859193FF819120
:102A10007F01853229F4B60190E00E94DC16E7CFF1
:102A2000912C212C312CFFE1F315D8F08B3279F069
:102A300038F4803279F08332A1F4232D20611DC057
:102A40008D3261F0803369F4232D216016C0832D0F
:102A50008260382EE32DE4603E2E2AC0F32DF8600C
:102A60001DC037FC2DC020ED280F2A3040F08E32DB
:102A7000B9F436FC81C1232D2064322E19C036FEF4
:102A800006C08AE0989E200D1124922E11C0EAE023
:102A90002E9E200D1124222EF32DF0623F2E08C011
:102AA0008C3621F4832D8068382E02C0883641F49C
:102AB000F70193FD859193FF81917F018111B3CF40
:102AC000982F9F7D9554933028F40C5F1F4F9FE300
:102AD00099830DC0833631F0833771F0833509F067
:102AE00059C021C0F801808189830E5F1F4F88245F
:102AF0008394912C530113C02801F2E04F0E511C16
:102B0000F801A080B18036FE03C0692D70E002C0DC
:102B10006FEF7FEFC5010E94D1164C018201F32DAA
:102B2000FF773F2E16C0280122E0420E511CF8010B
:102B3000A080B18036FE03C0692D70E002C06FEF47
:102B40007FEFC5010E94C6164C01F32DF0683F2EA1
:102B5000820133FC1BC0822D90E088169906B0F4E8
:102B6000B60180E290E00E94DC162A94F4CFF501D1
:102B700037FC859137FE81915F01B60190E00E949C
:102B8000DC1621102A9421E0821A91088114910404
:102B900071F7E8C0843611F0893641F5F80137FE47
:102BA00007C060817181828193810C5F1F4F08C0D3
:102BB00060817181072E000C880B990B0E5F1F4FEF
:102BC000F32DFF763F2E97FF09C090958095709565
:102BD00061957F4F8F4F9F4FF0683F2E2AE030E086
:102BE000A3010E941817882E861845C0853731F436
:102BF000232D2F7EB22E2AE030E025C0932D997F21
:102C0000B92E8F36C1F018F4883579F0B5C0803709
:102C100019F0883721F0B0C0E92FE061BE2EB4FE74
:102C20000DC0FB2DF460BF2E09C034FE0AC0292F51
:102C30002660B22E06C028E030E005C020E130E07A
:102C400002C020E132E0F801B7FE07C06081718167
:102C5000828193810C5F1F4F06C06081718180E08B
:102C600090E00E5F1F4FA3010E941817882E861850
:102C7000FB2DFF773F2E36FE0DC0232D2E7FA22E7B
:102C8000891458F434FE0BC032FC09C0832D8E7EAB
:102C9000A82E05C0B82CA32C03C0B82C01C0B92C99
:102CA000A4FE0FC0FE01E80DF11D8081803321F4E8
:102CB0009A2D997EA92E09C0A2FE06C0B394B394A2
:102CC00004C08A2D867809F0B394A3FC11C0A0FE3D
:102CD00006C0B21488F4280C922C9B180EC0B214B3
:102CE00060F4B60180E290E00E94DC16B394F7CF66
:102CF000B21418F42B1802C0982C212CA4FE10C07A
:102D0000B60180E390E00E94DC16A2FE17C0A1FC91
:102D100003C088E790E002C088E590E0B6010CC0EF
:102D20008A2D867859F0A1FE02C08BE201C080E2B4
:102D3000A7FC8DE2B60190E00E94DC16891438F4FD
:102D4000B60180E390E00E94DC169A94F7CF8A9453
:102D5000F301E80DF11D8081B60190E00E94DC16C0
:102D60008110F5CF222009F442CEB60180E290E036
:102D70000E94DC162A94F6CFF6018681978102C064
:102D80008FEF9FEF2B96E2E10C947514FC010590F8
:102D9000615070400110D8F7809590958E0F9F1F5D
:102DA0000895FC016150704001900110D8F78095A2
:102DB00090958E0F9F1F08950F931F93CF93DF93CE
:102DC000FB01238121FD03C08FEF9FEF2CC022FF69
:102DD00016C046815781248135814217530744F438
:102DE000A081B1819D012F5F3F4F318320838C9360
:102DF000268137812F5F3F4F3783268314C08B0195
:102E0000EC01FB010084F185E02D0995892BE1F6A9
:102E1000D80116968D919C911797019617969C93C1
:102E20008E931697CE01DF91CF911F910F91089548
:102E3000FA01AA27283051F1203181F1E8946F93EB
:102E40006E7F6E5F7F4F8F4F9F4FAF4FB1E03ED091
:102E5000B4E03CD0670F781F891F9A1FA11D680F2F
:102E6000791F8A1F911DA11D6A0F711D811D911D62
:102E7000A11D20D009F468943F912AE0269F1124D7
:102E80003019305D3193DEF6CF010895462F47703B
:102E9000405D4193B3E00FD0C9F7F6CF462F4F7096
:102EA000405D4A3318F0495D31FD4052419302D0F4
:102EB000A9F7EACFB4E0A69597958795779567959A
:102EC000BA95C9F700976105710508959B01AC019A
:102ED0000A2E06945795479537952795BA95C9F7C1
:102EE000620F731F841F951FA01D0895F894FFCFD4
:102EF000FFFFFFFF7709770978066C066006540626
:102F000048063C063006240618060C060006F405A2
:102F1000E805DC05D005C405B805AC05A005940599
:102F200088057C0570056405580500000000000058
:102F3000BD097809A2090A0AEE00CC00E0000000F1
:102F400000007B0478092F012E01000000000B0116
:102F5000D5062F010A01C706AC06860667617325F0
:102F60006976616C75652E7478743D2225692C250F
:102F7000692200676173256976616C75652E7478C6
:102F8000743D222569220067617356616C75652E58
:102F90007478743D2225692C256922006761735677
:102FA000616C75652E7478743D2225692C2200674A
:102FB000617356616C75652E7478743D22256922A3
:102FC000007061676530006761733100676173325B
:102FD0000067617333006761733400676173317632
:102FE000616C7565006761733276616C7565006749
:102FF00061733376616C7565006761733476616CFB
:1030000075650073656E64007061676531006F6B94
:103010000063616E63656C00646F74006261636B72
:1030200000623000623100623200623300623400BC
:103030006235006236006237006238006239006231
:103040006B636D643D3100706167652030007369AA
:10305000676E616C2E76616C3D25690070302E7054
:0630600069633D256900D3
:00000001FF
