:100000000C9430010C94CD0D0C94A60D0C94DB03D4
:100010000C94DB030C94DB030C9458010C945801F2
:100020000C9458010C9458010C9458010C945801EC
:100030000C9458010C9458010C9458010C945801DC
:100040000C942C110C9458010C941A0E0C94F40D71
:100050000C9458010C9458010C9458010C945801BC
:100060000C9458010C945801676173546578742E90
:100070007478743D22434834220067617354657874
:10008000742E7478743D224F322200676173546578
:1000900078742E7478743D22434F22006761735444
:1000A0006578742E7478743D224942555422006D4F
:1000B0006573736167652E7478743D224461746161
:1000C0002073656E742122006D6573736167652E00
:1000D0007478743D224E6F2061636B6E6F776C6530
:1000E0006467656D656E74207265636569766564C5
:1000F0002E205472616E736D697373696F6E206D1B
:10010000696768742068617665206661696C6564FA
:100110002E220067302E7478743D2253656E742051
:1001200065786563757465642200747265735465DF
:1001300078742E7478743D224348342200747265BA
:1001400073546578742E7478743D224F3222007493
:10015000726573546578742E7478743D22434F220F
:100160000074726573546578742E7478743D2249F6
:1001700042555422007061676520300070616765E8
:10018000203500706167652030007061676520353B
:10019000006572726F724D6573736167652E747856
:1001A000743D22446563696D616C20697320616CE4
:1001B0007265616479207365742E220070616765D1
:1001C0002033006D6573736167652E7478743D220A
:1001D0004E6F2061636B6E6F776C656467656D65EC
:1001E0006E742072656365697665642E2054726151
:1001F0006E736D697373696F6E206D6967687420C3
:1002000068617665206661696C65642E2200000075
:100210000000240027002A0000000000250028001C
:100220002B00040404040404040402020202020277
:1002300003030303030301020408102040800102AA
:100240000408102001020408102000000008000229
:1002500001000003040700000000000000008F11EF
:1002600011241FBECFEFD8E0DEBFCDBF13E0A0E06A
:10027000B1E0E0E6F8E302C005900D92A430B107CA
:10028000D9F728E0A4E0B3E001C01D92A433B2077F
:10029000E1F711E0C0E3D1E004C02197FE010E9424
:1002A0007019CF32D107C9F70E9404140C942E1C88
:1002B0000C940000FC01918D828D981761F0828D65
:1002C000DF01A80FB11D5D968C91928D9F5F9F738A
:1002D000928F90E008958FEF9FEF0895FC01918D2C
:1002E000828D981731F0828DE80FF11D858D90E099
:1002F00008958FEF9FEF0895FC01918D228D892F36
:1003000090E0805C9F4F821B91098F73992708951D
:1003100080E090E0892B29F00E942B0D81110C9434
:10032000000008958FB7F894809118038FBF089547
:100330000895CF93DF931F92CDB7DEB76983DC01B9
:10034000ED91FC910280F381E02D41E050E0BE018F
:100350006F5F7F4F09950F90DF91CF9108958EBD0C
:1003600000000DB407FEFDCF8EB508958FEF0C94FD
:10037000AF018CBD9DBD0895089580E090E0089583
:100380000F931F93CF93DF93EB010E9420118B01FA
:100390000E94B6018F3F49F00E942011601B710B33
:1003A0006C177D07A8F380E001C081E0DF91CF9159
:1003B0001F910F91089561E0FC0184810E945D10FE
:1003C000809119038111109219030895CF93DF933F
:1003D000EC018E81882389F08F8198859C012F5FA5
:1003E0003F4F38872F838230924018F40E94B60125
:1003F000F3CFCE010E94DB011E82DF91CF910895E1
:100400008F929F92AF92BF92FF920F931F93CF93C1
:10041000DF93EC01F62E49015A010E94E60180911A
:100420001903811109C081E0809319038091BE05F1
:100430009091BF050E94B90160E08C810E945D101F
:100440006CE271E0CE010E94C0018F2D80640E9499
:10045000AF0108E110E0D501C401002E04C0B6953B
:10046000A795979587950A94D2F70E94AF010850F7
:100470001109083F8FEF180771F7FF2029F088E076
:10048000F81204C087E803C085E901C08FEF0E941D
:10049000AF0110E00E94B6018A8787FF04C01F3FAA
:1004A00011F01F5FF7CFDF91CF911F910F91FF9058
:1004B000BF90AF909F908F900895EF92FF920F930F
:1004C0001F93CF93DF93EC0179014115510561052D
:1004D000710511F482E13CC08B85833039F089E0ED
:1004E000440F551F661F771F8A95D1F79A01AB01FC
:1004F00068E1CE010E940002882311F084E028C048
:100500008EEF0E94AF0187018EEFF81AF8018191FA
:100510008F010E94AF01E016F106C1F78FEF0E9434
:10052000AF018FEF0E94AF010E94B6018A878F71E1
:10053000853031F081E18D83CE010E94DB0109C05D
:1005400068E572E0CE010E94C001811107C085E11B
:100550008D83CE010E94DB0180E014C020E030E0FA
:10056000A9016DE0CE010E940002811109C00E9424
:10057000B601811105C0CE010E94DB0181E002C0FD
:1005800084E1E6CFDF91CF911F910F91FF90EF9023
:10059000089580911A03882389F1409100015091B8
:1005A000010160910201709103012FE133E080E0CD
:1005B00090E00E945D02811102C080E008954091A8
:1005C0001B0350911C0360911D0370911E03411584
:1005D00051056105710581F02FE133E080E090E085
:1005E0000E945D02882349F310921B0310921C03A2
:1005F00010921D0310921E0310921A0381E00895B9
:10060000AF92BF92CF92DF92EF92FF921F93CF9360
:10061000DF936B017C01142F809100019091010107
:10062000A0910201B09103018C159D05AE05BF0597
:1006300009F48FC00E94C902882309F490C08091F8
:1006400006008823A1F08091000090910100A09104
:100650000200B0910300C816D906EA06FB0639F479
:100660008091070090910800892B09F443C0C09243
:100670000000D0920100E0920200F092030080910D
:100680000B00A7019601833039F099E0220F331F48
:10069000441F551F9A95D1F761E180E090E00E94D8
:1006A0000002882321F083E08093050044C00E946B
:1006B0002011EB010E94B60180930A008F3F49F49C
:1006C0000E9420116C1B7D0B6D32714098F38FE0FE
:1006D00003C08E3F41F08DE08093050080E090E004
:1006E0000E94DB0128C0109208001092070081E0F0
:1006F00080930600CFE1D3E08FE1A82E85E0B82EED
:100700000E94B6018993AC16BD06D1F7809107000F
:10071000909108009E5F90930800809307002091BD
:100720000900222319F08115924058F080E090E0F2
:100730000E94E60106C080E090E00E94DB0180E0BC
:100740000EC0C0920001D0920101E0920201F0922D
:10075000030140911A03412B40931A0381E0DF917A
:10076000CF911F91FF90EF90DF90CF90BF90AF900F
:100770000895FC01848DDF01A80FB11DA35ABF4F5E
:100780002C91848D90E001968F739927848FA68990
:10079000B7892C93A089B1898C91837080648C93E4
:1007A000938D848D981306C00288F389E02D808193
:1007B0008F7D808308951F920F920FB60F921124A0
:1007C0000F900FBE0F901F9018954F925F926F92EF
:1007D0007F928F929F92AF92BF92CF92DF92EF92D1
:1007E000FF920F931F93CF93DF93EC01423051059B
:1007F0006105710510F480E078C089859A85AB8524
:10080000BC850196A11DB11D84179507A607B707E2
:1008100090F3CB88DC88ED88FE888F89803129F4BD
:10082000BB27A72F962F852F09C0DB01CA01E7E060
:10083000B695A79597958795EA95D1F748015901FF
:100840002A013B01C80ED91EEA1EFB1E8091000141
:1008500090910101A0910201B0910301C816D9063F
:10086000EA06FB0681F48F898031A9F4B301A20165
:10087000552766277727440F551FFA01E15EFC4F85
:100880009182808219C040E0C701B6010E94000336
:100890008111E9CFB0CFB301A2014F775527662769
:1008A0007727440F551F440F551FFA01E15EFC4F97
:1008B00080829182A282B38280911A0381608093A8
:1008C0001A038A89823080F08D819E81AF81B8853C
:1008D000C80ED91EEA1EFB1EC0921B03D0921C0339
:1008E000E0921D03F0921E0381E0DF91CF911F91F2
:1008F0000F91FF90EF90DF90CF90BF90AF909F90BF
:100900008F907F906F905F904F9008958F929F92FD
:10091000AF92BF92CF92DF92EF92FF920F931F930D
:10092000CF93DF93FC0181859285A385B4850196E1
:10093000A11DB11D84179507A607B70710F480E025
:100940005BC083889488A588B6888789803129F41C
:10095000BB27A72F962F852F09C0DB01CA01C7E04F
:10096000B695A79597958795CA95D1F7E9016A013C
:100970007B018F01BC01CD01680D791D8A1D9B1D76
:100980008090000190900101A0900201B0900301BD
:10099000681579058A059B0591F4F80187898031EE
:1009A000A1F4DD24EE24FF24C601880F991FFC0169
:1009B000E15EFC4F80819181A0E0B0E018C040E092
:1009C0000E9400038111E9CFBACFE894C7F8DD2473
:1009D000EE24FF24C601880F991F880F991FFC0180
:1009E000E15EFC4F80819181A281B381BF708883D9
:1009F0009983AA83BB8381E0DF91CF911F910F91EF
:100A0000FF90EF90DF90CF90BF90AF909F908F902E
:100A100008954F925F926F927F92AF92BF92CF9262
:100A2000DF92EF92FF920F931F93CF93DF9300D04B
:100A300000D01F92CDB7DEB78C016D83DC01159617
:100A40008C911597813009F054C014968C9181FFD8
:100A500050C057C0258530E0275F3F4F2A013B013A
:100A6000B1E04B1A510861087108022E04C0769457
:100A70006794579447940A94D2F7D701C601019717
:100A8000A109B10904C0B695A795979587952A95B0
:100A9000D2F784159505A605B70508F076C0F801CC
:100AA0004789508D618D728D46835783608771872A
:100AB0002C013D015801F6E0AF0EB11C4114510468
:100AC0006104710409F46BC0D80116964D915D91D3
:100AD0006D917C91199795015B968D919C915C9796
:100AE0000E948604B1E04B1A510861087108811117
:100AF000E5CF81E090E0F8019383828380E090E08D
:100B00005BC182FF0EC0F8014285538564857585FF
:100B1000C388D488E588F6884C155D056E057F0589
:100B2000E9F4D8011A964D915D916D917C911D97D4
:100B30005B96ED91FC915C97948191506A017B01E9
:100B400089E0F694E794D794C7948A95D1F79C21CD
:100B50007A01B1E0FB22911173C027C0D801038C48
:100B6000F48DE02DC114D104E104F10409F072CF39
:100B700016961D921D921D921C9219971A961D92FF
:100B80001D921D921C921D9714C0452B462B472B7E
:100B900009F485CF84199509A609B70989CFF80109
:100BA000C286D386E486F586BCCFE114F10409F051
:100BB00047C0D80116964D915D916D917C91199722
:100BC000411551056105710559F457968D919D9117
:100BD0000D90BC91A02D0097A105B10549F522C04B
:100BE0009E012F5F3F4FCF010E948604882309F4A6
:100BF00085CF89819A81AB81BC81F801238D348DA9
:100C0000F9012789203129F448EF5FEF60E070E0B7
:100C100004C048EF5FEF6FEF7FE084179507A607EA
:100C2000B70730F0C8010E945A0F811106C061CF8A
:100C3000F80186839783A087B187E12CF12C90E09F
:100C4000D8015B96ED91FC915C9716964D905D9066
:100C50006D907C901997B2E04B1A510861087108A9
:100C6000058404C0440C551C661C771C0A94D2F7FA
:100C70004685578560897189440E551E661E771E0C
:100C8000490E511C611C711CE114F10409F5F801B5
:100C9000428553856485758583899489A589B6893C
:100CA000481759076A077B0798F00E94C9028823F2
:100CB00009F41FCF4092000150920101609202019D
:100CC0007092030180911A03816080931A0308C017
:100CD00041E0C301B2010E940003882309F409CF57
:100CE000F701E15EFC4F8D818083F8018285938559
:100CF000A485B5850196A11DB11D82879387A48720
:100D0000B5874389548965897689481759076A07E1
:100D10007B0738F4838B948BA58BB68B848180689A
:100D20008483D80114968C9183FD03C081E090E008
:100D300043C0F8019581992309F4DBCE87FF37C0C2
:100D4000668577858089918941E00E940003882328
:100D500009F4CFCED8015296EC91B0E2EB9FF001AE
:100D60001124E15EFC4F309709F4C3CED8011596EB
:100D70008C911597823050F453964D915D916D9101
:100D80007C915697448F558F668F778FD8015796F1
:100D90004D915D916D917C915A97538F428F758BD8
:100DA000648B14968C9114978F7714968C930E9471
:100DB000C9028111BBCF9DCE0F900F900F900F9065
:100DC0000F90DF91CF911F910F91FF90EF90DF90E7
:100DD000CF90BF90AF907F906F905F904F900895AD
:100DE0000F931F93CF93DF93EC01062F142F60E036
:100DF00088890E945D108C859D850E94B901802F95
:100E00000E94AF01812F0E94AF01182F61E08889F5
:100E10000E945D10812FDF91CF911F910F91089556
:100E20006F7740E00C94F0060F931F93CF93DF93FE
:100E3000EC01E881F9810084F185E02D0995892B89
:100E400091F06DE0CE010E941007082F60E0CE0106
:100E50000E941007182F402F6DE8CE010E94F00667
:100E6000812F90E002C08FEF9FEFDF91CF911F9114
:100E70000F910895CF93DF93EC01E881F98100840D
:100E8000F185E02D0995892B59F08A8D9B8D01966E
:100E90009B8F8A8F60E0CE010E94100790E002C015
:100EA0008FEF9FEFDF91CF910895CF93DF93EC0108
:100EB00063E10E94100790E02A8D3B8D821B930B0B
:100EC000DF91CF910895AF92BF92CF92DF92FF92C0
:100ED0000F931F93CF93DF936C015B01EA0162E2F2
:100EE0000E941007F82E90E09C012C0F3D1F2F3F11
:100EF000310529F020F0CFEFD0E0C81BD90B8501D8
:100F0000AC0EBD1E0A151B0541F0F80141918F0181
:100F100060E8C6010E94F006F5CF4C2F4F0D62EA43
:100F2000C6010E94F006CE01DF91CF911F910F9173
:100F3000FF90DF90CF90BF90AF9008950E94A90ED0
:100F40000E94A90E0C94A90E4F925F926F927F920D
:100F50008F929F92AF92BF92CF92DF92EF92FF92C9
:100F60000F931F93CF93DF932AE0E22EF12C38E109
:100F7000A32E31E0B32E0E94430F6BEB80EC95E083
:100F80000E94990160E080EC95E00E949901C8E020
:100F9000D3E098E0C92E91E0D92E8601F601608158
:100FA00080EC95E00E949901F2E0CF0ED11CF8018F
:100FB000618180EC95E00E949901688180EC95E068
:100FC0000E9499016981229680EC95E00E94990126
:100FD000F8E1CF16F1E0DF0601F70E942D0F8AE05D
:100FE000C82ED12C412C65E070E080E090E00E949A
:100FF000E6100E94DB0E892B09F44EC080EC95E0D0
:101000000E945507892B09F447C080EC95E00E94A7
:101010003A078C3B910591F780EC95E00E943A07E6
:10102000892B61F708E013E0C8E0D1E05524539420
:1010300080EC95E00E943A07288139813327821796
:101040009307C9F580EC95E00E943A076980712CFE
:101050008615970581F580EC95E00E943A07F80126
:101060002081318133278217930729F580EC95E0A1
:101070000E943A07F8018180912C88159905D9F4CE
:1010800022960E5F1F4FAC16BD0691F6552009F44F
:10109000B5CF44244394B2CFF1E0CF1AD10809F080
:1010A000A2CF41100AC081E0E81AF10809F063CF2D
:1010B00083EC91E004C0512CE3CF8CEB91E00E94D3
:1010C000C00EDF91CF911F910F91FF90EF90DF90B5
:1010D000CF90BF90AF909F908F907F906F905F90D8
:1010E0004F900C949E0781E991E00E94C00E0C94F1
:1010F0009E076F927F928F929F92AF92BF92CF92F4
:10110000DF92EF92FF920F931F93CF93DF9386EBC3
:10111000E82E87E0F82E9EEB892E97E0992EC1E00D
:10112000D0E02FE9622E21E0722E06EC17E03AE0C3
:10113000A32EB12C48E8C42E41E0D42EF7018191B2
:1011400091917F01F401029701F580819181B501B0
:101150000E9448199F938F937F936F93DF93CF9350
:10116000DF92CF921F930F930E947B1986EC97E03A
:101170000E94AE0E0E949E07EDB7FEB73A960FB6DC
:10118000F894FEBF0FBEEDBF1AC081818F9380819E
:101190008F93DF93CF937F926F921F930F930E9451
:1011A0007B1986EC97E00E94AE0E0E949E07EDB779
:1011B000FEB738960FB6F894FEBF0FBEEDBF21966E
:1011C000F2E08F0E911CC530D10509F0B7CF109217
:1011D000070310920603DF91CF911F910F91FF90AB
:1011E000EF90DF90CF90BF90AF909F908F907F90C7
:1011F0006F900895E0910603F0910703309791F105
:101200003197EE0FFF1FDF01AA54B84F8D919C91CB
:10121000E254F84F8230910509F5808191816AE0AE
:1012200070E00E9448199F938F937F936F9383EB95
:1012300091E09F938F9386EC97E09F938F930E940A
:101240007B1986EC97E00E94AE0E8DB79EB708968C
:101250000FB6F8949EBF0FBE8DBF5DC0019709F019
:1012600042C038C080910403909105030197880F14
:10127000991FFC01E85FFC4F20813181FC01223085
:10128000310519F5E85FFE4F808191816AE070E0D9
:101290000E9448199F938F937F936F9383EB91E004
:1012A0009F938F9386EC97E09F938F930E947B1977
:1012B00086EC97E00E94AE0E8DB79EB708960FB6EB
:1012C000F8949EBF0FBE8DBF26C02130310549F472
:1012D000E85FFE4F81818F9380818F9388EC91E04E
:1012E00008C0E254F84F81818F9380818F938BEDFA
:1012F00091E09F938F9386EC97E09F938F930E944A
:101300007B1986EC97E00E94AE0E0F900F900F9025
:101310000F900F900F900C949E07E0910603F091B0
:1013200007033097C9F03197EE0FFF1FDF01AA5472
:10133000B84F2D913C9111972230310519F40E943C
:1013400073082FC02130310521F422E030E02D93C5
:101350003C93E254F84F19C0E0910403F091050367
:101360003197EE0FFF1FDF01A85FBC4F2D913C911D
:1013700011972230310519F32130310521F422E093
:1013800030E02D933C93E85FFE4F408151816AE04D
:10139000649F9001659F300D1124820F931F9183EC
:1013A00080830C94FA0889E090E00C948D0988E021
:1013B00090E00C948D0987E090E00C948D0986E014
:1013C00090E00C948D0985E090E00C948D0984E008
:1013D00090E00C948D0983E090E00C948D0982E0FC
:1013E00090E00C948D0981E090E00C948D0980E0F0
:1013F00090E00C948D09809106039091070300976B
:1014000081F00197880F991FFC01EA54F84F208161
:10141000318122303105E1F421E030E03183208355
:101420001DC080910403909105030197880F991FB7
:10143000FC01E85FFC4F208131812230310541F40D
:1014400021E030E031832083FC01E85FFE4F09C0DA
:101450002130310519F4118210820BC0FC01E254D5
:10146000F84F808191816AE070E00E944819718391
:1014700060830C94FA08E0910603F091070330971B
:1014800059F0EE0FFF1FEC54F84F80819181892BAA
:1014900061F00E9473080DC0E0910403F091050310
:1014A000EE0FFF1FEA5FFC4FF0CF81E090E09183E9
:1014B00080830C94FA08E0910403F09105033197BE
:1014C000EE0FFF1FDF01A85FBC4F8D919C91E85F7D
:1014D000FE4F8230910519F5808191816AE070E0BC
:1014E0000E9448199F938F937F936F938DEE91E0A5
:1014F0009F938F9386EC97E09F938F930E947B1925
:1015000086EC97E00E94AE0E0E949E078DB79EB7B4
:1015100008960FB6F8949EBF0FBE8DBF23C00197EB
:1015200039F481818F9380818F938CEF91E006C095
:1015300081818F9380818F9389E092E09F938F9335
:1015400086EC97E09F938F930E947B1986EC97E03F
:101550000E94AE0E0E949E070F900F900F900F906A
:101560000F900F90E0910403F0910503EE0FFF1F21
:10157000DF01A85FBC4F8D919C91E85FFE4F8230E8
:10158000910509F5808191816AE070E00E94481917
:101590009F938F937F936F9385E192E09F938F93B7
:1015A00086EC97E09F938F930E947B1986EC97E0DF
:1015B0000E94AE0E8DB79EB708960FB6F8949EBFE8
:1015C0000FBE8DBF21C0019739F481818F93808137
:1015D0008F9384E292E006C081818F9380818F9304
:1015E00081E392E09F938F9386EC97E09F938F9394
:1015F0000E947B1986EC97E00E94AE0E0F900F9030
:101600000F900F900F900F900C949E0780910603FF
:1016100090910703892B01F183E891E00E94C00EAD
:101620000E949E078091AE079091AF079093BF07ED
:101630008093BE078091B0079091B1079093C10746
:101640008093C0078091B2079091B3079093C3072E
:101650008093C2070C9479088AE891E00E94C00E3A
:101660000E949E070C945B0ACF92DF92EF92FF924A
:101670000F931F93CF93DF938091060390910703FD
:10168000892B09F458C085E791E00E94C00E0E94A2
:101690009E078091BE079091BF079093AF078093FC
:1016A000AE078091C0079091C1079093B1078093D6
:1016B000B0078091C2079091C3079093B3078093BE
:1016C000B2078091C4079091C5079093B5078093A6
:1016D000B4078EEBE82E87E0F82E06EB17E0C1E0AA
:1016E000D0E0F7016081CE0101970E940319F70154
:1016F0006181F2E0EF0EF11CCE010E940319F801A6
:101700006081CE0101960E940319F80161810E5F8C
:101710001F4FCE0102960E9403192496C131D105B4
:1017200001F7DF91CF911F910F91FF90EF90DF9024
:10173000CF900C9479088CE791E00E94C00E0E9433
:101740009E07DF91CF911F910F91FF90EF90DF9057
:10175000CF900C945B0A87E090E090930503809310
:10176000040381E691E00E94C00E0E949E070C9443
:101770005B0A85E090E090930503809304038FE477
:1017800091E00E94C00E0E949E070C945B0A83E0C9
:1017900090E090930503809304038DE391E00E9411
:1017A000C00E0E949E070C945B0A81E090E090932B
:1017B0000503809304038AE291E00E94C00E0E9418
:1017C0009E070C945B0A4F925F926F927F928F926A
:1017D0009F92AF92BF92CF92DF92EF92FF920F93C0
:1017E0001F93CF93DF9383E191E00E94C00E0E948C
:1017F0009E072AE0E22EF12C36ECA32E37E0B32E22
:101800000E94430F6BEB80EC95E00E9499016FEF13
:1018100080EC95E00E949901C6EBD7E09EEBC92EC3
:1018200097E0D92E8601F601608180EC95E00E9458
:101830009901F2E0CF0ED11CF801618180EC95E0B6
:101840000E949901688180EC95E00E94990169816C
:10185000229680EC95E00E949901F6ECCF16F7E015
:10186000DF0601F70E942D0F8AE0C82ED12C412CF3
:1018700065E070E080E090E00E94E6100E94DB0EE0
:10188000892B09F44FC080EC95E00E945507892B05
:1018900009F448C080EC95E00E943A078C3B910522
:1018A00091F780EC95E00E943A078F3F910559F738
:1018B00006EB17E0CEEBD7E05524539480EC95E08F
:1018C0000E943A0728813981332782179307C9F587
:1018D00080EC95E00E943A076980712C8615970587
:1018E00081F580EC95E00E943A07F8012081318172
:1018F00033278217930729F580EC95E00E943A0779
:10190000F8018180912C88159905D9F422960E5FF3
:101910001F4FAC16BD0691F6552009F4B4CF4424F0
:101920004394B1CFF1E0CF1AD10809F0A1CF411013
:101930000AC081E0E81AF10809F062CF88EC90E073
:1019400004C0512CE3CF8FEA90E00E94C00EDF91DB
:10195000CF911F910F91FF90EF90DF90CF90BF90AC
:10196000AF909F908F907F906F905F904F900C946E
:101970009E0784E090E090930703809306038CE930
:1019800090E00E94C00E0E949E070C94FA0883E02B
:1019900090E090930703809306038BE890E00E9409
:1019A000C00E0E949E070C94FA0882E090E090938B
:1019B0000703809306038AE790E00E94C00E0E940E
:1019C0009E070C94FA0881E090E0909307038093BF
:1019D000060388E690E00E94C00E0E949E070C94C9
:1019E000FA080895CF92DF92EF92FF920F931F9320
:1019F000CF93DF936C017A018B01C0E0D0E0CE156C
:101A0000DF0581F0D8016D918D01D601ED91FC913A
:101A10000190F081E02DC6010995892B11F02196E6
:101A2000EECF7E01C701DF91CF911F910F91FF9003
:101A3000EF90DF90CF900895FC01538D448D252FBA
:101A400030E0842F90E0821B930B541710F0CF9658
:101A500008950197089581E295E00E947C0121E0BC
:101A6000892B09F420E0822F08950E947619EF92C5
:101A7000FF920F931F93CF93DF93EC0181E0888F48
:101A80009B8D8C8D981305C0E889F989808185FD2F
:101A900026C0F62E0B8D10E00F5F1F4F0F7311271E
:101AA000E02E8C8DE8120CC00FB607FCFACFE88947
:101AB000F989808185FFF5CFCE010E94B903F1CF6E
:101AC0008B8DFE01E80FF11DE35AFF4FF0829FB7A7
:101AD000F8940B8FEA89FB89808180620AC09FB7E6
:101AE000F894EE89FF896083E889F98980818370A1
:101AF000806480839FBF81E090E0DF91CF911F9150
:101B00000F91FF90EF900895CF93DF93EC01888DB4
:101B10008823C9F0EA89FB89808185FD05C0A889F1
:101B2000B9898C9186FD0FC00FB607FCF5CF808177
:101B300085FFF2CFA889B9898C9185FFEDCFCE01C1
:101B40000E94B903E7CFDF91CF9108951F920F92C2
:101B50000FB60F9211242F933F934F935F936F9380
:101B60007F938F939F93AF93BF93EF93FF93E091F6
:101B70000601F09107010995FF91EF91BF91AF9197
:101B80009F918F917F916F915F914F913F912F9195
:101B90000F900FBE0F901F9018951F920F920FB6C7
:101BA0000F9211242F933F934F935F936F937F93E3
:101BB0008F939F93AF93BF93EF93FF93E0910401B3
:101BC000F09105010995FF91EF91BF91AF919F9120
:101BD0008F917F916F915F914F913F912F910F90D6
:101BE0000FBE0F901F9018951F920F920FB60F9275
:101BF00011242F933F934F935F936F937F938F9312
:101C00009F93AF93BF93EF93FF9381E295E00E9480
:101C1000B903FF91EF91BF91AF919F918F917F9108
:101C20006F915F914F913F912F910F900FBE0F9049
:101C30001F9018951F920F920FB60F9211242F9399
:101C40008F939F93EF93FF93E0913105F0913205CD
:101C50008081E0913705F091380582FD12C09081B6
:101C600080913A058F5F8F7320913B05821751F069
:101C7000E0913A05F0E0EF5DFA4F958F80933A05D9
:101C800001C08081FF91EF919F918F912F910F90D3
:101C90000FBE0F901F9018953FB7F89480913008B1
:101CA00090913108A0913208B091330826B5A89BD5
:101CB00005C02F3F19F00196A11DB11D3FBFBA2FDE
:101CC000A92F982F8827820F911DA11DB11DBC013E
:101CD000CD0142E0660F771F881F991F4A95D1F703
:101CE00008951092DD051092DC056DE180EC95E021
:101CF0000E941007482F4E7F6DE980EC95E00C9410
:101D0000F006E1E2F5E0A089B18982E08C93A48538
:101D1000B5851C92A685B7858FEC8C93108EA4890F
:101D2000B58986E08C93A289B3898C9180618C936C
:101D3000A289B3898C9188608C93A289B3898C9194
:101D400080688C930288F389E02D80818F7D808369
:101D500008956FEF81E295E00C94370D009769F0DC
:101D6000FC0101900020E9F73197AF01481B590BA6
:101D7000BC0181E295E00C94F20C80E090E00895C3
:101D80000F931F93CF93DF938C01C0E0D0E0F80155
:101D9000EC0FFD1F6491662341F081E295E00E9403
:101DA000370D892B11F02196F2CFCE01DF91CF9123
:101DB0001F910F910895CF93DF9362E180EC95E03E
:101DC0000E941007C82F0E94710E4C2F62E980EC10
:101DD00095E00E94F006C6FF27C0C5FD25C0109201
:101DE000DB051092DA058091DC059091DD05892BE9
:101DF00011F062E201C063E180EC95E00E941007FF
:101E0000C82FD0E060E180EC95E00E941007482FD9
:101E10006DE880EC95E00E94F00641E861E880EC16
:101E200095E00E94F00615C061E080EC95E00E940C
:101E30001007863861F040E06DE880EC95E00E9484
:101E4000F00646E861E880EC95E00E94F006C0E00C
:101E5000D0E0CE01DF91CF91089543E861E880ECB6
:101E600095E00E94F00662E180EC95E00E94100788
:101E700083FFF9CF48E062E980EC95E00E94F0062C
:101E800081E090E0089541E861E880EC95E00E94EF
:101E9000F0060E94710E40E06DE880EC95E00E9433
:101EA000F00640E062EA80EC95E00E94F00681E0F6
:101EB00090E008953F924F925F926F927F928F923F
:101EC0009F92AF92BF92CF92DF92EF92FF920F93C9
:101ED0001F93CF93DF93CDB7DEB72C970FB6F8944F
:101EE000DEBF0FBECDBF5C01DC015B968D909C9088
:101EF0005C971696CD90DD90ED90FC901997C114EB
:101F0000D104E104F10439F0BFEFCB1ADB0AEB0A8C
:101F1000FB0A312C07C0F401C080D180E280F3803D
:101F200033243394F40181859285A385B4859C0183
:101F3000AD012F5F3F4F4F4F5F4F29873A874B8748
:101F40005C87260137011D821E821F821886F401DC
:101F500081859285A385B4852D813E814F815885E9
:101F6000281739074A075B0708F063C089859A85F7
:101F7000AB85BC858C159D05AE05BF0550F482E090
:101F8000C82ED12CE12CF12C92E0492E512C612C41
:101F9000712C9E012F5F3F4FB701A601C4010E9423
:101FA0008604882309F445C089819A81AB81BC816C
:101FB000892B8A2B8B2B41F0260137019FEF491A81
:101FC000590A690A790A05C0C414D504E604F7045D
:101FD00091F02D813E814F8158852F5F3F4F4F4FAC
:101FE0005F4F2D833E834F8358873FEFC31AD30A39
:101FF000E30AF30AACCF0FEF1FEF2FEF3FE0B3017F
:10200000A201C4010E94E503882399F0D501169628
:102010004D915D916D917C91199741155105610527
:10202000710549F093018201C4010E94E503811109
:1020300002C080E02AC0D50116964D925D926D9245
:102040007C921997332051F0D301C2010196A11D52
:10205000B11DF40180839183A283B383F501878945
:10206000908DA18DB28D892B8A2B8B2B69F4D50194
:1020700057964D925D926D927C925A9714968C91E0
:102080001497806814968C9381E02C960FB6F89480
:10209000DEBF0FBECDBFDF91CF911F910F91FF909B
:1020A000EF90DF90CF90BF90AF909F908F907F90F8
:1020B0006F905F904F903F90089590E0FC01E65B39
:1020C000FD4F2491FC01EA5CFD4F3491FC01EE5D73
:1020D000FD4FE491EE2309F43CC0222339F1233073
:1020E00091F038F42130A9F0223001F584B58F7DCC
:1020F00012C0273091F02830A1F02430B9F480913B
:1021000080008F7D03C0809180008F778093800056
:102110000DC084B58F7784BD09C08091B0008F77E2
:1021200003C08091B0008F7D8093B000F0E0EE0F8F
:10213000FF1FE85EFD4FA591B4919FB7F894611120
:1021400004C08C913095382302C0EC913E2B3C9317
:102150009FBF0895CF93DF9390E0FC01EA5CFD4FB1
:102160002491FC01EE5DFD4F8491882361F190E0A4
:10217000880F991FFC01E25FFD4FC591D491FC01CE
:10218000E85EFD4FA591B491611109C09FB7F89425
:102190008881209582238883EC912E230BC06230A6
:1021A00061F49FB7F8948881322F30958323888318
:1021B000EC912E2B2C939FBF06C08FB7F894E8812B
:1021C0002E2B28838FBFDF91CF9108958F929F92FE
:1021D000AF92BF92CF92DF92EF92FF926B017C01A0
:1021E0000E944C0E4B015C01C114D104E104F104C6
:1021F000F1F00E944C0EDC01CB0188199909AA0963
:10220000BB09883E9340A105B10570F321E0C21AD5
:10221000D108E108F10888EE880E83E0981EA11C21
:10222000B11CC114D104E104F10419F7DDCFFF9012
:10223000EF90DF90CF90BF90AF909F908F900895D8
:102240002FB7F89460912C0870912D0880912E087A
:1022500090912F082FBF08951F920F920FB60F92E3
:1022600011242F933F938F939F93AF93BF938091AC
:102270002C0890912D08A0912E08B0912F08309134
:102280002B0823E0230F2D3720F40196A11DB11D4B
:1022900005C026E8230F0296A11DB11D20932B082F
:1022A00080932C0890932D08A0932E08B0932F08AC
:1022B0008091300890913108A0913208B091330894
:1022C0000196A11DB11D8093300890933108A09311
:1022D0003208B0933308BF91AF919F918F913F9196
:1022E0002F910F900FBE0F901F901895CF93DF93F3
:1022F000EC0181E295E00E947C01892B29F081E2CA
:1023000095E00E945A01F5CFCE010E94AE0E0E94C8
:10231000A90E0E94A90EDF91CF910C94A90E0F93E4
:102320001F93CF93DF93E1E2F5E01382128288EEF0
:1023300093E0A0E0B0E084839583A683B7838CE527
:1023400091E09183808385EC90E09587848784EC8D
:1023500090E09787868780EC90E0918B808B81EC72
:1023600090E0938B828B82EC90E0958B848B86EC53
:1023700090E0978B868B118E128E138E148EEEEB5F
:10238000F5E080E580831182E4E5F7E015821682AE
:102390001186138642E050E060E070E04487558784
:1023A0006687778713A215A614A62EE631E033A719
:1023B00022A717A6E0ECF5E0138212822AE731E0AB
:1023C00031832083848781E085872DE937E0378753
:1023D00026872AE030E0318B208B29E030E0338BF8
:1023E000228B22E030E0358B248B168A178A108EE0
:1023F000118E138E128E158E148E178E168E1482D9
:10240000158216821782E8E4F7E0108211822DE32C
:1024100032E033832283158214821186108613865C
:10242000128617821682ECE3F7E01082818323E4A0
:1024300032E033832283158214821186108613863C
:10244000128617821682E0E3F7E01082C2E0C183B1
:1024500028E432E0338322831582148211861086A9
:102460001386128617821682E4E2F7E01082B3E048
:10247000B1832DE432E033832283158214821186E6
:1024800010861386128617821682E8E1F7E0108222
:10249000DFE0D18322E532E0338322831582148288
:1024A000118610861386128617821682ECE0F7E0FA
:1024B000108256E0518327E532E033832283158270
:1024C0001482118610861386128617821682E0E027
:1024D000F7E0108247E0418321E632E03383228334
:1024E0001582148211861086138612861782168230
:1024F000E4EFF6E0108238E031836BE672E073833C
:1025000062831582148211861086138612861782C2
:102510001682E8EEF6E0108290E1918365E772E0C2
:102520007383628315821482118610861386128645
:1025300017821682ECEDF6E0108229E021836FE726
:1025400072E073836283158214821186108613866B
:10255000128617821682E0EDF6E0B083B18364E85C
:1025600072E073836283158214821186108613864B
:10257000128617821682E4ECF6E094E09083C18321
:1025800007E812E0138302831582148211861086F5
:102590001386128617821682E8EBF6E09083B183E9
:1025A0000DE812E0138302831582148211861086CF
:1025B0001386128617821682ECEAF6E090839183E6
:1025C00003E912E0138302831582148211861086B8
:1025D0001386128617821682E0EAF6E09083A5E061
:1025E000A18309E912E01383028315821482118604
:1025F00010861386128617821682E4E9F6E090832D
:1026000051830FE912E0138302831582148211862D
:1026100010861386128617821682E8E8F6E0808319
:10262000118208EA12E01383028315821482118654
:1026300010861386128617821682ECE7F6E08083F6
:102640001CE011830EEA12E01383028315821482C8
:10265000118610861386128617821682E0E7F6E04E
:1026600080831EE0118301EB12E013830283158245
:102670001482118610861386128617821682E4E66B
:10268000F6E08083D18308EB12E013830283158286
:102690001482118610861386128617821682E8E548
:1026A000F6E08083DDE0D1830CEB12E0138302833C
:1026B000158214821186108613861286178216825E
:1026C000ECE4F6E08083818301EC12E01383028363
:1026D000158214821186108613861286178216823E
:1026E000E0E4F6E08083C183738362831582148201
:1026F000118610861386128617821682E4E3F6E0AE
:102700008083B18364EC72E07383628315821482E8
:10271000118610861386128617821682E8E2F6E08A
:102720008083918367EC72E07383628315821482E5
:10273000118610861386128617821682ECE1F6E067
:102740008083A1836AEC72E07383628315821482B2
:10275000118610861386128617821682E0E1F6E053
:10276000808351836DEC72E07383628315821482DF
:10277000118610861386128617821682E4E0F6E030
:102780008083418340ED52E053834283158214825B
:10279000118610861386128617821682E8EFF5E0FE
:1027A0008083318343ED52E0538342831582148248
:1027B000118610861386128617821682ECEEF5E0DB
:1027C0008083218326ED32E03383228315821482B5
:1027D000118610861386128617821682E0EEF5E0C7
:1027E00080838AE0818389ED92E0938382831582DE
:1027F0001482118610861386128617821682DF9144
:10280000CF911F910F910895789484B5826084BD13
:1028100084B5816084BD85B5826085BD85B58160E4
:1028200085BD80916E00816080936E001092810062
:10283000809181008260809381008091810081601D
:1028400080938100809180008160809380008091DE
:10285000B10084608093B1008091B000816080936A
:10286000B00080917A00846080937A0080917A0031
:10287000826080937A0080917A00816080937A00F0
:1028800080917A00806880937A001092C1000E9443
:10289000810E8AE090E09093D1058093D00589E085
:1028A00090E09093D3058093D20582E090E09093DE
:1028B000D5058093D40561E08AE00E94AA1061E00A
:1028C0008091D0050E945D108091D2059091D30532
:1028D0008F3F2FEF9207C9F061E00E94AA1060E0DD
:1028E0008091D2050E945D106AE070E080E090E087
:1028F0000E94E61061E08091D2050E945D106AE0BE
:1029000070E080E090E00E94E610CFB7F8948091EC
:102910001608811127C0ECE2F2E08491E0E4F2E0D5
:102920009491E82FF0E0EE0FFF1FE25FFD4FA591BD
:10293000B491EC91E92321F461E08AE00E945D10FA
:1029400061E08AE00E94AA108CB580618CBD8CB5D4
:1029500080648CBD61E08DE00E94AA1061E08BE094
:102960000E94AA10809116088F5F80931608CFBF2F
:1029700062E480EC95E00E941007823109F0D7C133
:1029800040E861E880EC95E00E94F00680E091EA82
:10299000ACEBB3E38093D6059093D705A093D8050D
:1029A000B093D90549ED66E880EC95E00E94F00609
:1029B00040E067E880EC95E00E94F00640E068E8BF
:1029C00080EC95E00E94F00640E06EE880EC95E037
:1029D0000E94F00640E06FE880EC95E00E94F0066F
:1029E0006CE080EC95E00E941007482F43606CE893
:1029F00080EC95E00E94F00644E066EA80EC95E009
:102A00000E94F0064FE869E880EC95E00E94F0062D
:102A100041E861E880EC95E00E94F00660E083E028
:102A20000E94AA1060E084E00E94AA1060E085E0A5
:102A30000E94AA1060E083E10E94AA1060E08EE08C
:102A40000E94AA1061E08FE00E94AA100E94810EED
:102A500088E092E00E9476118CED92E00E9476115F
:102A60000E941D1884EE92E00E9476110E941D18AB
:102A700063EE7CE070934507609344078CE397E036
:102A8000909347078093460745ED5CE050933907E4
:102A90004093380780E397E090933B0780933A0791
:102AA00027EC3CE030932D0720932C0784E297E03D
:102AB00090932F0780932E0789EB9CE0909321073A
:102AC00080932007E8E1F7E0F0932307E0932207E3
:102AD00070931507609314076CE077E07093170705
:102AE00060931607509309074093080740E057E0AA
:102AF00050930B0740930A073093FD062093FC0682
:102B000024EF36E03093FF062093FE069093F10603
:102B10008093F00688EE96E09093F3068093F20699
:102B200083EE9BE09093E1068093E0068CED96E0C7
:102B30009093E3068093E20689E798E09093D906A4
:102B40008093D80680ED96E09093DB068093DA06BA
:102B500085ED9BE09093CD068093CC0684EC96E0C7
:102B60009093CF068093CE0687EC9BE09093C106AE
:102B70008093C00688EB96E09093C3068093C206CC
:102B800089EB9BE09093B5068093B4068CEA96E0BF
:102B90009093B7068093B6068BEA9BE09093A906C4
:102BA0008093A80680EA96E09093AB068093AA06ED
:102BB00084EA97E090939D0680939C0684E996E0D2
:102BC00090939F0680939E0684E39BE090938506F6
:102BD000809384068CE796E0909387068093860620
:102BE00086E09BE0909379068093780680E796E0F4
:102BF00090937B0680937A068BE39AE09093690624
:102C00008093680684E696E090936B0680936A064C
:102C10008BEF99E090935D0680935C0688E596E0E3
:102C200090935F0680935E0687EF99E0909351063C
:102C3000809350068CE496E090935306809352065E
:102C400083EF99E0909345068093440680E496E0F4
:102C500090934706809346068FEE99E0909339064D
:102C60008093380684E396E090933B0680933A067F
:102C70008BEE99E090932D0680932C0688E296E0E7
:102C800090932F0680932E0687EE99E0909321066D
:102C9000809320068CE196E0909323068093220691
:102CA00083EE99E0909315068093140680E196E0F8
:102CB00090931706809316068FED99E0909309067E
:102CC0008093080684E096E090930B0680930A06B2
:102CD0008BED99E09093FD058093FC0588EF95E0DE
:102CE0009093FF058093FE0587ED99E09093F105A1
:102CF0008093F0058CEE95E09093F3058093F205B8
:102D000083ED99E09093E5058093E40580EE95E0EE
:102D10009093E7058093E605EEEBCE2EE7E0DE2EFE
:102D2000F6EBEF2EF7E0FF2EC0E0D0E001C0FFCFC2
:102D3000CE010E94FB18182FCE0101960E94FB18AD
:102D4000212F30E0382BF601219331936F01CE0112
:102D500002960E94FB18182FCE0103960E94FB18C2
:102D6000212F30E0382BF701219331937F012496F6
:102D7000C031D105E9F68091BE079091BF079093CD
:102D8000AF078093AE078091C0079091C1079093E1
:102D9000B1078093B0078091C2079091C3079093C9
:102DA000B3078093B2078091C4079091C5079093B1
:102DB000B5078093B4070E9479085EE1C52E58E0FC
:102DC000D52E65E0A62EB12C7BEEE72E72E0F72E15
:102DD000C6ECD7E009EF12E081E295E00E947C01A9
:102DE000181619060CF04BC06AE070E080E090E025
:102DF0000E94E61081E295E00E945A01982EF5E6C5
:102E00008F13EACF81E295E00E947C01069724F3BC
:102E10009092170848E1842E48E0942E81E295E0D4
:102E20000E945A01F40181934F01CE16DF06B1F7DB
:102E300010921E0880911B088F3F71F680911C082C
:102E40008F3F51F680911D088F3F31F640911A084F
:102E500050E060E070E09091190820911808E8E1D6
:102E6000F1E0A191B191109709F4B6CF8C9128139C
:102E7000F8CF11968C9111979813F3CFBBC00E9495
:102E8000DB0E892B09F4B3C083E0782E94E0692E21
:102E900025E0522E36E0432E80EC95E00E94550747
:102EA000892B09F4A4C080EC95E00E943A078C3B82
:102EB000910591F78091230890912408909322081E
:102EC00080932108809125089091260890932408EA
:102ED00080932308809127089091280890932608D2
:102EE000809325088091290890912A0890932808BA
:102EF000809327086AE180EC95E00E941007882EF5
:102F0000912C6091D6057091D7058091D80590914C
:102F1000D9050E949C1824E832EF4EE45EE40E943A
:102F2000951887FD03C08DE990E002C084EA90E027
:102F3000881A990A90922A0880922908E1E2F8E01A
:102F400080E090E021913191820F931F28E0EB32D5
:102F5000F207C1F7B5010E9448194B019F926F9388
:102F6000FF92EF92DF93CF930E947B1986EC97E05C
:102F70000E94AE0E0E949E070F900F900F900F9030
:102F80000F900F90FBEB8F16FFEF9F061CF01F9228
:102F90004F921AC0E2EA8E16EFEF9E063CF01F92A7
:102FA0005F921F930F93DF93CF9312C08EE8881622
:102FB0008FEF98063CF01F926F921F930F93DF9351
:102FC000CF9306C01F927F921F930F93DF93CF93EF
:102FD0000E947B1986EC97E00E94AE0E0E949E072D
:102FE0000F900F900F900F900F900F9055CF0E9461
:102FF0008801F2CE413051056105710561F41496E6
:10300000ED91FC911597309709F4E6CE16968D91C7
:103010009C91179710C0452B462B472B09F0DCCE0F
:103020001896ED91FC911997309709F4D5CE1A9620
:103030008D919C911B970995CFCE8F929F92AF92C5
:10304000BF92EF92FF920F931F93CF93DF9300D025
:1030500000D0CDB7DEB719821A821B821C8284E6AB
:1030600090E0A0E0B0E08093250590932605A09322
:103070002705B09328058E010F5F1F4F7E0185E065
:10308000E80EF11C0E9420116093290570932A0517
:1030900080932B0590932C0581E295E00E945A01C4
:1030A00097FF2CC00E9420118090290590902A053E
:1030B000A0902B05B0902C05DC01CB018819990953
:1030C000AA09BB098090250590902605A0902705A8
:1030D000B090280588159905AA05BB05E8F28981F5
:1030E000813051F48A818F3F39F48B818F3F21F4F5
:1030F00081E09C819F3F51F080E008C0F8018193FE
:103100008F01EE16FF0609F0BDCFE9CF0F900F90AB
:103110000F900F90DF91CF911F910F91FF90EF9043
:10312000BF90AF909F908F9008950E94D71808F499
:1031300081E00895E89409C097FB3EF4909580954E
:10314000709561957F4F8F4F9F4F9923A9F0F92F6D
:1031500096E9BB279395F695879577956795B795EB
:10316000F111F8CFFAF4BB0F11F460FF1BC06F5FD1
:103170007F4F8F4F9F4F16C0882311F096E911C0E3
:10318000772321F09EE8872F762F05C0662371F004
:1031900096E8862F70E060E02AF09A95660F771F18
:1031A000881FDAF7880F9695879597F90895990FF4
:1031B0000008550FAA0BE0E8FEEF16161706E80701
:1031C000F907C0F012161306E407F50798F0621B22
:1031D000730B840B950B39F40A2661F0232B242BF7
:1031E000252B21F408950A2609F4A140A6958FEF16
:1031F000811D811D0895F999FECF92BD81BDF89A78
:10320000992780B50895262FF999FECF1FBA92BD50
:1032100081BD20BD0FB6F894FA9AF99A0FBE0196B7
:1032200008952F923F924F925F926F927F928F926A
:103230009F92AF92BF92CF92DF92EF92FF920F9345
:103240001F93CF93DF93CDB7DEB7CA1BDB0B0FB64F
:10325000F894DEBF0FBECDBF09942A88398848880C
:103260005F846E847D848C849B84AA84B984C884A2
:10327000DF80EE80FD800C811B81AA81B981CE0F99
:10328000D11D0FB6F894DEBF0FBECDBFED0108957E
:1032900097FB072E16F4009407D077FD09D00E9403
:1032A0005C1907FC05D03EF4909581959F4F0895D9
:1032B000709561957F4F0895AA1BBB1B51E107C014
:1032C000AA1FBB1FA617B70710F0A61BB70B881FB6
:1032D000991F5A95A9F780959095BC01CD01089545
:1032E000EE0FFF1F0590F491E02D099481E090E02E
:1032F000F8940C942E1CAEE0B0E0E1E8F9E10C94F7
:103300001F190D891E8986E08C831A8309838FEF2C
:103310009FE79E838D83AE01475E5F4F6F89788DF7
:10332000CE0101960E949D19EF81F885E00FF11FF3
:1033300010822E96E4E00C943B19ABE0B0E0E3EA97
:10334000F9E10C9411196C017B018A01FC011782CF
:103350001682838181FFCCC1CE0101963C01F6012A
:103360009381F70193FD859193FF81917F018823DC
:1033700009F4BAC1853239F493FD859193FF8191A7
:103380007F01853229F4B60190E00E94941BE7CFBB
:10339000912C212C312CFFE1F315D8F08B3279F0F0
:1033A00038F4803279F08332A1F4232D20611DC0DE
:1033B0008D3261F0803369F4232D216016C0832D96
:1033C0008260382EE32DE4603E2E2AC0F32DF86093
:1033D0001DC037FC2DC020ED280F2A3040F08E3262
:1033E000B9F436FC81C1232D2064322E19C036FE7B
:1033F00006C08AE0989E200D1124922E11C0EAE0AA
:103400002E9E200D1124222EF32DF0623F2E08C097
:103410008C3621F4832D8068382E02C0883641F422
:10342000F70193FD859193FF81917F018111B3CFC6
:10343000982F9F7D9554933028F40C5F1F4F9FE386
:1034400099830DC0833631F0833771F0833509F0ED
:1034500059C021C0F801808189830E5F1F4F8824E5
:103460008394912C530113C02801F2E04F0E511C9C
:10347000F801A080B18036FE03C0692D70E002C063
:103480006FEF7FEFC5010E94891B4C018201F32D74
:10349000FF773F2E16C0280122E0420E511CF80192
:1034A000A080B18036FE03C0692D70E002C06FEFCE
:1034B0007FEFC5010E947E1B4C01F32DF0683F2E6B
:1034C000820133FC1BC0822D90E088169906B0F46F
:1034D000B60180E290E00E94941B2A94F4CFF5019B
:1034E00037FC859137FE81915F01B60190E00E9423
:1034F000941B21102A9421E0821A910881149104CE
:1035000071F7E8C0843611F0893641F5F80137FECD
:1035100007C060817181828193810C5F1F4F08C059
:1035200060817181072E000C880B990B0E5F1F4F75
:10353000F32DFF763F2E97FF09C0909580957095EB
:1035400061957F4F8F4F9F4FF0683F2E2AE030E00C
:10355000A3010E94D01B882E861845C0853731F400
:10356000232D2F7EB22E2AE030E025C0932D997FA7
:10357000B92E8F36C1F018F4883579F0B5C0803790
:1035800019F0883721F0B0C0E92FE061BE2EB4FEFB
:103590000DC0FB2DF460BF2E09C034FE0AC0292FD8
:1035A0002660B22E06C028E030E005C020E130E001
:1035B00002C020E132E0F801B7FE07C060817181EE
:1035C000828193810C5F1F4F06C06081718180E012
:1035D00090E00E5F1F4FA3010E94D01B882E86181B
:1035E000FB2DFF773F2E36FE0DC0232D2E7FA22E02
:1035F000891458F434FE0BC032FC09C0832D8E7E32
:10360000A82E05C0B82CA32C03C0B82C01C0B92C1F
:10361000A4FE0FC0FE01E80DF11D8081803321F46E
:103620009A2D997EA92E09C0A2FE06C0B394B39428
:1036300004C08A2D867809F0B394A3FC11C0A0FEC3
:1036400006C0B21488F4280C922C9B180EC0B21439
:1036500060F4B60180E290E00E94941BB394F7CF2F
:10366000B21418F42B1802C0982C212CA4FE10C000
:10367000B60180E390E00E94941BA2FE17C0A1FC5B
:1036800003C088E790E002C088E590E0B6010CC076
:103690008A2D867859F0A1FE02C08BE201C080E23B
:1036A000A7FC8DE2B60190E00E94941B891438F4C7
:1036B000B60180E390E00E94941B9A94F7CF8A941D
:1036C000F301E80DF11D8081B60190E00E94941B8A
:1036D0008110F5CF222009F442CEB60180E290E0BD
:1036E0000E94941B2A94F6CFF6018681978102C02E
:1036F0008FEF9FEF2B96E2E10C942D19FC010590C2
:10370000615070400110D8F7809590958E0F9F1FE3
:103710000895FC016150704001900110D8F7809528
:1037200090958E0F9F1F08950F931F93CF93DF9354
:10373000FB01238121FD03C08FEF9FEF2CC022FFEF
:1037400016C046815781248135814217530744F4BE
:10375000A081B1819D012F5F3F4F318320838C93E6
:10376000268137812F5F3F4F3783268314C08B011B
:10377000EC01FB010084F185E02D0995892BE1F630
:10378000D80116968D919C911797019617969C9348
:103790008E931697CE01DF91CF911F910F910895CF
:1037A000FA01AA27283051F1203181F1E8946F9372
:1037B0006E7F6E5F7F4F8F4F9F4FAF4FB1E03ED018
:1037C000B4E03CD0670F781F891F9A1FA11D680FB6
:1037D000791F8A1F911DA11D6A0F711D811D911DE9
:1037E000A11D20D009F468943F912AE0269F11245E
:1037F0003019305D3193DEF6CF010895462F4770C2
:10380000405D4193B3E00FD0C9F7F6CF462F4F701C
:10381000405D4A3318F0495D31FD4052419302D07A
:10382000A9F7EACFB4E0A695979587957795679520
:10383000BA95C9F700976105710508959B01AC0120
:103840000A2E06945795479537952795BA95C9F747
:10385000620F731F841F951FA01D0895F894FFCF5A
:10386000FFFFFFFFF10CF10C0A001400130017001A
:10387000140064006400C80048073C0730072407B0
:1038800018070C070007F406E806D006C406B806B9
:10389000AC06A0069406DC0688067C067006640664
:1038A00058064C064006340628061C061006040678
:1038B000F805EC05E005000000000000370DF20CF3
:1038C0001C0D840D7C015A016E01000000000905E9
:1038D000F20CBD01BC010000000099016307BD01AD
:1038E000980155073A071407676173256976616C7B
:1038F00075652E7478743D2225692C256922006730
:103900006173256976616C75652E7478743D222526
:1039100069220067617356616C75652E7478743D19
:103920002225692C2569220067617356616C7565D3
:103930002E7478743D2225692C22006761735661CC
:103940006C75652E7478743D222569220061312ED4
:103950007478743D2225692C2569220061312E740A
:1039600078743D2225692C220061312E7478743DD3
:10397000222569220061322E7478743D2225692C3B
:103980002569220061322E7478743D2225692C222B
:103990000061322E7478743D2225692200706167BF
:1039A000653000676173310067617332006761736E
:1039B000330067617334006761733176616C7565DC
:1039C000006761733276616C756500676173337689
:1039D000616C7565006761733476616C7565007341
:1039E000656E6400623100747265733100747265D3
:1039F00073320074726573330074726573340073CC
:103A0000656E6454726573007061676531006F6B39
:103A10000063616E63656C00646F74006261636B68
:103A200000623000623200623300623400623500AE
:103A3000623600623700623800623900626B636D83
:103A4000643D3100706167652030007369676E61A5
:103A50006C2E76616C3D25690070302E7069633D77
:043A600025690000D4
:00000001FF
