:100000000C9430010C94F10D0C94CA0D0C94FF0368
:100010000C94FF030C94FF030C9458010C945801AA
:100020000C9458010C9458010C9458010C945801EC
:100030000C9458010C9458010C9458010C945801DC
:100040000C9450110C9458010C943E0E0C94180E04
:100050000C9458010C9458010C9458010C945801BC
:100060000C9458010C945801676173546578742E90
:100070007478743D22434834220067617354657874
:10008000742E7478743D224F322200676173546578
:1000900078742E7478743D22434F22006761735444
:1000A0006578742E7478743D224942555422006D4F
:1000B0006573736167652E7478743D224461746161
:1000C0002073656E742122006D6573736167652E00
:1000D0007478743D224E6F2061636B6E6F776C6530
:1000E0006467656D656E74207265636569766564C5
:1000F0002E205472616E736D697373696F6E206D1B
:10010000696768742068617665206661696C6564FA
:100110002E220067302E7478743D2253656E742051
:1001200065786563757465642200747265735465DF
:1001300078742E7478743D224348342200747265BA
:1001400073546578742E7478743D224F3222007493
:10015000726573546578742E7478743D22434F220F
:100160000074726573546578742E7478743D2249F6
:1001700042555422007061676520300070616765E8
:10018000203500706167652030007061676520353B
:10019000006572726F724D6573736167652E747856
:1001A000743D22446563696D616C20697320616CE4
:1001B0007265616479207365742E220070616765D1
:1001C0002033006D6573736167652E7478743D220A
:1001D0004E6F2061636B6E6F776C656467656D65EC
:1001E0006E742072656365697665642E2054726151
:1001F0006E736D697373696F6E206D6967687420C3
:1002000068617665206661696C65642E2200000075
:100210000000240027002A0000000000250028001C
:100220002B00040404040404040402020202020277
:1002300003030303030301020408102040800102AA
:100240000408102001020408102000000008000229
:100250000100000304070000000000000000B311CB
:1002600011241FBECFEFD8E0DEBFCDBF13E0A0E06A
:10027000B1E0E8E1F9E302C005900D92AE30B107BC
:10028000D9F728E0AEE0B3E001C01D92A635B20771
:10029000E1F711E0C0E3D1E004C02197FE010E9424
:1002A000CC19CF32D107C9F70E9448140C948A1C8C
:1002B0000C940000FC01918D828D981761F0828D65
:1002C000DF01A80FB11D5D968C91928D9F5F9F738A
:1002D000928F90E008958FEF9FEF0895FC01918D2C
:1002E000828D981731F0828DE80FF11D858D90E099
:1002F00008958FEF9FEF0895FC01918D228D892F36
:1003000090E0805C9F4F821B91098F73992708951D
:1003100080E090E0892B29F00E944F0D81110C9410
:10032000000008958FB7F894809122038FBF08953D
:100330000895CF93DF931F92CDB7DEB76983DC01B9
:10034000ED91FC910280F381E02D41E050E0BE018F
:100350006F5F7F4F09950F90DF91CF9108958EBD0C
:1003600000000DB407FEFDCF8EB508958FEF0C94FD
:10037000AF018CBD9DBD0895089580E090E0089583
:1003800080910E0390910F039C01297F213031054C
:1003900029F4019690930F0380930E0308958091A2
:1003A0000E0390910F039C012B7F2230310531F019
:1003B0008430910519F08830910529F401979093C4
:1003C0000F0380930E0308950F931F93CF93DF9332
:1003D000EB010E9444118B010E94B6018F3F49F04E
:1003E0000E944411601B710B6C177D07A8F380E01D
:1003F00001C081E0DF91CF911F910F91089561E0DD
:10040000FC0184810E94811080912303811110924C
:1004100023030895CF93DF93EC018E81882389F025
:100420008F8198859C012F5F3F4F38872F838230C3
:10043000924018F40E94B601F3CFCE010E94FF0152
:100440001E82DF91CF9108958F929F92AF92BF92BB
:10045000FF920F931F93CF93DF93EC01F62E490188
:100460005A010E940A0280912303811109C081E090
:10047000809323038091C8059091C9050E94B9011A
:1004800060E08C810E9481106CE271E0CE010E94DC
:10049000E4018F2D80640E94AF0108E110E0D501D6
:1004A000C401002E04C0B695A795979587950A9428
:1004B000D2F70E94AF0108501109083F8FEF1807CB
:1004C00071F7FF2029F088E0F81204C087E803C024
:1004D00085E901C08FEF0E94AF0110E00E94B601D4
:1004E0008A8787FF04C01F3F11F01F5FF7CFDF919E
:1004F000CF911F910F91FF90BF90AF909F908F90E1
:100500000895EF92FF920F931F93CF93DF93EC0127
:100510007901411551056105710511F482E13CC075
:100520008B85833039F089E0440F551F661F771F94
:100530008A95D1F79A01AB0168E1CE010E942402AD
:10054000882311F084E028C08EEF0E94AF0187015C
:100550008EEFF81AF80181918F010E94AF01E01629
:10056000F106C1F78FEF0E94AF018FEF0E94AF013C
:100570000E94B6018A878F71853031F081E18D83C9
:10058000CE010E94FF0109C068E572E0CE010E9421
:10059000E401811107C085E18D83CE010E94FF0136
:1005A00080E014C020E030E0A9016DE0CE010E949F
:1005B0002402811109C00E94B601811105C0CE013B
:1005C0000E94FF0181E002C084E1E6CFDF91CF917C
:1005D0001F910F91FF90EF9008958091240388233D
:1005E00089F14091000150910101609102017091E7
:1005F000030129E233E080E090E00E948102811152
:1006000002C080E008954091250350912603609137
:10061000270370912803411551056105710581F08B
:1006200029E233E080E090E00E948102882349F3D0
:10063000109225031092260310922703109228038C
:100640001092240381E00895AF92BF92CF92DF927F
:10065000EF92FF921F93CF93DF936B017C01142FD6
:100660008091000190910101A0910201B0910301DC
:100670008C159D05AE05BF0509F48FC00E94ED02E3
:10068000882309F490C0809106008823A1F080910E
:10069000000090910100A0910200B0910300C816E3
:1006A000D906EA06FB0639F480910700909108000C
:1006B000892B09F443C0C0920000D0920100E0925F
:1006C0000200F092030080910B00A7019601833095
:1006D00039F099E0220F331F441F551F9A95D1F727
:1006E00061E180E090E00E942402882321F083E011
:1006F0008093050044C00E944411EB010E94B601A2
:1007000080930A008F3F49F40E9444116C1B7D0BBB
:100710006D32714098F38FE003C08E3F41F08DE061
:100720008093050080E090E00E94FF0128C01092B5
:1007300008001092070081E080930600C9E2D3E030
:1007400089E2A82E85E0B82E0E94B6018993AC16E6
:10075000BD06D1F780910700909108009E5F9093AD
:1007600008008093070020910900222319F08115C9
:10077000924058F080E090E00E940A0206C080E0BB
:1007800090E00E94FF0180E00EC0C0920001D09274
:100790000101E0920201F092030140912403412BF8
:1007A0004093240381E0DF91CF911F91FF90EF9060
:1007B000DF90CF90BF90AF900895FC01848DDF0152
:1007C000A80FB11DA35ABF4F2C91848D90E00196C4
:1007D0008F739927848FA689B7892C93A089B189B3
:1007E0008C91837080648C93938D848D981306C054
:1007F0000288F389E02D80818F7D808308951F9288
:100800000F920FB60F9211240F900FBE0F901F90F2
:1008100018954F925F926F927F928F929F92AF92B4
:10082000BF92CF92DF92EF92FF920F931F93CF93DD
:10083000DF93EC01423051056105710510F480E051
:1008400078C089859A85AB85BC850196A11DB11DAF
:1008500084179507A607B70790F3CB88DC88ED8847
:10086000FE888F89803129F4BB27A72F962F852FEB
:1008700009C0DB01CA01E7E0B695A7959795879572
:10088000EA95D1F7480159012A013B01C80ED91E4A
:10089000EA1EFB1E8091000190910101A0910201CE
:1008A000B0910301C816D906EA06FB0681F48F89C8
:1008B0008031A9F4B301A201552766277727440F99
:1008C000551FFA01E75DFC4F9182808219C040E01C
:1008D000C701B6010E9424038111E9CFB0CFB30153
:1008E000A2014F77552766277727440F551F440FDE
:1008F000551FFA01E75DFC4F80829182A282B3828C
:10090000809124038160809324038A89823080F05F
:100910008D819E81AF81B885C80ED91EEA1EFB1E4F
:10092000C0922503D0922603E0922703F092280379
:1009300081E0DF91CF911F910F91FF90EF90DF90B9
:10094000CF90BF90AF909F908F907F906F905F906F
:100950004F9008958F929F92AF92BF92CF92DF9265
:10096000EF92FF920F931F93CF93DF93FC0181854A
:100970009285A385B4850196A11DB11D84179507A5
:10098000A607B70710F480E05BC083889488A58829
:10099000B6888789803129F4BB27A72F962F852F0A
:1009A00009C0DB01CA01C7E0B695A7959795879561
:1009B000CA95D1F7E9016A017B018F01BC01CD0124
:1009C000680D791D8A1D9B1D80900001909001018A
:1009D000A0900201B0900301681579058A059B0576
:1009E00091F4F80187898031A1F4DD24EE24FF24FD
:1009F000C601880F991FFC01E75DFC4F8081918142
:100A0000A0E0B0E018C040E00E9424038111E9CFCB
:100A1000BACFE894C7F8DD24EE24FF24C601880F7E
:100A2000991F880F991FFC01E75DFC4F8081918120
:100A3000A281B381BF7088839983AA83BB8381E03D
:100A4000DF91CF911F910F91FF90EF90DF90CF90AA
:100A5000BF90AF909F908F9008954F925F926F924A
:100A60007F92AF92BF92CF92DF92EF92FF920F935D
:100A70001F93CF93DF9300D000D01F92CDB7DEB786
:100A80008C016D83DC0115968C911597813009F0EE
:100A900054C014968C9181FF50C057C0258530E01A
:100AA000275F3F4F2A013B01B1E04B1A5108610813
:100AB0007108022E04C076946794579447940A9460
:100AC000D2F7D701C6010197A109B10904C0B695B3
:100AD000A795979587952A95D2F784159505A6052C
:100AE000B70508F076C0F8014789508D618D728D89
:100AF00046835783608771872C013D015801F6E0DA
:100B0000AF0EB11C411451046104710409F46BC0AF
:100B1000D80116964D915D916D917C911997950133
:100B20005B968D919C915C970E94AA04B1E04B1A50
:100B30005108610871088111E5CF81E090E0F8016A
:100B40009383828380E090E05BC182FF0EC0F80156
:100B50004285538564857585C388D488E588F68881
:100B60004C155D056E057F05E9F4D8011A964D9187
:100B70005D916D917C911D975B96ED91FC915C97D9
:100B8000948191506A017B0189E0F694E794D794AF
:100B9000C7948A95D1F79C217A01B1E0FB2291118B
:100BA00073C027C0D801038CF48DE02DC114D1048B
:100BB000E104F10409F072CF16961D921D921D9268
:100BC0001C9219971A961D921D921D921C921D97A8
:100BD00014C0452B462B472B09F485CF8419950962
:100BE000A609B70989CFF801C286D386E486F586BF
:100BF000BCCFE114F10409F047C0D80116964D911D
:100C00005D916D917C9119974115510561057105B3
:100C100059F457968D919D910D90BC91A02D009700
:100C2000A105B10549F522C09E012F5F3F4FCF01BD
:100C30000E94AA04882309F485CF89819A81AB8117
:100C4000BC81F801238D348DF9012789203129F4E5
:100C500048EF5FEF60E070E004C048EF5FEF6FEFD8
:100C60007FE084179507A607B70730F0C8010E94F8
:100C70007E0F811106C061CFF80186839783A0871C
:100C8000B187E12CF12C90E0D8015B96ED91FC91BD
:100C90005C9716964D905D906D907C901997B2E0A0
:100CA0004B1A510861087108058404C0440C551C96
:100CB000661C771C0A94D2F746855785608971892E
:100CC000440E551E661E771E490E511C611C711C78
:100CD000E114F10409F5F8014285538564857585B1
:100CE00083899489A589B689481759076A077B07BC
:100CF00098F00E94ED02882309F41FCF4092000172
:100D000050920101609202017092030180912403CC
:100D100081608093240308C041E0C301B2010E94B6
:100D20002403882309F409CFF701E75DFC4F8D8187
:100D30008083F80182859385A485B5850196A11DE0
:100D4000B11D82879387A487B587438954896589B4
:100D50007689481759076A077B0738F4838B948B89
:100D6000A58BB68B848180688483D80114968C917E
:100D700083FD03C081E090E043C0F8019581992391
:100D800009F4DBCE87FF37C0668577858089918936
:100D900041E00E942403882309F4CFCED801529663
:100DA000EC91B0E2EB9FF0011124E75DFC4F30972E
:100DB00009F4C3CED80115968C911597823050F462
:100DC00053964D915D916D917C915697448F558FBF
:100DD000668F778FD80157964D915D916D917C917B
:100DE0005A97538F428F758B648B14968C911497FE
:100DF0008F7714968C930E94ED028111BBCF9DCE0C
:100E00000F900F900F900F900F90DF91CF911F9147
:100E10000F91FF90EF90DF90CF90BF90AF907F90B9
:100E20006F905F904F9008950F931F93CF93DF9330
:100E3000EC01062F142F60E088890E9481108C85B8
:100E40009D850E94B901802F0E94AF01812F0E94D1
:100E5000AF01182F61E088890E948110812FDF91F6
:100E6000CF911F910F9108956F7740E00C94140774
:100E70000F931F93CF93DF93EC01E881F9810084F6
:100E8000F185E02D0995892B91F06DE0CE010E944E
:100E90003407082F60E0CE010E943407182F402F3E
:100EA0006DE8CE010E941407812F90E002C08FEF01
:100EB0009FEFDF91CF911F910F910895CF93DF9313
:100EC000EC01E881F9810084F185E02D0995892BF9
:100ED00059F08A8D9B8D01969B8F8A8F60E0CE01A1
:100EE0000E94340790E002C08FEF9FEFDF91CF9117
:100EF0000895CF93DF93EC0163E10E94340790E003
:100F00002A8D3B8D821B930BDF91CF910895AF9279
:100F1000BF92CF92DF92FF920F931F93CF93DF93F5
:100F20006C015B01EA0162E20E943407F82E90E056
:100F30009C012C0F3D1F2F3F310529F020F0CFEFF2
:100F4000D0E0C81BD90B8501AC0EBD1E0A151B05D0
:100F500041F0F80141918F0160E8C6010E94140739
:100F6000F5CF4C2F4F0D62EAC6010E941407CE0147
:100F7000DF91CF911F910F91FF90DF90CF90BF90A5
:100F8000AF9008950E94CD0E0E94CD0E0C94CD0E10
:100F90004F925F926F927F928F929F92AF92BF9289
:100FA000CF92DF92EF92FF920F931F93CF93DF9335
:100FB0002AE0E22EF12C38E1A32E31E0B32E0E947C
:100FC000670F6BEB8AEC95E00E94990160E08AEC78
:100FD00095E00E949901C2E1D3E098E0C92E91E02A
:100FE000D92E8601F60160818AEC95E00E94990174
:100FF000F2E0CF0ED11CF80161818AEC95E00E94ED
:10100000990168818AEC95E00E9499016981229694
:101010008AEC95E00E949901F8E1CF16F1E0DF0635
:1010200001F70E94510F8AE0C82ED12C412C65E0B7
:1010300070E080E090E00E940A110E94FF0E892B70
:1010400009F44EC08AEC95E00E947907892B09F4D7
:1010500047C08AEC95E00E945E078C3B910591F7B2
:101060008AEC95E00E945E07892B61F702E113E0AC
:10107000C8E0D1E0552453948AEC95E00E945E07C5
:1010800028813981332782179307C9F58AEC95E0C7
:101090000E945E076980712C8615970581F58AECA0
:1010A00095E00E945E07F801208131813327821785
:1010B000930729F58AEC95E00E945E07F80181808C
:1010C000912C88159905D9F422960E5F1F4FAC1606
:1010D000BD0691F6552009F4B5CF44244394B2CF10
:1010E000F1E0CF1AD10809F0A2CF41100AC081E087
:1010F000E81AF10809F063CF83EC91E004C0512CA9
:10110000E3CF8CEB91E00E94E40EDF91CF911F9131
:101110000F91FF90EF90DF90CF90BF90AF909F9096
:101120008F907F906F905F904F900C94C20781E9F1
:1011300091E00E94E40E0C94C2076F927F928F920E
:101140009F92AF92BF92CF92DF92EF92FF920F9356
:101150001F93CF93DF9388EDE82E87E0F82E90EE73
:10116000892E97E0992EC1E0D0E023EA622E21E09B
:10117000722E08EE17E03AE0A32EB12C4CE8C42EF4
:1011800041E0D42EF701819191917F01F401029702
:1011900001F580819181B5010E94A4199F938F93DD
:1011A0007F936F93DF93CF93DF92CF921F930F9331
:1011B0000E94D71988EE97E00E94D20E0E94C207C3
:1011C000EDB7FEB73A960FB6F894FEBF0FBEEDBF6F
:1011D0001AC081818F9380818F93DF93CF937F9209
:1011E0006F921F930F930E94D71988EE97E00E9489
:1011F000D20E0E94C207EDB7FEB738960FB6F8942C
:10120000FEBF0FBEEDBF2196F2E08F0E911CC530E0
:10121000D10509F0B7CF1092110310921003DF919E
:10122000CF911F910F91FF90EF90DF90CF90BF90E3
:10123000AF909F908F907F906F900895E0911003F2
:10124000F0911103309791F13197EE0FFF1FDF01FD
:10125000A852B84F8D919C91E052F84F8230910581
:1012600009F5808191816AE070E00E94A4199F9342
:101270008F937F936F9387EB91E09F938F9388EE8B
:1012800097E09F938F930E94D71988EE97E00E9472
:10129000D20E8DB79EB708960FB6F8949EBF0FBEBC
:1012A0008DBF5DC0019709F042C038C080910E0328
:1012B00090910F030197880F991FFC01EE5EFC4F80
:1012C00020813181FC012230310519F5E85FFE4FA4
:1012D000808191816AE070E00E94A4199F938F93AE
:1012E0007F936F9387EB91E09F938F9388EE97E0C6
:1012F0009F938F930E94D71988EE97E00E94D20E99
:101300008DB79EB708960FB6F8949EBF0FBE8DBFDF
:1013100026C02130310549F4E85FFE4F81818F936B
:1013200080818F938CEC91E008C0E052F84F81816E
:101330008F9380818F938FED91E09F938F9388EEB1
:1013400097E09F938F930E94D71988EE97E00E94B1
:10135000D20E0F900F900F900F900F900F900C9453
:10136000C207E0911003F09111033097C9F0319753
:10137000EE0FFF1FDF01A852B84F2D913C9111973E
:101380002230310519F40E9497082FC02130310511
:1013900021F422E030E02D933C93E052F84F19C045
:1013A000E0910E03F0910F033197EE0FFF1FDF0165
:1013B000AE5EBC4F2D913C9111972230310519F34F
:1013C0002130310521F422E030E02D933C93E85F99
:1013D000FE4F408151816AE0649F9001659F300D0E
:1013E0001124820F931F918380830C941E0989E03E
:1013F00090E00C94B10988E090E00C94B10987E08A
:1014000090E00C94B10986E090E00C94B10985E07D
:1014100090E00C94B10984E090E00C94B10983E071
:1014200090E00C94B10982E090E00C94B10981E065
:1014300090E00C94B10980E090E00C94B1098091A7
:10144000100390911103009781F00197880F991F65
:10145000FC01E852F84F2081318122303105E1F45E
:1014600021E030E0318320831DC080910E039091F4
:101470000F030197880F991FFC01EE5EFC4F20813E
:1014800031812230310541F421E030E03183208385
:10149000FC01E85FFE4F09C02130310519F41182CB
:1014A00010820BC0FC01E052F84F808191816AE00C
:1014B00070E00E94A419718360830C941E09E0916E
:1014C0001003F0911103309759F0EE0FFF1FEA520D
:1014D000F84F80819181892B61F00E9497080DC09F
:1014E000E0910E03F0910F03EE0FFF1FE05FFC4F42
:1014F000F0CF81E090E0918380830C941E09E0910D
:101500000E03F0910F033197EE0FFF1FDF01AE5E68
:10151000BC4F8D919C91E85FFE4F8230910519F58B
:10152000808191816AE070E00E94A4199F938F935B
:101530007F936F9381EF91E09F938F9388EE97E075
:101540009F938F930E94D71988EE97E00E94D20E46
:101550000E94C2078DB79EB708960FB6F8949EBF3B
:101560000FBE8DBF23C0019739F481818F93808195
:101570008F9380E092E006C081818F9380818F936A
:101580008DE092E09F938F9388EE97E09F938F93E7
:101590000E94D71988EE97E00E94D20E0E94C207DF
:1015A0000F900F900F900F900F900F90E0910E03FF
:1015B000F0910F03EE0FFF1FDF01AE5EBC4F8D9168
:1015C0009C91E85FFE4F8230910509F58081918101
:1015D0006AE070E00E94A4199F938F937F936F93AA
:1015E00089E192E09F938F9388EE97E09F938F938A
:1015F0000E94D71988EE97E00E94D20E8DB79EB751
:1016000008960FB6F8949EBF0FBE8DBF21C00197FC
:1016100039F481818F9380818F9388E292E006C0B4
:1016200081818F9380818F9385E392E09F938F9345
:1016300088EE97E09F938F930E94D71988EE97E0EA
:101640000E94D20E0F900F900F900F900F900F905E
:101650000C94C2078091100390911103892B01F122
:1016600083E891E00E94E40E0E94C2078091D007B7
:101670009091D1079093E1078093E0078091D20782
:101680009091D3079093E3078093E2078091D4076A
:101690009091D5079093E5078093E4070C949D08FB
:1016A0008AE891E00E94E40E0E94C2070C947F0A2F
:1016B000CF92DF92EF92FF920F931F93CF93DF931E
:1016C0008091100390911103892B09F458C085E78C
:1016D00091E00E94E40E0E94C2078091E007909181
:1016E000E1079093D1078093D0078091E207909112
:1016F000E3079093D3078093D2078091E4079091FA
:10170000E5079093D5078093D4078091E6079091E1
:10171000E7079093D7078093D60780EEE82E87E0FF
:10172000F82E08ED17E0C1E0D0E0F7016081CE01AE
:1017300001970E945F19F7016181F2E0EF0EF11C41
:10174000CE010E945F19F8016081CE0101960E94CE
:101750005F19F80161810E5F1F4FCE0102960E9452
:101760005F192496C131D10501F7DF91CF911F9107
:101770000F91FF90EF90DF90CF900C949D088CE735
:1017800091E00E94E40E0E94C207DF91CF911F9169
:101790000F91FF90EF90DF90CF900C947F0A87E03D
:1017A00090E090930F0380930E0381E691E00E94F6
:1017B000E40E0E94C2070C947F0A85E090E09093AB
:1017C0000F0380930E038FE491E00E94E40E0E94C9
:1017D000C2070C947F0A83E090E090930F038093FC
:1017E0000E038DE391E00E94E40E0E94C2070C9468
:1017F0007F0A81E090E090930F0380930E038AE2CA
:1018000091E00E94E40E0E94C2070C947F0A4F925E
:101810005F926F927F928F929F92AF92BF92CF9280
:10182000DF92EF92FF920F931F93CF93DF9383E1A9
:1018300091E00E94E40E0E94C2072AE0E22EF12C01
:1018400038EEA32E37E0B32E0E94670F6BEB8AECC5
:1018500095E00E9499016FEF8AEC95E00E94990152
:10186000C8EDD7E090EEC92E97E0D92E8601F6019B
:1018700060818AEC95E00E949901F2E0CF0ED11CC4
:10188000F80161818AEC95E00E94990168818AECF7
:1018900095E00E949901698122968AEC95E00E9468
:1018A0009901F8EECF16F7E0DF0601F70E94510F1D
:1018B0008AE0C82ED12C412C65E070E080E090E0F9
:1018C0000E940A110E94FF0E892B09F44FC08AEC76
:1018D00095E00E947907892B09F448C08AEC95E0CD
:1018E0000E945E078C3B910591F78AEC95E00E947F
:1018F0005E078F3F910559F708ED17E0C0EED7E07E
:10190000552453948AEC95E00E945E072881398122
:10191000332782179307C9F58AEC95E00E945E078A
:101920006980712C8615970581F58AEC95E00E94F7
:101930005E07F8012081318133278217930729F54B
:101940008AEC95E00E945E07F8018180912C881551
:101950009905D9F422960E5F1F4FAC16BD0691F67D
:10196000552009F4B4CF44244394B1CFF1E0CF1A09
:10197000D10809F0A1CF41100AC081E0E81AF108AE
:1019800009F062CF88EC90E004C0512CE3CF8FEADD
:1019900090E00E94E40EDF91CF911F910F91FF9094
:1019A000EF90DF90CF90BF90AF909F908F907F90FF
:1019B0006F905F904F900C94C20784E090E09093FA
:1019C0001103809310038CE990E00E94E40E0E94C2
:1019D000C2070C941E0983E090E09093110380935A
:1019E00010038BE890E00E94E40E0E94C2070C9462
:1019F0001E0982E090E090931103809310038AE720
:101A000090E00E94E40E0E94C2070C941E0981E03F
:101A100090E0909311038093100388E690E00E9479
:101A2000E40E0E94C2070C941E090895CF92DF9223
:101A3000EF92FF920F931F93CF93DF936C017A0184
:101A40008B01C0E0D0E0CE15DF0581F0D8016D91AB
:101A50008D01D601ED91FC910190F081E02DC60140
:101A60000995892B11F02196EECF7E01C701DF91F8
:101A7000CF911F910F91FF90EF90DF90CF9008953D
:101A8000FC01538D448D252F30E0842F90E0821B84
:101A9000930B541710F0CF960895019708958BE299
:101AA00095E00E947C0121E0892B09F420E0822F3F
:101AB00008950E94D219EF92FF920F931F93CF9334
:101AC000DF93EC0181E0888F9B8D8C8D981305C08E
:101AD000E889F989808185FD26C0F62E0B8D10E0FE
:101AE0000F5F1F4F0F731127E02E8C8DE8120CC073
:101AF0000FB607FCFACFE889F989808185FFF5CF19
:101B0000CE010E94DD03F1CF8B8DFE01E80FF11DA8
:101B1000E35AFF4FF0829FB7F8940B8FEA89FB8955
:101B2000808180620AC09FB7F894EE89FF89608344
:101B3000E889F98980818370806480839FBF81E018
:101B400090E0DF91CF911F910F91FF90EF9008955A
:101B5000CF93DF93EC01888D8823C9F0EA89FB8954
:101B6000808185FD05C0A889B9898C9186FD0FC04B
:101B70000FB607FCF5CF808185FFF2CFA889B98920
:101B80008C9185FFEDCFCE010E94DD03E7CFDF9181
:101B9000CF9108951F920F920FB60F9211242F9399
:101BA0003F934F935F936F937F938F939F93AF93E5
:101BB000BF93EF93FF93E0910601F0910701099520
:101BC000FF91EF91BF91AF919F918F917F916F9115
:101BD0005F914F913F912F910F900FBE0F901F90EB
:101BE00018951F920F920FB60F9211242F933F93C7
:101BF0004F935F936F937F938F939F93AF93BF9315
:101C0000EF93FF93E0910401F09105010995FF9195
:101C1000EF91BF91AF919F918F917F916F915F9164
:101C20004F913F912F910F900FBE0F901F901895DD
:101C30001F920F920FB60F9211242F933F934F9341
:101C40005F936F937F938F939F93AF93BF93EF9324
:101C5000FF938BE295E00E94DD03FF91EF91BF912E
:101C6000AF919F918F917F916F915F914F913F9134
:101C70002F910F900FBE0F901F9018951F920F92EB
:101C80000FB60F9211242F938F939F93EF93FF938F
:101C9000E0913B05F0913C058081E0914105F09198
:101CA000420582FD12C09081809144058F5F8F7341
:101CB00020914505821751F0E0914405F0E0E55D83
:101CC000FA4F958F8093440501C08081FF91EF9179
:101CD0009F918F912F910F900FBE0F901F9018958D
:101CE0003FB7F8948091520890915308A0915408FE
:101CF000B091550826B5A89B05C02F3F19F0019655
:101D0000A11DB11D3FBFBA2FA92F982F8827820F81
:101D1000911DA11DB11DBC01CD0142E0660F771FD1
:101D2000881F991F4A95D1F708951092E7051092E0
:101D3000E6056DE18AEC95E00E943407482F4E7F5E
:101D40006DE98AEC95E00C941407EBE2F5E0A089CC
:101D5000B18982E08C93A485B5851C92A685B78550
:101D60008FEC8C93108EA489B58986E08C93A28920
:101D7000B3898C9180618C93A289B3898C9188609E
:101D80008C93A289B3898C9180688C930288F389A3
:101D9000E02D80818F7D808308956FEF8BE295E049
:101DA0000C945B0D009769F0FC0101900020E9F7AD
:101DB0003197AF01481B590BBC018BE295E00C94A5
:101DC000160D80E090E008950F931F93CF93DF935B
:101DD0008C01C0E0D0E0F801EC0FFD1F6491662398
:101DE00041F08BE295E00E945B0D892B11F021966A
:101DF000F2CFCE01DF91CF911F910F910895CF9334
:101E0000DF9362E18AEC95E00E943407C82F0E94BC
:101E1000950E4C2F62E98AEC95E00E941407C6FFEC
:101E200027C0C5FD25C01092E5051092E4058091FC
:101E3000E6059091E705892B11F062E201C063E1AC
:101E40008AEC95E00E943407C82FD0E060E18AEC6C
:101E500095E00E943407482F6DE88AEC95E00E94D7
:101E6000140741E861E88AEC95E00E94140715C068
:101E700061E08AEC95E00E943407863861F040E02A
:101E80006DE88AEC95E00E94140746E861E88AEC68
:101E900095E00E941407C0E0D0E0CE01DF91CF9121
:101EA000089543E861E88AEC95E00E94140762E136
:101EB0008AEC95E00E94340783FFF9CF48E062E99D
:101EC0008AEC95E00E94140781E090E0089541E8D3
:101ED00061E88AEC95E00E9414070E94950E40E0AC
:101EE0006DE88AEC95E00E94140740E062EA8AEC13
:101EF00095E00E94140781E090E008953F924F9290
:101F00005F926F927F928F929F92AF92BF92CF9289
:101F1000DF92EF92FF920F931F93CF93DF93CDB792
:101F2000DEB72C970FB6F894DEBF0FBECDBF5C01B5
:101F3000DC015B968D909C905C971696CD90DD9021
:101F4000ED90FC901997C114D104E104F10439F02B
:101F5000BFEFCB1ADB0AEB0AFB0A312C07C0F401F6
:101F6000C080D180E280F38033243394F4018185F2
:101F70009285A385B4859C01AD012F5F3F4F4F4FE4
:101F80005F4F29873A874B875C87260137011D827F
:101F90001E821F821886F40181859285A385B485EF
:101FA0002D813E814F815885281739074A075B07E5
:101FB00008F063C089859A85AB85BC858C159D0525
:101FC000AE05BF0550F482E0C82ED12CE12CF12CD7
:101FD00092E0492E512C612C712C9E012F5F3F4FB6
:101FE000B701A601C4010E94AA04882309F445C0D0
:101FF00089819A81AB81BC81892B8A2B8B2B41F003
:10200000260137019FEF491A590A690A790A05C062
:10201000C414D504E604F70491F02D813E814F816C
:1020200058852F5F3F4F4F4F5F4F2D833E834F8328
:1020300058873FEFC31AD30AE30AF30AACCF0FEF76
:102040001FEF2FEF3FE0B301A201C4010E9409047A
:10205000882399F0D50116964D915D916D917C91F3
:102060001997411551056105710549F093018201E8
:10207000C4010E940904811102C080E02AC0D50178
:1020800016964D925D926D927C921997332051F085
:10209000D301C2010196A11DB11DF401808391837A
:1020A000A283B383F5018789908DA18DB28D892B91
:1020B0008A2B8B2B69F4D50157964D925D926D92C8
:1020C0007C925A9714968C911497806814968C93EE
:1020D00081E02C960FB6F894DEBF0FBECDBFDF9126
:1020E000CF911F910F91FF90EF90DF90CF90BF9015
:1020F000AF909F908F907F906F905F904F903F90A8
:10210000089590E0FC01E65BFD4F2491FC01EA5C40
:10211000FD4F3491FC01EE5DFD4FE491EE2309F497
:102120003CC0222339F1233091F038F42130A9F05A
:10213000223001F584B58F7D12C0273091F0283010
:10214000A1F02430B9F4809180008F7D03C080918C
:1021500080008F77809380000DC084B58F7784BD19
:1021600009C08091B0008F7703C08091B0008F7D4F
:102170008093B000F0E0EE0FFF1FE85EFD4FA591E9
:10218000B4919FB7F894611104C08C9130953823B5
:1021900002C0EC913E2B3C939FBF0895CF93DF93F9
:1021A00090E0FC01EA5CFD4F2491FC01EE5DFD4FE7
:1021B0008491882361F190E0880F991FFC01E25F10
:1021C000FD4FC591D491FC01E85EFD4FA591B491FE
:1021D000611109C09FB7F894888120958223888374
:1021E000EC912E230BC0623061F49FB7F894888184
:1021F000322F309583238883EC912E2B2C939FBF15
:1022000006C08FB7F894E8812E2B28838FBFDF910B
:10221000CF9108958F929F92AF92BF92CF92DF920B
:10222000EF92FF926B017C010E94700E4B015C01EA
:10223000C114D104E104F104F1F00E94700EDC013C
:10224000CB0188199909AA09BB09883E9340A105C9
:10225000B10570F321E0C21AD108E108F10888EE57
:10226000880E83E0981EA11CB11CC114D104E104A6
:10227000F10419F7DDCFFF90EF90DF90CF90BF9082
:10228000AF909F908F9008952FB7F89460914E086B
:1022900070914F0880915008909151082FBF089578
:1022A0001F920F920FB60F9211242F933F938F938B
:1022B0009F93AF93BF9380914E0890914F08A09148
:1022C0005008B091510830914D0823E0230F2D376D
:1022D00020F40196A11DB11D05C026E8230F02962A
:1022E000A11DB11D20934D0880934E0890934F0877
:1022F000A0935008B09351088091520890915308D0
:10230000A0915408B09155080196A11DB11D80936C
:10231000520890935308A0935408B0935508BF9166
:10232000AF919F918F913F912F910F900FBE0F9082
:102330001F901895CF93DF93EC018BE295E00E94FC
:102340007C01892B29F08BE295E00E945A01F5CFA0
:10235000CE010E94D20E0E94CD0E0E94CD0EDF91C2
:10236000CF910C94CD0E0F931F93CF93DF93EBE29D
:10237000F5E01382128288EE93E0A0E0B0E084835F
:102380009583A683B78380E691E09183808385EC73
:1023900090E09587848784EC90E09787868780EC2F
:1023A00090E0918B808B81EC90E0938B828B82EC20
:1023B00090E0958B848B86EC90E0978B868B118ECA
:1023C000128E138E148EE8ECF5E080E58083118286
:1023D000E6E7F7E0158216821186138642E050E0A8
:1023E00060E070E0448755876687778713A215A65B
:1023F00014A622E731E033A722A717A6EAECF5E0FE
:10240000138212822EE731E031832083848781E0BA
:1024100085872FEB37E0378726872AE030E0318B3E
:10242000208B29E030E0338B228B22E030E0358BAB
:10243000248B168A178A108E118E138E128E158E8B
:10244000148E178E168E1482158216821782EAE673
:10245000F7E01082118221E432E033832283158277
:102460001482118610861386128617821682EEE574
:10247000F7E01082818327E432E0338322831582E0
:102480001482118610861386128617821682E2E560
:10249000F7E01082C2E0C1832CE432E03383228370
:1024A0001582148211861086138612861782168270
:1024B000E6E4F7E01082B3E0B18321E532E0338354
:1024C0002283158214821186108613861286178243
:1024D0001682EAE3F7E01082DFE0D18326E532E0FE
:1024E0003383228315821482118610861386128606
:1024F00017821682EEE2F7E0108256E051832BE558
:1025000032E033832283158214821186108613866B
:10251000128617821682E2E2F7E0108247E04183DA
:1025200025E632E0338322831582148211861086D9
:102530001386128617821682E6E1F7E0108238E0F1
:1025400031836FE672E07383628315821482118691
:1025500010861386128617821682EAE0F7E0108250
:1025600090E1918369E772E073836283158214823C
:10257000118610861386128617821682EEEFF6E019
:10258000108229E0218363E872E0738362831582FD
:102590001482118610861386128617821682E2EF45
:1025A000F6E0B083B18368E872E0738362831582DA
:1025B0001482118610861386128617821682E6EE22
:1025C000F6E094E09083C1830BE812E0138302836A
:1025D000158214821186108613861286178216823F
:1025E000EAEDF6E09083B18301E912E01383028300
:1025F000158214821186108613861286178216821F
:10260000EEECF6E09083918307E912E013830283F6
:1026100015821482118610861386128617821682FE
:10262000E2ECF6E09083A5E0A1830DE912E01383CC
:1026300002831582148211861086138612861782F1
:102640001682E6EBF6E09083518303EA12E01383EF
:1026500002831582148211861086138612861782D1
:102660001682EAEAF6E0A08391830CEA12E0138373
:1026700002831582148211861086138612861782B1
:102680001682EEE9F6E0A083A1830FEA12E013833D
:102690000283158214821186108613861286178291
:1026A0001682E2E9F6E08083118202EB12E01383E6
:1026B0000283158214821186108613861286178271
:1026C0001682E6E8F6E080831CE0118308EB12E056
:1026D0001383028315821482118610861386128654
:1026E00017821682EAE7F6E080831EE011830BEB87
:1026F00012E01383028315821482118610861386DA
:10270000128617821682EEE6F6E08083D18302EC11
:1027100012E01383028315821482118610861386B9
:10272000128617821682E2E6F6E08083DDE0D1832E
:1027300006EC12E013830283158214821186108640
:102740001386128617821682E6E5F6E0808381837F
:102750000BEC12E01383028315821482118610861B
:102760001386128617821682EAE4F6E08083C1831C
:1027700073836283158214821186108613861286F3
:1027800017821682EEE3F6E08083B1836EEC72E08E
:1027900073836283158214821186108613861286D3
:1027A00017821682E2E3F6E08083918361ED72E0A6
:1027B00073836283158214821186108613861286B3
:1027C00017821682E6E2F6E08083A18364ED72E070
:1027D0007383628315821482118610861386128693
:1027E00017821682EAE1F6E08083518367ED72E09A
:1027F0007383628315821482118610861386128673
:1028000017821682EEE0F6E0808341834AED52E0C3
:102810005383428315821482118610861386128692
:1028200017821682E2E0F6E0808331834DED52E0BC
:102830005383428315821482118610861386128672
:1028400017821682E6EFF5E08083218320EE32E0E6
:102850003383228315821482118610861386128692
:1028600017821682EAEEF5E080838AE0818383EEA8
:1028700092E09383828315821482118610861386D8
:10288000128617821682DF91CF911F910F910895C2
:10289000789484B5826084BD84B5816084BD85B53B
:1028A000826085BD85B5816085BD80916E00816047
:1028B00080936E00109281008091810082608093ED
:1028C00081008091810081608093810080918000EF
:1028D0008160809380008091B10084608093B1001A
:1028E0008091B00081608093B00080917A00846014
:1028F00080937A0080917A00826080937A00809140
:102900007A00816080937A0080917A008068809359
:102910007A001092C1000E94A50E8AE090E0909388
:10292000DB058093DA0589E090E09093DD058093E4
:10293000DC0582E090E09093DF058093DE0561E0A6
:102940008AE00E94CE1061E08091DA050E94811039
:102950008091DC059091DD058F3F2FEF9207C9F044
:1029600061E00E94CE1060E08091DC050E94811041
:102970006AE070E080E090E00E940A1161E08091DE
:10298000DC050E9481106AE070E080E090E00E9427
:102990000A11CFB7F89480913808811127C0ECE272
:1029A000F2E08491E0E4F2E09491E82FF0E0EE0FA1
:1029B000FF1FE25FFD4FA591B491EC91E92321F453
:1029C00061E08AE00E94811061E08AE00E94CE10FE
:1029D0008CB580618CBD8CB580648CBD61E08DE070
:1029E0000E94CE1061E08BE00E94CE1080913808EA
:1029F0008F5F80933808CFBF62E48AEC95E00E9435
:102A00003407823109F0EFC140E861E88AEC95E0D3
:102A10000E94140780E091EAACEBB3E38093E005F9
:102A20009093E105A093E205B093E30549ED66E8D4
:102A30008AEC95E00E94140740E067E88AEC95E094
:102A40000E94140740E068E88AEC95E00E941407B1
:102A500040E06EE88AEC95E00E94140740E06FE8E1
:102A60008AEC95E00E9414076CE08AEC95E00E94E5
:102A70003407482F43606CE88AEC95E00E94140705
:102A800044E066EA8AEC95E00E9414074FE869E8A2
:102A90008AEC95E00E94140741E861E88AEC95E031
:102AA0000E94140760E083E00E94CE1060E084E0A2
:102AB0000E94CE1060E085E00E94CE1060E083E1CD
:102AC0000E94CE1060E08EE00E94CE1061E08FE0A8
:102AD0000E94CE100E94A50E8CE092E00E949A11F6
:102AE00086EE92E00E949A110E9479188EEE92E092
:102AF0000E949A110E94791867E07DE07093670741
:102B0000609366078EE597E0909369078093680766
:102B100049EF5CE050935B0740935A0782E597E0EA
:102B200090935D0780935C072BEE3CE030934F075A
:102B300020934E0786E497E09093510780935007C7
:102B40008DED9CE09093430780934207EAE3F7E022
:102B5000F0934507E0934407709337076093360777
:102B60006EE277E0709339076093380750932B0734
:102B700040932A0742E257E050932D0740932C07D9
:102B800030931F0720931E0726E137E0309321077B
:102B90002093200790931307809312078AE097E011
:102BA000909315078093140787E09CE090930307A8
:102BB000809302078EEF96E09093050780930407B9
:102BC0008DE998E09093FB068093FA0682EF96E0F9
:102BD0009093FD068093FC0689EF9BE09093EF06AF
:102BE0008093EE0686EE96E09093F1068093F006D1
:102BF0008BEE9BE09093E3068093E2068AED96E0ED
:102C00009093E5068093E4068DED9BE09093D706C4
:102C10008093D6068EEC96E09093D9068093D806E2
:102C20008FEC9BE09093CB068093CA0682EC96E0F3
:102C30009093CD068093CC0688EC97E09093BF06E6
:102C40008093BE0686EB96E09093C1068093C00603
:102C50008FEC91E09093B3068093B2068AEA96E0F7
:102C60009093B5068093B40680EC91E09093A7060C
:102C70008093A6068EE996E09093A9068093A80615
:102C800088E59BE090938F0680938E0686E896E019
:102C900090939106809390068AE29BE0909383063E
:102CA000809382068AE796E0909385068093840657
:102CB0008FE59AE090937306809372068EE696E015
:102CC00090937506809374068FE19AE0909367065F
:102CD0008093660682E696E0909369068093680684
:102CE0008BE19AE090935B0680935A0686E596E026
:102CF00090935D0680935C0687E19AE090934F067F
:102D000080934E068AE496E0909351068093500695
:102D100083E19AE090934306809342068EE396E027
:102D200090934506809344068FE09AE0909337068F
:102D30008093360682E396E09093390680933806B6
:102D40008BE09AE090932B0680932A0686E296E029
:102D500090932D0680932C0687E09AE090931F06AF
:102D600080931E068AE196E09093210680932006C8
:102D700083E09AE090931306809312068EE096E02B
:102D800090931506809314068FEF99E090930706B1
:102D90008093060682E096E09093090680930806E9
:102DA0008BEF99E09093FB058093FA0586EF95E011
:102DB0009093FD058093FC0587EF99E09093EF05D4
:102DC0008093EE058AEE95E09093F1058093F005EF
:102DD000E0EECE2EE7E0DE2EF8EDEF2EF7E0FF2E50
:102DE000C0E0D0E001C0FFCFCE010E945719182FDC
:102DF000CE0101960E945719212F30E0382BF601A1
:102E0000219331936F01CE0102960E945719182F1A
:102E1000CE0103960E945719212F30E0382BF7017D
:102E2000219331937F012496C031D105E9F6809139
:102E3000E0079091E1079093D1078093D0078091AC
:102E4000E2079091E3079093D3078093D207809194
:102E5000E4079091E5079093D5078093D40780917C
:102E6000E6079091E7079093D7078093D6070E94D3
:102E70009D0850E4C52E58E0D52E65E0A62EB12C55
:102E800075EFE72E72E0F72EC8EED7E003E013E00F
:102E90008BE295E00E947C01181619060CF04BC0DD
:102EA0006AE070E080E090E00E940A118BE295E019
:102EB0000E945A01982EF5E68F13EACF8BE295E037
:102EC0000E947C01069724F3909239084AE3842EED
:102ED00048E0942E8BE295E00E945A01F401819320
:102EE0004F01CE16DF06B1F71092400880913D08E1
:102EF0008F3F71F680913E088F3F51F680913F08D9
:102F00008F3F31F640913C0850E060E070E09091D6
:102F10003B0820913A08E8E1F1E0A191B1911097C6
:102F200009F4B6CF8C912813F8CF11968C91119794
:102F30009813F3CFBBC00E94FF0E892B09F4B3C0D6
:102F400083E0782E94E0692E25E0522E36E0432E61
:102F50008AEC95E00E947907892B09F4A4C08AECD9
:102F600095E00E945E078C3B910591F780914508A2
:102F700090914608909344088093430880914708B5
:102F8000909148089093460880934508809149089D
:102F900090914A08909348088093470880914B0885
:102FA00090914C0890934A08809349086AE18AEC12
:102FB00095E00E943407882E912C6091E005709175
:102FC000E1058091E2059091E3050E94F81824E85C
:102FD00032EF4EE45EE40E94F11887FD03C08DE9F4
:102FE00090E002C084EA90E0881A990A90924C0816
:102FF00080924B08E3E4F8E080E090E02191319189
:10300000820F931F28E0ED34F207C1F7B5010E944B
:10301000A4194B019F926F93FF92EF92DF93CF938E
:103020000E94D71988EE97E00E94D20E0E94C20734
:103030000F900F900F900F900F900F90FBEB8F164B
:10304000FFEF9F061CF01F924F921AC0E2EA8E1605
:10305000EFEF9E063CF01F925F921F930F93DF935A
:10306000CF9312C08EE888168FEF98063CF01F921F
:103070006F921F930F93DF93CF9306C01F927F929F
:103080001F930F93DF93CF930E94D71988EE97E099
:103090000E94D20E0E94C2070F900F900F900F90C7
:1030A0000F900F9055CF0E948801F2CE413051050C
:1030B0006105710561F41496ED91FC9115973097B7
:1030C00009F4E6CE16968D919C91179710C0452B6A
:1030D000462B472B09F0DCCE1896ED91FC91199701
:1030E000309709F4D5CE1A968D919C911B9709952E
:1030F000CFCE8F929F92AF92BF92EF92FF920F939B
:103100001F93CF93DF9300D000D0CDB7DEB71982E5
:103110001A821B821C8284E690E0A0E0B0E08093DB
:103120002F0590933005A0933105B09332058E01A1
:103130000F5F1F4F7E0185E0E80EF11C0E944411D5
:10314000609333057093340580933505909336056D
:103150008BE295E00E945A0197FF2CC00E94441117
:103160008090330590903405A0903505B0903605D9
:10317000DC01CB0188199909AA09BB0980902F05A8
:1031800090903005A0903105B090320588159905D2
:10319000AA05BB05E8F28981813051F48A818F3F0D
:1031A00039F48B818F3F21F481E09C819F3F51F066
:1031B00080E008C0F80181938F01EE16FF0609F048
:1031C000BDCFE9CF0F900F900F900F90DF91CF916F
:1031D0001F910F91FF90EF90BF90AF909F908F90B5
:1031E00008950E94331908F481E00895E89409C015
:1031F00097FB3EF490958095709561957F4F8F4F2A
:103200009F4F9923A9F0F92F96E9BB279395F6953F
:10321000879577956795B795F111F8CFFAF4BB0FBD
:1032200011F460FF1BC06F5F7F4F8F4F9F4F16C021
:10323000882311F096E911C0772321F09EE8872FAB
:10324000762F05C0662371F096E8862F70E060E067
:103250002AF09A95660F771F881FDAF7880F9695E0
:10326000879597F90895990F0008550FAA0BE0E884
:10327000FEEF16161706E807F907C0F01216130638
:10328000E407F50798F0621B730B840B950B39F478
:103290000A2661F0232B242B252B21F408950A26DE
:1032A00009F4A140A6958FEF811D811D0895F9991C
:1032B000FECF92BD81BDF89A992780B50895262F3B
:1032C000F999FECF1FBA92BD81BD20BD0FB6F8940B
:1032D000FA9AF99A0FBE019608952F923F924F9253
:1032E0005F926F927F928F929F92AF92BF92CF9296
:1032F000DF92EF92FF920F931F93CF93DF93CDB79F
:10330000DEB7CA1BDB0B0FB6F894DEBF0FBECDBF16
:1033100009942A88398848885F846E847D848C84E7
:103320009B84AA84B984C884DF80EE80FD800C81F0
:103330001B81AA81B981CE0FD11D0FB6F894DEBFD3
:103340000FBECDBFED01089597FB072E16F4009434
:1033500007D077FD09D00E94B81907FC05D03EF4CC
:10336000909581959F4F0895709561957F4F089531
:10337000AA1BBB1B51E107C0AA1FBB1FA617B7079B
:1033800010F0A61BB70B881F991F5A95A9F78095B7
:103390009095BC01CD010895EE0FFF1F0590F491AB
:1033A000E02D099481E090E0F8940C948A1CAEE042
:1033B000B0E0EDEDF9E10C947B190D891E8986E0F2
:1033C0008C831A8309838FEF9FE79E838D83AE01E1
:1033D000475E5F4F6F89788DCE0101960E94F91983
:1033E000EF81F885E00FF11F10822E96E4E00C9437
:1033F0009719ABE0B0E0EFEFF9E10C946D196C01B7
:103400007B018A01FC0117821682838181FFCCC176
:10341000CE0101963C01F6019381F70193FD859160
:1034200093FF81917F01882309F4BAC1853239F471
:1034300093FD859193FF81917F01853229F4B60137
:1034400090E00E94F01BE7CF912C212C312CFFE162
:10345000F315D8F08B3279F038F4803279F083327A
:10346000A1F4232D20611DC08D3261F0803369F4F9
:10347000232D216016C0832D8260382EE32DE46059
:103480003E2E2AC0F32DF8601DC037FC2DC020ED64
:10349000280F2A3040F08E32B9F436FC81C1232D3A
:1034A0002064322E19C036FE06C08AE0989E200D98
:1034B0001124922E11C0EAE02E9E200D1124222EFE
:1034C000F32DF0623F2E08C08C3621F4832D8068E6
:1034D000382E02C0883641F4F70193FD859193FFA1
:1034E00081917F018111B3CF982F9F7D95549330A7
:1034F00028F40C5F1F4F9FE399830DC0833631F092
:10350000833771F0833509F059C021C0F8018081FB
:1035100089830E5F1F4F88248394912C530113C01D
:103520002801F2E04F0E511CF801A080B18036FE58
:1035300003C0692D70E002C06FEF7FEFC5010E94EC
:10354000E51B4C018201F32DFF773F2E16C02801A9
:1035500022E0420E511CF801A080B18036FE03C06B
:10356000692D70E002C06FEF7FEFC5010E94DA1B8A
:103570004C01F32DF0683F2E820133FC1BC0822DDD
:1035800090E088169906B0F4B60180E290E00E94BF
:10359000F01B2A94F4CFF50137FC859137FE819119
:1035A0005F01B60190E00E94F01B21102A9421E0F7
:1035B000821A91088114910471F7E8C0843611F0E1
:1035C000893641F5F80137FE07C06081718182813B
:1035D00093810C5F1F4F08C060817181072E000C22
:1035E000880B990B0E5F1F4FF32DFF763F2E97FF31
:1035F00009C090958095709561957F4F8F4F9F4F33
:10360000F0683F2E2AE030E0A3010E942C1C882E97
:10361000861845C0853731F4232D2F7EB22E2AE03F
:1036200030E025C0932D997FB92E8F36C1F018F464
:10363000883579F0B5C0803719F0883721F0B0C0EF
:10364000E92FE061BE2EB4FE0DC0FB2DF460BF2E4D
:1036500009C034FE0AC0292F2660B22E06C028E019
:1036600030E005C020E130E002C020E132E0F801A6
:10367000B7FE07C060817181828193810C5F1F4F0B
:1036800006C06081718180E090E00E5F1F4FA30152
:103690000E942C1C882E8618FB2DFF773F2E36FEAD
:1036A0000DC0232D2E7FA22E891458F434FE0BC09A
:1036B00032FC09C0832D8E7EA82E05C0B82CA32C09
:1036C00003C0B82C01C0B92CA4FE0FC0FE01E80D48
:1036D000F11D8081803321F49A2D997EA92E09C095
:1036E000A2FE06C0B394B39404C08A2D867809F074
:1036F000B394A3FC11C0A0FE06C0B21488F4280C39
:10370000922C9B180EC0B21460F4B60180E290E0D7
:103710000E94F01BB394F7CFB21418F42B1802C018
:10372000982C212CA4FE10C0B60180E390E00E94EA
:10373000F01BA2FE17C0A1FC03C088E790E002C006
:1037400088E590E0B6010CC08A2D867859F0A1FE7C
:1037500002C08BE201C080E2A7FC8DE2B60190E0DE
:103760000E94F01B891438F4B60180E390E00E94B7
:10377000F01B9A94F7CF8A94F301E80DF11D808134
:10378000B60190E00E94F01B8110F5CF222009F4D1
:1037900042CEB60180E290E00E94F01B2A94F6CF60
:1037A000F6018681978102C08FEF9FEF2B96E2E1B1
:1037B0000C948919FC010590615070400110D8F7F4
:1037C000809590958E0F9F1F0895FC016150704069
:1037D00001900110D8F7809590958E0F9F1F089546
:1037E0000F931F93CF93DF93FB01238121FD03C030
:1037F0008FEF9FEF2CC022FF16C046815781248196
:1038000035814217530744F4A081B1819D012F5F98
:103810003F4F318320838C93268137812F5F3F4F29
:103820003783268314C08B01EC01FB010084F185F2
:10383000E02D0995892BE1F6D80116968D919C9182
:103840001797019617969C938E931697CE01DF914A
:10385000CF911F910F910895FA01AA27283051F1B5
:10386000203181F1E8946F936E7F6E5F7F4F8F4FB1
:103870009F4FAF4FB1E03ED0B4E03CD0670F781F10
:10388000891F9A1FA11D680F791F8A1F911DA11DF5
:103890006A0F711D811D911DA11D20D009F468942E
:1038A0003F912AE0269F11243019305D3193DEF6D6
:1038B000CF010895462F4770405D4193B3E00FD08C
:1038C000C9F7F6CF462F4F70405D4A3318F0495D77
:1038D00031FD4052419302D0A9F7EACFB4E0A6955A
:1038E0009795879577956795BA95C9F7009761057C
:1038F000710508959B01AC010A2E069457954795D2
:1039000037952795BA95C9F7620F731F841F951FC6
:08391000A01D0895F894FFCFFB
:10391800FFFFFFFF150D150D0A0014001300170017
:10392800140064006400C8006A075E07520746076F
:103938003A072E07220716070A07F206E606DA06EE
:10394800CE06C206B606AA069E06FE06920686069B
:103958007A066E06620656064A063E0632062606AF
:103968001A060E060206F605EA0500000000000029
:103978005B0D160D400DA80D7C015A016E0100006B
:1039880000002D05160DBD01BC01000000009901C5
:103998008707BD01980179075E07380767617325B6
:1039A8006976616C75652E7478743D2225692C25BD
:1039B800692200676173256976616C75652E747874
:1039C800743D222569220067617356616C75652E06
:1039D8007478743D2225692C256922006761735625
:1039E800616C75652E7478743D2225692C220067F8
:1039F800617356616C75652E7478743D2225692251
:103A08000061312E7478743D2225692C25692200C5
:103A180061312E7478743D2225692C220061312E83
:103A28007478743D222569220061322E7478743DC1
:103A38002225692C2569220061322E7478743D2272
:103A480025692C220061322E7478743D2225692262
:103A580000706167653000676173310067617332B8
:103A6800006761733300676173340067617331768F
:103A7800616C7565006761733276616C75650067A6
:103A880061733376616C7565006761733476616C58
:103A980075650073656E6400623100747265733118
:103AA80000747265733200747265733300747265E2
:103AB80073340073656E645472657300613100611C
:103AC80032007061676531006F6B0063616E63651A
:103AD8006C00646F74006261636B00623000623274
:103AE80000623300623400623500623600623700DB
:103AF800623800623900626B636D643D3100706149
:103B080067652030007369676E616C2E76616C3D65
:0E3B180025690070302E7069633D256900003C
:00000001FF
