:100000000C9436010C943C020C9415020C942E05B1
:100010000C942E050C942E050C945E010C945E013C
:100020000C945E010C945E010C945E010C945E01D4
:100030000C945E010C945E010C945E010C945E01C4
:100040000C94E4110C945E010C9489020C946302EC
:100050000C945E010C945E010C945E010C945E01A4
:100060000C945E010C945E01676173546578742E84
:100070007478743D22434834220067617354657874
:10008000742E7478743D224F322200676173546578
:1000900078742E7478743D22434F22006761735444
:1000A0006578742E7478743D224942555422006D4F
:1000B0006573736167652E7478743D224461746161
:1000C0002073656E742122006D6573736167652E00
:1000D0007478743D224E6F2061636B6E6F776C6530
:1000E0006467656D656E74207265636569766564C5
:1000F0002E205472616E736D697373696F6E206D1B
:10010000696768742068617665206661696C6564FA
:100110002E220067302E7478743D2253656E742051
:1001200065786563757465642200747265735465DF
:1001300078742E7478743D224348342200747265BA
:1001400073546578742E7478743D224F3222007493
:10015000726573546578742E7478743D22434F220F
:100160000074726573546578742E7478743D2249F6
:1001700042555422007061676520300070616765E8
:10018000203500706167652035007061676520303B
:10019000006572726F724D6573736167652E747856
:1001A000743D22446563696D616C20697320616CE4
:1001B0007265616479207365742E220070616765D1
:1001C0002033006D6573736167652E7478743D220A
:1001D0004E6F2061636B6E6F776C656467656D65EC
:1001E0006E742072656365697665642E204973209C
:1001F000746865206F7468657220646576696365EC
:10020000207475726E6564206F6E20616E64206963
:100210006E2072616E67653F2200000000002400BE
:1002200027002A0000000000250028002B000404FD
:10023000040404040404020202020202030303038E
:10024000030301020408102040800102040810206A
:100250000102040810200000000800020100000351
:10026000040700000000000000002E1211241FBE31
:10027000CFEFD8E0DEBFCDBF13E0A0E0B1E0EAEC05
:10028000FAE302C005900D92AA30B107D9F728E031
:10029000AAE0B3E001C01D92A637B207E1F711E072
:1002A000C6E3D1E004C02197FE010E94A51AC53320
:1002B000D107C9F70E94D7140C94631D0C94000059
:1002C0000895CF92DF92EF92FF920F931F93CF93F7
:1002D000DF936C017A018B01C0E0D0E0CE15DF0521
:1002E00081F0D8016D918D01D601ED91FC910190C5
:1002F000F081E02DC6010995892B11F02196EECFF2
:100300007E01C701DF91CF911F910F91FF90EF9078
:10031000DF90CF900895FC01538D448D252F30E060
:10032000842F90E0821B930B541710F0CF96089502
:10033000019708958AE093E00E94DD0221E0892B75
:1003400009F420E0822F08950E94AB1AEF92FF92E9
:100350000F931F93CF93DF93EC0181E0888F9B8DE8
:100360008C8D981305C0E889F989808185FD26C0A8
:10037000F62E0B8D10E00F5F1F4F0F731127E02E2D
:100380008C8DE8120CC00FB607FCFACFE889F9890A
:10039000808185FFF5CFCE010E940C05F1CF8B8DBA
:1003A000FE01E80FF11DE35AFF4FF0829FB7F8946A
:1003B0000B8FEA89FB89808180620AC09FB7F8941D
:1003C000EE89FF896083E889F98980818370806480
:1003D00080839FBF81E090E0DF91CF911F910F91CB
:1003E000FF90EF900895CF93DF93EC01888D8823E1
:1003F000C9F0EA89FB89808185FD05C0A889B98992
:100400008C9186FD0FC00FB607FCF5CF808185FF6C
:10041000F2CFA889B9898C9185FFEDCFCE010E94DA
:100420000C05E7CFDF91CF9108951F920F920FB681
:100430000F9211242F933F934F935F936F937F936A
:100440008F939F93AF93BF93EF93FF93E09102013C
:10045000F09103010995FF91EF91BF91AF919F91A9
:100460008F917F916F915F914F913F912F910F905D
:100470000FBE0F901F9018951F920F920FB60F92FC
:1004800011242F933F934F935F936F937F938F9399
:100490009F93AF93BF93EF93FF93E0910001F0918F
:1004A00001010995FF91EF91BF91AF919F918F91BC
:1004B0007F916F915F914F913F912F910F900FBE60
:1004C0000F901F9018951F920F920FB60F92112444
:1004D0002F933F934F935F936F937F938F939F934C
:1004E000AF93BF93EF93FF938AE093E00E940C05D4
:1004F000FF91EF91BF91AF919F918F917F916F91FC
:100500005F914F913F912F910F900FBE0F901F90D1
:1005100018951F920F920FB60F9211242F938F935D
:100520009F93EF93FF93E0911A03F0911B03808157
:10053000E0912003F091210382FD12C0908180910F
:1005400023038F5F8F7320912403821751F0E09172
:100550002303F0E0E65FFC4F958F8093230301C0F7
:100560008081FF91EF919F918F912F910F900FBEFE
:100570000F901F901895FC01918D828D981761F056
:10058000828DDF01A80FB11D5D968C91928D9F5FCA
:100590009F73928F90E008958FEF9FEF0895FC0175
:1005A000918D828D981731F0828DE80FF11D858D28
:1005B00090E008958FEF9FEF0895FC01918D228DBB
:1005C000892F90E0805C9F4F821B91098F73992740
:1005D000089580E090E0892B29F00E949A01811112
:1005E0000C94000008958FB7F894809140068FBF57
:1005F00008950895CF93DF931F92CDB7DEB7698337
:10060000DC01ED91FC910280F381E02D41E050E0AE
:10061000BE016F5F7F4F09950F90DF91CF910895D5
:100620008FEF0C9427090F931F93CF93DF93EB0168
:100630000E94D8118B010E9410038F3F49F00E9445
:10064000D811601B710B6C177D07A8F380E001C007
:1006500081E0DF91CF911F910F91089561E0FC013E
:1006600084810E94151180914106811110924106EA
:100670000895CF93DF93EC018E81882389F08F81D9
:1006800098859C012F5F3F4F38872F83823092409F
:1006900018F40E941003F3CFCE010E942E031E8295
:1006A000DF91CF9108958F929F92AF92BF92FF9268
:1006B0000F931F93CF93DF93EC01F62E49015A015C
:1006C0000E94390380914106811109C081E0809325
:1006D00041068091A7039091A8030E942E0960E033
:1006E0008C810E9415116CE271E0CE010E9413030F
:1006F0008F2D80640E94270908E110E0D501C40114
:10070000002E04C0B695A795979587950A94D2F7C1
:100710000E94270908501109083F8FEF180771F749
:10072000FF2029F088E0F81204C087E803C085E9BB
:1007300001C08FEF0E94270910E00E9410038A87F2
:1007400087FF04C01F3F11F01F5FF7CFDF91CF91EC
:100750001F910F91FF90BF90AF909F908F90089541
:10076000EF92FF920F931F93CF93DF93EC017901E8
:10077000411551056105710511F482E13CC08B857D
:10078000833039F089E0440F551F661F771F8A9523
:10079000D1F79A01AB0168E1CE010E94530388238F
:1007A00011F084E028C08EEF0E94270987018EEFA8
:1007B000F81AF80181918F010E942709E016F106CD
:1007C000C1F78FEF0E9427098FEF0E9427090E942F
:1007D00010038A878F71853031F081E18D83CE01DE
:1007E0000E942E0309C068E572E0CE010E94130347
:1007F000811107C085E18D83CE010E942E0380E028
:1008000014C020E030E0A9016DE0CE010E94530346
:10081000811109C00E941003811105C0CE010E9400
:100820002E0381E002C084E1E6CFDF91CF911F91DA
:100830000F91FF90EF90089580914206882389F1EF
:10084000409158015091590160915A0170915B019A
:1008500027E436E080E090E00E94B003811102C0FE
:1008600080E008954091430650914406609145060A
:1008700070914606411551056105710581F027E427
:1008800036E080E090E00E94B003882349F31092A4
:1008900043061092440610924506109246061092A6
:1008A000420681E00895AF92BF92CF92DF92EF921D
:1008B000FF921F93CF93DF936B017C01142F8091E4
:1008C000580190915901A0915A01B0915B018C158A
:1008D0009D05AE05BF0509F48FC00E941C04882346
:1008E00009F490C0809106008823A1F08091000057
:1008F00090910100A0910200B0910300C816D906A2
:10090000EA06FB0639F48091070090910800892BD4
:1009100009F443C0C0920000D0920100E0920200AE
:10092000F092030080910B00A7019601833039F00B
:1009300099E0220F331F441F551F9A95D1F761E1AB
:1009400080E090E00E945303882321F083E08093AD
:10095000050044C00E94D811EB010E94100380934F
:100960000A008F3F49F40E94D8116C1B7D0B6D3239
:10097000714098F38FE003C08E3F41F08DE080938B
:10098000050080E090E00E942E0328C0109208002D
:100990001092070081E080930600C7E4D6E087E468
:1009A000A82E88E0B82E0E9410038993AC16BD06CD
:1009B000D1F780910700909108009E5F9093080006
:1009C0008093070020910900222319F0811592409D
:1009D00058F080E090E00E94390306C080E090E08B
:1009E0000E942E0380E00EC0C0925801D09259019F
:1009F000E0925A01F0925B0140914206412B4093F4
:100A0000420681E0DF91CF911F91FF90EF90DF9040
:100A1000CF90BF90AF900895FC01848DDF01A80FA7
:100A2000B11DA35ABF4F2C91848D90E001968F7316
:100A30009927848FA689B7892C93A089B1898C9135
:100A4000837080648C93938D848D981306C0028884
:100A5000F389E02D80818F7D808308951F920F920E
:100A60000FB60F9211240F900FBE0F901F90189584
:100A70004F925F926F927F928F929F92AF92BF92AE
:100A8000CF92DF92EF92FF920F931F93CF93DF935A
:100A9000EC01423051056105710510F480E078C029
:100AA00089859A85AB85BC850196A11DB11D8417EA
:100AB0009507A607B70790F3CB88DC88ED88FE88FA
:100AC0008F89803129F4BB27A72F962F852F09C046
:100AD000DB01CA01E7E0B695A79597958795EA955A
:100AE000D1F7480159012A013B01C80ED91EEA1E5F
:100AF000FB1E8091580190915901A0915A01B0912B
:100B00005B01C816D906EA06FB0681F48F8980319D
:100B1000A9F4B301A201552766277727440F551F73
:100B2000FA01E95BF94F9182808219C040E0C70168
:100B3000B6010E9453048111E9CFB0CFB301A201E5
:100B40004F77552766277727440F551F440F551FAA
:100B5000FA01E95BF94F80829182A282B38280918F
:100B600042068160809342068A89823080F08D81BE
:100B70009E81AF81B885C80ED91EEA1EFB1EC092A9
:100B80004306D0924406E0924506F092460681E084
:100B9000DF91CF911F910F91FF90EF90DF90CF9059
:100BA000BF90AF909F908F907F906F905F904F908D
:100BB00008958F929F92AF92BF92CF92DF92EF9261
:100BC000FF920F931F93CF93DF93FC018185928552
:100BD000A385B4850196A11DB11D84179507A607AD
:100BE000B70710F480E05BC083889488A588B68836
:100BF0008789803129F4BB27A72F962F852F09C01D
:100C0000DB01CA01C7E0B695A79597958795CA9568
:100C1000D1F7E9016A017B018F01BC01CD01680DAB
:100C2000791D8A1D9B1D8090580190905901A090BC
:100C30005A01B0905B01681579058A059B0591F40E
:100C4000F80187898031A1F4DD24EE24FF24C60158
:100C5000880F991FFC01E95BF94F80819181A0E029
:100C6000B0E018C040E00E9453048111E9CFBACF30
:100C7000E894C7F8DD24EE24FF24C601880F991FED
:100C8000880F991FFC01E95BF94F80819181A28156
:100C9000B381BF7088839983AA83BB8381E0DF918E
:100CA000CF911F910F91FF90EF90DF90CF90BF9069
:100CB000AF909F908F9008954F925F926F927F9226
:100CC000AF92BF92CF92DF92EF92FF920F931F935A
:100CD000CF93DF9300D000D01F92CDB7DEB78C0149
:100CE0006D83DC0115968C911597813009F054C005
:100CF00014968C9181FF50C057C0258530E0275F46
:100D00003F4F2A013B01B1E04B1A510861087108BD
:100D1000022E04C076946794579447940A94D2F7AD
:100D2000D701C6010197A109B10904C0B695A795DD
:100D3000979587952A95D2F784159505A605B70549
:100D400008F076C0F8014789508D618D728D468319
:100D50005783608771872C013D015801F6E0AF0E83
:100D6000B11C411451046104710409F46BC0D80131
:100D700016964D915D916D917C91199795015B96B9
:100D80008D919C915C970E94D905B1E04B1A510856
:100D9000610871088111E5CF81E090E0F80193834B
:100DA000828380E090E05BC182FF0EC0F801428543
:100DB000538564857585C388D488E588F6884C1585
:100DC0005D056E057F05E9F4D8011A964D915D9198
:100DD0006D917C911D975B96ED91FC915C97948150
:100DE00091506A017B0189E0F694E794D794C79407
:100DF0008A95D1F79C217A01B1E0FB22911173C051
:100E000027C0D801038CF48DE02DC114D104E10476
:100E1000F10409F072CF16961D921D921D921C923C
:100E200019971A961D921D921D921C921D9714C01F
:100E3000452B462B472B09F485CF84199509A60924
:100E4000B70989CFF801C286D386E486F586BCCF80
:100E5000E114F10409F047C0D80116964D915D9157
:100E60006D917C911997411551056105710559F4F2
:100E700057968D919D910D90BC91A02D0097A10545
:100E8000B10549F522C09E012F5F3F4FCF010E945F
:100E9000D905882309F485CF89819A81AB81BC81EA
:100EA000F801238D348DF9012789203129F448EF89
:100EB0005FEF60E070E004C048EF5FEF6FEF7FE04E
:100EC00084179507A607B70730F0C8010E941210D3
:100ED000811106C061CFF80186839783A087B1870F
:100EE000E12CF12C90E0D8015B96ED91FC915C97A0
:100EF00016964D905D906D907C901997B2E04B1ACC
:100F0000510861087108058404C0440C551C661C16
:100F1000771C0A94D2F74685578560897189440EFB
:100F2000551E661E771E490E511C611C711CE11472
:100F3000F10409F5F8014285538564857585838937
:100F40009489A589B689481759076A077B0798F0DD
:100F50000E941C04882309F41FCF4092580150922C
:100F6000590160925A0170925B0180914206816042
:100F70008093420608C041E0C301B2010E945304BD
:100F8000882309F409CFF701E95BF94F8D8180834C
:100F9000F80182859385A485B5850196A11DB11DB3
:100FA00082879387A487B587438954896589768921
:100FB000481759076A077B0738F4838B948BA58BF6
:100FC000B68B848180688483D80114968C9183FDCC
:100FD00003C081E090E043C0F8019581992309F4B2
:100FE000DBCE87FF37C0668577858089918941E0B0
:100FF0000E945304882309F4CFCED8015296EC9175
:10100000B0E2EB9FF0011124E95BF94F309709F44E
:10101000C3CED80115968C911597823050F4539613
:101020004D915D916D917C915697448F558F668F50
:10103000778FD80157964D915D916D917C915A971C
:10104000538F428F758B648B14968C9114978F7786
:1010500014968C930E941C048111BBCF9DCE0F90DF
:101060000F900F900F900F90DF91CF911F910F91E4
:10107000FF90EF90DF90CF90BF90AF907F906F90F8
:101080005F904F9008950F931F93CF93DF93EC01E0
:10109000062F142F60E088890E9415118C859D858C
:1010A0000E942E09802F0E942709812F0E94270964
:1010B000182F61E088890E941511812FDF91CF914F
:1010C0001F910F9108956F7740E00C9443080F93A0
:1010D0001F93CF93DF93EC01E881F9810084F185C0
:1010E000E02D0995892B91F06DE0CE010E946308F7
:1010F000082F60E0CE010E946308182F402F6DE892
:10110000CE010E944308812F90E002C08FEF9FEF35
:10111000DF91CF911F910F910895CF93DF93EC0151
:10112000E881F9810084F185E02D0995892B59F03A
:101130008A8D9B8D01969B8F8A8F60E0CE010E94E5
:10114000630890E002C08FEF9FEFDF91CF91089589
:10115000CF93DF93EC0163E10E94630890E02A8D56
:101160003B8D821B930BDF91CF910895AF92BF927D
:10117000CF92DF92FF920F931F93CF93DF936C0177
:101180005B01EA0162E20E946308F82E90E09C0194
:101190002C0F3D1F2F3F310529F020F0CFEFD0E07D
:1011A000C81BD90B8501AC0EBD1E0A151B0541F0ED
:1011B000F80141918F0160E8C6010E944308F5CF14
:1011C0004C2F4F0D62EAC6010E944308CE01DF9109
:1011D000CF911F910F91FF90DF90CF90BF90AF9074
:1011E0000895089580E090E00895E9E5F8E0A4E02E
:1011F000B1E0819191918D939D9388E0E936F80754
:10120000C1F7E9E4F8E0AFEAB5E0819191918D93FF
:101210009D9388E0E935F807C1F70895E4E0F1E02F
:10122000A9E5B8E0819191918D939D9381E0E4319E
:10123000F807C1F7EFEAF5E0A9E4B8E081919191F0
:101240008D939D9385E0EF3BF807C1F708958EBD20
:1012500000000DB407FEFDCF8EB508958CBD9DBD79
:1012600008950E94610F0E94610F0C94610F4F92CC
:101270005F926F927F928F929F92AF92BF92CF9226
:10128000DF92EF92FF920F931F93CF93DF932AE0A9
:10129000E22EF12C34E1A32E31E0B32E0E94FB0F9D
:1012A0006BEB89EA93E00E94FA0260E089EA93E03E
:1012B0000E94FA02CFEAD5E094E0C92E91E0D92E3F
:1012C0008601F601608189EA93E00E94FA02F2E069
:1012D000CF0ED11CF801618189EA93E00E94FA02E5
:1012E000688189EA93E00E94FA026981229689EA7C
:1012F00093E00E94FA02F4E1CF16F1E0DF0601F775
:101300000E94E50F8AE0C82ED12C412C65E070E0E8
:1013100080E090E00E949E110E94930F892B09F4B7
:101320004EC089EA93E00E94A808892B09F447C0BF
:1013300089EA93E00E948D088C3B910591F789EA38
:1013400093E00E948D08892B61F70FEA15E0C4E055
:10135000D1E05524539489EA93E00E948D082881B6
:101360003981332782179307C9F589EA93E00E94F0
:101370008D086980712C8615970581F589EA93E0BF
:101380000E948D08F801208131813327821793074D
:1013900029F589EA93E00E948D08F8018180912C5B
:1013A00088159905D9F422960E5F1F4FAC16BD061D
:1013B00091F6552009F4B5CF44244394B2CFF1E01F
:1013C000CF1AD10809F0A2CF41100AC081E0E81A73
:1013D000F10809F063CF83EC91E004C0512CE3CF16
:1013E0008CEB91E00E94780FDF91CF911F910F91CC
:1013F000FF90EF90DF90CF90BF90AF909F908F9035
:101400007F906F905F904F900C94310981E991E04B
:101410000E94780F0C9431096F927F928F929F9265
:10142000AF92BF92CF92DF92EF92FF920F931F93F2
:10143000CF93DF938FEDE82E85E0F82E97EE892E7F
:1014400095E0992EC1E0D0E02CE6622E22E0722ECB
:101450000FEE15E03AE0A32EB12C45E5C42E42E094
:10146000D42EF701819191917F01F401029701F54A
:1014700080819181B5010E947D1A9F938F937F9304
:101480006F93DF93CF93DF92CF921F930F930E94BE
:10149000B01A8FEE95E00E94660F0E943109EDB7F9
:1014A000FEB73A960FB6F894FEBF0FBEEDBF1AC056
:1014B00081818F9380818F93DF93CF937F926F92FF
:1014C0001F930F930E94B01A8FEE95E00E94660F53
:1014D0000E943109EDB7FEB738960FB6F894FEBFFB
:1014E0000FBEEDBF2196F2E08F0E911CC530D105E5
:1014F00009F0B7CF10926C0810926B08DF91CF9172
:101500001F910F91FF90EF90DF90CF90BF90AF9021
:101510009F908F907F906F900895E0916B08F0916D
:101520006C08309779F13197EE0FFF1FDF01A15260
:10153000BA4F8D919C91E951FA4F8230910509F093
:1015400053C0808191816AE070E00E947D1A9F9370
:101550008F937F936F9380E892E09F938F938FEEAA
:1015600095E09F938F930E94B01A8FEE95E00E94B2
:10157000660F8DB79EB708960FB6F8949EBF0FBE44
:101580008DBF53C0E0916908F0916A083197EE0F62
:10159000FF1FDF01A155BA4F8D919C91EC5FFE4F6B
:1015A0008230910509F5808191816AE070E00E94A6
:1015B0007D1A9F938F937F936F9380E892E09F9320
:1015C0008F938FEE95E09F938F930E94B01A8FEECA
:1015D00095E00E94660F8DB79EB708960FB6F894F7
:1015E0009EBF0FBE8DBF21C0019739F481818F93BB
:1015F00080818F9385E992E006C081818F938081FD
:101600008F9388EA92E09F938F938FEE95E09F935C
:101610008F930E94B01A8FEE95E00E94660F0F9094
:101620000F900F900F900F900F900C943109E09154
:101630006B08F0916C083097C9F03197EE0FFF1FDF
:10164000DF01A152BA4F2D913C9111972230310503
:1016500019F40E94060A2FC02130310521F422E03E
:1016600030E02D933C93E951FA4F19C0E09169089D
:10167000F0916A083197EE0FFF1FDF01A155BA4FB5
:101680002D913C9111972230310519F3213031050C
:1016900021F422E030E02D933C93EC5FFE4F40813B
:1016A00051816AE0649F9001659F300D1124820F83
:1016B000931F918380830C948D0A89E090E00C94B1
:1016C000170B88E090E00C94170B87E090E00C94E7
:1016D000170B86E090E00C94170B85E090E00C94DB
:1016E000170B84E090E00C94170B83E090E00C94CF
:1016F000170B82E090E00C94170B81E090E00C94C3
:10170000170B80E090E00C94170B80916B08909180
:101710006C080097B9F00197880F991FFC01E152FE
:10172000FA4F208131812230310529F421E030E067
:101730003183208303C021303105D9F0FC01E95108
:10174000FA4F1DC08091690890916A080197880F2F
:10175000991FFC01E155FA4F20813181223031057A
:1017600029F421E030E03183208306C021303105A7
:1017700019F4118210820BC0FC01EC5FFE4F8081D6
:1017800091816AE070E00E947D1A718360830C94FD
:101790008D0AE0916B08F0916C08309759F0EE0FCC
:1017A000FF1FE352FA4F80819181892B61F00E94E3
:1017B000060A0DC0E0916908F0916A08EE0FFF1F5C
:1017C000E355FA4FF0CF81E090E0918380830C9451
:1017D0008D0A8091690890916A089C01297F2130C7
:1017E000310529F4019690936A08809369080C9456
:1017F0008D0A8091690890916A089C012B7F2230A4
:10180000310531F08430910519F08830910529F4C3
:10181000019790936A08809369080C948D0AE0916F
:101820006908F0916A083197EE0FFF1FDF01A1559B
:10183000BA4F8D919C91EC5FFE4F8230910519F566
:10184000808191816AE070E00E947D1A9F938F935E
:101850007F936F938AEB92E09F938F938FEE95E047
:101860009F938F930E94B01A8FEE95E00E94660FAF
:101870000E9431098DB79EB708960FB6F8949EBFA7
:101880000FBE8DBF23C0019739F481818F93808172
:101890008F9389EC92E006C081818F9380818F9332
:1018A00086ED92E09F938F938FEE95E09F938F93B9
:1018B0000E94B01A8FEE95E00E94660F0E943109D7
:1018C0000F900F900F900F900F900F90E09169087C
:1018D000F0916A08EE0FFF1FDF01A155BA4F8D91FD
:1018E0009C91EC5FFE4F8230910509F580819181DA
:1018F0006AE070E00E947D1A9F938F937F936F93AD
:1019000082EE92E09F938F938FEE95E09F938F935B
:101910000E94B01A8FEE95E00E94660F8DB79EB7B9
:1019200008960FB6F8949EBF0FBE8DBF21C00197D9
:1019300039F481818F9380818F9381EF92E006C08B
:1019400081818F9380818F938EEF92E09F938F930D
:101950008FEE95E09F938F930E94B01A8FEE95E0E3
:101960000E94660F0F900F900F900F900F900F90A6
:101970000C94310980916B0890916C08892BC1F10E
:101980008AE891E00E94780F0E9431096091D705A2
:101990007091D8057093E8056093E7054091D905EB
:1019A0005091DA055093EA054093E9052091DB0553
:1019B0003091DC053093EC052093EB058091DD053B
:1019C0009091DE059093EE058093ED057093E00510
:1019D0006093DF055093E2054093E1053093E40501
:1019E0002093E3059093E6058093E5050C940C0A9B
:1019F00083E891E00E94780F0E943109EFEBF5E057
:101A0000A4E0B1E0819191918D939D9385E0EF3CAD
:101A1000F807C1F7EFE9F5E0AFEAB5E08FEA95E046
:101A2000219131912D933D938E179F07C9F7809196
:101A3000690890916A0880FD05C0019790936A0833
:101A4000809369080C940F0CCF92DF92EF92FF9273
:101A50000F931F93CF93DF9380916B0890916C0845
:101A6000892B09F458C085E791E00E94780F0E9405
:101A700031098091E7059091E8059093D80580930E
:101A8000D7058091E9059091EA059093DA05809356
:101A9000D9058091EB059091EC059093DC0580933E
:101AA000DB058091ED059091EE059093DE05809326
:101AB000DD0587EEE82E85E0F82E0FED15E0C1E09C
:101AC000D0E0F7016081CE0101970E94381AF7013A
:101AD0006181F2E0EF0EF11CCE010E94381AF8018C
:101AE0006081CE0101960E94381AF80161810E5F73
:101AF0001F4FCE0102960E94381A2496C131D1059B
:101B000001F7DF91CF911F910F91FF90EF90DF9040
:101B1000CF900C940C0A8CE791E00E94780F0E9401
:101B20003109E4E0F1E0AFEBB5E0819191918D9363
:101B30009D9381E0E431F807C1F7EFEAF5E0AFE902
:101B4000B5E0819191918D939D9385E0EF3BF807EE
:101B5000C1F78091690890916A0880FD05C00197DE
:101B600090936A0880936908DF91CF911F910F913C
:101B7000FF90EF90DF90CF900C940F0C87E090E0F7
:101B800090936A088093690881E691E00E94780F3B
:101B90000E9431090C940F0C85E090E090936A0844
:101BA000809369088FE491E00E94780F0E943109C8
:101BB0000C940F0C83E090E090936A08809369087E
:101BC0008DE391E00E94780F0E9431090C940F0C74
:101BD00081E090E090936A08809369088AE291E03E
:101BE0000E94780F0E9431090C940F0C4F925F9263
:101BF0006F927F928F929F92AF92BF92CF92DF921D
:101C0000EF92FF920F931F93CF93DF9383E191E0C5
:101C10000E94780F0E9431092AE0E22EF12C3FEE5B
:101C2000A32E35E0B32E0E94FB0F6BEB89EA93E005
:101C30000E94FA026FEF89EA93E00E94FA02CFED68
:101C4000D5E097EEC92E95E0D92E8601F601608188
:101C500089EA93E00E94FA02F2E0CF0ED11CF8016B
:101C6000618189EA93E00E94FA02688189EA93E03F
:101C70000E94FA026981229689EA93E00E94FA02A0
:101C8000FFEECF16F5E0DF0601F70E94E50F8AE0D0
:101C9000C82ED12C412C65E070E080E090E00E94DD
:101CA0009E110E94930F892B09F44FC089EA93E09B
:101CB0000E94A808892B09F448C089EA93E00E9491
:101CC0008D088C3B910591F789EA93E00E948D087D
:101CD0008F3F910559F70FED15E0C7EED5E055247C
:101CE000539489EA93E00E948D0828813981332733
:101CF00082179307C9F589EA93E00E948D086980ED
:101D0000712C8615970581F589EA93E00E948D086C
:101D1000F8012081318133278217930729F589EA59
:101D200093E00E948D08F8018180912C8815990517
:101D3000D9F422960E5F1F4FAC16BD0691F65520C2
:101D400009F4B4CF44244394B1CFF1E0CF1AD108C1
:101D500009F0A1CF41100AC081E0E81AF10809F0AA
:101D600062CF88EC90E004C0512CE3CF8FEA90E082
:101D70000E94780FDF91CF911F910F91FF90EF900C
:101D8000DF90CF90BF90AF909F908F907F906F909B
:101D90005F904F900C94310984E090E090936C0830
:101DA00080936B088CE990E00E94780F0E943109C3
:101DB0000C948D0A83E090E090936C0880936B08FC
:101DC0008BE890E00E94780F0E9431090C948D0AF4
:101DD00082E090E090936C0880936B088AE790E033
:101DE0000E94780F0E9431090C948D0A81E090E0E6
:101DF00090936C0880936B0888E690E00E94780FBF
:101E00000E9431090C948D0A3FB7F89480917208B2
:101E100090917308A0917408B091750826B5A89B9D
:101E200005C02F3F19F00196A11DB11D3FBFBA2F6C
:101E3000A92F982F8827820F911DA11DB11DBC01CC
:101E4000CD0142E0660F771F881F991F4A95D1F791
:101E500008951092C6031092C5036DE189EA93E0DC
:101E60000E946308482F4E7F6DE989EA93E00C9445
:101E70004308EAE0F3E0A089B18982E08C93A4856D
:101E8000B5851C92A685B7858FEC8C93108EA4899E
:101E9000B58986E08C93A289B3898C9180618C93FB
:101EA000A289B3898C9188608C93A289B3898C9123
:101EB00080688C930288F389E02D80818F7D8083F8
:101EC00008956FEF8AE093E00C94A601009769F003
:101ED000FC0101900020E9F73197AF01481B590B35
:101EE000BC018AE093E00C94610180E090E00895E9
:101EF0000F931F93CF93DF938C01C0E0D0E0F801E4
:101F0000EC0FFD1F6491662341F08AE093E00E948C
:101F1000A601892B11F02196F2CFCE01DF91CF914E
:101F20001F910F910895CF93DF9362E189EA93E0C7
:101F30000E946308C82F0E94290F4C2F62E989EA8A
:101F400093E00E944308C6FF27C0C5FD25C010923C
:101F5000C4031092C3038091C5039091C603892BDB
:101F600011F062E201C063E189EA93E00E94630834
:101F7000C82FD0E060E189EA93E00E946308482F0F
:101F80006DE889EA93E00E94430841E861E889EA44
:101F900093E00E94430815C061E089EA93E00E9443
:101FA0006308863861F040E06DE889EA93E00E94BA
:101FB000430846E861E889EA93E00E944308C0E0EC
:101FC000D0E0CE01DF91CF91089543E861E889EA3E
:101FD00093E00E94430862E189EA93E00E9463086B
:101FE00083FFF9CF48E062E989EA93E00E94430861
:101FF00081E090E0089541E861E889EA93E00E9479
:1020000043080E94290F40E06DE889EA93E00E94AE
:10201000430840E062EA89EA93E00E94430881E0D5
:1020200090E008953F924F925F926F927F928F92CD
:102030009F92AF92BF92CF92DF92EF92FF920F9357
:102040001F93CF93DF93CDB7DEB72C970FB6F894DD
:10205000DEBF0FBECDBF5C01DC015B968D909C9016
:102060005C971696CD90DD90ED90FC901997C11479
:10207000D104E104F10439F0BFEFCB1ADB0AEB0A1B
:10208000FB0A312C07C0F401C080D180E280F380CC
:1020900033243394F40181859285A385B4859C0112
:1020A000AD012F5F3F4F4F4F5F4F29873A874B87D7
:1020B0005C87260137011D821E821F821886F4016B
:1020C00081859285A385B4852D813E814F81588578
:1020D000281739074A075B0708F063C089859A8586
:1020E000AB85BC858C159D05AE05BF0550F482E01F
:1020F000C82ED12CE12CF12C92E0492E512C612CD0
:10210000712C9E012F5F3F4FB701A601C4010E94B1
:10211000D905882309F445C089819A81AB81BC81A6
:10212000892B8A2B8B2B41F0260137019FEF491A0F
:10213000590A690A790A05C0C414D504E604F704EB
:1021400091F02D813E814F8158852F5F3F4F4F4F3A
:102150005F4F2D833E834F8358873FEFC31AD30AC7
:10216000E30AF30AACCF0FEF1FEF2FEF3FE0B3010D
:10217000A201C4010E943805882399F0D501169662
:102180004D915D916D917C911997411551056105B6
:10219000710549F093018201C4010E943805811143
:1021A00002C080E02AC0D50116964D925D926D92D4
:1021B0007C921997332051F0D301C2010196A11DE1
:1021C000B11DF40180839183A283B383F5018789D4
:1021D000908DA18DB28D892B8A2B8B2B69F4D50123
:1021E00057964D925D926D927C925A9714968C916F
:1021F0001497806814968C9381E02C960FB6F8940F
:10220000DEBF0FBECDBFDF91CF911F910F91FF9029
:10221000EF90DF90CF90BF90AF909F908F907F9086
:102220006F905F904F903F90089590E0FC01EA5AC4
:10223000FD4F2491FC01EE5BFD4F3491FC01E25D0A
:10224000FD4FE491EE2309F43CC0222339F1233001
:1022500091F038F42130A9F0223001F584B58F7D5A
:1022600012C0273091F02830A1F02430B9F48091C9
:1022700080008F7D03C0809180008F7780938000E5
:102280000DC084B58F7784BD09C08091B0008F7771
:1022900003C08091B0008F7D8093B000F0E0EE0F1E
:1022A000FF1FEC5DFD4FA591B4919FB7F8946111AC
:1022B00004C08C913095382302C0EC913E2B3C93A6
:1022C0009FBF0895CF93DF9390E0FC01EE5BFD4F3D
:1022D0002491FC01E25DFD4F8491882361F190E03F
:1022E000880F991FFC01E65EFD4FC591D491FC015A
:1022F000EC5DFD4FA591B491611109C09FB7F894B1
:102300008881209582238883EC912E230BC0623034
:1023100061F49FB7F8948881322F309583238883A6
:10232000EC912E2B2C939FBF06C08FB7F894E881B9
:102330002E2B28838FBFDF91CF9108958F929F928C
:10234000AF92BF92CF92DF92EF92FF926B017C012E
:102350000E94040F4B015C01C114D104E104F1049B
:10236000F1F00E94040FDC01CB0188199909AA0938
:10237000BB09883E9340A105B10570F321E0C21A64
:10238000D108E108F10888EE880E83E0981EA11CB0
:10239000B11CC114D104E104F10419F7DDCFFF90A1
:1023A000EF90DF90CF90BF90AF909F908F90089567
:1023B0002FB7F89460916E0870916F088091700843
:1023C000909171082FBF08951F920F920FB60F9230
:1023D00011242F933F938F939F93AF93BF9380913B
:1023E0006E0890916F08A0917008B09171083091BB
:1023F0006D0823E0230F2D3720F40196A11DB11D98
:1024000005C026E8230F0296A11DB11D20936D087B
:1024100080936E0890936F08A0937008B093710832
:102420008091720890917308A0917408B09175081A
:102430000196A11DB11D8093720890937308A0931B
:102440007408B0937508BF91AF919F918F913F91A0
:102450002F910F900FBE0F901F901895EF92FF9243
:102460000F931F93CF93DF93EAE0F3E0138212827E
:1024700088EE93E0A0E0B0E084839583A683B783E1
:1024800080E691E09183808385EC90E09587848756
:1024900084EC90E09787868780EC90E0918B808B2E
:1024A00081EC90E0938B828B82EC90E0958B848B17
:1024B00086EC90E0978B868B118E128E138E148E85
:1024C000E7EAF3E080E580831182E5E5F5E0158237
:1024D00016821186138642E050E060E070E0448787
:1024E00055876687778713A215A614A622E731E0E1
:1024F00033A722A717A6E9EAF3E0138212822EE798
:1025000031E031832083848781E085872EE935E0BF
:10251000378726872AE030E0318B208B29E030E0B6
:10252000338B228B22E030E0358B248B168A178A7E
:10253000108E118E138E128E158E148E178E168E8F
:102540001482158216821782E9E4F5E010828183F5
:102550002CE831E0338322831582148211861086A1
:102560001386128617821682EDE3F5E0108212E0E0
:10257000118321E931E0338322831582148211868D
:1025800010861386128617821682E1E3F5E0108228
:10259000B3E0B18326E931E03383228315821482CC
:1025A000118610861386128617821682E5E2F5E000
:1025B00010820FE001832BE931E0338322831582FF
:1025C0001482118610861386128617821682E9E11C
:1025D000F5E0108256E0518320EA31E03383228314
:1025E000158214821186108613861286178216822F
:1025F000EDE0F5E0108247E041832AEA31E03383E1
:102600002283158214821186108613861286178201
:102610001682E1E0F5E0108228E0218364EB71E0AE
:102620007383628315821482118610861386128644
:1026300017821682E5EFF4E0108290E191836EEB51
:1026400071E073836283158214821186108613866B
:10265000128617821682E9EEF4E0108239E03183A7
:1026600068EC71E073836283158214821186108690
:102670001386128617821682EDEDF4E0B083B183E3
:102680006DEC71E07383628315821482118610866B
:102690001386128617821682E1EDF4E0B08311836F
:1026A000C0EDD1E0D383C2831582148211861086D7
:1026B0001386128617821682E5ECF4E094E090838C
:1026C0001183C9EDD1E0D383C283158214821186B0
:1026D00010861386128617821682E9EBF4E0908347
:1026E000B183CFEDD1E0D383C283158214821186EA
:1026F00010861386128617821682EDEAF4E0908324
:102700009183C5EED1E0D383C283158214821186F2
:1027100010861386128617821682E1EAF4E090830F
:10272000A5E0A183CBEED1E0D383C28315821482CE
:10273000118610861386128617821682E5E9F4E068
:1027400090835183C1EFD1E0D383C2831582148279
:10275000118610861386128617821682E9E8F4E045
:1027600090832183CAEFD1E0D383C2831582148280
:10277000118610861386128617821682EDE7F4E022
:10278000A08391830F2EF1E0EF2EF2E0FF2EF02DCB
:10279000F382E282158214821186108613861286D5
:1027A00017821682E1E7F4E0A083A1830F2EF4E004
:1027B000EF2EF2E0FF2EF02DF382E28215821482DA
:1027C000118610861386128617821682E5E6F4E0DB
:1027D00080830F2EFCE0FF2EF02DF1820F2EF7E00C
:1027E000EF2EF2E0FF2EF02DF382E28215821482AA
:1027F000118610861386128617821682E9E5F4E0A8
:1028000080830F2EFEE0FF2EF02DF182D383C28352
:1028100015821482118610861386128617821682FC
:10282000EDE4F4E080830183CAE0D2E0D383C28385
:1028300015821482118610861386128617821682DC
:10284000E1E4F4E08083CDE0C183CEE0D2E0D38345
:10285000C28315821482118610861386128617820F
:102860001682E5E3F4E080838183C3E1D2E0D38381
:10287000C2831582148211861086138612861782EF
:102880001682E9E2F4E08083118373836283158208
:102890001482118610861386128617821682EDE145
:1028A000F4E08083B18366E172E073836283158212
:1028B0001482118610861386128617821682E1E131
:1028C000F4E08083918369E172E07383628315820F
:1028D0001482118610861386128617821682E5E00E
:1028E000F4E08083A1836CE172E0738362831582DC
:1028F0001482118610861386128617821682E9EFDB
:10290000F3E0808351836FE172E073836283158209
:102910001482118610861386128617821682EDEEB7
:10292000F3E08083418342E252E053834283158285
:102930001482118610861386128617821682E1EEA3
:10294000F3E08083218345E252E053834283158282
:102950001482118610861386128617821682E5ED80
:10296000F3E08083318328E232E0338322831582CF
:102970001482118610861386128617821682E9EC5D
:10298000F3E080838AE081838BE292E09383828309
:10299000158214821186108613861286178216827B
:1029A000DF91CF911F910F91FF90EF900895789450
:1029B00084B5826084BD84B5816084BD85B5826044
:1029C00085BD85B5816085BD80916E0081608093F5
:1029D0006E0010928100809181008260809381005E
:1029E000809181008160809381008091800081606E
:1029F000809380008091B10084608093B1008091C9
:102A0000B00081608093B00080917A0084608093F0
:102A10007A0080917A00826080937A0080917A00B7
:102A2000816080937A0080917A00806880937A0038
:102A30001092C1000E94390F8AE090E09093BA038F
:102A40008093B90389E090E09093BC038093BB032B
:102A500082E090E09093BE038093BD0361E08AE042
:102A60000E94621161E08091B9030E94151180916A
:102A7000BB039091BC038F3F2FEF9207C9F061E039
:102A80000E94621160E08091BB030E9415116AE010
:102A900070E080E090E00E949E1161E08091BB03B5
:102AA0000E9415116AE070E080E090E00E949E11A3
:102AB000CFB7F89480912B06811127C0E8E3F2E0AC
:102AC0008491ECE4F2E09491E82FF0E0EE0FFF1F28
:102AD000E65EFD4FA591B491EC91E92321F461E00C
:102AE0008AE00E94151161E08AE00E9462118CB5B3
:102AF00080618CBD8CB580648CBD61E08DE00E94EE
:102B0000621161E08BE00E94621180912B068F5F61
:102B100080932B06CFBF62E489EA93E00E946308AA
:102B2000823109F007C240E861E889EA93E00E9437
:102B3000430880E091EAACEBB3E38093BF0390934A
:102B4000C003A093C103B093C20349ED66E889EACC
:102B500093E00E94430840E067E889EA93E00E941E
:102B6000430840E068E889EA93E00E94430840E0B7
:102B70006EE889EA93E00E94430840E06FE889EA42
:102B800093E00E9443086CE089EA93E00E946308A6
:102B9000482F43606CE889EA93E00E94430844E0D0
:102BA00066EA89EA93E00E9443084FE869E889EA07
:102BB00093E00E94430841E861E889EA93E00E94BB
:102BC000430860E083E00E94621160E084E00E94BC
:102BD000621160E085E00E94621160E083E10E9482
:102BE000621160E08EE00E94621161E08FE00E945D
:102BF00062110E94390F85ED92E00E9439198EE230
:102C000092E00E9439190E94521986E392E00E94D4
:102C100039190E94521966EF7EE070935205609355
:102C2000510589E495E0909354058093530548EE4F
:102C30005EE050934605409345058DE395E0909303
:102C40004805809347052AED3EE030933A052093EE
:102C5000390581E395E090933C0580933B058CEC2E
:102C60009EE090932E0580932D05E5E2F5E0F0932C
:102C70003005E0932F05709322056093210569E1EB
:102C800075E07093240560932305509316054093D7
:102C900015054DE055E05093180540931705309306
:102CA0000A052093090521E035E030930C052093B7
:102CB0000B059093FE048093FD0485EF94E09093C0
:102CC00000058093FF0486EF9DE09093EE048093CF
:102CD000ED0489EE94E09093F0048093EF048CE08F
:102CE0009AE09093E6048093E5048DED94E0909350
:102CF000E8048093E7048EE099E09093DA048093EF
:102D0000D90481ED94E09093DC048093DB0488EE99
:102D10009DE09093CE048093CD0485EC94E0909355
:102D2000D0048093CF048AED9DE09093C2048093F9
:102D3000C10489EB94E09093C4048093C3048CECA9
:102D40009DE09093B6048093B5048DEA94E090934F
:102D5000B8048093B7048EEB9DE09093AA0480930F
:102D6000A90481EA94E09093AC048093AB0487E3D8
:102D700099E090939E0480939D0485E994E090935C
:102D8000A00480939F0485EF98E090939204809331
:102D9000910489E894E0909394048093930489EFDC
:102DA0009BE090938604809385048DE794E0909354
:102DB00088048093870489EE9BE090937A04809343
:102DC000790481E794E090937C0480937B0484E20F
:102DD0009DE090936E0480936D0485E694E090935B
:102DE000700480936F048AEB9CE09093620480935C
:102DF000610489E594E0909364048093630489EC12
:102E00009BE090935204809351048DE494E090935E
:102E100054048093530485E89BE090934604809388
:102E2000450481E494E0909348048093470481E84A
:102E30009BE090933A048093390485E394E0909367
:102E40003C0480933B048DE79BE090932E04809399
:102E50002D0489E294E09093300480932F0489E755
:102E60009BE090932204809321048DE194E0909361
:102E700024048093230485E79BE0909316048093B9
:102E8000150481E194E0909318048093170481E77E
:102E90009BE090930A048093090485E094E090936A
:102EA0000C0480930B048DE69BE09093FE038093CB
:102EB000FD0389EF93E0909300048093FF0389E67C
:102EC0009BE09093F2038093F1038DEE93E0909357
:102ED000F4038093F30385E69BE09093E6038093ED
:102EE000E50381EE93E09093E8038093E70381E6A6
:102EF0009BE09093DA038093D90385ED93E0909360
:102F0000DC038093DB038DE59BE09093CE038093FD
:102F1000CD0389EC93E09093D0038093CF03E7EE49
:102F2000CE2EE5E0DE2EFFEDEF2EF5E0FF2EC0E029
:102F3000D0E001C0FFCFCE010E94301A182FCE0181
:102F400001960E94301A212F30E0382BF601219390
:102F500031936F01CE0102960E94301A182FCE01D4
:102F600003960E94301A212F30E0382BF70121936D
:102F700031937F012496C031D105E9F68091E705B0
:102F80009091E8059093D8058093D7058091E90545
:102F90009091EA059093DA058093D9058091EB052D
:102FA0009091EC059093DC058093DB058091ED0515
:102FB0009091EE059093DE058093DD05E4E0F1E06D
:102FC000AFEBB5E084E191E0219131912D933D93F8
:102FD0008E179F07C9F7EFEAF5E0AFE9B5E08191F9
:102FE00091918D939D9325E0EF3BF207C1F70E94ED
:102FF0000C0A53E3C52E56E0D52E65E0A62EB12C63
:103000007DE3E72E72E0F72ECFEED5E00BE412E081
:103010008AE093E00E94DD02181619060CF04BC0FE
:103020006AE070E080E090E00E949E118AE093E008
:103030000E94BB02982E85E69812EACF8AE093E0C0
:103040000E94DD02069724F390922C064DE2842E16
:1030500046E0942E8AE093E00E94BB02F401819343
:103060004F01CE16DF06B1F710923306809130067D
:103070008F3F71F6809131068F3F51F68091320675
:103080008F3F31F640912F0650E060E070E0909164
:103090002E0620912D06E4E1F1E0A191B191109767
:1030A00009F4B6CF8C912813F8CF11968C91119713
:1030B0009813F3CFBBC00E94930F892B09F4B3C0C0
:1030C00083E0782E94E0692E25E0522E36E0432EE0
:1030D00089EA93E00E94A808892B09F4A4C089EA30
:1030E00093E00E948D088C3B910591F78091380602
:1030F00090913906909337068093360680913A0670
:1031000090913B06909339068093380680913C0657
:1031100090913D0690933B0680933A0680913E063F
:1031200090913F0690933D0680933C066AE189EAC0
:1031300093E00E946308882E912C6091BF037091E8
:10314000C0038091C1039091C2030E94D11924E869
:1031500032EF4EE45EE40E94CA1987FD03C08DE998
:1031600090E002C084EA90E0881A990A90923F06A3
:1031700080923E06E6E3F6E080E090E02191319116
:10318000820F931F26E0E034F207C1F7B5010E94D9
:103190007D1A4B019F926F93FF92EF92DF93CF9333
:1031A0000E94B01A8FEE95E00E94660F0E943109CE
:1031B0000F900F900F900F900F900F90FBEB8F16CA
:1031C000FFEF9F061CF01F924F921AC0E2EA8E1684
:1031D000EFEF9E063CF01F925F921F930F93DF93D9
:1031E000CF9312C08EE888168FEF98063CF01F929E
:1031F0006F921F930F93DF93CF9306C01F927F921E
:103200001F930F93DF93CF930E94B01A8FEE95E038
:103210000E94660F0E9431090F900F900F900F903F
:103220000F900F9055CF0E94E902F2CE4130510528
:103230006105710561F41496ED91FC911597309735
:1032400009F4E6CE16968D919C91179710C0452BE8
:10325000462B472B09F0DCCE1896ED91FC9119977F
:10326000309709F4D5CE1A968D919C911B970995AC
:10327000CFCECF93DF93EC018AE093E00E94DD0292
:10328000892B29F08AE093E00E94BB02F5CFCE01A2
:103290000E94660F0E94610F0E94610FDF91CF9123
:1032A0000C94610F8F929F92AF92BF92EF92FF9218
:1032B0000F931F93CF93DF9300D000D0CDB7DEB72D
:1032C00019821A821B821C8284E690E0A0E0B0E0A2
:1032D00080930E0390930F03A0931003B0931103F8
:1032E0008E010F5F1F4F7E0185E0E80EF11C0E94EA
:1032F000D811609312037093130380931403909377
:1033000015038AE093E00E94BB0297FF2CC00E9445
:10331000D8118090120390901303A0901403B090E2
:103320001503DC01CB0188199909AA09BB09809012
:103330000E0390900F03A0901003B0901103881516
:103340009905AA05BB05E8F28981813051F48A818B
:103350008F3F39F48B818F3F21F481E09C819F3F27
:1033600051F080E008C0F80181938F01EE16FF064E
:1033700009F0BDCFE9CF0F900F900F900F90DF9124
:10338000CF911F910F91FF90EF90BF90AF909F90C2
:103390008F9008950E940C1A08F481E00895E89433
:1033A00009C097FB3EF490958095709561957F4F8D
:1033B0008F4F9F4F9923A9F0F92F96E9BB2793953B
:1033C000F695879577956795B795F111F8CFFAF44B
:1033D000BB0F11F460FF1BC06F5F7F4F8F4F9F4F7C
:1033E00016C0882311F096E911C0772321F09EE8DA
:1033F000872F762F05C0662371F096E8862F70E040
:1034000060E02AF09A95660F771F881FDAF7880F19
:103410009695879597F90895990F0008550FAA0B6F
:10342000E0E8FEEF16161706E807F907C0F01216D7
:103430001306E407F50798F0621B730B840B950BDA
:1034400039F40A2661F0232B242B252B21F408952F
:103450000A2609F4A140A6958FEF811D811D0895CC
:10346000F999FECF92BD81BDF89A992780B508954C
:10347000262FF999FECF1FBA92BD81BD20BD0FB690
:10348000F894FA9AF99A0FBE019608952F923F92F6
:103490004F925F926F927F928F929F92AF92BF9264
:1034A000CF92DF92EF92FF920F931F93CF93DF9310
:1034B000CDB7DEB7CA1BDB0B0FB6F894DEBF0FBE6D
:1034C000CDBF09942A88398848885F846E847D84BA
:1034D0008C849B84AA84B984C884DF80EE80FD80BC
:1034E0000C811B81AA81B981CE0FD11D0FB6F89432
:1034F000DEBF0FBECDBFED01089597FB072E16F47A
:10350000009407D077FD09D00E94911A07FC05D0DE
:103510003EF4909581959F4F0895709561957F4FEA
:103520000895AA1BBB1B51E107C0AA1FBB1FA6170A
:10353000B70710F0A61BB70B881F991F5A95A9F75C
:1035400080959095BC01CD010895EE0FFF1F059069
:10355000F491E02D099481E090E0F8940C94631DBF
:10356000AEE0B0E0E6EBFAE10C94541A0D891E8946
:1035700086E08C831A8309838FEF9FE79E838D8378
:10358000AE01475E5F4F6F89788DCE0101960E9434
:10359000D21AEF81F885E00FF11F10822E96E4E039
:1035A0000C94701AABE0B0E0E8EDFAE10C94461A26
:1035B0006C017B018A01FC0117821682838181FFE5
:1035C000CCC1CE0101963C01F6019381F70193FD38
:1035D000859193FF81917F01882309F4BAC18532D7
:1035E00039F493FD859193FF81917F01853229F410
:1035F000B60190E00E94C91CE7CF912C212C312C00
:10360000FFE1F315D8F08B3279F038F4803279F09D
:103610008332A1F4232D20611DC08D3261F08033EF
:1036200069F4232D216016C0832D8260382EE32D8E
:10363000E4603E2E2AC0F32DF8601DC037FC2DC07B
:1036400020ED280F2A3040F08E32B9F436FC81C1CB
:10365000232D2064322E19C036FE06C08AE0989EC3
:10366000200D1124922E11C0EAE02E9E200D11246F
:10367000222EF32DF0623F2E08C08C3621F4832DCC
:103680008068382E02C0883641F4F70193FD859199
:1036900093FF81917F018111B3CF982F9F7D955426
:1036A000933028F40C5F1F4F9FE399830DC083363E
:1036B00031F0833771F0833509F059C021C0F8012A
:1036C000808189830E5F1F4F88248394912C53013E
:1036D00013C02801F2E04F0E511CF801A080B18008
:1036E00036FE03C0692D70E002C06FEF7FEFC501A9
:1036F0000E94BE1C4C018201F32DFF773F2E16C0A5
:10370000280122E0420E511CF801A080B18036FE53
:1037100003C0692D70E002C06FEF7FEFC5010E940A
:10372000B31C4C01F32DF0683F2E820133FC1BC00B
:10373000822D90E088169906B0F4B60180E290E000
:103740000E94C91C2A94F4CFF50137FC859137FEFD
:1037500081915F01B60190E00E94C91C21102A945A
:1037600021E0821A91088114910471F7E8C084362F
:1037700011F0893641F5F80137FE07C0608171818B
:10378000828193810C5F1F4F08C060817181072E79
:10379000000C880B990B0E5F1F4FF32DFF763F2E09
:1037A00097FF09C090958095709561957F4F8F4FD9
:1037B0009F4FF0683F2E2AE030E0A3010E94051DD4
:1037C000882E861845C0853731F4232D2F7EB22EE2
:1037D0002AE030E025C0932D997FB92E8F36C1F0B5
:1037E00018F4883579F0B5C0803719F0883721F0A2
:1037F000B0C0E92FE061BE2EB4FE0DC0FB2DF46019
:10380000BF2E09C034FE0AC0292F2660B22E06C082
:1038100028E030E005C020E130E002C020E132E0E5
:10382000F801B7FE07C060817181828193810C5FCE
:103830001F4F06C06081718180E090E00E5F1F4FD6
:10384000A3010E94051D882E8618FB2DFF773F2EB1
:1038500036FE0DC0232D2E7FA22E891458F434FE7F
:103860000BC032FC09C0832D8E7EA82E05C0B82C5B
:10387000A32C03C0B82C01C0B92CA4FE0FC0FE01BC
:10388000E80DF11D8081803321F49A2D997EA92EB7
:1038900009C0A2FE06C0B394B39404C08A2D8678F2
:1038A00009F0B394A3FC11C0A0FE06C0B21488F4C2
:1038B000280C922C9B180EC0B21460F4B60180E262
:1038C00090E00E94C91CB394F7CFB21418F42B18DF
:1038D00002C0982C212CA4FE10C0B60180E390E019
:1038E0000E94C91CA2FE17C0A1FC03C088E790E09B
:1038F00002C088E590E0B6010CC08A2D867859F0A8
:10390000A1FE02C08BE201C080E2A7FC8DE2B601FD
:1039100090E00E94C91C891438F4B60180E390E05D
:103920000E94C91C9A94F7CF8A94F301E80DF11D07
:103930008081B60190E00E94C91C8110F5CF222041
:1039400009F442CEB60180E290E00E94C91C2A949C
:10395000F6CFF6018681978102C08FEF9FEF2B96FD
:10396000E2E10C94621AFC01059061507040011074
:10397000D8F7809590958E0F9F1F0895FC01615098
:10398000704001900110D8F7809590958E0F9F1F81
:1039900008950F931F93CF93DF93FB01238121FDA4
:1039A00003C08FEF9FEF2CC022FF16C046815781C6
:1039B000248135814217530744F4A081B1819D01D0
:1039C0002F5F3F4F318320838C93268137812F5F78
:1039D0003F4F3783268314C08B01EC01FB01008429
:1039E000F185E02D0995892BE1F6D80116968D9188
:1039F0009C911797019617969C938E931697CE01DC
:103A0000DF91CF911F910F910895FA01AA272830D5
:103A100051F1203181F1E8946F936E7F6E5F7F4F9B
:103A20008F4F9F4FAF4FB1E03ED0B4E03CD0670F17
:103A3000781F891F9A1FA11D680F791F8A1F911D6A
:103A4000A11D6A0F711D811D911DA11D20D009F4BA
:103A500068943F912AE0269F11243019305D3193FC
:103A6000DEF6CF010895462F4770405D4193B3E0E5
:103A70000FD0C9F7F6CF462F4F70405D4A3318F08C
:103A8000495D31FD4052419302D0A9F7EACFB4E03D
:103A9000A6959795879577956795BA95C9F70097F5
:103AA0006105710508959B01AC010A2E0694579596
:103AB000479537952795BA95C9F7620F731F841FED
:0A3AC000951FA01D0895F894FFCF94
:103ACA00600160010A00140013001700140064006A
:103ADA006400C80049053D053105250519050D0590
:103AEA000105F504DD04D104C504B904AD04A1043B
:103AFA00950489047D047104E904650459044D049C
:103B0A004104350429041D0411040504F903ED03D5
:103B1A00E103D503C9030000FFFFFFFF0000000017
:103B2A00A60161018B01F301DD02BB02CF02000095
:103B3A0000005C066101F208F10800000000FA02C8
:103B4A00B608F208F902A8088D0867086761733198
:103B5A000067617332006761733300676173340011
:103B6A006761733176616C7565006761733276617E
:103B7A006C7565006761733376616C7565006761A2
:103B8A00733476616C75650073656E64006231002A
:103B9A006564697454726573007472657331007474
:103BAA0072657332007472657333007472657334AC
:103BBA000073656E64547265730063616E63656C4D
:103BCA00006131006132006F6B00646F74006261E2
:103BDA00636B00623000623200623300623400625A
:103BEA003500623600623700623800623900626B63
:103BFA00636D643D310070616765203000736967E9
:103C0A006E616C2E76616C3D25690070302E70698C
:103C1A00633D256900676173256976616C75652E58
:103C2A007478743D2225692C256922006761732501
:103C3A006976616C75652E7478743D222569220057
:103C4A0067617356616C75652E7478743D222569B7
:103C5A002C2569220067617356616C75652E74782C
:103C6A00743D2225692C220067617356616C756563
:103C7A002E7478743D222569220061312E7478747D
:103C8A003D2225692C2569220061312E7478743D04
:103C9A002225692C220061312E7478743D2225690F
:103CAA00220061322E7478743D2225692C256922FE
:103CBA000061322E7478743D2225692C220061320B
:0A3CCA002E7478743D222569220053
:00000001FF
