:100000000C9430010C94170B0C94F00A0C94DB0345
:100010000C94DB030C94DB030C9458010C945801F2
:100020000C9458010C9458010C9458010C945801EC
:100030000C9458010C9458010C9458010C945801DC
:100040000C94490E0C9458010C94640B0C943E0BC8
:100050000C9458010C9458010C9458010C945801BC
:100060000C9458010C94580100407A10F35A00A0E7
:10007000724E18090010A5D4E80000E87648170071
:1000800000E40B54020000CA9A3B000000E1F505B1
:10009000000080969800000040420F000000A086FB
:1000A00001000000102700000000E803000000002D
:1000B0006400000000000A000000000001000000D1
:1000C00000002C76D888DC674F0823DFC1DFAE59EB
:1000D000E1B1B796E5E3E453C63AE651997696E87E
:1000E000E6C28426EB898C9B62ED407C6FFCEFBC02
:1000F0009C9F40F2BAA56FA5F490055A2AF75C932D
:100100006B6CF9676DC11BFCE0E40D47FEF520E662
:10011000B500D0ED902E0300943577050080841E45
:10012000080000204E0A000000C80C333333330FA0
:10013000986E12831141EF8D2114893BE65516CF3D
:10014000FEE6DB18D1844B381BF77C1D901DA4BB49
:10015000E424203284725E228100C9F124ECA1E5FE
:100160003D27676173546578742E7478743D22431B
:1001700048342200676173546578742E7478743D36
:10018000224F322200676173546578742E7478743C
:100190003D22434F2200676173546578742E747852
:1001A000743D2249425554220067302E7478743DC4
:1001B0002253656E742065786563757465642200EA
:1001C0006572726F724D6573736167652E747874B2
:1001D0003D22446563696D616C20697320616C72B6
:1001E00065616479207365742E220022006C61744D
:1001F00069747564652E7478743D220022006C6FFA
:100200006E6769747564652E7478743D2200000011
:100210000000240027002A0000000000250028001C
:100220002B00040404040404040402020202020277
:1002300003030303030301020408102040800102AA
:100240000408102001020408102000000008000229
:100250000100000304070000000000000000B912C4
:1002600011241FBECFEFD8E0DEBFCDBF12E0A0E06B
:10027000B1E0E4E9F6E302C005900D92A637B107BC
:10028000D9F727E0A6E7B2E001C01D92A434B20777
:10029000E1F711E0C0E3D1E004C02197FE010E9424
:1002A0007F18CF32D107C9F70E94AC0E0C94481BBF
:1002B0000C940000FC01918D828D981761F0828D65
:1002C000DF01A80FB11D5D968C91928D9F5F9F738A
:1002D000928F90E008958FEF9FEF0895FC01918D2C
:1002E000828D981731F0828DE80FF11D858D90E099
:1002F00008958FEF9FEF0895FC01918D228D892F36
:1003000090E0805C9F4F821B91098F73992708951D
:1003100080E090E0892B29F00E94750A81110C94ED
:10032000000008958FB7F894809180028FBF0895E0
:100330000895CF93DF931F92CDB7DEB76983DC01B9
:10034000ED91FC910280F381E02D41E050E0BE018F
:100350006F5F7F4F09950F90DF91CF9108958EBD0C
:1003600000000DB407FEFDCF8EB508958FEF0C94FD
:10037000AF018CBD9DBD0895089580E090E0089583
:100380000F931F93CF93DF93EB010E943D0E8B01E0
:100390000E94B6018F3F49F00E943D0E601B710B19
:1003A0006C177D07A8F380E001C081E0DF91CF9159
:1003B0001F910F91089561E0FC0184810E947A0DE4
:1003C000809181028111109281020895CF93DF9371
:1003D000EC018E81882389F08F8198859C012F5FA5
:1003E0003F4F38872F838230924018F40E94B60125
:1003F000F3CFCE010E94DB011E82DF91CF910895E1
:100400008F929F92AF92BF92FF920F931F93CF93C1
:10041000DF93EC01F62E49015A010E94E60180911A
:100420008102811109C081E0809381028091A3053E
:100430009091A4050E94B90160E08C810E947A0D20
:100440006CE271E0CE010E94C0018F2D80640E9499
:10045000AF0108E110E0D501C401002E04C0B6953B
:10046000A795979587950A94D2F70E94AF010850F7
:100470001109083F8FEF180771F7FF2029F088E076
:10048000F81204C087E803C085E901C08FEF0E941D
:10049000AF0110E00E94B6018A8787FF04C01F3FAA
:1004A00011F01F5FF7CFDF91CF911F910F91FF9058
:1004B000BF90AF909F908F900895EF92FF920F930F
:1004C0001F93CF93DF93EC0179014115510561052D
:1004D000710511F482E13CC08B85833039F089E0ED
:1004E000440F551F661F771F8A95D1F79A01AB01FC
:1004F00068E1CE010E940002882311F084E028C048
:100500008EEF0E94AF0187018EEFF81AF8018191FA
:100510008F010E94AF01E016F106C1F78FEF0E9434
:10052000AF018FEF0E94AF010E94B6018A878F71E1
:10053000853031F081E18D83CE010E94DB0109C05D
:1005400068E572E0CE010E94C001811107C085E11B
:100550008D83CE010E94DB0180E014C020E030E0FA
:10056000A9016DE0CE010E940002811109C00E9424
:10057000B601811105C0CE010E94DB0181E002C0FD
:1005800084E1E6CFDF91CF911F910F91FF90EF9023
:10059000089580918202882389F140910001509151
:1005A0000101609102017091030127E832E080E0CF
:1005B00090E00E945D02811102C080E008954091A8
:1005C00083025091840260918502709186024115E8
:1005D00051056105710581F027E832E080E090E087
:1005E0000E945D02882349F31092830210928402D4
:1005F00010928502109286021092820281E0089584
:10060000AF92BF92CF92DF92EF92FF921F93CF9360
:10061000DF936B017C01142F809100019091010107
:10062000A0910201B09103018C159D05AE05BF0597
:1006300009F48FC00E94C902882309F490C08091F8
:1006400006008823A1F08091000090910100A09104
:100650000200B0910300C816D906EA06FB0639F479
:100660008091070090910800892B09F443C0C09243
:100670000000D0920100E0920200F092030080910D
:100680000B00A7019601833039F099E0220F331F48
:10069000441F551F9A95D1F761E180E090E00E94D8
:1006A0000002882321F083E08093050044C00E946B
:1006B0003D0EEB010E94B60180930A008F3F49F482
:1006C0000E943D0E6C1B7D0B6D32714098F38FE0E4
:1006D00003C08E3F41F08DE08093050080E090E004
:1006E0000E94DB0128C0109208001092070081E0F0
:1006F00080930600C7E8D2E087E8A82E84E0B82EF1
:100700000E94B6018993AC16BD06D1F7809107000F
:10071000909108009E5F90930800809307002091BD
:100720000900222319F08115924058F080E090E0F2
:100730000E94E60106C080E090E00E94DB0180E0BC
:100740000EC0C0920001D0920101E0920201F0922D
:10075000030140918202412B4093820281E0DF91AC
:10076000CF911F91FF90EF90DF90CF90BF90AF900F
:100770000895FC01848DDF01A80FB11DA35ABF4F5E
:100780002C91848D90E001968F739927848FA68990
:10079000B7892C93A089B1898C91837080648C93E4
:1007A000938D848D981306C00288F389E02D808193
:1007B0008F7D808308951F920F920FB60F921124A0
:1007C0000F900FBE0F901F9018954F925F926F92EF
:1007D0007F928F929F92AF92BF92CF92DF92EF92D1
:1007E000FF920F931F93CF93DF93EC01423051059B
:1007F0006105710510F480E078C089859A85AB8524
:10080000BC850196A11DB11D84179507A607B707E2
:1008100090F3CB88DC88ED88FE888F89803129F4BD
:10082000BB27A72F962F852F09C0DB01CA01E7E060
:10083000B695A79597958795EA95D1F748015901FF
:100840002A013B01C80ED91EEA1EFB1E8091000141
:1008500090910101A0910201B0910301C816D9063F
:10086000EA06FB0681F48F898031A9F4B301A20165
:10087000552766277727440F551FFA01E957FD4F83
:100880009182808219C040E0C701B6010E94000336
:100890008111E9CFB0CFB301A2014F775527662769
:1008A0007727440F551F440F551FFA01E957FD4F95
:1008B00080829182A282B382809182028160809341
:1008C00082028A89823080F08D819E81AF81B885D5
:1008D000C80ED91EEA1EFB1EC0928302D09284026B
:1008E000E0928502F092860281E0DF91CF911F9124
:1008F0000F91FF90EF90DF90CF90BF90AF909F90BF
:100900008F907F906F905F904F9008958F929F92FD
:10091000AF92BF92CF92DF92EF92FF920F931F930D
:10092000CF93DF93FC0181859285A385B4850196E1
:10093000A11DB11D84179507A607B70710F480E025
:100940005BC083889488A588B6888789803129F41C
:10095000BB27A72F962F852F09C0DB01CA01C7E04F
:10096000B695A79597958795CA95D1F7E9016A013C
:100970007B018F01BC01CD01680D791D8A1D9B1D76
:100980008090000190900101A0900201B0900301BD
:10099000681579058A059B0591F4F80187898031EE
:1009A000A1F4DD24EE24FF24C601880F991FFC0169
:1009B000E957FD4F80819181A0E0B0E018C040E090
:1009C0000E9400038111E9CFBACFE894C7F8DD2473
:1009D000EE24FF24C601880F991F880F991FFC0180
:1009E000E957FD4F80819181A281B381BF708883D7
:1009F0009983AA83BB8381E0DF91CF911F910F91EF
:100A0000FF90EF90DF90CF90BF90AF909F908F902E
:100A100008954F925F926F927F92AF92BF92CF9262
:100A2000DF92EF92FF920F931F93CF93DF9300D04B
:100A300000D01F92CDB7DEB78C016D83DC01159617
:100A40008C911597813009F054C014968C9181FFD8
:100A500050C057C0258530E0275F3F4F2A013B013A
:100A6000B1E04B1A510861087108022E04C0769457
:100A70006794579447940A94D2F7D701C601019717
:100A8000A109B10904C0B695A795979587952A95B0
:100A9000D2F784159505A605B70508F076C0F801CC
:100AA0004789508D618D728D46835783608771872A
:100AB0002C013D015801F6E0AF0EB11C4114510468
:100AC0006104710409F46BC0D80116964D915D91D3
:100AD0006D917C91199795015B968D919C915C9796
:100AE0000E948604B1E04B1A510861087108811117
:100AF000E5CF81E090E0F8019383828380E090E08D
:100B00005BC182FF0EC0F8014285538564857585FF
:100B1000C388D488E588F6884C155D056E057F0589
:100B2000E9F4D8011A964D915D916D917C911D97D4
:100B30005B96ED91FC915C97948191506A017B01E9
:100B400089E0F694E794D794C7948A95D1F79C21CD
:100B50007A01B1E0FB22911173C027C0D801038C48
:100B6000F48DE02DC114D104E104F10409F072CF39
:100B700016961D921D921D921C9219971A961D92FF
:100B80001D921D921C921D9714C0452B462B472B7E
:100B900009F485CF84199509A609B70989CFF80109
:100BA000C286D386E486F586BCCFE114F10409F051
:100BB00047C0D80116964D915D916D917C91199722
:100BC000411551056105710559F457968D919D9117
:100BD0000D90BC91A02D0097A105B10549F522C04B
:100BE0009E012F5F3F4FCF010E948604882309F4A6
:100BF00085CF89819A81AB81BC81F801238D348DA9
:100C0000F9012789203129F448EF5FEF60E070E0B7
:100C100004C048EF5FEF6FEF7FE084179507A607EA
:100C2000B70730F0C8010E94770C811106C061CF70
:100C3000F80186839783A087B187E12CF12C90E09F
:100C4000D8015B96ED91FC915C9716964D905D9066
:100C50006D907C901997B2E04B1A510861087108A9
:100C6000058404C0440C551C661C771C0A94D2F7FA
:100C70004685578560897189440E551E661E771E0C
:100C8000490E511C611C711CE114F10409F5F801B5
:100C9000428553856485758583899489A589B6893C
:100CA000481759076A077B0798F00E94C9028823F2
:100CB00009F41FCF4092000150920101609202019D
:100CC000709203018091820281608093820208C049
:100CD00041E0C301B2010E940003882309F409CF57
:100CE000F701E957FD4F8D818083F8018285938557
:100CF000A485B5850196A11DB11D82879387A48720
:100D0000B5874389548965897689481759076A07E1
:100D10007B0738F4838B948BA58BB68B848180689A
:100D20008483D80114968C9183FD03C081E090E008
:100D300043C0F8019581992309F4DBCE87FF37C0C2
:100D4000668577858089918941E00E940003882328
:100D500009F4CFCED8015296EC91B0E2EB9FF001AE
:100D60001124E957FD4F309709F4C3CED8011596E9
:100D70008C911597823050F453964D915D916D9101
:100D80007C915697448F558F668F778FD8015796F1
:100D90004D915D916D917C915A97538F428F758BD8
:100DA000648B14968C9114978F7714968C930E9471
:100DB000C9028111BBCF9DCE0F900F900F900F9065
:100DC0000F90DF91CF911F910F91FF90EF90DF90E7
:100DD000CF90BF90AF907F906F905F904F900895AD
:100DE0000F931F93CF93DF93EC01062F142F60E036
:100DF00088890E947A0D8C859D850E94B901802F7B
:100E00000E94AF01812F0E94AF01182F61E08889F5
:100E10000E947A0D812FDF91CF911F910F9108953C
:100E20006F7740E00C94F0060F931F93CF93DF93FE
:100E3000EC01E881F9810084F185E02D0995892B89
:100E400091F06DE0CE010E941007082F60E0CE0106
:100E50000E941007182F402F6DE8CE010E94F00667
:100E6000812F90E002C08FEF9FEFDF91CF911F9114
:100E70000F910895CF93DF93EC01E881F98100840D
:100E8000F185E02D0995892B59F08A8D9B8D01966E
:100E90009B8F8A8F60E0CE010E94100790E002C015
:100EA0008FEF9FEFDF91CF910895CF93DF93EC0108
:100EB00063E10E94100790E02A8D3B8D821B930B0B
:100EC000DF91CF910895AF92BF92CF92DF92FF92C0
:100ED0000F931F93CF93DF936C015B01EA0162E2F2
:100EE0000E941007F82E90E09C012C0F3D1F2F3F11
:100EF000310529F020F0CFEFD0E0C81BD90B8501D8
:100F0000AC0EBD1E0A151B0541F0F80141918F0181
:100F100060E8C6010E94F006F5CF4C2F4F0D62EA43
:100F2000C6010E94F006CE01DF91CF911F910F9173
:100F3000FF90DF90CF90BF90AF9008950E94E30B99
:100F40000E94E30B0C94E30B6F927F928F929F921F
:100F5000AF92BF92CF92DF92EF92FF920F931F93C7
:100F6000CF93DF9389E8E82E84E0F82E91E9892E6B
:100F700094E0992EC1E0D0E023E8622E21E0722EA9
:100F800009E914E03AE0A32EB12C4CE6C42E41E06E
:100F9000D42EF701819191917F01F401029701F51F
:100FA00080819181B5010E9457189F938F937F9301
:100FB0006F93DF93CF93DF92CF921F930F930E9493
:100FC000951889E994E00E94E80B0E949E07EDB70E
:100FD000FEB73A960FB6F894FEBF0FBEEDBF1AC02B
:100FE00081818F9380818F93DF93CF937F926F92D4
:100FF0001F930F930E94951889E994E00E94E80BD3
:101000000E949E07EDB7FEB738960FB6F894FEBF64
:101010000FBEEDBF2196F2E08F0E911CC530D105B9
:1010200009F0B7CF10927F0210927E02DF91CF912C
:101030001F910F91FF90EF90DF90CF90BF90AF90F6
:101040009F908F907F906F900895E1E9F4E0A6E77C
:10105000B2E08D919C9111979183808312968D912E
:101060009C9113979383828314968D919C911597ED
:10107000958384830C94A407CF92DF92EF92FF9222
:101080000F931F93CF93DF938091910490919204DB
:1010900090937702809376028091930490919404C8
:1010A00090937902809378028091950490919604B0
:1010B00090937B0280937A020E94A40701E914E0D6
:1010C00089E8E82E84E0F82EC0E0D0E0F8016081E5
:1010D000CE010E941218F80161810E5F1F4FCE01F0
:1010E00001960E941218F7016081F2E0EF0EF11CE8
:1010F000CE0102960E9412182396CC30D10531F70A
:10110000DF91CF911F910F91FF90EF90DF90CF90E3
:101110000895E0917E02F0917F023197EE0FFF1F5C
:10112000DF01A757BB4F8D919C91EF56FB4F82304B
:10113000910509F5808191816AE070E00E9457185D
:101140009F938F937F936F9387E991E09F938F9302
:1011500089E994E09F938F930E94951889E994E020
:101160000E94E80B8DB79EB708960FB6F8949EBF05
:101170000FBE8DBF21C0019739F481818F9380818B
:101180008F938CEA91E006C081818F9380818F9349
:101190008FEB91E09F938F9389E994E09F938F93D6
:1011A0000E94951889E994E00E94E80B0F900F9037
:1011B0000F900F900F900F900C949E0780917E02DD
:1011C00090917F020197880F991FFC01E757FB4F11
:1011D000208131812230310529F421E030E0318352
:1011E000208306C02130310519F4118210820BC012
:1011F000FC01EF56FB4F808191816AE070E00E9414
:101200005718718360830C948908E0917E02F091F5
:101210007F023197EE0FFF1FDF01A757BB4F2D91C4
:101220003C9111972230310539F480EC91E00E9415
:10123000FA0B0E949E0715C02130310521F422E0EF
:1012400030E02D933C93EF56FB4F408151816AE093
:10125000649F9001659F300D1124820F931F91832D
:1012600080830C94890889E090E00C94050988E05B
:1012700090E00C94050987E090E00C94050986E065
:1012800090E00C94050985E090E00C94050984E059
:1012900090E00C94050983E090E00C94050982E04D
:1012A00090E00C94050981E090E00C94050980E041
:1012B00090E00C940509E0917E02F0917F02EE0F20
:1012C000FF1FE957FB4F80819181892B39F080EC1A
:1012D00091E00E94FA0B0E949E0704C081E090E01A
:1012E000918380830C948908CF92DF92EF92FF92D2
:1012F0000F931F93CF93DF9389EA91E00E94FA0B3B
:101300000E949E070BE010E00150110909F472C021
:1013100041E861E885EA95E00E94F0060E94150C1C
:1013200040E06DE885EA95E00E94F00640E062EA60
:1013300085EA95E00E94F0066BEB85EA95E00E9455
:101340009901C1E9D4E089E8E82E84E0F82E6E0125
:10135000688185EA95E00E9499012296F6016181F3
:1013600085EA95E00E949901F7016081F2E0EF0EB5
:10137000F11C85EA95E00E94990184E0C939D807FB
:1013800031F743E861E885EA95E00E94F00662E102
:1013900085EA95E00E94100783FFF9CF48E062E9F3
:1013A00085EA95E00E94F00662E370E080E090E05C
:1013B0000E94030E0E94250C892B09F4A5CFC0E0E2
:1013C00085EA95E00E945507892B21F4CC2309F486
:1013D0009BCF10C085EA95E00E943A078C3B9105AF
:1013E00079F785EA95E00E943A078F3F910541F72A
:1013F000C1E0E6CFDF91CF911F910F91FF90EF9069
:10140000DF90CF90089584E090E090937F028093E6
:101410007E0286E991E00E94FA0B0E949E070C94DE
:10142000890883E090E090937F0280937E0285E8B4
:1014300091E00E94FA0B0E949E070C94890882E0BA
:1014400090E090937F0280937E0284E791E00E9477
:10145000FA0B0E949E070C94890881E090E090931B
:101460007F0280937E0282E691E00E94FA0B0E9446
:101470009E070C9489080895CF92DF92EF92FF9215
:101480000F931F93CF93DF936C017A018B01C0E020
:10149000D0E0CE15DF0581F0D8016D918D01D60128
:1014A000ED91FC910190F081E02DC6010995892B09
:1014B00011F02196EECF7E01C701DF91CF911F91F0
:1014C0000F91FF90EF90DF90CF900895FC01538D26
:1014D000448D252F30E0842F90E0821B930B54170E
:1014E00010F0CF9608950197089586E095E00E9448
:1014F0007C0121E0892B09F420E0822F08950E94CD
:101500008518EF92FF920F931F93CF93DF93EC0117
:1015100081E0888F9B8D8C8D981305C0E889F989AF
:10152000808185FD26C0F62E0B8D10E00F5F1F4FCA
:101530000F731127E02E8C8DE8120CC00FB607FC3C
:10154000FACFE889F989808185FFF5CFCE010E9425
:10155000B903F1CF8B8DFE01E80FF11DE35AFF4F68
:10156000F0829FB7F8940B8FEA89FB8980818062B3
:101570000AC09FB7F894EE89FF896083E889F989EA
:1015800080818370806480839FBF81E090E0DF91E1
:10159000CF911F910F91FF90EF900895CF93DF931C
:1015A000EC01888D8823C9F0EA89FB89808185FD5B
:1015B00005C0A889B9898C9186FD0FC00FB607FCBC
:1015C000F5CF808185FFF2CFA889B9898C9185FFFD
:1015D000EDCFCE010E94B903E7CFDF91CF910895FF
:1015E0001F920F920FB60F9211242F933F934F9398
:1015F0005F936F937F938F939F93AF93BF93EF937B
:10160000FF93E0910601F09107010995FF91EF9199
:10161000BF91AF919F918F917F916F915F914F910A
:101620003F912F910F900FBE0F901F9018951F9212
:101630000F920FB60F9211242F933F934F935F9306
:101640006F937F938F939F93AF93BF93EF93FF938A
:10165000E0910401F09105010995FF91EF91BF918F
:10166000AF919F918F917F916F915F914F913F913A
:101670002F910F900FBE0F901F9018951F920F92F1
:101680000FB60F9211242F933F934F935F936F9355
:101690007F938F939F93AF93BF93EF93FF9386E0D6
:1016A00095E00E94B903FF91EF91BF91AF919F9197
:1016B0008F917F916F915F914F913F912F910F90FB
:1016C0000FBE0F901F9018951F920F920FB60F929A
:1016D00011242F938F939F93EF93FF93E09116051F
:1016E000F09117058081E0911C05F0911D0582FDA8
:1016F00012C0908180911F058F5F8F73209120050C
:10170000821751F0E0911F05F0E0EA5FFA4F958FE4
:1017100080931F0501C08081FF91EF919F918F9170
:101720002F910F900FBE0F901F9018953FB7F89410
:101730008091400790914107A0914207B0914307E3
:1017400026B5A89B05C02F3F19F00196A11DB11D1C
:101750003FBFBA2FA92F982F8827820F911DA11D57
:10176000B11DBC01CD0142E0660F771F881F991F94
:101770004A95D1F70895E6E0F5E0A089B18982E0C5
:101780008C93A485B5851C92A685B7858FEC8C9328
:10179000108EA489B58986E08C93A289B3898C9137
:1017A00080618C93A289B3898C9188608C93A28983
:1017B000B3898C9180688C930288F389E02D8081B5
:1017C0008F7D808308956FEF86E095E00C94810A09
:1017D000009769F0FC0101900020E9F73197AF0113
:1017E000481B590BBC0186E095E00C943C0A80E054
:1017F00090E008950F931F93CF93DF938C01C0E087
:10180000D0E0F801EC0FFD1F6491662341F086E003
:1018100095E00E94810A892B11F02196F2CFCE012A
:10182000DF91CF911F910F9108951092C2051092F0
:10183000C1056DE185EA95E00E941007482F4E7FB3
:101840006DE985EA95E00C94F006CF93DF9362E1B1
:1018500085EA95E00E941007C82F0E94150C4C2FB6
:1018600062E985EA95E00E94F006C6FF27C0C5FD43
:1018700025C01092C0051092BF058091C1059091BE
:10188000C205892B11F062E201C063E185EA95E0AF
:101890000E941007C82FD0E060E185EA95E00E9421
:1018A0001007482F6DE885EA95E00E94F00641E8B0
:1018B00061E885EA95E00E94F00615C061E085EADE
:1018C00095E00E941007863861F040E06DE885EAF7
:1018D00095E00E94F00646E861E885EA95E00E94FE
:1018E000F006C0E0D0E0CE01DF91CF9108953F92A5
:1018F0004F925F926F927F928F929F92AF92BF9220
:10190000CF92DF92EF92FF920F931F93CF93DF93CB
:10191000CDB7DEB72C970FB6F894DEBF0FBECDBFA4
:101920005C01DC015B968D909C905C971696CD9047
:10193000DD90ED90FC901997C114D104E104F104FD
:1019400039F0BFEFCB1ADB0AEB0AFB0A312C07C0D8
:10195000F401C080D180E280F38033243394F40119
:1019600081859285A385B4859C01AD012F5F3F4F92
:101970004F4F5F4F29873A874B875C872601370196
:101980001D821E821F821886F40181859285A3859F
:10199000B4852D813E814F815885281739074A0724
:1019A0005B0708F063C089859A85AB85BC858C157B
:1019B0009D05AE05BF0550F482E0C82ED12CE12C68
:1019C000F12C92E0492E512C612C712C9E012F5F3D
:1019D0003F4FB701A601C4010E948604882309F481
:1019E00045C089819A81AB81BC81892B8A2B8B2B45
:1019F00041F0260137019FEF491A590A690A790A0D
:101A000005C0C414D504E604F70491F02D813E818D
:101A10004F8158852F5F3F4F4F4F5F4F2D833E8340
:101A20004F8358873FEFC31AD30AE30AF30AACCFB8
:101A30000FEF1FEF2FEF3FE0B301A201C4010E949F
:101A4000E503882399F0D50116964D915D916D912E
:101A50007C911997411551056105710549F0930174
:101A60008201C4010E94E503811102C080E02AC006
:101A7000D50116964D925D926D927C921997332006
:101A800051F0D301C2010196A11DB11DF401808363
:101A90009183A283B383F5018789908DA18DB28D47
:101AA000892B8A2B8B2B69F4D50157964D925D9229
:101AB0006D927C925A9714968C9114978068149624
:101AC0008C9381E02C960FB6F894DEBF0FBECDBF8D
:101AD000DF91CF911F910F91FF90EF90DF90CF900A
:101AE000BF90AF909F908F907F906F905F904F903E
:101AF0003F90089590E0FC01E65BFD4F2491FC01CE
:101B0000EA5CFD4F3491FC01EE5DFD4FE491EE2364
:101B100009F43CC0222339F1233091F038F421300C
:101B2000A9F0223001F584B58F7D12C0273091F0E5
:101B30002830A1F02430B9F4809180008F7D03C05B
:101B4000809180008F77809380000DC084B58F775F
:101B500084BD09C08091B0008F7703C08091B00030
:101B60008F7D8093B000F0E0EE0FFF1FE85EFD4F29
:101B7000A591B4919FB7F894611104C08C913095F0
:101B8000382302C0EC913E2B3C939FBF0895CF9326
:101B9000DF9390E0FC01EA5CFD4F2491FC01EE5DD7
:101BA000FD4F8491882361F190E0880F991FFC011B
:101BB000E25FFD4FC591D491FC01E85EFD4FA59118
:101BC000B491611109C09FB7F89488812095822350
:101BD0008883EC912E230BC0623061F49FB7F89498
:101BE0008881322F309583238883EC912E2B2C9380
:101BF0009FBF06C08FB7F894E8812E2B28838FBF34
:101C0000DF91CF9108958F929F92AF92BF92CF9222
:101C1000DF92EF92FF926B017C010E94960B4B01C9
:101C20005C01C114D104E104F104F1F00E94960BAF
:101C3000DC01CB0188199909AA09BB09883E9340A8
:101C4000A105B10570F321E0C21AD108E108F1083D
:101C500088EE880E83E0981EA11CB11CC114D1042B
:101C6000E104F10419F7DDCFFF90EF90DF90CF9002
:101C7000BF90AF909F908F9008952FB7F894609188
:101C80003C0770913D0780913E0790913F072FBF21
:101C900008951F920F920FB60F9211242F933F9326
:101CA0008F939F93AF93BF9380913C0790913D0793
:101CB000A0913E07B0913F0730913B0723E0230FEF
:101CC0002D3720F40196A11DB11D05C026E8230F74
:101CD0000296A11DB11D20933B0780933C07909372
:101CE0003D07A0933E07B0933F0780914007909136
:101CF0004107A0914207B09143070196A11DB11D74
:101D00008093400790934107A0934207B093430705
:101D1000BF91AF919F918F913F912F910F900FBEE7
:101D20000F901F901895CF93DF93EC0186E095E01C
:101D30000E947C01892B29F086E095E00E945A01DF
:101D4000F5CFCE010E94E80B0E94E30B0E94E30B4B
:101D5000DF91CF910C94E30B789484B5826084BDBD
:101D600084B5816084BD85B5826085BD85B581609F
:101D700085BD80916E00816080936E00109281001D
:101D800080918100826080938100809181008160D8
:101D90008093810080918000816080938000809199
:101DA000B10084608093B1008091B0008160809325
:101DB000B00080917A00846080937A0080917A00EC
:101DC000826080937A0080917A00816080937A00AB
:101DD00080917A00806880937A001092C1000E94FE
:101DE000BB0B8AE090E09093B6058093B50589E03F
:101DF00090E09093B8058093B70582E090E09093CF
:101E0000BA058093B90561E08AE00E94C70D61E0E0
:101E10008091B5050E947A0D8091B7059091B80523
:101E20008F3F2FEF9207C9F061E00E94C70D60E07D
:101E30008091B7050E947A0D6AE070E080E090E042
:101E40000E94030E61E08091B7050E947A0D6AE05E
:101E500070E080E090E00E94030ECFB7F89480918C
:101E6000E904811127C0ECE2F2E08491E0E4F2E0C1
:101E70009491E82FF0E0EE0FFF1FE25FFD4FA59178
:101E8000B491EC91E92321F461E08AE00E947A0D9B
:101E900061E08AE00E94C70D8CB580618CBD8CB575
:101EA00080648CBD61E08DE00E94C70D61E08BE035
:101EB0000E94C70D8091E9048F5F8093E904CFBF32
:101EC00062E485EA95E00E941007823109F08FC133
:101ED00040E861E885EA95E00E94F00680E091EA3A
:101EE000ACEBB3E38093BB059093BC05A093BD0519
:101EF000B093BE0549ED66E885EA95E00E94F006DC
:101F000040E067E885EA95E00E94F00640E068E876
:101F100085EA95E00E94F00640E06EE885EA95E0EB
:101F20000E94F00640E06FE885EA95E00E94F00626
:101F30006CE085EA95E00E941007482F43606CE84A
:101F400085EA95E00E94F00644E066EA85EA95E0BD
:101F50000E94F0064FE869E885EA95E00E94F006E5
:101F600041E861E885EA95E00E94F00660E083E0E0
:101F70000E94C70D60E084E00E94C70D60E085E02C
:101F80000E94C70D60E083E10E94C70D60E08EE013
:101F90000E94C70D61E08FE00E94C70D0E94BB0B3D
:101FA0008EEB91E00E94930E81ED91E00E94930EE2
:101FB0000E94C81489ED91E00E94930E0E94C814FB
:101FC0006DE27AE07093E2066093E10689ED96E0B7
:101FD0009093E4068093E3064FE15AE05093D606CF
:101FE0004093D5068DEC96E09093D8068093D70663
:101FF00021E13AE03093CA062093C90681EC96E0CD
:102000009093CC068093CB0683E09AE09093BE0633
:102010008093BD06E5EBF6E0F093C006E093BF06C3
:102020007093B2066093B10669EA76E07093B406E5
:102030006093B3065093A6064093A5064DE956E07B
:102040005093A8064093A70630939A0620939906CA
:1020500021E936E030939C0620939B0690938E06F0
:1020600080938D0685E896E09093900680938F0686
:1020700084E799E090937E0680937D0689E796E059
:102080009093800680937F068CE398E090936A0695
:102090008093690681E696E090936C0680936B06C8
:1020A00085E298E090935E0680935D0685E596E074
:1020B0009093600680935F068BE599E090934E06BF
:1020C00080934D0689E496E09093500680934F06E6
:1020D0008EED98E090934206809341068DE396E062
:1020E000909344068093430687E599E090933606E3
:1020F0008093350681E396E0909338068093370607
:1021000083E599E090932A068093290685E296E07C
:1021100090932C0680932B068FE499E090931E06F3
:1021200080931D0689E196E09093200680931F0618
:102130008BE499E090931206809311068DE096E06F
:10214000909314068093130687E499E09093060613
:102150008093050681E096E0909308068093070639
:1021600083E499E09093FA058093F90585EF95E073
:102170009093FC058093FB058FE399E09093EE0527
:102180008093ED0589EE95E09093F0058093EF053F
:102190008BE399E09093E2058093E1058DED95E066
:1021A0009093E4058093E30587E399E09093D60547
:1021B0008093D50581ED95E09093D8058093D70560
:1021C00083E399E09093CA058093C90585EC95E077
:1021D0009093CC058093CB05F1E9CF2EF4E0DF2E70
:1021E000A9E8EA2EA4E0FA2EC0E0D0E001C0FFCFBB
:1021F000CE0101960E940A18182FCE010E940A18DB
:10220000212F30E0382BF601219331936F01CE015D
:1022100002960E940A1890E0F701819391937F0142
:102220002396CC30D10521F70E94A40746E0642E06
:1022300045E0742E5EEFA52E54E0B52E65E0862EA7
:10224000912C70EEC72E71E0D72EEEEEEE2EE1E06F
:10225000FE2E86E095E00E947C01181619060CF00F
:1022600047C06AE070E080E090E00E94030E86E0E4
:1022700095E00E945A01C82F853659F786E095E00F
:102280000E947C0106972CF3C093EA04CBEED4E0C5
:1022900086E095E00E945A018993F4E0C13FDF0790
:1022A000B9F71092F1048091EE048F3F91F680917E
:1022B000EF048F3F71F68091F0048F3F51F640910B
:1022C000ED0450E060E070E09091EC042091EB04AC
:1022D000E8E0F1E0A191B191109709F4BACF8C91A7
:1022E0002813F8CF11968C9111979813F3CF1EC134
:1022F0000E94250C892B09F416C183E0282E94E056
:10230000392E25E0422E36E0532E85EA95E00E94D4
:102310005507892B09F407C185EA95E00E943A0721
:102320008C3B910591F70EEF14E0C2E0D5E085EA11
:1023300095E00E943A07F80181938F01F5E00230A1
:102340001F07A9F785EA95E00E943A0789936C1662
:102350007D06C1F76091FE047091FF048091000535
:1023600090910105C0E0D0E08E0127E04CE00E9492
:1023700040156EEF71E089E994E00E946B15BE0193
:1023800089E994E00E948A186CEF71E089E994E091
:102390000E94601589E994E00E94E80B0E949E0764
:1023A00060910205709103058091040590910505E7
:1023B00027E04CE00E9440156DEE71E089E994E061
:1023C0000E946B15BE0189E994E00E948A186BEEA9
:1023D00071E089E994E00E94601589E994E00E9427
:1023E000E80B0E949E078091F6049091F704909369
:1023F000F5048093F4048091F8049091F90490938B
:10240000F7048093F6048091FA049091FB04909372
:10241000F9048093F8048091FC049091FD0490935A
:10242000FB048093FA046AE185EA95E00E941007B4
:10243000C82FD0E06091BB057091BC058091BD05AF
:102440009091BE050E94AB1724E832EF4EE45EE4A3
:102450000E94A41787FD03C08DE990E002C084EAC2
:1024600090E0C81BD90BD093FD04C093FC04E4EFAB
:10247000F4E080E090E021913191820F931FAE163D
:10248000BF06C9F7B4010E9457188B011F936F93C1
:10249000DF92CF92C9E9D4E0DF93CF930E949518E1
:1024A000CE010E94E80B0E949E070F900F900F90A4
:1024B0000F900F900F900B3BEFEF1E0754F01F9201
:1024C0005F92FF92EF92DF93CF930E949518CE0117
:1024D0001FC0023A8FEF18073CF01F924F92FF92F5
:1024E000EF92DF93CF9310C00E381F4F3CF01F9236
:1024F0003F92FF92EF92DF93CF9306C01F922F92ED
:10250000FF92EF92DF93CF930E94951889E994E0B0
:102510000E94E80B0E949E070F900F900F900F9063
:102520000F900F90F2CE0E94880193CE413051055A
:102530006105710561F41496ED91FC911597309742
:1025400009F487CE16968D919C91179710C0452B54
:10255000462B472B09F07DCE1896ED91FC911997EB
:10256000309709F476CE1A968D919C911B97099518
:1025700070CEE6E0F5E01382128288EE93E0A0E0F0
:10258000B0E084839583A683B78380E491E0918350
:10259000808385EC90E09587848784EC90E0978732
:1025A000868780EC90E0918B808B81EC90E0938B20
:1025B000828B82EC90E0958B848B86EC90E0978BFD
:1025C000868B118E128E138E148EE3EAF5E080E571
:1025D00080831182E1EFF6E0158216821186138660
:1025E00042E050E060E070E0448755876687778777
:1025F00013A215A614A622E531E033A722A717A639
:10260000E5EAF5E0138212822EE531E03183208382
:10261000848781E085872AE337E0378726872AE0A9
:1026200030E0318B208B29E030E0338B228B22E0AD
:1026300030E0358B248B168A178A108E118E138EFC
:10264000128E158E148E178E168E14821582168297
:102650001782E5EEF6E01082118228EF31E0338335
:1026600022831582148211861086138612861782A1
:102670001682E9EDF6E0108281832EEF31E033839C
:102680002283158214821186108613861286178281
:102690001682EDECF6E0108262E0618323E032E026
:1026A0003383228315821482118610861386128644
:1026B00017821682E1ECF6E0108253E0518328E0A5
:1026C00032E03383228315821482118610861386AA
:1026D000128617821682E5EBF6E010827FE07183A6
:1026E0002DE032E033832283158214821186108616
:1026F0001386128617821682E9EAF6E0108246E017
:10270000418322E132E033832283158214821186D1
:1027100010861386128617821682EDE9F6E0108283
:1027200037E03183ACE1B2E0B383A2831582148237
:10273000118610861386128617821682E1E9F6E06A
:10274000108228E02183A6E2B2E0B383A28315823F
:102750001482118610861386128617821682E5E887
:10276000F6E0108290E19183A0E3B2E0B383A2830C
:10277000158214821186108613861286178216829D
:10278000E9E7F6E0108299E09183AAE3B2E0B3832F
:10279000A2831582148211861086138612861782F0
:1027A0001682EDE6F6E080831182AFE3B2E0B383F8
:1027B000A2831582148211861086138612861782D0
:1027C0001682E1E6F6E08083ACE0A183A5E4B2E006
:1027D000B383A28315821482118610861386128613
:1027E00017821682E5E5F6E08083AEE0A183A8E4D7
:1027F000B2E0B383A28315821482118610861386F9
:10280000128617821682E9E4F6E080837183AFE4D2
:10281000B2E0B383A28315821482118610861386D8
:10282000128617821682EDE3F6E080837DE07183E5
:10283000A3E5B2E0B383A2831582148211861086C9
:102840001386128617821682E1E3F6E08083818385
:10285000A8E5B2E0B383A2831582148211861086A4
:102860001386128617821682E5E2F6E08083618382
:102870006BE572E073836283158214821186108681
:102880001386128617821682E9E1F6E0808351836F
:102890006EE572E07383628315821482118610865E
:1028A0001386128617821682EDE0F6E0808354E0EC
:1028B000518361E672E0738362831582148211860C
:1028C00010861386128617821682E1E0F6E0808376
:1028D00055E0518364E672E073836283158214824B
:1028E000118610861386128617821682E5EFF5E0B0
:1028F0008083418347E652E05383428315821482EA
:10290000118610861386128617821682E9EEF5E08C
:10291000808331834AE652E05383428315821482D6
:10292000118610861386128617821682EDEDF5E069
:10293000808321832DE632E0338322831582148243
:10294000118610861386128617821682E1EDF5E055
:102950008083918320E732E03383228315821482BF
:10296000118610861386128617821682E5ECF5E032
:1029700080838AE0818383E792E093838283158258
:102980001482118610861386128617821682089585
:102990008F929F92AF92BF92EF92FF920F931F93ED
:1029A000CF93DF9300D000D0CDB7DEB719821A8263
:1029B0001B821C8284E690E0A0E0B0E080930A05D0
:1029C00090930B05A0930C05B0930D058E010F5F3E
:1029D0001F4F7E0185E0E80EF11C0E943D0E6093C2
:1029E0000E0570930F05809310059093110586E0F6
:1029F00095E00E945A0197FF2CC00E943D0E8090E6
:102A00000E0590900F05A0901005B0901105DC0107
:102A1000CB0188199909AA09BB0980900A059090F1
:102A20000B05A0900C05B0900D0588159905AA0519
:102A3000BB05E8F28981813051F48A818F3F39F4F6
:102A40008B818F3F21F481E09C819F3F51F080E09A
:102A500008C0F80181938F01EE16FF0609F0BDCF83
:102A6000E9CF0F900F900F900F90DF91CF911F91B2
:102A70000F91FF90EF90BF90AF909F908F9008952F
:102A8000EF920F931F93CF93DF93E80147FD02C0AE
:102A900034E001C034E1042E000C550B57FF03C095
:102AA000519541955109E32E022F242FAE010E942A
:102AB0007215CE01DF91CF911F910F91EF90089584
:102AC000FB01DC010D900020E9F7119705900D92B4
:102AD0000020E1F70895FB01DC0105900D92002034
:102AE000E1F70895A9E0B0E0E8E7F5E10C942618D5
:102AF0006A01122FB02E2BE3201720F0FF24F3944D
:102B0000F00E02C02CE3F22E0F2D27E0AE014F5F36
:102B10005F4F0E94CC16BC014981842F897081309F
:102B200031F0E1FC06C0E0FE06C090E205C09DE287
:102B300003C09BE201C090E05E2D507143FF3CC09A
:102B4000911102C083E001C084E0811718F4212FA5
:102B5000281B01C020E051110BC0F601822F30E28A
:102B6000882319F031938150FBCFC20ED11C20E095
:102B7000992329F0D6019C93F60131966F01C60185
:102B80000396E2FE0AC03EE4D6013C9341E411966E
:102B90004C93119712963C9306C03EE6F6013083A3
:102BA00041E641833283FC01322F40E2332309F4B2
:102BB00042C041933150FACF42FF44C0911102C04C
:102BC00083E001C084E0811718F4212F281B01C085
:102BD00020E051110BC0F601822F30E2882319F05A
:102BE00031938150FBCFC20ED11C20E0992329F0F4
:102BF000D6019C93F60131966F01C6010396E2FE61
:102C00000BC039E4D6013C933EE411963C931197F6
:102C100036E412963C9307C039E6F60130833EE66F
:102C2000318336E63283FC01322F40E2332319F040
:102C300041933150FBCFFC01E20FF11D10828EEF6A
:102C40009FEFA6C021E030E0911102C020E030E00B
:102C5000161617061CF4FB01319602C0E1E0F0E005
:102C60002E0F3F1FBB2021F0EB2DF0E0319602C06C
:102C7000E0E0F0E02E0F3F1FE12FF0E02E173F07BE
:102C80001CF4121B212F01C020E08E2D887159F4F5
:102C9000F601822F30E2882319F031938150FBCF67
:102CA000C20ED11C20E0992329F0D6019C93F60195
:102CB00031966F0151110BC0F601822F90E38823EA
:102CC00019F091938150FBCFC20ED11C20E00F2D43
:102CD000060F9A81342F307144FF03C0913309F4F9
:102CE0000150101624F4093018F008E001C001E08A
:102CF000AB0177FF02C040E050E0FB01E41BF50BA5
:102D0000A1E0B0E0AC0FBD1FEA0FFB1F8EE2A82EC2
:102D10004B01801A91080B2D10E0119501951109B6
:102D20004F3FBFEF5B0721F4D601AC9211966D01C6
:102D3000641775072CF08416950614F4818101C080
:102D400080E3415051093196D60111967D0140171B
:102D5000510724F0D6018C936701E2CF6417750701
:102D600039F4963320F4953319F4311101C081E31D
:102D7000F6018083F701822F90E2882319F0919366
:102D80008150FBCFF701E20FF11D108280E090E04F
:102D90002996ECE00C944218283008F027E03327FD
:102DA000DA01990F311D87FD91600096610571056B
:102DB00039F432602E5F3D9330E32A95E1F70895B0
:102DC0009F3F30F080387105610509F03C5F3C5F42
:102DD0003D93913008F08068911DDF93CF931F934E
:102DE0000F93FF92EF92192F987F9695E92F969562
:102DF0009695E90FFF27EE53FF4F99273327EE24CF
:102E0000FF24A701E70105900894079428F4360FE2
:102E1000E71EF81E491F511D660F771F881F991F57
:102E20000694A1F70590079428F4E70EF81E491FB1
:102E3000561FC11D770F881F991F661F0694A1F7A3
:102E40000590079428F4F80E491F561FC71FD11D7F
:102E5000880F991F661F771F0694A1F705900794A6
:102E600020F4490F561FC71FD81F990F661F771FE1
:102E7000881F0694A9F784911095177041F0D69594
:102E8000C79557954795F794E7941A95C1F7E8E6E3
:102E9000F0E06894159015913591659195910590A4
:102EA0007FE27395E118F10A430B560BC90BD00969
:102EB000C0F7E10CF11E431F561FC91FD01D7EF441
:102EC000703311F48A95E6CFE894015030F0080F82
:102ED0000AF40027021708F4202F2395022F7A33D3
:102EE00028F079E37D932A95E9F710C07D932A9520
:102EF00089F6069497956795379517951794E11875
:102F0000F10A430B560BC90BD00998F023957E911B
:102F100073957A3308F070E37C932013B8F77E91B1
:102F200070617D9330F0839571E37D9370E32A9512
:102F3000E1F71124EF90FF900F911F91CF91DF9156
:102F4000992787FD909508950E94E61708F481E07F
:102F50000895E89409C097FB3EF49095809570958C
:102F600061957F4F8F4F9F4F9923A9F0F92F96E9D5
:102F7000BB279395F695879577956795B795F1114A
:102F8000F8CFFAF4BB0F11F460FF1BC06F5F7F4FE7
:102F90008F4F9F4F16C0882311F096E911C07723F9
:102FA00021F09EE8872F762F05C0662371F096E802
:102FB000862F70E060E02AF09A95660F771F881FD1
:102FC000DAF7880F9695879597F90895990F000875
:102FD000550FAA0BE0E8FEEF16161706E807F907EB
:102FE000C0F012161306E407F50798F0621B730B86
:102FF000840B950B39F40A2661F0232B242B252B07
:1030000021F408950A2609F4A140A6958FEF811DA9
:10301000811D0895F999FECF92BD81BDF89A992737
:1030200080B50895262FF999FECF1FBA92BD81BDB4
:1030300020BD0FB6F894FA9AF99A0FBE019608953A
:103040002F923F924F925F926F927F928F929F92B8
:10305000AF92BF92CF92DF92EF92FF920F931F93A6
:10306000CF93DF93CDB7DEB7CA1BDB0B0FB6F89457
:10307000DEBF0FBECDBF09942A88398848885F8497
:103080006E847D848C849B84AA84B984C884DF8008
:10309000EE80FD800C811B81AA81B981CE0FD11DEC
:1030A0000FB6F894DEBF0FBECDBFED01089597FBBC
:1030B000072E16F4009407D077FD09D00E946B18F4
:1030C00007FC05D03EF4909581959F4F089570952B
:1030D00061957F4F0895AA1BBB1B51E107C0AA1F32
:1030E000BB1FA617B70710F0A61BB70B881F991FA9
:1030F0005A95A9F780959095BC01CD010895EE0FE2
:10310000FF1F0590F491E02D099481E090E0F89480
:103110000C94481BFB01DC010D900020E9F711978E
:1031200001900D920020E1F70895AEE0B0E0EBE9E8
:10313000F8E10C942E180D891E8986E08C831A8381
:1031400009838FEF9FE79E838D83AE01475E5F4FBC
:103150006F89788DCE0101960E94B718EF81F885AE
:10316000E00FF11F10822E96E4E00C944A18ABE0B9
:10317000B0E0EDEBF8E10C9420186C017B018A01C2
:10318000FC0117821682838181FFCCC1CE0101969A
:103190003C01F6019381F70193FD859193FF8191A5
:1031A0007F01882309F4BAC1853239F493FD8591F2
:1031B00093FF81917F01853229F4B60190E00E944E
:1031C000AE1AE7CF912C212C312CFFE1F315D8F06A
:1031D0008B3279F038F4803279F08332A1F4232DE8
:1031E00020611DC08D3261F0803369F4232D216090
:1031F00016C0832D8260382EE32DE4603E2E2AC057
:10320000F32DF8601DC037FC2DC020ED280F2A30AB
:1032100040F08E32B9F436FC81C1232D2064322E69
:1032200019C036FE06C08AE0989E200D1124922E09
:1032300011C0EAE02E9E200D1124222EF32DF06203
:103240003F2E08C08C3621F4832D8068382E02C0B2
:10325000883641F4F70193FD859193FF81917F01B9
:103260008111B3CF982F9F7D9554933028F40C5F34
:103270001F4F9FE399830DC0833631F0833771F080
:10328000833509F059C021C0F801808189830E5F20
:103290001F4F88248394912C530113C02801F2E01E
:1032A0004F0E511CF801A080B18036FE03C0692D7D
:1032B00070E002C06FEF7FEFC5010E94A31A4C01BE
:1032C0008201F32DFF773F2E16C0280122E0420E27
:1032D000511CF801A080B18036FE03C0692D70E05A
:1032E00002C06FEF7FEFC5010E94981A4C01F32DC9
:1032F000F0683F2E820133FC1BC0822D90E08816BF
:103300009906B0F4B60180E290E00E94AE1A2A94C9
:10331000F4CFF50137FC859137FE81915F01B6014D
:1033200090E00E94AE1A21102A9421E0821A91089E
:103330008114910471F7E8C0843611F0893641F5A3
:10334000F80137FE07C060817181828193810C5F33
:103350001F4F08C060817181072E000C880B990BEC
:103360000E5F1F4FF32DFF763F2E97FF09C09095FC
:103370008095709561957F4F8F4F9F4FF0683F2EDE
:103380002AE030E0A3010E94EA1A882E861845C080
:10339000853731F4232D2F7EB22E2AE030E025C070
:1033A000932D997FB92E8F36C1F018F4883579F0B6
:1033B000B5C0803719F0883721F0B0C0E92FE0613F
:1033C000BE2EB4FE0DC0FB2DF460BF2E09C034FE2E
:1033D0000AC0292F2660B22E06C028E030E005C0C2
:1033E00020E130E002C020E132E0F801B7FE07C082
:1033F00060817181828193810C5F1F4F06C0608163
:10340000718180E090E00E5F1F4FA3010E94EA1AD5
:10341000882E8618FB2DFF773F2E36FE0DC0232DFC
:103420002E7FA22E891458F434FE0BC032FC09C042
:10343000832D8E7EA82E05C0B82CA32C03C0B82CDB
:1034400001C0B92CA4FE0FC0FE01E80DF11D808162
:10345000803321F49A2D997EA92E09C0A2FE06C0C0
:10346000B394B39404C08A2D867809F0B394A3FC76
:1034700011C0A0FE06C0B21488F4280C922C9B1830
:103480000EC0B21460F4B60180E290E00E94AE1A61
:10349000B394F7CFB21418F42B1802C0982C212C37
:1034A000A4FE10C0B60180E390E00E94AE1AA2FE16
:1034B00017C0A1FC03C088E790E002C088E590E057
:1034C000B6010CC08A2D867859F0A1FE02C08BE2AD
:1034D00001C080E2A7FC8DE2B60190E00E94AE1A26
:1034E000891438F4B60180E390E00E94AE1A9A94F1
:1034F000F7CF8A94F301E80DF11D8081B60190E0C9
:103500000E94AE1A8110F5CF222009F442CEB601F6
:1035100080E290E00E94AE1A2A94F6CFF6018681EE
:10352000978102C08FEF9FEF2B96E2E10C943C183D
:10353000FC010590615070400110D8F7809590957E
:103540008E0F9F1F0895FC01615070400190011083
:10355000D8F7809590958E0F9F1F08950F931F9316
:10356000CF93DF93FB01238121FD03C08FEF9FEFFA
:103570002CC022FF16C04681578124813581421715
:10358000530744F4A081B1819D012F5F3F4F3183E8
:1035900020838C93268137812F5F3F4F378326838B
:1035A00014C08B01EC01FB010084F185E02D09952D
:1035B000892BE1F6D80116968D919C91179701966B
:1035C00017969C938E931697CE01DF91CF911F9102
:1035D0000F910895FA01AA27283051F1203181F185
:1035E000E8946F936E7F6E5F7F4F8F4F9F4FAF4F0B
:1035F000B1E03ED0B4E03CD0670F781F891F9A1F1E
:10360000A11D680F791F8A1F911DA11D6A0F711DD1
:10361000811D911DA11D20D009F468943F912AE0DD
:10362000269F11243019305D3193DEF6CF010895C5
:10363000462F4770405D4193B3E00FD0C9F7F6CFF6
:10364000462F4F70405D4A3318F0495D31FD4052BE
:10365000419302D0A9F7EACFB4E0A6959795879554
:1036600077956795BA95C9F7009761057105089533
:103670009B01AC010A2E06945795479537952795DF
:10368000BA95C9F7620F731F841F951FA01D089577
:04369000F894FFCFDC
:10369400FFFFFFFF3B0A3B0AE506D906CD06C1063C
:1036A400B506A9069D069106850679066D0661068E
:1036B400550649063D063106250619060D0601067E
:1036C400F505E905DD05D105C5050000000000008C
:1036D400810A3C0A660ACE0A7C015A016E01000086
:1036E400000009053C0ABD01BC010000000099016D
:1036F4006307BD01980155073A07140767617325ED
:103704006976616C75652E7478743D2225692C2563
:10371400692200676173256976616C75652E74781A
:10372400743D222569220067617356616C75652EAC
:103734007478743D2225692C2569220067617356CB
:10374400616C75652E7478743D2225692C2200679E
:10375400617356616C75652E7478743D22256922F7
:1037640000626B636D643D310070616765203000F9
:103774007369676E616C2E76616C3D2569007030EB
:103784002E7069633D25690070616765300067616B
:10379400733100676173320067617333006761736B
:1037A40034006761733176616C75650067617332EB
:1037B40076616C7565006761733376616C7565005D
:1037C4006761733476616C75650073656E6400704F
:1037D40061676531006F6B0063616E63656C0064E3
:1037E4006F74006261636B006230006231006232A8
:1037F40000623300623400623500623600623700D2
:0638040062380062390089
:00000001FF
